:100000000C9462000C948A000C948A000C94E50213
:100010000C94E5020C94E5020C948A000C948A007E
:100020000C948A000C948A000C948A000C948A0028
:100030000C948A000C948A000C948A000C948A0018
:100040000C949B020C948A000C9469020C94430259
:100050000C948A000C948A000C948A000C948A00F8
:100060000C948A000C948A000000000023002600F3
:10007000290000000008000201000003040700003E
:1000800000000000000000000000250028002B00F8
:1000900000000000240027002A00040404040404D3
:1000A0000404020202020202030303030303010227
:1000B00004081020408001020408102001020408F6
:1000C0001020B80311241FBECFEFD8E0DEBFCDBF94
:1000D00011E0A0E0B1E0EAEDF7E002C005900D927A
:1000E000A032B107D9F721E0A0E2B1E001C01D9232
:1000F000A83CB207E1F710E0C2E6D0E004C02197C7
:10010000FE010E94E503C136D107C9F70E94EF0244
:100110000C94EB030C940000AF92BF92CF92DF924D
:10012000EF92FF920F931F93CF93DF936C017B01AC
:100130008B01040F151FEB015E01AE18BF08C0173D
:10014000D10759F06991D601ED91FC910190F081B0
:10015000E02DC6010995892B79F7C501DF91CF9173
:100160001F910F91FF90EF90DF90CF90BF90AF90D5
:100170000895FC01538D448D252F30E0842F90E0AD
:10018000821B930B541710F0CF9608950197089592
:10019000FC01918D828D981761F0A28DAE0FBF2F5B
:1001A000B11D5D968C91928D9F5F9F73928F90E0B1
:1001B00008958FEF9FEF0895FC01918D828D981720
:1001C00031F0828DE80FF11D858D90E008958FEF5D
:1001D0009FEF0895FC01918D228D892F90E0805C26
:1001E0009F4F821B91098F73992708958BE291E0AD
:1001F0000E94EA0021E0892B09F420E0822F089573
:1002000080E090E0892B29F00E94F60081110C9487
:1002100000000895FC01A48DA80FB92FB11DA35AA9
:10022000BF4F2C91848D90E001968F739927848F16
:10023000A689B7892C93A089B1898C918370806439
:100240008C93938D848D981306C00288F389E02DDA
:1002500080818F7D80830895EF92FF920F931F938B
:10026000CF93DF93EC0181E0888F9B8D8C8D981369
:100270001AC0E889F989808185FF15C09FB7F89475
:10028000EE89FF896083E889F989808183708064C1
:1002900080839FBF81E090E0DF91CF911F910F910C
:1002A000FF90EF900895F62E0B8D10E00F5F1F4F1B
:1002B0000F731127E02E8C8D8E110CC00FB607FC2A
:1002C000FACFE889F989808185FFF5CFCE010E94B8
:1002D0000A01F1CFEB8DEC0FFD2FF11DE35AFF4F1B
:1002E000F0829FB7F8940B8FEA89FB898081806246
:1002F000CFCF6FEF8BE291E00C942C01CF93DF9383
:10030000EC01888D8823B9F0AA89BB89E889F9892D
:100310008C9185FD03C0808186FD0DC00FB607FC62
:10032000F7CF8C9185FFF2CF808185FFEDCFCE0195
:100330000E940A01E9CFDF91CF91089590E0FC017E
:10034000EE58FF4F2491FC01E255FF4F3491FC0120
:10035000E656FF4FE491EE23C1F1222339F023301A
:10036000E9F090F4213001F1223011F1F0E0EE0FCC
:10037000FF1FE859FF4FA591B491EC91E32381E071
:1003800090E029F580E008952730A9F02830C9F0E1
:10039000243061F7809180008F7D03C080918000C0
:1003A0008F7780938000E2CF84B58F7784BDDECFD6
:1003B00084B58F7DFBCF8091B0008F778093B000A4
:1003C000D5CF8091B0008F7DF9CF80E090E0089587
:1003D0003FB7F8948091270190912801A0912901BD
:1003E000B0912A0126B5A89B05C02F3F19F00196B0
:1003F000A11DB11D3FBFBA2FA92F982F8827BC017F
:10040000CD01620F711D811D911D42E0660F771FA6
:10041000881F991F4A95D1F708958F929F92AF92A6
:10042000BF92CF92DF92EF92FF920E94E8014B01C0
:100430005C0180EDC82E87E0D82EE12CF12C0E94C3
:10044000E801681979098A099B09683E73408105AA
:100450009105A8F321E0C21AD108E108F10888EE5D
:10046000880E83E0981EA11CB11CC114D104E104C4
:10047000F10429F7FF90EF90DF90CF90BF90AF90FD
:100480009F908F9008951F920F920FB60F92112494
:100490002F933F934F935F936F937F938F939F938C
:1004A000AF93BF93EF93FF938BE291E00E940A0119
:1004B000FF91EF91BF91AF919F918F917F916F913C
:1004C0005F914F913F912F910F900FBE0F901F9012
:1004D00018951F920F920FB60F9211242F938F939E
:1004E0009F93EF93FF93E0913B01F0913C0180815A
:1004F000E0914101F091420182FD1BC09081809109
:1005000044018F5F8F7320914501821741F0E09184
:100510004401F0E0E55DFE4F958F80934401FF912B
:10052000EF919F918F912F910F900FBE0F901F9081
:1005300018958081F4CF1F920F920FB60F9211245D
:100540002F933F938F939F93AF93BF9380912301FA
:1005500090912401A0912501B091260130912201B2
:1005600023E0230F2D3758F50196A11DB11D2093CF
:1005700022018093230190932401A0932501B0933D
:1005800026018091270190912801A0912901B09125
:100590002A010196A11DB11D809327019093280186
:1005A000A0932901B0932A01BF91AF919F918F91A0
:1005B0003F912F910F900FBE0F901F90189526E836
:1005C000230F0296A11DB11DD2CF1F920F920FB61D
:1005D0000F9211240F900FBE0F901F9018957894D2
:1005E00084B5826084BD84B5816084BD85B5826038
:1005F00085BD85B5816085BD80916E0081608093E9
:100600006E00109281008091810082608093810051
:100610008091810081608093810080918000816061
:10062000809380008091B10084608093B1008091BC
:10063000B00081608093B00080917A0084608093E4
:100640007A0080917A00826080937A0080917A00AB
:10065000816080937A0080917A00806880937A002C
:100660001092C100E0913B01F0913C0182E0808357
:10067000E0913701F09138011082E0913901F09159
:100680003A018FEC808310924301E0913F01F09199
:10069000400186E08083E0913D01F0913E01808140
:1006A00080618083E0913D01F0913E01808188600E
:1006B0008083E0913D01F0913E01808180688083DC
:1006C000E0913D01F0913E0180818F7D8083E1EBDF
:1006D000F0E02491EDE9F0E084918823C1F090E00E
:1006E000880F991FFC01E057FF4FC591D491FC0181
:1006F000EA57FF4FA591B4919FB7F8948881E22FF4
:10070000E0958E2388838C91E823EC939FBFC0E013
:10071000D0E083E00E949E0146E050E062E171E09B
:100720008BE291E00E948C000E9479010E94790185
:100730000E9479010E940D0283E00E949E0146E022
:1007400050E069E171E08BE291E00E948C000E9430
:1007500079010E9479010E9479010E940D0220977F
:10076000C1F20E94F6008823A1F20E940000D1CFBE
:10077000EBE2F1E01382128288EE93E0A0E0B0E0B9
:1007800084839583A683B78384E091E091838083FB
:1007900085EC90E09587848784EC90E09787868746
:1007A00080EC90E0918B808B81EC90E0938B828B3E
:1007B00082EC90E0958B848B86EC90E0978B868B17
:1007C000118E128E138E148E0895EE0FFF1F05905A
:0A07D000F491E02D0994F894FFCF96
:1007DA00000000002C018C00B9007E01EA00C8006C
:1007EA00DC00706167652031007061676520300048
:00000001FF
