:100000000C945D000C9485000C9485000C94B80B46
:100010000C94B80B0C94B80B0C9485000C948500D0
:100020000C9485000C9485000C9485000C9485003C
:100030000C9485000C9485000C9485000C9485002C
:100040000C946E0B0C9485000C943C0B0C94160BCA
:100050000C9485000C9485000C9485000C9485000C
:100060000C9485000C94850000000008000201003B
:100070000003040700000000000000000000000072
:10008000250028002B0000000000240027002A0083
:10009000040404040404040402020202020203032E
:1000A0000303030301020408102040800102040836
:1000B0001020010204081020C20B11241FBECFEF34
:1000C000D8E0DEBFCDBF11E0A0E0B1E0E4EDF1E2A9
:1000D00002C005900D92AE37B107D9F724E0AEE724
:1000E000B1E001C01D92AD3BB207E1F710E0CDE5F4
:1000F000D0E004C02197FE010E94F00ECC35D1075C
:10010000C9F70E944D0C0C94E8100C94000010925A
:100110009E0310929D03089581E090E090939E03CA
:1001200080939D030895AF92BF92CF92DF92EF929A
:10013000FF920F931F93CF93DF936C017B018B0191
:10014000040F151FEB015E01AE18BF08C017D107E1
:1001500059F06991D601ED91FC910190F081E02D6B
:10016000C6010995892B79F7C501DF91CF911F91C0
:100170000F91FF90EF90DF90CF90BF90AF900895D8
:10018000FC01538D448D252F30E0842F90E0821B9D
:10019000930B541710F0CF96089501970895FC0122
:1001A000918D828D981761F0A28DAE0FBF2FB11D7A
:1001B0005D968C91928D9F5F9F73928F90E00895D2
:1001C0008FEF9FEF0895FC01918D828D981731F08C
:1001D000828DE80FF11D858D90E008958FEF9FEFE0
:1001E0000895FC01918D228D892F90E0805C9F4FB6
:1001F000821B91098F739927089581EA93E00E94E9
:10020000F10021E0892B09F420E0822F089580E09D
:1002100090E0892B29F00E94FD0081110C940000D0
:100220000895FC01A48DA80FB92FB11DA35ABF4F8B
:100230002C91848D90E001968F739927848FA689E5
:10024000B7892C93A089B1898C91837080648C9339
:10025000938D848D981306C00288F389E02D8081E8
:100260008F7D80830895EF92FF920F931F93CF931A
:10027000DF93EC0181E0888F9B8D8C8D98131AC0E1
:10028000E889F989808185FF15C09FB7F894EE89C8
:10029000FF896083E889F989808183708064808325
:1002A0009FBF81E090E0DF91CF911F910F91FF9070
:1002B000EF900895F62E0B8D10E00F5F1F4F0F7318
:1002C0001127E02E8C8D8E110CC00FB607FCFACFD3
:1002D000E889F989808185FFF5CFCE010E9411015F
:1002E000F1CFEB8DEC0FFD2FF11DE35AFF4FF082A4
:1002F0009FB7F8940B8FEA89FB8980818062CFCF0A
:100300006FEF81EA93E00C943301CF93DF93EC011C
:10031000888D8823B9F0AA89BB89E889F9898C91ED
:1003200085FD03C0808186FD0DC00FB607FCF7CFA9
:100330008C9185FFF2CF808185FFEDCFCE010E94A9
:100340001101E9CFDF91CF91089590E0FC01E859C8
:10035000FF4F2491FC01EC55FF4F3491FC01E05715
:10036000FF4FE491EE23C9F0222339F0233001F14D
:10037000A8F4213019F1223029F1F0E0EE0FFF1F2F
:10038000E458FF4FA591B4918FB7F894EC916111A7
:1003900026C030953E233C938FBF08952730A9F0A7
:1003A0002830C9F0243049F7809180008F7D03C048
:1003B000809180008F7780938000DFCF84B58F7726
:1003C00084BDDBCF84B58F7DFBCF8091B0008F776C
:1003D0008093B000D2CF8091B0008F7DF9CF3E2BBB
:1003E000DACF61E08DE00C94A50160E08DE00C9423
:1003F000A5013FB7F89480918B0390918C03A09155
:100400008D03B0918E0326B5A89B05C02F3F19F030
:100410000196A11DB11D3FBFBA2FA92F982F882784
:10042000BC01CD01620F711D811D911D42E0660F5F
:10043000771F881F991F4A95D1F708958F929F9231
:10044000AF92BF92CF92DF92EF92FF924B015C018D
:100450000E94F9016B017C010E94F9016C197D0970
:100460008E099F09683E734081059105A8F321E03C
:10047000821A9108A108B10888EEC80E83E0D81E40
:10048000E11CF11C81149104A104B10429F7FF902F
:10049000EF90DF90CF90BF90AF909F908F90089596
:1004A0002FB7F89460918703709188038091890336
:1004B00090918A032FBF089520917E01211109C0D8
:1004C00021E020937E0130913E0420913F043CBD09
:1004D0002DBD60E0FC0184810C94A50161E0FC016C
:1004E00084810E94A50180917E01811110927E017C
:1004F00008958EBD00000DB407FEFDCF8EB50895A2
:100500008FEF0C9479020F931F93CF93DF93EC013D
:100510000E9450028B010E9480028F3F69F00E946E
:100520005002601B710B6C177D07A8F380E0DF9110
:10053000CF911F910F91089581E0F9CFCF92DF9273
:10054000EF92FF920F931F93CF93DF93EC01162F3F
:1005500069017A018E81882389F08F8198859C01B9
:100560002F5F3F4F38872F838230924018F40E94CC
:100570008002F3CFCE010E946E021E82CE010E9445
:100580005C028CE291E00E948302812F80640E94D1
:10059000790208E110E0D701C601002E04C0B6952B
:1005A000A795979587950A94D2F70E9479020850EB
:1005B0001109083F8FEF180771F78FEF0E9479023A
:1005C00010E00E9480028A8787FF04C01F3F11F05D
:1005D0001F5FF7CFDF91CF911F910F91FF90EF90A9
:1005E000DF90CF900895CF92DF92EF92FF920F931A
:1005F000CF93DF93EC01690182E14115510561055B
:10060000710599F08B85833039F089E0440F551FCF
:10061000661F771F8A95D1F79A01AB0168E1CE0179
:100620000E949E02882319F084E08D832DC08EEFF6
:100630000E94790276018EEFD81AF70181917F012D
:100640000E947902EC14FD04C1F78FEF0E94790239
:100650008FEF0E9479020E9480028A878F71853015
:1006600071F4011116C0CE010E946E0281E0DF918B
:10067000CF910F91FF90EF90DF90CF90089581E19F
:100680008D83CE010E946E02CE010E946E0280E038
:10069000EECF88E592E00E948302811102C085E1DD
:1006A000C4CF20E030E0A9016DE0CE010E949E029F
:1006B000882311F084E1B9CF0E9480028111FACF22
:1006C000D2CF0F93409180015091810160918201BE
:1006D00070918301411551056105710589F0082F5D
:1006E00024E831E090E080E00E94F302882349F0A2
:1006F0001092800110928101109282011092830168
:1007000081E00F9108950F93CF93C82F80917F01BF
:10071000811105C0C1E08C2FCF910F9108954091B8
:1007200000015091010160910201709103010C2FB1
:1007300024E831E090E080E00E94F302811102C0E1
:10074000C0E0E9CFCC2331F381E00E94610388232C
:10075000B9F310927F01DFCFAF92BF92CF92DF92B9
:10076000EF92FF921F93CF93DF936B017C01142FC5
:100770008091000190910101A0910201B0910301CB
:100780008C159D05AE05BF0509F4ADC081E00E9442
:1007900083038823E1F1809106008823A1F08091F2
:1007A000000090910100A0910200B0910300C816D2
:1007B000D906EA06FB0639F48091070090910800FB
:1007C000892B09F44FC0C0920000D0920100E09242
:1007D0000200F092030080910B00A7019601833084
:1007E00039F099E0220F331F441F551F9A95D1F716
:1007F00061E190E080E00E949E02882391F083E016
:100800008093050090E080E00E946E0280E0DF911E
:10081000CF911F91FF90EF90DF90CF90BF90AF905E
:1008200008950E945002EB010E94800280930A000A
:100830008F3F79F40E9450026C1B7D0B6D3271402A
:1008400098F38FE08093050090E080E00E946E02B4
:10085000D9CF8E3FC1F5109208001092070081E0B9
:1008600080930600C4E8D1E084E8A82E83E0B82E87
:100870000E9480028993AC16BD06D1F780910700D3
:10088000909108009E5F909308008093070020914C
:100890000900222319F081159240E8F080910600AA
:1008A0008823C9F080910700909108009C012F5F78
:1008B0003F4F30930800209307008230924028F485
:1008C0000E948002EFCF8DE0BDCF90E080E00E94DB
:1008D0006E0210920600C0920001D0920101E092D7
:1008E0000201F092030140917F01412B40937F016F
:1008F00081E08DCF4F925F926F927F928F929F9205
:10090000AF92BF92CF92DF92EF92FF920F931F931D
:10091000CF93DF93EC01423051056105710590F4EE
:1009200080E0DF91CF911F910F91FF90EF90DF90CA
:10093000CF90BF90AF909F908F907F906F905F907F
:100940004F90089589859A85AB85BC850196A11D38
:10095000B11D84179507A607B70710F3CB88DC886D
:10096000ED88FE888F89803109F042C0BB27A72F10
:10097000962F852F480159012A013B01C80ED91E27
:10098000EA1EFB1E8091000190910101A0910201DD
:10099000B0910301C816D906EA06FB0699F58F89BE
:1009A0008031C1F5B301A201552766277727440F8F
:1009B000551F4C575E4FFA019182808280917F01D2
:1009C000816080937F018A89823080F08D819E8151
:1009D000AF81B8858C0D9D1DAE1DBF1D809380011C
:1009E00090938101A0938201B093830181E099CF1C
:1009F000DB01CA01E7E0B695A79597958795EA953B
:100A0000D1F7B8CF40E0C701B6010E94AC03811115
:100A1000C6CF86CFB301A2014F7755276627772728
:100A2000440F551F440F551F4C575E4FFA018082EB
:100A30009182A282B382C2CF8F929F92AF92BF92D5
:100A4000CF92DF92EF92FF920F931F93CF93DF939A
:100A5000FC0181859285A385B4850196A11DB11DF8
:100A600084179507A607B70770F480E0DF91CF9150
:100A70001F910F91FF90EF90DF90CF90BF90AF90BC
:100A80009F908F90089583889488A588B6888789D9
:100A9000803189F5BB27A72F962F852FE9016A01A1
:100AA0007B018F01BC01CD01680D791D8A1D9B1D45
:100AB0008090000190900101A0900201B09003018C
:100AC00086169706A806B90601F5F80187898031D0
:100AD00011F5DD24EE24FF24F601EE0FFF1FEC5785
:100AE000FE4F80819181B0E0A0E088839983AA8342
:100AF000BB8381E0BBCFDB01CA01C7E0B695A795F8
:100B000097958795CA95D1F7C9CF40E00E94AC036D
:100B10008111DBCFAACFE894C7F8DD24EE24FF24AF
:100B2000F601EE0FFF1FEE0FFF1FEC57FE4F808107
:100B30009181A281B381BF70D8CF8F929F92AF92E3
:100B4000BF92CF92DF92EF92FF920F931F93CF93BA
:100B5000DF93EC018D8181110EC080E0DF91CF9198
:100B60001F910F91FF90EF90DF90CF90BF90AF90CB
:100B70009F908F9008950B891C892D893E890417B9
:100B800015072607370748F34A015B01823031F425
:100B90008A869B86AC86BD8681E0E0CF8114910475
:100BA000A104B10449F41E821F82188619861A8690
:100BB0001B861C861D86F0CF0A851B852C853D85EE
:100BC000EB8DFC8D858590E00996B901A801415017
:100BD000510961097109082E04C0769567955795EA
:100BE00047950A94D2F775016401E1E0CE1AD10865
:100BF000E108F10804C0F694E794D794C7948A9565
:100C0000D2F7C416D506E606F70620F0012B022B14
:100C1000032B11F58F89988DA98DBA8D8E839F83B3
:100C2000A887B9878E010A5F1F4FC114D104E10460
:100C3000F10409F4ADCF4E815F8168857985980113
:100C40008B8D9C8D0E941C0591E0C91AD108E1088A
:100C5000F1088111EACF81CFC41AD50AE60AF70A52
:100C6000E1CF3F924F925F926F927F928F929F92CD
:100C7000AF92BF92CF92DF92EF92FF920F931F93AA
:100C8000CF93DF93CDB7DEB72C970FB6F894DEBFC6
:100C90000FBECDBF5C01DC015B968D909C905C9794
:100CA00016964D905D906D907C901997411451046B
:100CB0006104710409F468C0BFEF4B1A5B0A6B0A48
:100CC0007B0A312CF40181859285A385B4859C0132
:100CD000AD012F5F3F4F4F4F5F4F29873A874B87BB
:100CE0005C87730162011D821E821F821886F401D7
:100CF00081859285A385B4852D813E814F8158855C
:100D0000281739074A075B0708F056C089859A8576
:100D1000AB85BC858C159D05AE05BF0550F482E002
:100D2000C82ED12CE12CF12C92E0492E512C612CB3
:100D3000712C9E012F5F3F4FB701A601C4010E9495
:100D40001C058823C9F189819A81AB81BC81892BDB
:100D50008A2B8B2B09F1260137019FEF491A590A7B
:100D6000690A790A2D813E814F8158852F5F3F4F57
:100D70004F4F5F4F2D833E834F8358873FEFC31AFA
:100D8000D30AE30AF30AB3CFF401408051806280B2
:100D900073803324339496CFC414D504E604F70447
:100DA00009F70FEF1FEF2FEF3FE0B701A601C401D6
:100DB0000E947A04811119C080E02C960FB6F89435
:100DC000DEBF0FBECDBFDF91CF911F910F91FF907E
:100DD000EF90DF90CF90BF90AF909F908F907F90DB
:100DE0006F905F904F903F900895D50116964D916A
:100DF0005D916D917C9119974115510561057105C2
:100E000039F097018601C4010E947A048823A1F277
:100E1000D5011696CD92DD92ED92FC921997332072
:100E200051F0D701C6010196A11DB11DF4018083C7
:100E30009183A283B383F5018789908DA18DB28DB3
:100E4000892B8A2B8B2B39F48481C78AD08EE18E33
:100E5000F28E80688483F50184818062848381E0DE
:100E6000ACCF1F93CF93DF93EC01162F8C8187FFBC
:100E70002AC06E857F858889998941E00E94AC03EC
:100E8000882361F1EA8980E2E89FF0011124EC57A0
:100E9000FE4F309719F18D81823040F48B899C8907
:100EA000AD89BE89848F958FA68FB78F8F89988DD6
:100EB000938F828F8F89988DA98DBA8DB58BA48BD6
:100EC0008C818F778C83111103C08C818F7E8C83F2
:100ED000812FDF91CF911F910C94830380E0DF91EC
:100EE000CF911F9108951F93CF93DF93EC018D81D4
:100EF000813031F090E080E0DF91CF911F91089533
:100F00008C8181FFF7CF82FD1BC090E080E00E94C2
:100F10005C020E948002182F90E080E00E946E0226
:100F20001F3F41F78C8185FF1EC08D81882321F0F2
:100F300060E0CE010E9431078C818F7D8C83DACFF7
:100F40004B895C896D897E898A859B85AC85BD8549
:100F500084179507A607B707C1F2CE010E949D0529
:100F60008111D3CFC7CF4091800150918101609111
:100F7000820170918301452B462B472B21F080E0A5
:100F80000E946103B7CF80618C832A853B853170D5
:100F900080E092E0821B930BAFCF9F92AF92BF9203
:100FA000CF92DF92EF92FF920F931F93CF93DF9335
:100FB00000D000D01F92CDB7DEB78C016D83DC016D
:100FC00015968C911597813009F0B9C014968C91C3
:100FD00081FFB5C082FD9FC0D8015B96ED91FC9169
:100FE0005C971A96AD90BD90CD90DC901D97948043
:100FF0009A94B601A50189E076956795579547952E
:101000008A95D1F79422B1E0BB22992009F49FC0C0
:10101000D8015B96ED91FC915C971696CD90DD9092
:10102000ED90FC901997B2E0CB1AD108E108F108D5
:10103000858504C0CC0CDD1CEE1CFF1C8A95D2F704
:101040004685578560897189C40ED51EE61EF71E38
:10105000C90CD11CE11CF11CA114B10409F00AC196
:10106000F801428553856485758583899489A589AE
:10107000B689481759076A077B0708F4FBC081E067
:101080000E948303882309F45AC0C0920001D092C1
:101090000101E0920201F092030180917F018160E1
:1010A00080937F01F501EC57FE4F8D818083F8011D
:1010B00082859385A485B5850196A11DB11D828782
:1010C0009387A487B58743895489658976894817AA
:1010D00059076A077B0738F42481838B948BA58B8F
:1010E000B68B20682483D80114968C9183FD9FC011
:1010F00081E090E00F900F900F900F900F90DF9194
:10110000CF911F910F91FF90EF90DF90CF90BF9004
:10111000AF909F900895F801438954896589768935
:1011200082859385A485B585481759076A077B078B
:1011300009F452CFC8010E949D0581114DCF81E075
:1011400090E0D80113969C938E93129749C0D801D2
:1011500016964D915D916D917C911997A114B104F2
:1011600009F071C0411551056105710589F5579662
:101170008D919D910D90BC91A02D0097A105B10579
:1011800009F04FC0C8010E9431068823C1F2D8017E
:101190005B96ED91FC915C971696CD90DD90ED906D
:1011A000FC901997B2E0CB1AD108E108F1088585C7
:1011B00004C0CC0CDD1CEE1CFF1C8A95D2F74685C2
:1011C000578560897189C40ED51EE61EF71E48CF6B
:1011D0009E012F5F3F4FCF010E941C05811103C06C
:1011E00090E080E087CF89819A81AB81BC81F80152
:1011F000238D348DF901278948EF5FEF60E070E0BF
:10120000203121F048EF5FEF6FEF7FE08417950703
:10121000A607B70730F0C8010E9431068111F8CE49
:101220008ECFF80186839783A087B187F1CEF8012E
:101230008581882309F483CF61E0C8010E943107CA
:10124000811156CF7CCF6A017B01B2E0CB1AD10865
:10125000E108F108858504C0CC0CDD1CEE1CFF1CE8
:101260008A95D2F74685578560897189C40ED51E47
:10127000E61EF71E41E0C701B6010E94AC038111D2
:1012800011CF5DCF08958F929F92AF92BF920F932F
:101290001F93CF93DF93CDB7DEB7A1970FB6F89426
:1012A000DEBF0FBECDBF19A2423008F44AE08E0166
:1012B0000F5D1F4F842E912CB12CA12CA501940100
:1012C0000E94B80EE62FB901CA01EA3044F5E05D8C
:1012D000D801EE938D01232B242B252B79F790E059
:1012E00080E0109769F0FD0101900020E9F7319747
:1012F000AF014A1B5B0BBD0181EA93E00E949300A2
:10130000A1960FB6F894DEBF0FBECDBFDF91CF918F
:101310001F910F91BF90AF909F908F900895E95CBF
:10132000D7CF009769F0FC0101900020E9F73197D1
:10133000AF01481B590BBC0181EA93E00C94930068
:1013400090E080E00895CF92DF92EF92FF92CF93EA
:10135000DF936C01990FEE08FF08F7FE19C06DE2EC
:1013600081EA93E00E943301EC0166277727CB01E5
:101370006C197D098E099F094AE00E9443098C0F70
:101380009D1FDF91CF91FF90EF90DF90CF90089558
:101390004AE0C701B601DF91CF91FF90EF90DF9057
:1013A000CF900C9443090F931F93CF93DF93EC01DD
:1013B00088819981009759F02A813B812617370748
:1013C00030F081E0DF91CF911F910F9108958B0153
:1013D0006F5F7F4F0E941B10009759F0998388839D
:1013E0001B830A832C813D81232B59F7FC0110823A
:1013F000E8CF80E0E7CFCF92DF92EF92FF920F939A
:101400001F93CF93DF93CDB7DEB72E970FB6F89427
:10141000DEBF0FBECDBF1A8619861C861B861E86B0
:101420001D8664E070E0CE0109960E94D3092985EB
:101430003A85811156C02115310519F0C9010E9464
:10144000920F1A8619861E861D861C861B86C090E2
:10145000A304D090A404C114D104F1F0F6010190CA
:101460000020E9F73197EC19FD09B1F0ED84FE8415
:10147000EE0EFF1EB701CE0109960E94D309882304
:1014800059F029853A858D859E85B601820F931F77
:101490000E94E110FE86ED86ED84FE8484E0E80E75
:1014A000F11CB701CE0109960E94D309882361F08F
:1014B00029853A858D859E8567E371E0820F931FAC
:1014C0000E94E110FE86ED8609851A8581EA93E087
:1014D0000E94F100892B79F081EA93E00E94CF000D
:1014E000F5CF84E090E09E878D8762E371E0C901CB
:1014F0000E94E110ACCFC8010E9491090E948001B6
:101500000E9480010E948001FE01319688E0DF0187
:101510001D928A95E9F784E690E0A0E0B0E0809320
:10152000A5039093A603A093A703B093A8037F01FC
:10153000D12CC12C0E9450026093A9037093AA037E
:101540008093AB039093AC0381EA93E00E94CF00B9
:1015500097FF3DC00E9450020091A9031091AA0379
:101560002091AB033091AC03601B710B820B930B8A
:101570000091A5031091A6032091A7033091A80321
:101580006017710782079307F8F2C12CD12C7601FE
:1015900089859A85009711F00E94920F61E0CA94A4
:1015A000CD28CE28CF2809F060E08DE00E94A5016B
:1015B0002E960FB6F894DEBF0FBECDBFDF91CF9150
:1015C0001F910F91FF90EF90DF90CF900895F7015A
:1015D00081937F01FFEFCF1ADF0A88E0C816D1049C
:1015E00009F0A8CF8981813781F68E818F3F69F616
:1015F0008F818F3F51F688858F3F39F68D81CC8062
:10160000D12CF12CE12C7601DD24CC24F82A8A811E
:10161000C82A8B8190E0982F8827092E000CAA0BEE
:10162000BB0BC82AD92AEA2AFB2AB2CF1F920F92F3
:101630000FB60F9211242F933F934F935F936F93A5
:101640007F938F939F93AF93BF93EF93FF9381EA21
:1016500093E00E941101FF91EF91BF91AF919F9193
:101660008F917F916F915F914F913F912F910F904B
:101670000FBE0F901F9018951F920F920FB60F92EA
:1016800011242F938F939F93EF93FF93E091B103D6
:10169000F091B2038081E091B703F091B80382FD2D
:1016A0001BC090818091BA038F5F8F732091BB0321
:1016B000821741F0E091BA03F0E0EF55FC4F958FAF
:1016C0008093BA03FF91EF919F918F912F910F908B
:1016D0000FBE0F901F9018958081F4CF1F920F922C
:1016E0000FB60F9211242F933F938F939F93AF9335
:1016F000BF938091870390918803A0918903B09153
:101700008A033091860323E0230F2D3758F5019685
:10171000A11DB11D209386038093870390938803B6
:10172000A0938903B0938A0380918B0390918C03DB
:10173000A0918D03B0918E030196A11DB11D8093E0
:101740008B0390938C03A0938D03B0938E03BF9172
:10175000AF919F918F913F912F910F900FBE0F905E
:101760001F90189526E8230F0296A11DB11DD2CF18
:101770001F920F920FB60F9211240F900FBE0F9071
:101780001F901895E1EAF3E01382128288EE93E04D
:10179000A0E0B0E084839583A683B78388E191E0DD
:1017A0009183808385EC90E09587848784EC90E03A
:1017B0009787868780EC90E0918B808B81EC90E01E
:1017C000938B828B82EC90E0958B848B86EC90E0FF
:1017D000978B868B118E128E138E148EEEE3F4E0AF
:1017E00080E580831182E0E4F4E0158216821186A0
:1017F000138682E090E0A0E0B0E084879587A6871A
:10180000B78713A215A614A68AE291E093A782A730
:1018100017A6EDEAF4E081E0808392E091832CE367
:1018200031E0338322831582148211861086138659
:10183000128617821682E1EAF4E0808393E09183B6
:101840002FE331E0338322831582148211861086C0
:101850001386128617821682E5E9F4E0108211825F
:1018600023E431E0338322831582148211861086AB
:101870001386128617821682E9E8F4E080831182CB
:1018800089E491E093838283158214821186108605
:1018900013861286178216820895789484B5826022
:1018A00084BD84B5816084BD85B5826085BD85B504
:1018B000816085BD80916E00816080936E00109282
:1018C00081008091810082608093810080918100FD
:1018D000816080938100809180008160809380008E
:1018E0008091B10084608093B1008091B0008160EC
:1018F0008093B00080917A00846080937A00809118
:101900007A00826080937A0080917A00816080936F
:101910007A0080917A00806880937A001092C100EA
:10192000E2EBF0E02491EEE9F0E084918823C1F04D
:1019300090E0880F991FFC01EA57FF4FC591D491A1
:10194000FC01E458FF4FA591B4919FB7F8948881AA
:10195000E22FE0958E2388838C91E823EC939FBF40
:10196000E091B103F091B20382E08083E091AD0396
:10197000F091AE031082E091AF03F091B0038FECD1
:1019800080831092B903E091B503F091B60386E02D
:101990008083E091B303F091B40380818061808300
:1019A000E091B303F091B403808188608083E0917B
:1019B000B303F091B403808180688083E091B30326
:1019C000F091B40380818F7D808381EF91E09093CB
:1019D000B2048093B1041092B4041092B30485EF62
:1019E00091E09093B6048093B5041092B8041092DD
:1019F000B7048BEF99E09093A6048093A50410920E
:101A0000A8041092A70487E890E090939A0480932A
:101A1000990410929C0410929B048CE890E090939F
:101A20008E0480938D041092900410928F04E1EB49
:101A3000F0E02491EDE9F0E08491882399F090E0C2
:101A4000880F991FFC01EA57FF4FA591B491FC0143
:101A5000E458FF4F859194918FB7F894EC91E22B65
:101A6000EC938FBF10E4CC24CA9493E0D92EE12CE0
:101A7000F12CC0E0D0E064E670E080E090E00E94ED
:101A80001E0210937C0080917A00806480937A001B
:101A900080917A0086FDFCCF90917800809179004A
:101AA0008927982789279093A00380939F0380918B
:101AB0009D0390919E03892B09F077C08FE491E0FC
:101AC0000E94910980919F039091A0030E94A30915
:101AD0000E9480010E9480010E94800180919F03EA
:101AE0009091A003813293400CF4C3C087E591E04C
:101AF0000E9491098FE591E00E94910981E691E0B1
:101B00000E9491098FE591E00E9491090E94800155
:101B10000E9480010E948001A0919F03B091A003C8
:101B20002EE031E00E94E90EA70196010E94620EAC
:101B3000255C3E4F4F4F5F4F283681E038070CF051
:101B4000A3C030939C0320939B038CE691E00E94FA
:101B5000910980919B0390919C030E94A3090E948C
:101B600080010E9480010E948001A0919F03B0919A
:101B7000A00324E630E00E94E90EA70196010E942E
:101B8000620E30939A032093990385E791E00E94B7
:101B900091098091990390919A030E94A3090E9450
:101BA00080010E9480010E94800181EA93E00E94EE
:101BB000F100181619060CF07AC06AE070E080E0B7
:101BC00090E00E941E0281EA93E00E94CF00082F5D
:101BD000853659F781EA93E00E94F10006972CF3CD
:101BE00000938F0380E9A82E83E0B82E81EA93E06A
:101BF0000E94CF00F50181935F01F6E9AF16F3E093
:101C0000BF06A1F710929603809193038F3F69F668
:101C1000809194038F3F49F6809195038F3F29F679
:101C20009091910320919003E4E0F1E0A191B191B2
:101C3000109709F4BACF8C912813F8CF11968C9194
:101C400011979813F3CF4091920350E070E060E059
:101C50004130510561057105D1F41496ED91FC9167
:101C60001597309709F4A1CF16968D919C910995FF
:101C70009CCF87E591E00E9491098FE591E00E9459
:101C8000910985E691E03CCF285631405ACF452B4B
:101C9000462B472B09F089CF1896ED91FC911997A7
:101CA000309709F482CF1A968D919C91E0CF2097BE
:101CB00009F4E1CE0E94FD00882309F4DCCE0E94E5
:101CC0000000D9CE052E97FB1EF400940E94790ED9
:101CD00057FD07D00E94B80E07FC03D04EF40C94B9
:101CE000790E50954095309521953F4F4F4F5F4F5E
:101CF000089590958095709561957F4F8F4F9F4F78
:101D000008952F923F924F925F926F927F928F929F
:101D10009F92AF92BF92CF92DF92EF92FF920F937A
:101D20001F93CF93DF93CDB7DEB7CA1BDB0B0FB684
:101D3000F894DEBF0FBECDBF09942A883988488841
:101D40005F846E847D848C849B84AA84B984C884D7
:101D5000DF80EE80FD800C811B81AA81B981CE0FCE
:101D6000D11D0FB6F894DEBF0FBECDBFED010895B3
:101D7000A1E21A2EAA1BBB1BFD010DC0AA1FBB1F8F
:101D8000EE1FFF1FA217B307E407F50720F0A21B01
:101D9000B30BE40BF50B661F771F881F991F1A946E
:101DA00069F760957095809590959B01AC01BD0198
:101DB000CF010895A29FB001B39FC001A39F700DF2
:101DC000811D1124911DB29F700D811D1124911D43
:101DD00008950E94DA0EB7FF0895821B930B0895B1
:101DE000EE0FFF1F0590F491E02D09940F931F93C0
:101DF000CF93DF938230910510F482E090E0E09180
:101E0000BB04F091BC0430E020E0B0E0A0E03097EB
:101E100099F42115310509F44AC0281B390B2430E7
:101E20003105D8F58A819B816115710589F1FB0126
:101E300093838283FE0111C040815181028113810D
:101E400048175907E0F04817590799F4109761F0BF
:101E500012960C93129713961C933296CF01DF9132
:101E6000CF911F910F9108950093BB041093BC0470
:101E7000F4CF2115310551F04217530738F0A9016D
:101E8000DB019A01BD01DF01F801C1CFEF01F9CFFC
:101E90009093BC048093BB04CDCFFE01E20FF31FEF
:101EA000819391932250310939832883D7CF209190
:101EB000B9043091BA04232B41F4209110013091E0
:101EC00011013093BA042093B90420910E0130918E
:101ED0000F012115310541F42DB73EB74091120194
:101EE00050911301241B350BE091B904F091BA0411
:101EF000E217F307A0F42E1B3F0B2817390778F0E1
:101F0000AC014E5F5F4F2417350748F04E0F5F1F3F
:101F10005093BA044093B904819391939FCFF0E01A
:101F2000E0E09CCFCF93DF930097E9F0FC0132977C
:101F300013821282A091BB04B091BC04ED0130E089
:101F400020E01097A1F420813181820F931F20910E
:101F5000B9043091BA042817390709F061C0F09329
:101F6000BA04E093B904DF91CF910895EA01CE1746
:101F7000DF07E8F54A815B819E0141155105B1F704
:101F8000E901FB83EA8349915991C40FD51FEC17EE
:101F9000FD0761F4808191810296840F951FE9010C
:101FA00099838883828193819B838A83F0E0E0E038
:101FB00012968D919C9113970097B9F52D913C91B4
:101FC0001197CD010296820F931F2091B904309191
:101FD000BA042817390739F6309751F51092BC0426
:101FE0001092BB04B093BA04A093B904BCCFD383BE
:101FF000C28340815181840F951FC817D90761F4AE
:102000004E5F5F4F88819981480F591F51834083EC
:102010008A819B81938382832115310509F0B0CF9A
:10202000F093BC04E093BB049ECFFD01DC01C0CF64
:1020300013821282D7CFB0E0A0E0E1E2F0E10C948D
:10204000830E8C01009751F4CB010E94F60E8C0197
:10205000C801CDB7DEB7E0E10C949F0EFC01E60F9E
:10206000F71F9C0122503109E217F30708F49DC0C5
:10207000D901CD91DC911197C617D70798F0C530DB
:10208000D10530F3CE0104978617970708F3C61BD6
:10209000D70B2297C193D1936D937C93CF010E946C
:1020A000920FD6CF5B01AC1ABD0A4C018C0E9D1E5F
:1020B000A091BB04B091BC04512C412CF12CE12C1B
:1020C000109731F58091B9049091BA04881599055B
:1020D00009F05CC04616570608F058C080910E0102
:1020E00090910F01009741F48DB79EB74091120176
:1020F00050911301841B950BE817F90708F055C0A0
:10210000F093BA04E093B904F90171836083A0CF1E
:102110008D919C91119712966C90129713967C90CA
:102120001397A815B90559F56C0142E0C40ED11CEE
:10213000CA14DB0420F1AC014A195B09DA011296DA
:10214000159780F06282738251834083D9016D9329
:102150007C93E114F10471F0D7011396FC93EE9394
:10216000129776CF22968C0F9D1FF9019183808361
:10217000F301EFCFF093BC04E093BB0469CF4816A2
:10218000590608F42C017D01D3019ACFCB010E949E
:10219000F60E7C01009749F0AE01B8010E94D810FC
:1021A000C8010E94920F870153CF10E000E050CF8A
:1021B000FB01DC0102C001900D9241505040D8F764
:1021C0000895FB01DC0101900D920020E1F70895D4
:0421D000F894FFCFB1
:1021D400FFFFFFFFAD04A104950489040000000083
:1021E400BD0480000000000033019300C00085019D
:1021F400F100CF00E30000000000CD079300730757
:10220400420967657420002E76616C0062310062B9
:102214007430007061676530007061676531006E0D
:10222400302E76616C3D0074302E7478743D00223B
:1022340000486F74004E6F726D616C007661302ED1
:0E22440076616C3D006A302E76616C3D0000C4
:107E0000112484B714BE81FFF0D085E080938100F7
:107E100082E08093C00088E18093C10086E0809377
:107E2000C20080E18093C4008EE0C9D0259A86E02C
:107E300020E33CEF91E0309385002093840096BBD3
:107E4000B09BFECF1D9AA8958150A9F7CC24DD24C4
:107E500088248394B5E0AB2EA1E19A2EF3E0BF2EE7
:107E6000A2D0813461F49FD0082FAFD0023811F036
:107E7000013811F484E001C083E08DD089C08234E0
:107E800011F484E103C0853419F485E0A6D080C0E4
:107E9000853579F488D0E82EFF2485D0082F10E0AE
:107EA000102F00270E291F29000F111F8ED06801E7
:107EB0006FC0863521F484E090D080E0DECF843638
:107EC00009F040C070D06FD0082F6DD080E0C81688
:107ED00080E7D80618F4F601B7BEE895C0E0D1E017
:107EE00062D089930C17E1F7F0E0CF16F0E7DF06D8
:107EF00018F0F601B7BEE89568D007B600FCFDCFD4
:107F0000A601A0E0B1E02C9130E011968C91119780
:107F100090E0982F8827822B932B1296FA010C0160
:107F200087BEE89511244E5F5F4FF1E0A038BF0790
:107F300051F7F601A7BEE89507B600FCFDCF97BE46
:107F4000E89526C08437B1F42ED02DD0F82E2BD052
:107F50003CD0F601EF2C8F010F5F1F4F84911BD097
:107F6000EA94F801C1F70894C11CD11CFA94CF0C13
:107F7000D11C0EC0853739F428D08EE10CD085E9AC
:107F80000AD08FE07ACF813511F488E018D01DD067
:107F900080E101D065CF982F8091C00085FFFCCF94
:107FA0009093C60008958091C00087FFFCCF809118
:107FB000C00084FD01C0A8958091C6000895E0E648
:107FC000F0E098E1908380830895EDDF803219F02E
:107FD00088E0F5DFFFCF84E1DECF1F93182FE3DFCA
:107FE0001150E9F7F2DF1F91089580E0E8DFEE27F6
:047FF000FF270994CA
:027FFE00040479
:0400000300007E007B
:00000001FF
