:100000000C9462000C948A000C948A000C948A0070
:100010000C948A000C948A000C948A000C948A0038
:100020000C948A000C948A000C948A000C948A0028
:100030000C948A000C948A000C948A000C948A0018
:100040000C9441070C948A000C940F070C94E90659
:100050000C948A000C948A000C948A000C948A00F8
:100060000C948A000C948A000000000025002800EF
:100070002B0000000000240027002A0000000000E0
:1000800023002600290004040404040404040202DA
:100090000202020203030303030301020408102007
:1000A0004080010204081020010204081020000012
:1000B0000008000201000003040700000000000027
:1000C00000008B0711241FBECFEFD8E0DEBFCDBFED
:1000D00022E0A6E7B1E001C01D92A133B207E1F72B
:1000E00011E0A0E0B1E0E0E8F9E102C005900D9276
:1000F000A637B107D9F710E0C2E6D0E004C02197D7
:10010000FE010E94BE0AC136D107C9F70E94C2078C
:100110000C94BE0C0C9400008CBD9DBD0895AF9254
:10012000BF92CF92DF92EF92FF920F931F93CF93E4
:10013000DF936C017B018B01040F151FEB015E0146
:10014000AE18BF08C017D10759F06991D601ED91DB
:10015000FC910190F081E02DC6010995892B79F77A
:10016000C501DF91CF911F910F91FF90EF90DF902C
:10017000CF90BF90AF900895FC01538D448D252FF3
:1001800030E0842F90E0821B930B541710F0CF9631
:10019000089501970895FC01918D828D981761F063
:1001A000A28DAE0FBF2FB11D5D968C91928D9F5F7A
:1001B0009F73928F90E008958FEF9FEF0895FC0159
:1001C000918D828D981731F0828DE80FF11D858D0C
:1001D00090E008958FEF9FEF0895FC01918D228D9F
:1001E000892F90E0805C9F4F821B91098F73992724
:1001F000089580E891E00E94ED0021E0892B09F448
:1002000020E0822F089580E090E0892B29F00E9461
:10021000F90081110C9400000895FC01A48DA80F31
:10022000B92FB11DA35ABF4F2C91848D90E0019638
:100230008F739927848FA689B7892C93A089B18958
:100240008C91837080648C93938D848D981306C0F9
:100250000288F389E02D80818F7D80830895EF925D
:10026000FF920F931F93CF93DF93EC0181E0888F70
:100270009B8D8C8D98131AC0E889F989808185FF40
:1002800015C09FB7F894EE89FF896083E889F989E2
:1002900080818370806480839FBF81E090E0DF91E4
:1002A000CF911F910F91FF90EF900895F62E0B8D37
:1002B00010E00F5F1F4F0F731127E02E8C8D8E11F2
:1002C0000CC00FB607FCFACFE889F989808185FF59
:1002D000F5CFCE010E940D01F1CFEB8DEC0FFD2F7C
:1002E000F11DE35AFF4FF0829FB7F8940B8FEA8914
:1002F000FB8980818062CFCFCF93DF93EC01888D23
:100300008823B9F0AA89BB89E889F9898C9185FD90
:1003100003C0808186FD0DC00FB607FCF7CF8C911E
:1003200085FFF2CF808185FFEDCFCE010E940D01C8
:10033000E9CFDF91CF910895833081F028F48130A7
:1003400099F08230A9F008958730A9F08830C9F07B
:100350008430B1F4809180008F7D03C08091800053
:100360008F7780938000089584B58F7784BD08953A
:1003700084B58F7DFBCF8091B0008F778093B000E4
:1003800008958091B0008F7DF9CF1F93CF93DF93B5
:10039000282F30E0F901E255FF4F8491F901E6562C
:1003A000FF4FD491F901EA57FF4FC491CC23A9F034
:1003B000162F81110E949C01EC2FF0E0EE0FFF1F21
:1003C000E859FF4FA591B4918FB7F894EC911111B2
:1003D00008C0D095DE23DC938FBFDF91CF911F91B2
:1003E0000895DE2BF8CFCF93DF9390E0FC01E65623
:1003F000FF4F24918A579F4FFC0184918823D1F0AD
:1004000090E0880F991FFC01EE58FF4FA591B49121
:10041000FC01E859FF4FC591D49161110EC09FB7FF
:10042000F8948C91E22FE0958E238C932881E2231F
:10043000E8839FBFDF91CF9108958FB7F894EC9137
:10044000E22BEC938FBFF6CF3FB7F89480917B01FE
:1004500090917C01A0917D01B0917E0126B5A89B71
:1004600005C02F3F19F00196A11DB11D3FBFBA2F46
:10047000A92F982F8827BC01CD01620F711D811D06
:10048000911D42E0660F771F881F991F4A95D1F78B
:1004900008958F929F92AF92BF92CF92DF92EF9288
:1004A000FF924B015C010E9424026B017C010E94BF
:1004B00024026C197D098E099F09683E73408105ED
:1004C0009105A8F321E0821A9108A108B10888EEED
:1004D000C80E83E0D81EE11CF11C81149104A10414
:1004E000B10429F7FF90EF90DF90CF90BF90AF90CD
:1004F0009F908F900895BC016E5F7F4FDC01ED915E
:10050000FC910190F081E02D40E0099591E081118E
:1005100090E0892F089508958EBD00000DB407FE68
:10052000FDCF8EB50895DF92EF92FF920F931F9348
:10053000CF93DF937C01062FD42E152F83E590E017
:100540000E948C0060E0F70186850E94C50182E16F
:100550000E948C02CD2DD12F0C0F1D2F111DC01705
:10056000D10721F089910E948C02F9CF61E0F70157
:100570008685DF91CF911F910F91FF90EF90DF90D3
:100580000C94C5011F93CF93DF93EC01162F83E5E5
:1005900090E00E948C0060E08E850E94C501812F52
:1005A00080680E948C0280E00E948C02182F61E01B
:1005B0008E850E94C501812FDF91CF911F910895F3
:1005C0000F931F93CF93DF93EC01062F142F83E536
:1005D00090E00E948C0060E08E850E94C501802F13
:1005E0000E948C02812F0E948C0261E08E85DF9137
:1005F000CF911F910F910C94C501CF92DF92EF9292
:10060000FF920F931F93CF93DF93EC016B01142F95
:10061000790140E062E00E94E00244E06AE0CE013D
:100620000E94E00240E864E1CE010E94E002A601DF
:10063000612FCE010E94930243E062E0CE010E944E
:10064000E00208E813E16AE0CE010E94C20282FFE4
:100650001BC040E062E0CE010E94E00264E4CE01F3
:100660000E94C202F701808362E4CE010E94C202AE
:10067000F701818380E0DF91CF911F910F91FF906F
:10068000EF90DF90CF90089501501109E1F683E0DB
:10069000F2CF3F924F925F926F927F928F929F9292
:1006A000AF92BF92CF92DF92EF92FF920F931F9380
:1006B000CF93DF9300D0CDB7DEB74C012B01D42E02
:1006C000390180E0E114F10411F0F7018081BC2CC4
:1006D000B29490EFB922B80E40E062E0C4010E94EB
:1006E000E0024FE768E0C4010E94E00240E864E1F4
:1006F000C4010E94E002A2016D2DC4010E94930278
:100700004B2D6AE1C4010E94E0024CE062E0C401AA
:100710000E94E0026AE1C4010E94C202482F4068C0
:100720006AE1C4010E94E00220ED422E27E0522E31
:1007300068E0C4010E94C202982F907309F0B6C00D
:1007400080FD04C0F1E04F1A510891F783E094C096
:100750006114710409F46DC00115110509F469C033
:1007600064E1C4010E94C202B82EF80180818B1599
:1007700008F496C0B082BB20E1F183E590E00E94CE
:100780008C0060E0F40186850E94C501BA9482E97C
:100790000E948C02CC20B1F08FEF90E09C0102C04F
:1007A000220F331FCA94E2F7690182E90E948C028A
:1007B0009C2D9095F301208192238C21982B90837E
:1007C000CC24C39423014C0C511CCB1440F482E97B
:1007D0000E948C02F20181932F01C394F6CF80E036
:1007E0000E948C02F201808361E0F40186850E9400
:1007F000C50168E1C4010E94C2028770E114F104DE
:1008000011F0F701808333FC4DC06114710409F4C9
:100810004BC00115110509F447C0AA2009F444C0D2
:10082000F8014081413039F4843009F049C08FEF3C
:1008300023C080E0E8CF423008F442C0811140C0BC
:1008400042509E012F5F3F4FB301C4010E94FD0241
:10085000811112C0F8019081690E711CF301329769
:100860002081998129132CC0F1E06F1A7108F301DE
:1008700020819A81291324C00F900F90DF91CF918E
:100880001F910F91FF90EF90DF90CF90BF90AF90AE
:100890009F908F907F906F905F904F903F900895C2
:1008A00084E0EACF82E0E8CF80E0E6CF6CE0C401EC
:1008B0000E94C202382E837109F44ACF81E0DCCF56
:1008C00087E0DACF8F929F92AF92CF92EF92FF9212
:1008D0000F931F93CF93DF9300D000D01F92CDB71B
:1008E000DEB74C0182E08D8340E064E2C4010E94E7
:1008F000E00240E066E2C4010E94E00246E268E4F1
:10090000C4010E94E00286E28B838D818230D8F19F
:100910006CE1C4010E94C202482F4F776CE1C40110
:100920000E94E00287E08C83A12CC12CCE010496AA
:100930007C018E010B5F1F4F9E012F5F3F4F41E0F7
:10094000BE016D5F7F4FC4010E944903982F811142
:1009500017C08D818230B9F48C81811114C081E07F
:100960000F900F900F900F900F90DF91CF911F91EC
:100970000F91FF90EF90CF90AF909F908F90089540
:1009800081E0923069F380E0EBCF2F923F924F925B
:100990005F926F927F928F929F92AF92BF92CF920F
:1009A000DF92EF92FF920F931F93CF93DF93CDB718
:1009B000DEB72D970FB6F894DEBF0FBECDBF16E0A1
:1009C000413508F04AC1342E3B014C016CE10E94D4
:1009D000C202482F4F776CE1C4010E94E00283E914
:1009E0008983332029F081E0F3019081953008F468
:1009F00080E022242394B12C9B2D990F990F990FFD
:100A0000D32CD91AD7FCD12C32E0882319F098E8DE
:100A10009B8333E021E09D2D977009F420E09D2D0C
:100A2000959595959595290FC9F094E0811193E0DE
:100A3000291708F4922FEB2DF0E03196E60DF71D03
:100A4000232F4191A1E0B0E0AC0FBD1FA20FB11D5B
:100A50004C932F5F422F431B491798F3882311F0C3
:100A6000F8E0DF0E8FE18D150CF082C090E79A83DD
:100A70008B819C8189279D8189279E8189278F83EE
:100A80009E01285F3F4F47E0BE016F5F7F4FC4016B
:100A90000E94FD02182F8111E0C01A86E3E0EB8767
:100AA000DC86CE0107962C0199E09D87CA844C2DE7
:100AB0004295407F4C0D6AE1C4010E94E002A12CE6
:100AC000CE010A967C018E01055F1F4F92014D8574
:100AD000BE016F5F7F4FC4010E944903182F82300F
:100AE00009F065C06CE1C4010E94C20285FDB5C079
:100AF0008F7109F480E2282F30E04D2DDD0C550B6D
:100B0000421753070CF09DC0D82EE82FE595E595C8
:100B1000E595EF5F982F977081E009F480E0E80F8A
:100B200081E090E08C0F9D1F8E0F911DFC012150E4
:100B300031092770332781E090E002C0880F991FA8
:100B40002A95E2F79C018081822B80838BCF85E9F7
:100B50008983332031F081E0F3019081983008F0EF
:100B60004BCF80E049CF87E9898326E0B22EF9CFC9
:100B70009D2D97709A878D2D8595859585958E5F8E
:100B8000282F2295207F290F2A8321E0911101C06F
:100B900020E0280F2D8744244394512C4C0E5D1ED9
:100BA000480E511CE9E0E81BEB87DC867FCF811102
:100BB00054C080E2D82E9C8590320CF457CF8B81A4
:100BC000883809F040C083E093E0EB2DF0E03196E7
:100BD000E60DF71D980FA1E0B0E0AC0FBD1FA80F08
:100BE000B11D2C9121938F5F8913F5CFBB84E3E076
:100BF000BE124DC08A8581114AC09E012D5F3F4FB4
:100C000041E0B201C4010E94FD02182F811125C0EC
:100C10009B81F201818198133CC09C818281981351
:100C200038C0808182FF12C02394F2E02F1609F4AD
:100C30008ECF83E0281609F496CF91E0291609F4A7
:100C4000CECE15E00AC082E094E0BFCFF3018387E7
:100C5000822D880F820D8F5F8083812F2D960FB696
:100C6000F894DEBF0FBECDBFDF91CF911F910F91E2
:100C7000FF90EF90DF90CF90BF90AF909F908F90BC
:100C80007F906F905F904F903F902F90089511E06C
:100C9000E4CF17E0E2CFFC0101900020E9F73197A3
:100CA000AF01481B590BBC0180E891E00C948F0008
:100CB000FC0180819181009711F00C94600B0895E4
:100CC0000F931F93CF93DF93EC0188819981009755
:100CD00059F02A813B812617370730F081E0DF91F8
:100CE000CF911F910F9108958B016F5F7F4F0E94ED
:100CF000E90B009759F0998388831B830A832C8121
:100D00003D81232B59F7FC011082E8CF80E0E7CF2B
:100D1000EF92FF920F931F93CF93DF9361157105AD
:100D200041F480E0DF91CF911F910F91FF90EF9000
:100D3000089541155105B1F07B01EC010C811D8135
:100D4000040F151FB8010E946006882351F3288103
:100D500039818C819D81B701820F931F0E94B70C4E
:100D60001D830C8381E0DECFEF92FF920F931F93E0
:100D7000CF93DF93EC017B018A01BA010E946006E8
:100D800028813981811114C02115310519F0C9015B
:100D90000E94600B198218821D821C821B821A829B
:100DA000CE01DF91CF911F910F91FF90EF900895A9
:100DB0001D830C83B701C9010E94B70CF1CFFB0161
:100DC00001900020E9F73197AF01461B570B0C94B7
:100DD000B4061F920F920FB60F9211242F933F93D8
:100DE0004F935F936F937F938F939F93AF93BF9333
:100DF000EF93FF9380E891E00E940D01FF91EF9146
:100E0000BF91AF919F918F917F916F915F914F9122
:100E10003F912F910F900FBE0F901F9018951F922A
:100E20000F920FB60F9211242F938F939F93EF93EE
:100E3000FF93E0919001F09191018081E091960102
:100E4000F091970182FD1BC09081809199018F5F85
:100E50008F7320919A01821741F0E0919901F0E09F
:100E6000E058FE4F958F80939901FF91EF919F91EC
:100E70008F912F910F900FBE0F901F90189580812A
:100E8000F4CF1F920F920FB60F9211242F933F931E
:100E90008F939F93AF93BF93809177019091780147
:100EA000A0917901B0917A013091760123E0230F6E
:100EB0002D3758F50196A11DB11D20937601809321
:100EC000770190937801A0937901B0937A01809192
:100ED0007B0190917C01A0917D01B0917E010196F2
:100EE000A11DB11D80937B0190937C01A0937D0196
:100EF000B0937E01BF91AF919F918F913F912F91C0
:100F00000F900FBE0F901F90189526E8230F0296A2
:100F1000A11DB11DD2CFE0E8F1E01382128288EE6C
:100F200093E0A0E0B0E084839583A683B7838AE052
:100F300091E09183808385EC90E09587848784ECB1
:100F400090E09787868780EC90E0918B808B81EC96
:100F500090E0938B828B82EC90E0958B848B86EC77
:100F600090E0978B868B118E128E138E148EEDE18E
:100F7000F2E08CE191E0918380838AE0868789E0CA
:100F800087870895CF93DF93CDB7DEB7AD970FB6C0
:100F9000F894DEBF0FBECDBF789484B5826084BD67
:100FA00084B5816084BD85B5826085BD85B581606D
:100FB00085BD80916E00816080936E0010928100EB
:100FC00080918100826080938100809181008160A6
:100FD0008093810080918000816080938000809167
:100FE000B10084608093B1008091B00081608093F3
:100FF000B00080917A00846080937A0080917A00BA
:10100000826080937A0080917A00816080937A0078
:1010100080917A00806880937A001092C100E091FC
:101020009001F091910182E08083E0918C01F09138
:101030008D011082E0918E01F0918F018FEC808301
:1010400010929801E0919401F091950186E08083DF
:10105000E0919201F0919301808180618083E09121
:101060009201F0919301808188608083E0919201E8
:10107000F0919301808180688083E0919201F091EA
:10108000930180818F7D80831FB7F89480917F01C9
:10109000811127C0E0E9F0E08491E4EAF0E0949166
:1010A000E82FF0E0EE0FFF1FEE58FF4FA591B4912F
:1010B000EC91E92321F461E08AE00E94C50161E03E
:1010C0008AE00E94F3018CB580618CBD8CB5806490
:1010D0008CBD61E08DE00E94F30161E08BE00E9435
:1010E000F30180917F018F5F80937F011FBF61E0DB
:1010F00080912B020E94F30161E080912B020E94FB
:10110000C50180912C028F3F09F430C160E00E943C
:10111000F30120912C0230E0F901E255FF4F849158
:10112000F901E656FF4F0491F901EA57FF4F149178
:1011300011110DC161E080912C020E94F30160E069
:1011400080912C020E94C50183E090E00197F1F7A5
:1011500061E080912C020E94C50162E370E080E0B2
:1011600090E00E94490240E064E28DE192E00E943A
:10117000E00240E066E28DE192E00E94E00246E299
:1011800068E48DE192E00E94E00240E864E58DE1D0
:1011900092E00E94E00249EA66E58DE192E00E9459
:1011A000E00243E068E58DE192E00E94E00248EE53
:1011B0006AE58DE192E00E94E00240E46AE28DE19E
:1011C00092E00E94E0024DE362E28DE192E00E9433
:1011D000E00268E28DE192E00E94C202982F9370D3
:1011E000933039F0482F436068E28DE192E00E942D
:1011F000E00285E291E00E944B068CE491E00E94BF
:101200004B068CE491E00E944B068E010F5F1F4F4E
:1012100030E0C32E30E0D32E8DE192E00E946204D4
:10122000882309F42EC18DE192E00E947B0288237D
:1012300009F427C18FE491E00E944B0619A618A675
:101240001BA61AA61DA61CA66EE471E0CE01889608
:101250000E94DF06B12C80911F02B81608F09FC0D3
:101260008B2D90E09C01235E3D4F7901F901838134
:10127000803108F41FC182E691E00E944B06F7011D
:10128000438150E070E060E019A2FE01B196DB01FD
:10129000CA018F709927AA27BB2724E07695679506
:1012A000579547952A95D1F78A300CF076C0805D26
:1012B0008293411551056105710549F7309719F081
:1012C000CF010E944B06F701838162E271E0803119
:1012D00010F062E671E01A8219821C821B821E8263
:1012E0001D82C8010E94DF064D815E8169817A817D
:1012F000CE0188960E948806C8010E945806F70110
:1013000083811BA21AA21DA21CA21FA21EA240E141
:10131000B80190E00E945D0AF80101900020E9F711
:101320003197AF01401B510BB801CE0182960E944C
:10133000B4064EA15FA16AA17BA1CE0188960E944E
:101340008806CE0182960E945806B39484CF8111FC
:101350000E949C01E12FF0E0EE0FFF1FE458FF4FC9
:10136000A591B491EC910E2309F4E4CE4FE062E034
:101370008DE192E00E94E00213E062E370E080E021
:1013800090E00E94490262E08DE192E00E94C20278
:1013900084FFE9CE115089F7E6CE895C89CF8CE4D1
:1013A00091E00E944B0689E591E00E944B06E8A47B
:1013B000F9A4E114F10471F0F70181917F01882310
:1013C00049F0082E000C990B0E94A60CF7013197EA
:1013D0008083F2CF8CA49DA4AA24A394B12C811461
:1013E000910421F0540188248394912C1A8219824B
:1013F0001C821B821E821D826EE471E0C8010E9465
:10140000DF06ECA4FDA48E149F0410F5AE14BF04F7
:1014100008F47501E8A5F9A5EE0DFF1DB080108256
:1014200068A579A5680D791D61157105B1F1FB01FC
:1014300001900020E9F73197AF01461B570BC80117
:101440000E94B40688A599A5E80EF91EF701B0829E
:10145000C8010E94580684E691E00E944B068CE485
:1014600091E00E944B068CE491E00E944B0668EBF1
:101470007BE080E090E00E944902CE0188960E94C5
:101480005806C114D10409F4C7CE0E94F90088237C
:1014900009F4BECE0E940000BBCE89819A810097DC
:1014A00011F00E94600B1A8219821E821D821C821A
:1014B0001B82C8CF82E291E0E0CEBB27FB0155271B
:1014C000AA27880F991FAA1FA41710F0A41B8395A1
:1014D0005051B9F7A05DAA3308F0A95DA193009718
:1014E00079F7B111B1931192CB010C94770ADC0119
:1014F000FC01672F71917723E1F7329704C07C914B
:101500006D9370836291AE17BF07C8F308952F9251
:101510003F924F925F926F927F928F929F92AF9283
:10152000BF92CF92DF92EF92FF920F931F93CF93D0
:10153000DF93CDB7DEB7CA1BDB0B0FB6F894DEBF67
:101540000FBECDBF09942A88398848885F846E848D
:101550007D848C849B84AA84B984C884DF80EE80D7
:10156000FD800C811B81AA81B981CE0FD11D0FB6E0
:10157000F894DEBF0FBECDBFED010895EE0FFF1F43
:101580000590F491E02D09940F931F93CF93DF936F
:101590008230910510F482E090E0E0912F02F0910A
:1015A000300230E020E0B0E0A0E0309799F421155F
:1015B000310509F44AC0281B390B24303105D8F510
:1015C0008A819B816115710589F1FB019383828377
:1015D000FE0111C0408151810281138148175907D2
:1015E000E0F04817590799F4109761F012960C93A0
:1015F000129713961C933296CF01DF91CF911F91D2
:101600000F91089500932F0210933002F4CF21150B
:10161000310551F04217530738F0A901DB019A0157
:10162000BD01DF01F801C1CFEF01F9CF9093300286
:1016300080932F02CDCFFE01E20FF31F8193919390
:101640002250310939832883D7CF20912D02309140
:101650002E02232B41F4209102013091030130939B
:101660002E0220932D0220910001309101012115BD
:10167000310541F42DB73EB7409104015091050169
:10168000241B350BE0912D02F0912E02E217F30797
:10169000A0F42E1B3F0B2817390778F0AC014E5FE2
:1016A0005F4F2417350748F04E0F5F1F50932E02EF
:1016B00040932D02819391939FCFF0E0E0E09CCF87
:1016C000CF93DF930097E9F0FC01329713821282E7
:1016D000A0912F02B0913002ED0130E020E0109790
:1016E000A1F420813181820F931F20912D0230912E
:1016F0002E022817390709F061C0F0932E02E093FB
:101700002D02DF91CF910895EA01CE17DF07E8F5AA
:101710004A815B819E0141155105B1F7E901FB83C7
:10172000EA8349915991C40FD51FEC17FD0761F465
:10173000808191810296840F951FE90199838883A6
:10174000828193819B838A83F0E0E0E012968D9101
:101750009C9113970097B9F52D913C911197CD016C
:101760000296820F931F20912D0230912E0228178E
:10177000390739F6309751F51092300210922F0246
:10178000B0932E02A0932D02BCCFD383C28340819D
:101790005181840F951FC817D90761F44E5F5F4FC1
:1017A00088819981480F591F518340838A819B8189
:1017B000938382832115310509F0B0CFF093300275
:1017C000E0932F029ECFFD01DC01C0CF1382128275
:1017D000D7CFB0E0A0E0EFEEFBE00C94890A8C01DB
:1017E000009751F4CB010E94C40A8C01C801CDB707
:1017F000DEB7E0E10C94A50AFC01E60FF71F9C019F
:1018000022503109E217F30708F49DC0D901CD91A8
:10181000DC911197C617D70798F0C530D10530F382
:10182000CE0104978617970708F3C61BD70B22979C
:10183000C193D1936D937C93CF010E94600BD6CF5F
:101840005B01AC1ABD0A4C018C0E9D1EA0912F02AB
:10185000B0913002512C412CF12CE12C109731F534
:1018600080912D0290912E028815990509F05CC097
:101870004616570608F058C080910001909101016A
:10188000009741F48DB79EB7409104015091050136
:10189000841B950BE817F90708F055C0F0932E024A
:1018A000E0932D02F90171836083A0CF8D919C910B
:1018B000119712966C90129713967C901397A81517
:1018C000B90559F56C0142E0C40ED11CCA14DB0401
:1018D00020F1AC014A195B09DA011296159780F0E4
:1018E0006282738251834083D9016D937C93E114AA
:1018F000F10471F0D7011396FC93EE93129776CF13
:1019000022968C0F9D1FF90191838083F301EFCF05
:10191000F0933002E0932F0269CF4816590608F47D
:101920002C017D01D3019ACFCB010E94C40A7C0116
:10193000009749F0AE01B8010E94AE0CC8010E94A8
:10194000600B870153CF10E000E050CF9111089554
:1019500081568A5108F4805285580895FB01DC01B4
:1019600002C001900D9241505040D8F70895FB01FC
:10197000DC0101900D920020E1F70895F894FFCF6B
:10198000000031028000000000002F018F00BC0029
:101990007C01ED00CB00DF0000000000C504620404
:1019A0007B02203000417070726F78696D617465E0
:1019B00020796F7572206361726420746F2074687F
:1019C00065207265616465722E2E2E000D0A005529
:1019D000494420746167203A004D657373616765FF
:1019E000203A2000417574686F72697A65642061DD
:0619F000636365737300E0
:00000001FF
