:100000000C945D000C947A000C947A000C947A00A5
:100010000C947A000C947A000C947A000C943601BB
:100020000C947A000C947A000C947A000C947A0068
:100030000C947A000C947A000C947A000C947A0058
:100040000C9492010C947A000C947A000C947A002F
:100050000C947A000C947A000C947A000C947A0038
:100060000C947A000C947A00000000080002010051
:100070000003040700000000000000000200000070
:1000800000250028002B0000000000240027002A83
:100090000004040404040404040202020202020331
:1000A000030303030301020408102040800102043B
:1000B0000810200102040810200011241FBECFEFF9
:1000C000D8E0DEBFCDBF12E0A0E0B1E0E6EFFCE09B
:1000D00002C005900D92A23CB107D9F722E0A2EC34
:1000E000B2E001C01D92AC3DB207E1F70E94DC0115
:1000F0000C9479060C94000090E0FC01EB55FF4F46
:1001000024918F569F4FFC018491882399F090E0B1
:10011000880F991FFC01E957FF4FA591B491FC018D
:10012000E358FF4F859194918FB7F894EC91E22BAF
:10013000EC938FBF08959091000189130DC0ECE7F7
:10014000F0E0E4919FEF90930001E13009F431C0B9
:1001500068F1E23009F433C090E0FC01E859FF4F48
:100160002491FC01EB55FF4F3491FC01EF56FF4FFA
:10017000E491EE23D1F0222351F0233009F43AC068
:1001800078F5213009F43CC0223009F43DC0F0E09C
:10019000EE0FFF1FE358FF4FA591B4918FB7F8946E
:1001A000EC9130953E233C938FBF089510926E00E2
:1001B000D3CF90916F009D7F90936F00CDCF9091A2
:1001C00070009D7F9093700091E09093B0009091AB
:1001D000B100987F94609093B1001092B300BCCFAF
:1001E0002730A9F02830C9F0243089F680918000AA
:1001F0008F7D03C0809180008F7780938000C7CF70
:1002000084B58F7784BDC3CF84B58F7DFBCF8091BC
:10021000B0008F778093B000BACF8091B0008F7D0F
:10022000F9CF3FB7F8948091C7029091C802A0918E
:10023000C902B091CA0226B5A89B05C02F3F19F08C
:100240000196A11DB11D3FBFBA2FA92F982F882756
:10025000BC01CD01620F711D811D911D42E0660F31
:10026000771F881F991F4A95D1F708951F920F9203
:100270000FB60F9211242F933F934F935F936F9379
:100280007F938F939F93AF93BF93EF93FF9380914F
:10029000D0029091D102A091D202B091D302892BC9
:1002A0008A2B8B2BD1F19091CB02E091CC02F09173
:1002B000CD028081892780838091D0029091D102E4
:1002C000A091D202B091D302181619061A061B0685
:1002D0009CF48091D0029091D102A091D202B09171
:1002E000D3020197A109B1098093D0029093D10262
:1002F000A093D202B093D302FF91EF91BF91AF913F
:100300009F918F917F916F915F914F913F912F912D
:100310000F900FBE0F901F901895809100010E94C2
:100320009B00EACF1F920F920FB60F9211242F93CA
:100330003F938F939F93AF93BF938091C30290910C
:10034000C402A091C502B091C6023091C20223E05E
:10035000230F2D3758F50196A11DB11D2093C20220
:100360008093C3029093C402A093C502B093C602C7
:100370008091C7029091C802A091C902B091CA02AF
:100380000196A11DB11D8093C7029093C802A0934E
:10039000C902B093CA02BF91AF919F918F913F91D3
:1003A0002F910F900FBE0F901F90189526E8230FE6
:1003B0000296A11DB11DD2CFCF93DF93CDB7DEB78B
:1003C00029970FB6F894DEBF0FBECDBF789484B5E1
:1003D000826084BD84B5816084BD85B5826085BD41
:1003E00085B5816085BD80916E00816080936E00CF
:1003F00010928100809181008260809381008091C1
:100400008100816080938100809180008160809371
:1004100080008091B10084608093B1008091B00031
:1004200081608093B00080917A00846080937A002C
:1004300080917A00826080937A0080917A00816056
:1004400080937A0080917A00806880937A0010927D
:10045000C10084E480937C0080917A008064809362
:100460007A0080917A0086FDFCCF8091780090918F
:1004700079000E947C0081EE91E09A838983E1E01B
:10048000F1E0F887EF83E981FA8161917191FA8354
:10049000E9838EEE92E00E94FA058B012B01770F23
:1004A00066087708EF81F88521903190F887EF830F
:1004B00080910001833009F07BC0ECE7F0E0F4911B
:1004C000F987F7FD7BC183E00E947C00F985FF235B
:1004D00021F02985223009F0A4C14101B12CA12CC1
:1004E00060E072E18AE790E0A50191010E94300688
:1004F0002B833C834D835E8369017A0181E0C81AB6
:10050000D108E108F1089FEFC916D104E104F10414
:1005100009F00CF42BC160E472E48FE090E0A501D7
:1005200091010E94300669017A01E1E0CE1AD108FA
:10053000E108F108F985F23009F0B0C082E02FEF50
:10054000C216D104E104F10409F00CF4F6C160E92B
:1005500070ED83E090E0A50191010E9430066901F1
:100560007A0181E0C81AD108E108F10883E09FEF21
:10057000C916D104E104F10409F00CF4DEC168E409
:1005800078EE81E090E0A50191010E9430066901BA
:100590007A01F1E0CF1AD108E108F1082FEFC21675
:1005A000D104E104F10411F00CF0B8C084E0C5C13D
:1005B0008F3F09F003C123E020930001ECE7F0E056
:1005C000F491F987FF3F09F4F9C0F13029F150F0B7
:1005D000F23009F440C0F985F7FDF0C083E00E94D5
:1005E0007C0077CF14BC15BC84B5826084BD85B512
:1005F000816085BDE4E9F0E08491E82FF0E0EE0F42
:10060000FF1FE358FF4F85919491E8EAF0E0849151
:100610008093CF02198657CF1092800010928100EC
:100620008091810088608093810080918100816049
:1006300080938100E4E9F0E08491E82FF0E0EE0F90
:10064000FF1FE358FF4F85919491E8EAF0E0849111
:100650008093CE0238CF1092B0001092B1008091FA
:10066000B00082608093B0008091B100816080937F
:10067000B100E4E9F0E08491E82FF0E0EE0FFF1F15
:10068000E358FF4F859194919093CD028093CC02D3
:10069000E8EAF0E084918093CB0215CFEFEFCE161D
:1006A000D104E104F10409F00CF4B9C068E478EE77
:1006B00081E090E0A50191010E94300669017A0174
:1006C000F1E0CF1AD108E108F1082985222309F4C5
:1006D00056C19FEFC916D104E104F10409F00CF4EE
:1006E00065CF62E17AE780E090E0A50194010E9485
:1006F000300669017A01E1E0CE1AD108E108F1087B
:10070000F985FF2309F420C18FEFC816D104E10455
:10071000F10411F008F000C186E00FC164E274EF4B
:1007200080E090E0A50194010E94300669017A0101
:1007300081E0C81AD108E108F10885E09FEFC916E9
:10074000D104E104F10409F008F4F7C062E17AE7AA
:1007500080E090E0A50194010E94300669017A01D1
:10076000E1E0CE1AD108E108F108CECF81E0298579
:100770002111E3C095B5987F892B85BD2FEF3FEF01
:10078000A901411451046104710409F074C0898500
:10079000813009F48EC0823009F49DC081110EC0F1
:1007A000C7BC2093D8023093D9024093DA02509309
:1007B000DB0280916E00826080936E00C301B20103
:1007C0000E94010526E636E646EA5FE30E946505DB
:1007D0000E94C9046B01770FEE08FF080E94110107
:1007E0004B015C01C114D104E104F10409F483C09C
:1007F0000E941101681979098A099B09683E7340B2
:100800008105910578F391E0C91AD108E108F10852
:10081000E8EE8E0EE3E09E1EA11CB11CE3CF82E049
:10082000A6CFB12CA12C60E072E18AE790E0A5018F
:1008300091010E94300669017A0181E0C81AD1084D
:10084000E108F108C114D10491E0E906F10404F5CE
:1008500091E0F985F13009F091CF80918100887F96
:10086000892B809381002FEF3FEFA90141145104A0
:1008700061047104F1F09101220F331FD8010E942D
:100880004F0628EE33E040E050E00E940E067FCF96
:1008900068E478EE81E090E0A50191010E943006C5
:1008A00069017A01E1E0CE1AD108E108F10893E08C
:1008B000D0CFD0928900C09288002093D402309388
:1008C000D5024093D6025093D70280916F00826088
:1008D00080936F0073CFC092B3002093D002309307
:1008E000D1024093D2025093D30280917000826073
:1008F0008093700063CF83E00E949B0089819A817E
:10090000815C924009F0BFCD80E090E0892B09F432
:10091000B2CD0E940000AFCDCB80DC80ED80FE80A8
:100920009AE0F594E794D794C7949A95D1F721E08B
:10093000C21AD108E108F10887E09091B100987FD0
:10094000892B8093B1001ACF84E0EFEFCE16D1044B
:10095000E104F10409F008F40DCFCB80DC80ED80D8
:10096000FE808AE0F594E794D794C7948A95D1F7EE
:1009700091E0C91AD108E108F10885E0FBCE8FEFBC
:10098000C816D104E104F10411F00CF0AACE83E002
:10099000F1CE0E94D0046894B1110C945F050895C3
:1009A0000E94440588F09F5798F0B92F9927B751B6
:1009B000B0F0E1F0660F771F881F991F1AF0BA9503
:1009C000C9F714C0B13091F00E945E05B1E00895FE
:1009D0000C945E05672F782F8827B85F39F0B93FF0
:1009E000CCF3869577956795B395D9F73EF49095B6
:1009F0008095709561957F4F8F4F9F4F0895E89434
:100A000009C097FB3EF490958095709561957F4F56
:100A10008F4F9F4F9923A9F0F92F96E9BB27939504
:100A2000F695879577956795B795F111F8CFFAF414
:100A3000BB0F11F460FF1BC06F5F7F4F8F4F9F4F45
:100A400016C0882311F096E911C0772321F09EE8A3
:100A5000872F762F05C0662371F096E8862F70E009
:100A600060E02AF09A95660F771F881FDAF7880FE3
:100A70009695879597F9089557FD9058440F551FFF
:100A800059F05F3F71F04795880F97FB991F61F010
:100A90009F3F79F087950895121613061406551F87
:100AA000F2CF4695F1DF08C0161617061806991FF3
:100AB000F1CF86957105610508940895E894BB27E8
:100AC00066277727CB0197F908950E9478050C9443
:100AD000E9050E94DB0538F00E94E20520F095232D
:100AE00011F00C94D2050C94D80511240C945F05D8
:100AF0000E943C0570F3959FC1F3950F50E0551F80
:100B0000629FF001729FBB27F00DB11D639FAA2762
:100B1000F00DB11DAA1F649F6627B00DA11D661FB1
:100B2000829F2227B00DA11D621F739FB00DA11DD2
:100B3000621F839FA00D611D221F749F3327A00D8C
:100B4000611D231F849F600D211D822F762F6A2F28
:100B500011249F5750409AF0F1F088234AF0EE0F8D
:100B6000FF1FBB1F661F771F881F91505040A9F7BA
:100B70009E3F510580F00C94D2050C945F055F3FB9
:100B8000E4F3983ED4F3869577956795B795F795F6
:100B9000E7959F5FC1F7FE2B880F911D969587956E
:100BA00097F9089597F99F6780E870E060E00895ED
:100BB0009FEF80EC089500240A9416161706180675
:100BC0000906089500240A94121613061406050651
:100BD0000895092E0394000C11F4882352F0BB0FE2
:100BE00040F4BF2B11F460FF04C06F5F7F4F8F4F45
:100BF0009F4F089597FB072E16F4009407D077FDBA
:100C000009D00E94560607FC05D03EF490958195C8
:100C10009F4F0895709561957F4F0895A1E21A2E18
:100C2000AA1BBB1BFD010DC0AA1FBB1FEE1FFF1F90
:100C3000A217B307E407F50720F0A21BB30BE40BE0
:100C4000F50B661F771F881F991F1A9469F7609527
:100C50007095809590959B01AC01BD01CF010895E1
:100C6000052E97FB1EF400940E94470657FD07D0FF
:100C70000E940E0607FC03D04EF40C9447065095D4
:100C80004095309521953F4F4F4F5F4F0895909578
:100C90008095709561957F4F8F4F9F4F08950E946B
:100CA0006A06B7FF0895821B930B0895AA1BBB1B0E
:100CB00051E107C0AA1FBB1FA617B70710F0A61B5C
:100CC000B70B881F991F5A95A9F780959095BC017D
:100CD000CD010895A29FB001B39FC001A39F700DE5
:100CE000811D1124911DB29F700D811D1124911D34
:060CF0000895F894FFCF07
:100CF600FFD201D201D201D201D201D201D201D258
:100D060001D201D201D201D201D201D201D201D245
:100D160001D201D201D201D2014B024B024B024B4E
:100D2600020B020B020B020B02BA02BA02BA02BA99
:100D36000210031003100310031003100310031016
:100D46000310031003100310030B02D201B8015D58
:100D5600018801000088014B020B020000D201004D
:100D660000B8010000B801B8010B020000D201B8BA
:100D760001880100008801A4037003A4037003A482
:100D860003880100008801A4037003A4037003A470
:100D9600038801000088014B020B020000D201000B
:100DA60000B8010000B801B8010B020000D201B87A
:100DB60001880100008801A4037003A4037003A442
:100DC60003880100008801A4037003A4037003A430
:100DD60003040004000400040004000400040004EA
:100DE60000040004000400040004000400040004DD
:100DF60000040004000400040004000400040004CD
:100E060000040004000400040004000400040004BC
:100E160000040004000400040004000400040004AC
:100E2600000400040004000400040004000400049C
:100E3600000400040004000400040004000400048C
:100E4600000400040004000400040004000400047C
:100E5600000400040004000400040004000400046C
:100E6600000400040004000400040004000400045C
:100E7600000400040004000400040004000400044C
:100E8600000400040004000400040004000400043C
:100E9600000400040004000400040004000400042C
:100EA600000400040004000400040004000400041C
:020EB60000003A
:00000001FF
