:100000000C9462000C948A000C948A000C948A0070
:100010000C948A000C948A000C948A000C948A0038
:100020000C948A000C948A000C948A000C948A0028
:100030000C948A000C948A000C948A000C948A0018
:100040000C94D7020C948A000C948A000C948A00B9
:100050000C948A000C948A000C948A000C948A00F8
:100060000C948A000C948A000000000024002700F1
:100070002A0000000000250028002B0000000000DE
:1000800023002600290004040404040404040202DA
:100090000202020203030303030301020408102007
:1000A0004080010204081020010204081020000012
:1000B0000008000201000003040700000000000027
:1000C0000000000411241FBECFEFD8E0DEBFCDBF7B
:1000D00011E0A0E0B1E0EAE4FBE002C005900D927F
:1000E000A037B107D9F721E0A0E7B1E001C01D9228
:1000F000A338B207E1F710E0C2E6D0E004C02197D0
:10010000FE010E949D05C136D107C9F70E94210357
:100110000C94A3050C940000833081F028F4813006
:1001200099F08230A9F008958730A9F08830C9F09D
:100130008430B1F4809180008F7D03C08091800075
:100140008F7780938000089584B58F7784BD08955C
:1001500084B58F7DFBCF8091B0008F778093B00006
:1001600008958091B0008F7DF9CF1F93CF93DF93D7
:10017000282F30E0F901E255FF4F8491F901E6564E
:10018000FF4FD491F901EA57FF4FC491CC23A9F056
:10019000162F81110E948C00EC2FF0E0EE0FFF1F54
:1001A000EE58FF4FA591B4918FB7F894EC911111CF
:1001B00008C0D095DE23DC938FBFDF91CF911F91D4
:1001C0000895DE2BF8CFCF93DF93CBE7D1E060E04B
:1001D0008E810E94B50060E08F810E94B50061E0D1
:1001E0008E810E94B50061E08F81DF91CF910C94E8
:1001F000B500CF93DF93CBE7D1E061E08E810E9421
:10020000B50061E08F810E94B50060E08F810E949F
:10021000B50060E08E81DF91CF910C94B500CF9353
:10022000DF9390E0FC01E656FF4F24918A579F4FE1
:10023000FC0184918823D1F090E0880F991FFC0184
:10024000E859FF4FA591B491FC01EE58FF4FC591BD
:10025000D49161110EC09FB7F8948C91E22FE09574
:100260008E238C932881E223E8839FBFDF91CF9177
:1002700008958FB7F894EC91E22BEC938FBFF6CFF3
:100280000F931F93CF93DF93D82FC8E060E0809146
:1002900081010E94B5000D2F0D2E000C110B61E0A5
:1002A000D0FF60E0809182010E94B500159507950E
:1002B000D02F61E0809181010E94B500C15031F7DB
:1002C00060E0809181010E94B50061E0809182012F
:1002D0000E94B50061E0809181010E94B50060E05C
:1002E000809182010E940F0183EC90E00197F1F769
:1002F0002091820130E0F901E255FF4F8491F9012C
:10030000E656FF4FD491F901EA57FF4FC491CC2331
:1003100081F181110E948C00EC2FF0E0EE0FFF1FA5
:10032000E458FF4FA591B491EC91ED23C1E0D0E0EA
:1003300009F4C0E0C1110AC061E0809182010E940D
:100340000F0160E0809182010E94B50003EC10E093
:10035000C8010197F1F761E0809182010E940F01CD
:10036000C8010197F1F7CE01DF91CF911F910F9155
:100370000895C0E0D0E0E0CFCF93DF93D82FE62FF1
:100380006F37D9F1603140F50E2E000CFF0BE55AA6
:10039000FE4F808190917E01C0E09111C0E8C80FAE
:1003A0000E94F90084E40E9440010E94E3000E9440
:1003B000F9008D2F806C0E9440018C2F0E9440011B
:1003C0000E94E3000E94F90080917D010E9440019B
:1003D000DF91CF910C94E30080ED860F8A3030F4EA
:1003E0000E2E000CFF0BE55DFE4FD3CFE052EB3538
:1003F00020F4F0E0E050FF4FCCCF80E0CBCF3FB710
:10040000F8948091750190917601A0917701B09157
:10041000780126B5A89B05C02F3F19F00196A11DB4
:10042000B11D3FBFBA2FA92F982F8827BC01CD013E
:10043000620F711D811D911D42E0660F771F881F9D
:10044000991F4A95D1F708958F929F92AF92BF92CC
:10045000CF92DF92EF92FF926B017C010E94FF012D
:100460004B015C01C114D104E104F104B9F00E9414
:10047000FF01681979098A099B09683E7340810563
:10048000910580F321E0C21AD108E108F10888EE55
:10049000880E83E0981EA11CB11CE4CFFF90EF9062
:1004A000DF90CF90BF90AF909F908F9008954F9224
:1004B0005F926F927F92AF92BF92CF92DF92EF9254
:1004C000FF920F931F93CF93DF932B013C017C018D
:1004D0006B01E894F7F820E030E0A901C701B6010C
:1004E0000E94700520E030E040E05FE387FD3CC003
:1004F000C701B6010E9417040E948804EB01F12C89
:10050000E12C9AE0C92ED12C00917F01109180013D
:10051000AA24A394B12C20E030E0A901C301B201C8
:100520000E94830487FD02C0B12CA12CC8018A1946
:100530009B09E816F906ECF40E191F090150110980
:100540006FE7209729F0CE01B6010E947505682F4C
:10055000802F0E94BC01CE01B6010E947505EB01FF
:100560008FEFE81AF80AD0CFC701B6010E9416042F
:10057000C3CF20E030E0A901C301B2010E9483048F
:1005800087FF04C06DE280E00E94BC0110927E01F2
:10059000DF91CF911F910F91FF90EF90DF90CF905F
:1005A000BF90AF907F906F905F904F9008951F9293
:1005B0000F920FB60F9211242F933F938F939F9317
:1005C000AF93BF938091710190917201A0917301DB
:1005D000B09174013091700123E0230F2D3758F54D
:1005E0000196A11DB11D209370018093710190931C
:1005F0007201A0937301B093740180917501909181
:100600007601A0917701B09178010196A11DB11DED
:100610008093750190937601A0937701B093780150
:10062000BF91AF919F918F913F912F910F900FBEEE
:100630000F901F90189526E8230F0296A11DB11D5B
:10064000D2CF789484B5826084BD84B5816084BD46
:1006500085B5826085BD85B5816085BD80916E0060
:10066000816080936E001092810080918100826091
:1006700080938100809181008160809381008091CE
:1006800080008160809380008091B10084608093BD
:10069000B1008091B00081608093B00080917A00B9
:1006A000846080937A0080917A00826080937A00DF
:1006B00080917A00816080937A0080917A008068CE
:1006C00080937A001092C1006FE780E00E94BC0125
:1006D0006FE781E00E94BC016FE782E00E94BC01ED
:1006E0006FE783E00E94BC0180E480937B0180EC93
:1006F00080937C018FE880937D0160E070E080E270
:1007000091E40E94570264EF71E080E090E00E9463
:10071000240260E070E48AE994E40E94570264EFE6
:1007200071E080E090E00E9424028BE6E82E81E0F8
:10073000F82ED0E0C0E080917F0190918001C3301D
:10074000D10561F1C817D907FCF064EF71E080E0D2
:1007500090E00E9424026E0110E000E080917F0191
:10076000909180012FEFC21AD20A081719078CF452
:10077000F601E81BF90BE559FE4F6081802F0E94BE
:10078000BC010F5F1F4FEACFF70160818C2F0E94E1
:10079000BC012196FFEFEF1AFF0ACDCF80917F01B8
:1007A00090918001C817D90734F46FE78C2F0E940D
:1007B000BC012196F3CF64EF71E080E090E00E94ED
:1007C0002402C0E0D0E06091790170917A01CB0100
:1007D000019690937A0180937901072E000C880B83
:1007E000990B0E94C0040E94570264E670E080E00A
:1007F00090E00E942402209731F30E940000E3CF92
:10080000CF93DF93CBE7D1E084E090E09D838C83AE
:1008100081E18E8380E18F8361E081E10E940F019D
:1008200061E08F81DF91CF910C940F015058BB276D
:10083000AA270E942E040C9436050E94280538F041
:100840000E942F0520F039F49F3F19F426F40C94F0
:1008500025050EF4E095E7FB0C941F05E92F0E9497
:10086000470558F3BA17620773078407950720F006
:1008700079F4A6F50C9469050EF4E0950B2EBA2FC9
:10088000A02D0B01B90190010C01CA01A001112496
:10089000FF27591B99F0593F50F4503E68F11A1642
:1008A000F040A22F232F342F4427585FF3CF4695D3
:1008B00037952795A795F0405395C9F77EF41F16F5
:1008C000BA0B620B730B840BBAF09150A1F0FF0FBF
:1008D000BB1F661F771F881FC2F70EC0BA0F621FAB
:1008E000731F841F48F4879577956795B795F7959B
:1008F0009E3F08F0B0CF9395880F08F09927EE0F30
:100900009795879508950E94FB0408F481E0089567
:100910000E948F046894B1110C946A0508950E9496
:100920004F0588F09F5798F0B92F9927B751B0F02D
:10093000E1F0660F771F881F991F1AF0BA95C9F763
:1009400014C0B13091F00E946905B1E008950C9493
:100950006905672F782F8827B85F39F0B93FCCF346
:10096000869577956795B395D9F73EF490958095E0
:10097000709561957F4F8F4F9F4F0895E89409C000
:1009800097FB3EF490958095709561957F4F8F4FC2
:100990009F4F9923A9F0F92F96E9BB279395F695D8
:1009A000879577956795B795F111F8CFFAF4BB0F56
:1009B00011F460FF1BC06F5F7F4F8F4F9F4F16C0BA
:1009C000882311F096E911C0772321F09EE8872F44
:1009D000762F05C0662371F096E8862F70E060E000
:1009E0002AF09A95660F771F881FDAF7880F969579
:1009F000879597F90895990F0008550FAA0BE0E81D
:100A0000FEEF16161706E807F907C0F012161306D0
:100A1000E407F50798F0621B730B840B950B39F410
:100A20000A2661F0232B242B252B21F408950A2676
:100A300009F4A140A6958FEF811D811D089597F9B6
:100A40009F6780E870E060E008959FEF80EC089574
:100A500000240A941616170618060906089500249D
:100A60000A9412161306140605060895092E039417
:100A7000000C11F4882352F0BB0F40F4BF2B11F48B
:100A800060FF04C06F5F7F4F8F4F9F4F089557FDEA
:100A90009058440F551F59F05F3F71F04795880FEC
:100AA00097FB991F61F09F3F79F087950895121683
:100AB00013061406551FF2CF4695F1DF08C016162F
:100AC00017061806991FF1CF8695710561050894E0
:100AD0000895E894BB2766277727CB0197F90895F7
:100AE0000E94FB0408F48FEF089597FB072E16F47D
:100AF000009407D077FD09D00E94890507FC05D036
:100B00003EF4909581959F4F0895709561957F4F24
:100B10000895AA1BBB1B51E107C0AA1FBB1FA61744
:100B2000B70710F0A61BB70B881F991F5A95A9F796
:100B300080959095BC01CD010895EE0FFF1F0590A3
:0A0B4000F491E02D0994F894FFCF22
:100B4A0000000000000000000000630000400000F8
:100B5A00000000000000000000000000000000008B
:100B6A0000777C395E79713576061E753837545CA4
:100B7A00737B506D781C3E7E766E1B000000010868
:100B8A00005F7C585E797135740416753837545C89
:100B9A007367506D781C3E2A766E1B3F065B4F6664
:100BAA006D7D077F6F777C395E79714F464600000D
:107E0000112484B714BE81FFF0D085E080938100F7
:107E100082E08093C00088E18093C10086E0809377
:107E2000C20080E18093C4008EE0C9D0259A86E02C
:107E300020E33CEF91E0309385002093840096BBD3
:107E4000B09BFECF1D9AA8958150A9F7CC24DD24C4
:107E500088248394B5E0AB2EA1E19A2EF3E0BF2EE7
:107E6000A2D0813461F49FD0082FAFD0023811F036
:107E7000013811F484E001C083E08DD089C08234E0
:107E800011F484E103C0853419F485E0A6D080C0E4
:107E9000853579F488D0E82EFF2485D0082F10E0AE
:107EA000102F00270E291F29000F111F8ED06801E7
:107EB0006FC0863521F484E090D080E0DECF843638
:107EC00009F040C070D06FD0082F6DD080E0C81688
:107ED00080E7D80618F4F601B7BEE895C0E0D1E017
:107EE00062D089930C17E1F7F0E0CF16F0E7DF06D8
:107EF00018F0F601B7BEE89568D007B600FCFDCFD4
:107F0000A601A0E0B1E02C9130E011968C91119780
:107F100090E0982F8827822B932B1296FA010C0160
:107F200087BEE89511244E5F5F4FF1E0A038BF0790
:107F300051F7F601A7BEE89507B600FCFDCF97BE46
:107F4000E89526C08437B1F42ED02DD0F82E2BD052
:107F50003CD0F601EF2C8F010F5F1F4F84911BD097
:107F6000EA94F801C1F70894C11CD11CFA94CF0C13
:107F7000D11C0EC0853739F428D08EE10CD085E9AC
:107F80000AD08FE07ACF813511F488E018D01DD067
:107F900080E101D065CF982F8091C00085FFFCCF94
:107FA0009093C60008958091C00087FFFCCF809118
:107FB000C00084FD01C0A8958091C6000895E0E648
:107FC000F0E098E1908380830895EDDF803219F02E
:107FD00088E0F5DFFFCF84E1DECF1F93182FE3DFCA
:107FE0001150E9F7F2DF1F91089580E0E8DFEE27F6
:047FF000FF270994CA
:027FFE00040479
:0400000300007E007B
:00000001FF
