:100000000C945C000C946E000C946E000C946E00CA
:100010000C946E000C946E000C946E000C946E00A8
:100020000C946E000C946E000C946E000C946E0098
:100030000C946E000C946E000C946E000C946E0088
:100040000C948F010C946E000C946E000C946E0056
:100050000C946E000C946E000C946E000C946E0068
:100060000C946E000C946E00000000080002010069
:100070000003040700000000000000000000000072
:10008000250028002B0000000000240027002A0083
:10009000040404040404040402020202020203032E
:1000A0000303030301020408102040800102040836
:1000B000102001020408102011241FBECFEFD8E049
:1000C000DEBFCDBF21E0A0E0B1E001C01D92AB30AA
:1000D000B207E1F70E94D9010C94EB050C940000E3
:1000E00090E0FC01EC55FF4F249180579F4FFC019D
:1000F0008491882399F090E0880F991FFC01EA57BA
:10010000FF4FA591B491FC01E458FF4F8591949164
:100110008FB7F894EC91E22BEC938FBF089590E0A9
:10012000FC01E859FF4F2491FC01EC55FF4F34913D
:10013000FC01E057FF4FE491EE23C9F0222339F090
:10014000233001F1A8F4213019F1223029F1F0E037
:10015000EE0FFF1FE458FF4FA591B4918FB7F894AD
:10016000EC91611126C030953E233C938FBF0895DA
:100170002730A9F02830C9F0243049F78091800059
:100180008F7D03C0809180008F7780938000DFCFC8
:1001900084B58F7784BDDBCF84B58F7DFBCF809115
:1001A000B0008F778093B000D2CF8091B0008F7D68
:1001B000F9CF3E2BDACF1F93CF93DF93182FEB01AC
:1001C0000E947000209739F460E0812FDF91CF9179
:1001D0001F910C948F00CF3FD10511F461E0F5CF52
:1001E000E12FF0E0E859FF4FE491E33031F140F4C2
:1001F000E130B1F0E230E1F0C038D1057CF7E4CF76
:10020000E73029F1E83059F1E430B1F7809180000E
:10021000806280938000D0938B00C0938A0004C0DA
:1002200084B5806884BDC7BDDF91CF911F910895CB
:1002300084B5806284BDC8BDF7CF8091800080689E
:1002400080938000D0938900C0938800EDCF809187
:10025000B00080688093B000C093B300E5CF809178
:10026000B00080628093B000C093B400DDCF3FB790
:10027000F8948091050190910601A0910701B09139
:10028000080126B5A89B05C02F3F19F00196A11DB6
:10029000B11D3FBFBA2FA92F982F8827BC01CD01D0
:1002A000620F711D811D911D42E0660F771F881F2F
:1002B000991F4A95D1F708958F929F92AF92BF925E
:1002C000CF92DF92EF92FF926B017C010E94370187
:1002D0004B015C01C114D104E104F104B9F00E94A6
:1002E0003701681979098A099B09683E73408105BD
:1002F000910580F321E0C21AD108E108F10888EEE7
:10030000880E83E0981EA11CB11CE4CFFF90EF90F3
:10031000DF90CF90BF90AF909F908F9008951F92E5
:100320000F920FB60F9211242F933F938F939F93A9
:10033000AF93BF938091010190910201A0910301BD
:10034000B09104013091000123E0230F2D3758F5BF
:100350000196A11DB11D209300018093010190938E
:100360000201A0930301B0930401809105019091D3
:100370000601A0910701B09108010196A11DB11DD0
:100380008093050190930601A0930701B0930801A3
:10039000BF91AF919F918F913F912F910F900FBE81
:1003A0000F901F90189526E8230F0296A11DB11DEE
:1003B000D2CFCF93DF9300D000D01F92CDB7DEB75E
:1003C000789484B5826084BD84B5816084BD85B530
:1003D000826085BD85B5816085BD80916E0081603C
:1003E00080936E00109281008091810082608093E2
:1003F00081008091810081608093810080918000E4
:100400008160809380008091B10084608093B1000E
:100410008091B00081608093B00080917A00846008
:1004200080937A0080917A00826080937A00809134
:100430007A00816080937A0080917A00806880934E
:100440007A001092C10086E00E94700085E00E9450
:10045000700083E00E94700061E086E00E948F00DF
:1004600068EE73E080E090E00E945C0160E086E06E
:100470000E948F0061E085E00E948F0068EE73E0CB
:1004800080E090E00E945C0160E085E00E948F00C7
:1004900061E083E00E948F0068EE73E080E090E00E
:1004A0000E945C0160E083E00E948F0040E0A42E87
:1004B00040E0B42EC0900901D0900A018FEFC81619
:1004C000D10409F00CF478C0B6016F5F7109072EF2
:1004D000000C880B990B0E94A60420E030E04FE747
:1004E00053E40E94FC0320E030E044EB53E40E941C
:1004F00056052B013C0120E030E044EB53E40E9420
:10050000F703811103C0412C512C320120E030E06F
:1005100040E752E4C301B2010E94FC032B013C01FD
:100520000E946E044B01072E000C880B990B0E9451
:10053000A6049B01AC01C301B2010E948A039B0186
:10054000AC0160E070E080E89FE30E948A03698369
:100550007A838B839C832DEC3CEC4CE45DE30E941E
:1005600056052B017C0129813A814B815C8160E039
:1005700070E080E89FE30E948A032DEC3CEC4CE4A1
:100580005DE30E9456058B018D83998382E0881676
:10059000910409F490C0B4F48114910409F4B5C035
:1005A0008A94892849F1612C712C812C912C00E0CE
:1005B00010E01D82198288C0B6010D2C000C880B3A
:1005C000990B89CF84E08816910409F48EC00CF44D
:1005D00080C085E08816910431F73201470100E0C0
:1005E00010E01D8219824DEC442E5CEC552E6CE41B
:1005F000E62E7DE3F72E0AC0612C712C812C912C04
:100600000DEC1CEC8CE48D838DE3898320E030E0DD
:100610004FE753E4B201C7010E9456050E946E04E1
:100620002B013324222420E030E04FE753E4B801CB
:100630008D8199810E9456050E946E04982F872F04
:10064000762F6627262A372A482A592A20E030E0C2
:100650004FE753E4B301C4010E9456050E946E04A3
:1006600032012101462A572A682A662D70E086E069
:100670000E94DB00652D70E085E00E94DB00642DA8
:1006800070E083E00E94DB00C60101966EEF71E02E
:100690000E94C30590930A01809309016AE070E00B
:1006A00080E090E00E945C01A114B10409F402CF43
:1006B0000E940000FFCE38018D8099800DEC1CEC6B
:1006C0008CE48D838DE38983412C512CE12CF12C1A
:1006D0009DCF8201ED82F9828DEC682E9CEC792E03
:1006E0002CE4822E3DE3932EEFCF2801ED80F9809C
:1006F000EDEC6E2EFCEC7F2EACE48A2EBDE39B2E3F
:1007000000E010E01D82198281CF612C712C812CB8
:10071000912C69CF5058BB27AA270E94A2030C94A2
:100720001C050E940E0538F00E94150520F039F4D2
:100730009F3F19F426F40C940B050EF4E095E7FBAB
:100740000C940505E92F0E942D0558F3BA1762078E
:1007500073078407950720F079F4A6F50C944F05EC
:100760000EF4E0950B2EBA2FA02D0B01B9019001CC
:100770000C01CA01A0011124FF27591B99F0593F10
:1007800050F4503E68F11A16F040A22F232F342F58
:100790004427585FF3CF469537952795A795F040A6
:1007A0005395C9F77EF41F16BA0B620B730B840BBB
:1007B000BAF09150A1F0FF0FBB1F661F771F881F73
:1007C000C2F70EC0BA0F621F731F841F48F48795CB
:1007D00077956795B795F7959E3F08F0B0CF9395BD
:1007E000880F08F09927EE0F9795879508950E9436
:1007F000E10408F481E008950E9410040C941C05A3
:100800000E94150558F00E940E0540F029F45F3F44
:1008100029F00C94050551110C9450050C940B050E
:100820000E942D0568F39923B1F3552391F3951B8D
:10083000550BBB27AA2762177307840738F09F5F01
:100840005F4F220F331F441FAA1FA9F335D00E2E6E
:100850003AF0E0E832D091505040E695001CCAF7DB
:100860002BD0FE2F29D0660F771F881FBB1F26179E
:1008700037074807AB07B0E809F0BB0B802DBF0175
:10088000FF2793585F4F3AF09E3F510578F00C9444
:1008900005050C9450055F3FE4F3983ED4F386952C
:1008A00077956795B795F7959F5FC9F7880F911D65
:1008B0009695879597F90895E1E0660F771F881F51
:1008C000BB1F621773078407BA0720F0621B730B04
:1008D000840BBA0BEE1F88F7E09508950E9475040B
:1008E0006894B1110C94500508950E94350588F064
:1008F0009F5798F0B92F9927B751B0F0E1F0660FE4
:10090000771F881F991F1AF0BA95C9F714C0B13024
:1009100091F00E944F05B1E008950C944F05672FA8
:10092000782F8827B85F39F0B93FCCF38695779553
:100930006795B395D9F73EF490958095709561953C
:100940007F4F8F4F9F4F0895E89409C097FB3EF467
:1009500090958095709561957F4F8F4F9F4F99230C
:10096000A9F0F92F96E9BB279395F695879577958A
:100970006795B795F111F8CFFAF4BB0F11F460FF4A
:100980001BC06F5F7F4F8F4F9F4F16C0882311F0A2
:1009900096E911C0772321F09EE8872F762F05C0B6
:1009A000662371F096E8862F70E060E02AF09A9551
:1009B000660F771F881FDAF7880F9695879597F946
:1009C0000895990F0008550FAA0BE0E8FEEF1616E0
:1009D0001706E807F907C0F012161306E407F50733
:1009E00098F0621B730B840B950B39F40A2661F0A7
:1009F000232B242B252B21F408950A2609F4A1404A
:100A0000A6958FEF811D811D089597F99F6780E856
:100A100070E060E008959FEF80EC089500240A9450
:100A20001616170618060906089500240A941216C9
:100A30001306140605060895092E0394000C11F4FC
:100A4000882352F0BB0F40F4BF2B11F460FF04C0A9
:100A50006F5F7F4F8F4F9F4F089557FD9058440F02
:100A6000551F59F05F3F71F04795880F97FB991F0D
:100A700061F09F3F79F087950895121613061406CA
:100A8000551FF2CF4695F1DF08C016161706180657
:100A9000991FF1CF86957105610508940895E89432
:100AA000BB2766277727CB0197F908950E94690530
:100AB0000C941C050E940E0538F00E94150520F0CC
:100AC000952311F00C9405050C940B0511240C943E
:100AD00050050E942D0570F3959FC1F3950F50E0CE
:100AE000551F629FF001729FBB27F00DB11D639FE0
:100AF000AA27F00DB11DAA1F649F6627B00DA11D86
:100B0000661F829F2227B00DA11D621F739FB00D2B
:100B1000A11D621F839FA00D611D221F749F33279B
:100B2000A00D611D231F849F600D211D822F762F34
:100B30006A2F11249F5750409AF0F1F088234AF011
:100B4000EE0FFF1FBB1F661F771F881F915050407D
:100B5000A9F79E3F510580F00C9405050C945005B3
:100B60005F3FE4F3983ED4F3869577956795B79504
:100B7000F795E7959F5FC1F7FE2B880F911D96951E
:100B8000879597F9089597FB072E16F4009407D0E0
:100B900077FD09D00E94D70507FC05D03EF490955B
:100BA00081959F4F0895709561957F4F0895AA1B79
:100BB000BB1B51E107C0AA1FBB1FA617B70710F048
:100BC000A61BB70B881F991F5A95A9F7809590957A
:0A0BD000BC01CD010895F894FFCF99
:00000001FF
