:100000000C9462000C947F000C947F000C947F0091
:100010000C947F000C947F000C947F000C94990248
:100020000C947F000C947F000C947F000C947F0054
:100030000C947F000C947F000C947F000C947F0044
:100040000C944F020C947F000C947F000C947F0062
:100050000C947F000C947F000C947F000C947F0024
:100060000C947F000C947F00000000002400270007
:100070002A000000000023002600290000000008DC
:10008000000201000003040700000000000000005F
:10009000010204081020408001020408102001021F
:1000A0000408102000000000250028002B00040494
:1000B0000404040404040202020202020303030310
:1000C0000303020011241FBECFEFD8E0DEBFCDBF77
:1000D00011E0A0E0B1E0EAE3F8E002C005900D9283
:1000E000A230B107D9F721E0A2E0B1E001C01D9232
:1000F000AC31B207E1F70E943D030C941B040C9451
:100100000000833081F028F4813099F08230A9F02A
:1001100008958730A9F08830C9F08430B1F4809117
:1001200080008F7D03C0809180008F778093800056
:10013000089584B58F7784BD089584B58F7DFBCFF6
:100140008091B0008F778093B00008958091B000C7
:100150008F7DF9CFCF93DF9390E0FC01E057FF4F05
:10016000249182559F4FFC0184918823D1F090E027
:10017000880F991FFC01E859FF4FA591B491FC012C
:10018000EC55FF4FC591D49161110EC09FB7F89403
:100190008C91E22FE0958E238C932881E223E883D3
:1001A0009FBFDF91CF9108958FB7F894EC91E22B28
:1001B000EC938FBFF6CF4F925F926F927F928F92A8
:1001C0009F92AF92BF92CF92DF92EF92FF920F93E6
:1001D0001F93CF938C014A015B018091000188300D
:1001E00099F08F3F09F45AC0CF911F910F91FF9062
:1001F000EF90DF90CF90BF90AF909F908F907F90C7
:100200006F905F904F900895E2ECF0E0C491C7FDCD
:10021000EBCF61E088E00E94AA00CC2319F0C23045
:1002200009F0ABC0F12CE12C60E072E18AE790E0CC
:10023000A70198010E94E20329013A0162E17AE7ED
:1002400080E090E0A70198010E94E20369017A0131
:1002500081E0C81AD108E108F108CC2309F4E1C013
:1002600096E08FEFC816D104E104F10481F07CF030
:10027000730162012AE0F594E794D794C7942A9514
:10028000D1F781E0C81AD108E108F10897E0809120
:10029000B100887F892B8093B100DEC088E0809315
:1002A0000001E2ECF0E0C491CF3F09F49DCFC130F2
:1002B00021F150F0C23009F43EC0C7FD95CF61E096
:1002C00088E00E94AA00ABCF14BC15BC84B5826044
:1002D00084BD85B5816085BDE6EBF0E0E491F0E09A
:1002E000EE0FFF1FEC55FF4F85919491E8E9F0E088
:1002F000E491E0930F01C0E08CCF10928000109247
:1003000081008091810088608093810080918100CC
:10031000816080938100E6EBF0E0E491F0E0EE0F85
:10032000FF1FEC55FF4F85919491E8E9F0E0E491CF
:10033000E0930E016ECF1092B0001092B100809148
:10034000B00082608093B0008091B10081608093A2
:10035000B100E6EBF0E0E491F0E0EE0FFF1FEC55AA
:10036000FF4F8591949190930D0180930C01E8E9E2
:10037000F0E0E491E0930B014CCF712C612C60E034
:1003800072E18AE790E0A30198010E94E20369010B
:100390007A0181E0C81AD108E108F10891E0C1149E
:1003A000D10481E0E806F10484F068E478EE81E0AD
:1003B00090E0A30198010E94E20369017A0181E0C3
:1003C000C81AD108E108F10893E0C13009F044C02F
:1003D00080918100887F892B809381003DC0D092DD
:1003E0008900C09288002093140130931501409336
:1003F00016015093170180916F00826080936F0007
:10040000F3CEC092B30020931001309311014093BA
:1004100012015093130180917000826080937000EC
:10042000E3CE94E08FEFC816D104E104F10481F02B
:100430007CF0730162019AE0F594E794D794C79435
:100440009A95D1F781E0C81AD108E108F10895E042
:1004500085B5887F892B85BDD801AA0FBB1FA50153
:1004600094010E94010428EE33E040E050E00E9435
:10047000C003C13009F4B3CFC23019F2C111B4CEF8
:10048000C7BC209318013093190140931A0150936F
:100490001B0180916E00826080936E00A5CE1F923A
:1004A0000F920FB60F9211242F933F938F939F9328
:1004B000AF93BF938091070190910801A09109012A
:1004C000B0910A013091060123E0230F2D3758F532
:1004D0000196A11DB11D2093060180930701909301
:1004E0000801A0930901B0930A0180910201909143
:1004F0000301A0910401B09105010196A11DB11D58
:100500008093020190930301A0930401B09305012D
:10051000BF91AF919F918F913F912F910F900FBEFF
:100520000F901F90189526E8230F0296A11DB11D6C
:10053000D2CF1F920F920FB60F9211242F933F9399
:100540004F935F936F937F938F939F93AF93BF93DB
:10055000CF93DF93EF93FF9380911001909111015E
:10056000A0911201B0911301892B8A2B8B2BE1F101
:1005700090910B01E0910C01F0910D018081892790
:1005800080838091100190911101A0911201B0918E
:100590001301181619061A061B069CF48091100107
:1005A00090911101A0911201B09113010197A1093D
:1005B000B1098093100190931101A0931201B0939F
:1005C0001301FF91EF91DF91CF91BF91AF919F9177
:1005D0008F917F916F915F914F913F912F910F90EC
:1005E0000FBE0F901F90189520910001E2ECF0E0F3
:1005F000E4918FEF80930001E13041F120F1E2308E
:1006000059F130E0F901E458FF4F8491F901E057C6
:10061000FF4FD491F901E255FF4FC491CC2389F2E9
:1006200081110E948100EC2FF0E0EE0FFF1FEC55CE
:10063000FF4FA591B4918FB7F894EC91D095DE233C
:10064000DC938FBFBECF10926E00DBCF80916F0026
:100650008D7F80936F00D5CF809170008D7F8093C8
:10066000700081E08093B0008091B100887F846049
:100670008093B1001092B300C4CF789484B58260A7
:1006800084BD84B5816084BD85B5826085BD85B536
:10069000816085BD80916E00816080936E001092B4
:1006A000810080918100826080938100809181002F
:1006B00081608093810080918000816080938000C0
:1006C0008091B10084608093B1008091B00081601E
:1006D0008093B00080917A00846080937A0080914A
:1006E0007A00826080937A0080917A0081608093A2
:1006F0007A0080917A00806880937A001092C1001D
:1007000060E082E00E94AA0061E088E00E94AA0006
:10071000CEE7D0E002E910E090EBE92E90E0F92E70
:1007200020E0C22E20E0D22E48EB5BE060E070E0DB
:1007300088EC90E00E94DB00FE018491F801A49017
:10074000F701B490BB20B1F081110E948100EB2D24
:10075000F0E0EE0FFF1FEE58FF4FA591B4918C9182
:10076000A82241F048E853E160E070E090E080E0CA
:100770000E94DB00C114D104B9F20E940000D4CF62
:10078000A1E21A2EAA1BBB1BFD010DC0AA1FBB1F95
:10079000EE1FFF1FA217B307E407F50720F0A21B07
:1007A000B30BE40BF50B661F771F881F991F1A9474
:1007B00069F760957095809590959B01AC01BD019E
:1007C000CF010895052E97FB1EF400940E94F903B3
:1007D00057FD07D00E94C00307FC03D04EF40C94D1
:1007E000F90350954095309521953F4F4F4F5F4FFE
:1007F000089590958095709561957F4F8F4F9F4F8D
:1008000008950E940C04A59F900DB49F900DA49F85
:10081000800D911D11240895A29FB001B39FC001C6
:10082000A39F700D811D1124911DB29F700D811D1C
:0A0830001124911D0895F894FFCFE4
:02083A00FF00BD
:00000001FF
