:100000000C9463000C948B000C948B000C94721174
:100010000C9472110C9472110C948B000C9474104B
:100020000C948B000C948B000C948B000C948B0024
:100030000C948B000C948B000C948B000C948B0014
:100040000C9428110C948B000C94F6100C94D01086
:100050000C948B000C948B000C948B000C948B00F4
:100060000C948B000C948B000000000023002600F1
:10007000290000000008000201000003040700003E
:1000800000000000000000000000240027002A00FB
:10009000010204081020408001020408102001021F
:1000A0000408102000000000250028002B00040494
:1000B0000404040404040202020202020303030310
:1000C000030302007C1111241FBECFEFD8E0DEBF76
:1000D000CDBF27E0AAEEB2E001C01D92A13AB2075F
:1000E000E1F712E0A0E0B1E0E8E3F2E402C005903D
:1000F0000D92AA3EB107D9F710E0C3E6D0E004C0E4
:100100002197FE010E941A1FC236D107C9F70E942B
:1001100086150C941A210C940000EFE0F5E0A089FC
:10012000B18982E08C93A485B5851C92A685B7859C
:100130008FEC8C93108EA489B58986E08C93A2896C
:10014000B3898C9180618C93A289B3898C918860EA
:100150008C93A289B3898C9180688C930288F389EF
:10016000E02D80818F7D80830895AF92BF92CF92E2
:10017000DF92EF92FF920F931F93CF93DF936C0167
:100180007B018B01040F151FEB015E01AE18BF0848
:10019000C017D10759F06991D601ED91FC910190FA
:1001A000F081E02DC6010995892B79F7C501DF9112
:1001B000CF911F910F91FF90EF90DF90CF90BF9064
:1001C000AF900895FC01538D448D252F30E0842F8E
:1001D00090E0821B930B541710F0CF96089501976F
:1001E0000895FC01918D828D981761F0A28DAE0F5C
:1001F000BF2FB11D5D968C91928D9F5F9F73928FE3
:1002000090E008958FEF9FEF0895FC01918D828D0E
:10021000981731F0828DE80FF11D858D90E00895DB
:100220008FEF9FEF0895FC01918D228D892F90E033
:10023000805C9F4F821B91098F73992708958FE0EF
:1002400095E00E94130121E0892B09F420E0822F20
:10025000089580E090E0892B29F00E941F01811110
:100260000C9400000895FC01A48DA80FB92FB11DB6
:10027000A35ABF4F2C91848D90E001968F739927DC
:10028000848FA689B7892C93A089B1898C918370BA
:1002900080648C93938D848D981306C00288F389B3
:1002A000E02D80818F7D80830895EF92FF920F93E0
:1002B0001F93CF93DF93EC0181E0888F9B8D8C8D12
:1002C00098131AC0E889F989808185FF15C09FB706
:1002D000F894EE89FF896083E889F98980818370C9
:1002E000806480839FBF81E090E0DF91CF911F9178
:1002F0000F91FF90EF900895F62E0B8D10E00F5F99
:100300001F4F0F731127E02E8C8D8E110CC00FB66E
:1003100007FCFACFE889F989808185FFF5CFCE0106
:100320000E943301F1CFEB8DEC0FFD2FF11DE35A4D
:10033000FF4FF0829FB7F8940B8FEA89FB89808189
:100340008062CFCF6FEF8FE095E00C945501CF9393
:10035000DF93EC01888D8823B9F0AA89BB89E889ED
:10036000F9898C9185FD03C0808186FD0DC00FB693
:1003700007FCF7CF8C9185FFF2CF808185FFEDCF11
:10038000CE010E943301E9CFDF91CF9108958330F0
:1003900081F028F4813099F08230A9F008958730F7
:1003A000A9F08830C9F08430B1F4809180008F7D4D
:1003B00003C0809180008F7780938000089584B57A
:1003C0008F7784BD089584B58F7DFBCF8091B00079
:1003D0008F778093B00008958091B0008F7DF9CF22
:1003E000CF93DF93282F30E0F901EE58FF4F84912F
:1003F000F901E057FF4FD491F901E255FF4FC49145
:10040000CC23A1F081110E94C701EC2FF0E0EE0F88
:10041000FF1FE859FF4FA591B491EC91ED2381E0C6
:1004200090E009F480E0DF91CF91089580E090E0C2
:10043000FACF1F93CF93DF93282F30E0F901EE58C6
:10044000FF4F8491F901E057FF4FD491F901E25534
:10045000FF4FC491CC23A9F0162F81110E94C70130
:10046000EC2FF0E0EE0FFF1FEC55FF4FA591B4917C
:100470008FB7F894EC91111108C0D095DE23DC936E
:100480008FBFDF91CF911F910895DE2BF8CFCF93CF
:10049000DF93C9EFD5E061E08E810E94190261E02F
:1004A0008F810E94190260E08F810E94190260E032
:1004B0008E81DF91CF910C941902CF93DF93C9EF16
:1004C000D5E060E08E810E94190260E08F810E9479
:1004D000190261E08E810E94190261E08F81DF9133
:1004E000CF910C9419029091040189130BC0E2EC96
:1004F000F0E0E4919FEF90930401E13049F028F09F
:10050000E23061F060E00C94190210926E00FACFB4
:1005100090916F009D7F90936F00F4CF9091700049
:100520009D7F9093700091E09093B0009091B10006
:10053000987F94609093B1001092B300E3CFCF9373
:10054000DF9390E0FC01E057FF4F249182559F4FCD
:10055000FC0184918823D1F090E0880F991FFC0161
:10056000EA57FF4FA591B491FC01EC55FF4FC5919F
:10057000D49161110EC09FB7F8948C91E22FE09551
:100580008E238C932881E223E8839FBFDF91CF9154
:1005900008958FB7F894EC91E22BEC938FBFF6CFD0
:1005A0000F931F93CF93DF93D82FC8E060E0809123
:1005B000FF050E9419020D2F0D2E000C110B61E09A
:1005C000D0FF60E0809100060E9419021595079502
:1005D000D02F61E08091FF050E941902C15031F7D0
:1005E00060E08091FF050E94190261E080910006A1
:1005F0000E94190261E08091FF050E94190260E0EB
:10060000809100060E949F0283EC90E00197F1F731
:10061000809100060E94F0018C0181110AC061E006
:10062000809100060E949F0260E0809100060E9477
:100630001902C3ECD0E0CE010197F1F761E080919F
:1006400000060E949F022197F1F7C8019927DF91C8
:10065000CF911F910F910895CF93DF93D82FE62F5D
:100660006F37D9F1603140F50E2E000CFF0BEA57C1
:10067000FE4F80819091FC05C0E09111C0E8C80F49
:100680000E94470284E40E94D0020E945D020E9400
:1006900047028D2F806C0E94D0028C2F0E94D002C6
:1006A0000E945D020E9447028091FB050E94D002D9
:1006B000DF91CF910C945D0280ED860F8A3030F48B
:1006C0000E2E000CFF0BEA5AFE4FD3CFE052EB3553
:1006D00020F4F0E0E55DFE4FCCCF80E0CBCF1F9360
:1006E000CF93DF93182FEB0161E00E949F022097C8
:1006F00039F460E0812FDF91CF911F910C941902A2
:10070000CF3FD10511F461E0F5CFE12FF0E0EE58D5
:10071000FF4FE491E33031F140F4E130B1F0E230E9
:10072000E1F0C038D1057CF7E4CFE73029F1E830BB
:1007300059F1E430B1F780918000806280938000AD
:10074000D0938B00C0938A0004C084B5806884BDB8
:10075000C7BDDF91CF911F91089584B5806284BD9C
:10076000C8BDF7CF80918000806880938000D093CF
:100770008900C0938800EDCF8091B000806880939D
:10078000B000C093B300E5CF8091B0008062809349
:10079000B000C093B400DDCF3FB7F8948091F70468
:1007A0009091F804A091F904B091FA0426B5A89BA1
:1007B00005C02F3F19F00196A11DB11D3FBFBA2FF3
:1007C000A92F982F8827BC01CD01620F711D811DB3
:1007D000911D42E0660F771F881F991F4A95D1F738
:1007E00008958F929F92AF92BF92CF92DF92EF9235
:1007F000FF926B017C010E94CC034B015C01C11490
:10080000D104E104F104B9F00E94CC03681979091C
:100810008A099B09683E73408105910580F321E0B8
:10082000C21AD108E108F10888EE880E83E0981E0C
:10083000A11CB11CE4CFFF90EF90DF90CF90BF9050
:10084000AF909F908F9008952FB7F8946091F30424
:100850007091F4048091F5049091F6042FBF0895EF
:100860008F929F92AF92BF92EF92FF920F931F933E
:10087000CF93DF9300D000D0CDB7DEB719821A82B4
:100880001B821C8284E690E0A0E0B0E08093130518
:1008900090931405A0931505B09316058E010F5F74
:1008A0001F4F7E0185E0E80EF11C0E942404609336
:1008B0001705709318058093190590931A058FE01A
:1008C00095E00E94F10097FF38C00E9424048090B8
:1008D000170590901805A0901905B0901A05681991
:1008E00079098A099B098090130590901405A090BE
:1008F0001505B0901605681579058A059B05F8F26F
:100900008981813051F48A818F3F39F48B818F3F07
:1009100021F481E09C819F3F09F080E00F900F90CF
:100920000F900F90DF91CF911F910F91FF90EF905B
:10093000BF90AF909F908F900895F80181938F01A1
:10094000EE16FF0609F0B1CFDBCF0895BC016E5F54
:100950007F4FDC01ED91FC910190F081E02D40E0B2
:10096000099591E0811190E0892F0895089561E043
:10097000FC0184810E9419028091EC028111109285
:10098000EC0208958EBD00000DB407FEFDCF8EB5BC
:1009900008958FEF0C94C2040F931F93CF93DF93AE
:1009A000EC010E9424048B010E94C9048F3F69F06E
:1009B0000E942404601B710B6C177D07A8F380E074
:1009C000DF91CF911F910F91089581E0F9CF8CBDF8
:1009D0009DBD0895DF92EF92FF920F931F93CF93E7
:1009E000DF937C01062FD42E152F83E590E00E9423
:1009F000E70460E0F70186850E94190282E10E9407
:100A0000C204CD2DD12F0C0F1D2F111DC017D107E2
:100A100021F089910E94C204F9CF61E0F701868537
:100A2000DF91CF911F910F91FF90EF90DF900C9489
:100A30001902CF93DF93EC018091EC02811109C080
:100A400081E08093EC028091AC059091AD050E940D
:100A5000E70460E08C81DF91CF910C941902CF9272
:100A6000DF92EF92FF920F931F93CF93DF93EC01EE
:100A7000162F69017A018E81882389F08F819885EC
:100A80009C012F5F3F4F38872F838230924018F4AC
:100A90000E94C904F3CFCE010E94B7041E82CE018A
:100AA0000E9419058CE291E00E94CC04812F8064A1
:100AB0000E94C20408E110E0D701C601002E04C064
:100AC000B695A795979587950A94D2F70E94C20488
:100AD00008501109083F8FEF180771F78FEF0E9438
:100AE000C20410E00E94C9048A8787FF04C01F3F28
:100AF00011F01F5FF7CFDF91CF911F910F91FF9002
:100B0000EF90DF90CF900895CF92DF92EF92FF9217
:100B10000F93CF93DF93EC01690182E141155105F9
:100B20006105710599F08B85833039F089E0440FB8
:100B3000551F661F771F8A95D1F79A01AB0168E1AF
:100B4000CE010E942F05882319F084E08D832DC0EB
:100B50008EEF0E94C20476018EEFD81AF7018191C0
:100B60007F010E94C204EC14FD04C1F78FEF0E94C4
:100B7000C2048FEF0E94C2040E94C9048A878F7149
:100B8000853071F4011116C0CE010E94B70481E0D6
:100B9000DF91CF910F91FF90EF90DF90CF9008956C
:100BA00081E18D83CE010E94B704CE010E94B7047B
:100BB00080E0EECF88E592E00E94CC04811102C073
:100BC00085E1C4CF20E030E0A9016DE0CE010E94B4
:100BD0002F05882311F084E1B9CF0E94C904811147
:100BE000FACFD2CF0F934091EE025091EF02609175
:100BF000F0027091F102411551056105710589F00E
:100C0000082F22EF32E090E080E00E9484058823E4
:100C100049F01092EE021092EF021092F002109240
:100C2000F10281E00F9108950F93CF93C82F809127
:100C3000ED02811105C0C1E08C2FCF910F91089575
:100C400040910001509101016091020170910301F6
:100C50000C2F22EF32E090E080E00E9484058111A9
:100C600002C0C0E0E9CFCC2331F381E00E94F2055D
:100C70008823B9F31092ED02DFCFAF92BF92CF92EB
:100C8000DF92EF92FF921F93CF93DF936B017C0172
:100C9000142F8091000190910101A0910201B09167
:100CA00003018C159D05AE05BF0509F4ADC081E0BB
:100CB0000E9414068823E1F1809106008823A1F0A8
:100CC0008091000090910100A0910200B09103007A
:100CD000C816D906EA06FB0639F480910700909100
:100CE0000800892B09F44FC0C0920000D092010087
:100CF000E0920200F092030080910B00A7019601A0
:100D0000833039F099E0220F331F441F551F9A9505
:100D1000D1F761E190E080E00E942F05882391F0F7
:100D200083E08093050090E080E00E94B70480E0BB
:100D3000DF91CF911F91FF90EF90DF90CF90BF9008
:100D4000AF9008950E942404EB010E94C90480938F
:100D50000A008F3F79F40E9424046C1B7D0B6D32D6
:100D6000714098F38FE08093050090E080E00E944E
:100D7000B704D9CF8E3FC1F510920800109207003A
:100D800081E080930600C2EFD2E082EFA82E84E0DB
:100D9000B82E0E94C9048993AC16BD06D1F7809184
:100DA0000700909108009E5F9093080080930700D1
:100DB00020910900222319F081159240E8F08091DA
:100DC00006008823C9F080910700909108009C01DB
:100DD0002F5F3F4F309308002093070082309240EE
:100DE00028F40E94C904EFCF8DE0BDCF90E080E0F1
:100DF0000E94B70410920600C0920001D092010137
:100E0000E0920201F09203014091ED02412B4093E8
:100E1000ED0281E08DCF4F925F926F927F928F9221
:100E20009F92AF92BF92CF92DF92EF92FF920F9379
:100E30001F93CF93DF93EC0142305105610571059B
:100E400090F480E0DF91CF911F910F91FF90EF9090
:100E5000DF90CF90BF90AF909F908F907F906F90DA
:100E60005F904F90089589859A85AB85BC850196E2
:100E7000A11DB11D84179507A607B70710F3CB88EE
:100E8000DC88ED88FE888F89803109F042C0BB275D
:100E9000A72F962F852F480159012A013B01C80E23
:100EA000D91EEA1EFB1E8091000190910101A091C4
:100EB0000201B0910301C816D906EA06FB0699F5AE
:100EC0008F898031C1F5B301A201552766277727A5
:100ED000440F551F4E505D4FFA01918280828091E0
:100EE000ED0281608093ED028A89823080F08D81ED
:100EF0009E81AF81B8858C0D9D1DAE1DBF1D809359
:100F0000EE029093EF02A093F002B093F10281E021
:100F100099CFDB01CA01E7E0B695A795979587952C
:100F2000EA95D1F7B8CF40E0C701B6010E943D066F
:100F30008111C6CF86CFB301A2014F77552766270F
:100F40007727440F551F440F551F4E505D4FFA0130
:100F500080829182A282B382C2CF8F929F92AF92FF
:100F6000BF92CF92DF92EF92FF920F931F93CF9396
:100F7000DF93FC0181859285A385B4850196A11D2F
:100F8000B11D84179507A607B70770F480E0DF91BD
:100F9000CF911F910F91FF90EF90DF90CF90BF9076
:100FA000AF909F908F90089583889488A588B68885
:100FB0008789803189F5BB27A72F962F852FE901D7
:100FC0006A017B018F01BC01CD01680D791D8A1D6D
:100FD0009B1D8090000190900101A0900201B090B3
:100FE000030186169706A806B90601F5F801878958
:100FF000803111F5DD24EE24FF24F601EE0FFF1FF2
:10100000EE50FD4F80819181B0E0A0E0888399830C
:10101000AA83BB8381E0BBCFDB01CA01C7E0B695E1
:10102000A79597958795CA95D1F7C9CF40E00E94BB
:101030003D068111DBCFAACFE894C7F8DD24EE246A
:10104000FF24F601EE0FFF1FEE0FFF1FEE50FD4FC6
:1010500080819181A281B381BF70D8CF8F929F92FE
:10106000AF92BF92CF92DF92EF92FF920F931F93B6
:10107000CF93DF93EC018D8181110EC080E0DF9171
:10108000CF911F910F91FF90EF90DF90CF90BF9085
:10109000AF909F908F9008950B891C892D893E8970
:1010A000041715072607370748F34A015B0182300A
:1010B00031F48A869B86AC86BD8681E0E0CF8114C0
:1010C0009104A104B10449F41E821F821886198676
:1010D0001A861B861C861D86F0CF0A851B852C85EB
:1010E0003D85EB8DFC8D858590E00996B901A801C1
:1010F0004150510961097109082E04C07695679520
:10110000579547950A94D2F775016401E1E0CE1A2C
:10111000D108E108F10804C0F694E794D794C79485
:101120008A95D2F7C416D506E606F70620F0012BFD
:10113000022B032B11F58F89988DA98DBA8D8E8383
:101140009F83A887B9878E010A5F1F4FC114D104FE
:10115000E104F10409F4ADCF4E815F8168857985A2
:1011600098018B8D9C8D0E94AD0791E0C91AD10822
:10117000E108F1088111EACF81CFC41AD50AE60A45
:10118000F70AE1CF3F924F925F926F927F928F92D8
:101190009F92AF92BF92CF92DF92EF92FF920F9306
:1011A0001F93CF93DF93CDB7DEB72C970FB6F8948C
:1011B000DEBF0FBECDBF5C01DC015B968D909C90C5
:1011C0005C9716964D905D906D907C9019974114A8
:1011D00051046104710409F468C0BFEF4B1A5B0A43
:1011E0006B0A7B0A312CF40181859285A385B48535
:1011F0009C01AD012F5F3F4F4F4F5F4F29873A87CB
:101200004B875C87730162011D821E821F821886D4
:10121000F40181859285A385B4852D813E814F811E
:101220005885281739074A075B0708F056C0898593
:101230009A85AB85BC858C159D05AE05BF0550F420
:1012400082E0C82ED12CE12CF12C92E0492E512CB9
:10125000612C712C9E012F5F3F4FB701A601C40185
:101260000E94AD078823C9F189819A81AB81BC8135
:10127000892B8A2B8B2B09F1260137019FEF491A05
:10128000590A690A790A2D813E814F8158852F5F5D
:101290003F4F4F4F5F4F2D833E834F8358873FEF24
:1012A000C31AD30AE30AF30AB3CFF4014080518092
:1012B000628073803324339496CFC414D504E6043B
:1012C000F70409F70FEF1FEF2FEF3FE0B701A6017B
:1012D000C4010E940B07811119C080E02C960FB643
:1012E000F894DEBF0FBECDBFDF91CF911F910F915C
:1012F000FF90EF90DF90CF90BF90AF909F908F9036
:101300007F906F905F904F903F900895D501169613
:101310004D915D916D917C91199741155105610534
:10132000710539F097018601C4010E940B078823DB
:10133000A1F2D5011696CD92DD92ED92FC9219970D
:10134000332051F0D701C6010196A11DB11DF40152
:1013500080839183A283B383F5018789908DA18DCA
:10136000B28D892B8A2B8B2B39F48481C78AD08E3E
:10137000E18EF28E80688483F501848180628483AB
:1013800081E0ACCF1F93CF93DF93EC01162F8C81BC
:1013900087FF2AC06E857F858889998941E00E94F0
:1013A0003D06882361F1EA8980E2E89FF00111247B
:1013B000EE50FD4F309719F18D81823040F48B89CA
:1013C0009C89AD89BE89848F958FA68FB78F8F89B1
:1013D000988D938F828F8F89988DA98DBA8DB58BBB
:1013E000A48B8C818F778C83111103C08C818F7EAD
:1013F0008C83812FDF91CF911F910C94140680E094
:10140000DF91CF911F9108951F93CF93DF93EC014C
:101410008D81813031F090E080E0DF91CF911F919C
:1014200008958C8181FFF7CF82FD1BC090E080E0A2
:101430000E9419050E94C904182F90E080E00E94C4
:10144000B7041F3F41F78C8185FF1EC08D81882323
:1014500021F060E0CE010E94C2098C818F7D8C83D7
:10146000DACF4B895C896D897E898A859B85AC85BD
:10147000BD8584179507A607B707C1F2CE010E9464
:101480002E088111D3CFC7CF4091EE025091EF02C9
:101490006091F0027091F102452B462B472B21F011
:1014A00080E00E94F205B7CF80618C832A853B855E
:1014B000317080E092E0821B930BAFCF9F92AF928E
:1014C000BF92CF92DF92EF92FF920F931F93CF9331
:1014D000DF9300D000D01F92CDB7DEB78C016D83B3
:1014E000DC0115968C911597813009F0B9C01496DE
:1014F0008C9181FFB5C082FD9FC0D8015B96ED91B4
:10150000FC915C971A96AD90BD90CD90DC901D97A4
:1015100094809A94B601A50189E0769567955795D0
:1015200047958A95D1F79422B1E0BB22992009F41E
:101530009FC0D8015B96ED91FC915C971696CD907B
:10154000DD90ED90FC901997B2E0CB1AD108E1083C
:10155000F108858504C0CC0CDD1CEE1CFF1C8A95AF
:10156000D2F74685578560897189C40ED51EE61E5F
:10157000F71EC90CD11CE11CF11CA114B10409F027
:101580000AC1F801428553856485758583899489EC
:10159000A589B689481759076A077B0708F4FBC075
:1015A00081E00E941406882309F45AC0C092000109
:1015B000D0920101E0920201F09203018091ED02CC
:1015C00081608093ED02F501EE50FD4F8D818083A7
:1015D000F80182859385A485B5850196A11DB11D6D
:1015E00082879387A487B5874389548965897689DB
:1015F000481759076A077B0738F42481838B948B3B
:10160000A58BB68B20682483D80114968C9183FD1A
:101610009FC081E090E00F900F900F900F900F907F
:10162000DF91CF911F910F91FF90EF90DF90CF90BE
:10163000BF90AF909F900895F801438954896589C0
:10164000768982859385A485B585481759076A07E9
:101650007B0709F452CFC8010E942E0881114DCF9B
:1016600081E090E0D80113969C938E93129749C025
:10167000D80116964D915D916D917C911997A114A9
:10168000B10409F071C0411551056105710589F575
:1016900057968D919D910D90BC91A02D0097A1051D
:1016A000B10509F04FC0C8010E94C2088823C1F2E9
:1016B000D8015B96ED91FC915C971696CD90DD90EC
:1016C000ED90FC901997B2E0CB1AD108E108F1082F
:1016D000858504C0CC0CDD1CEE1CFF1C8A95D2F75E
:1016E0004685578560897189C40ED51EE61EF71E92
:1016F00048CF9E012F5F3F4FCF010E94AD07811160
:1017000003C090E080E087CF89819A81AB81BC8162
:10171000F801238D348DF901278948EF5FEF60E0F0
:1017200070E0203121F048EF5FEF6FEF7FE084172A
:101730009507A607B70730F0C8010E94C2088111BB
:10174000F8CE8ECFF80186839783A087B187F1CE3C
:10175000F8018581882309F483CF61E0C8010E94E4
:10176000C209811156CF7CCF6A017B01B2E0CB1A4E
:10177000D108E108F108858504C0CC0CDD1CEE1C05
:10178000FF1C8A95D2F74685578560897189C40EFA
:10179000D51EE61EF71E41E0C701B6010E943D06B8
:1017A000811111CF5DCF1F93CF93DF93EC01162FE3
:1017B00083E590E00E94E70460E08E850E941902B4
:1017C000812F80680E94C20480E00E94C204182F0A
:1017D00061E08E850E941902812FDF91CF911F91C8
:1017E00008950F931F93CF93DF93EC01062F142FCF
:1017F00083E590E00E94E70460E08E850E94190274
:10180000802F0E94C204812F0E94C20461E08E8555
:10181000DF91CF911F910F910C941902CF92DF921B
:10182000EF92FF920F931F93CF93DF93EC016B0125
:10183000142F790140E062E00E94F10B44E06AE07D
:10184000CE010E94F10B40E864E1CE010E94F10B51
:10185000A601612FCE010E94EA0443E062E0CE01BE
:101860000E94F10B08E813E16AE0CE010E94D30B5D
:1018700082FF1BC040E062E0CE010E94F10B64E4F5
:10188000CE010E94D30BF701808362E4CE010E9457
:10189000D30BF701818380E0DF91CF911F910F91EE
:1018A000FF90EF90DF90CF90089501501109E1F67D
:1018B00083E0F2CF3F924F925F926F927F928F922E
:1018C0009F92AF92BF92CF92DF92EF92FF920F93CF
:1018D0001F93CF93DF9300D0CDB7DEB74C012B0120
:1018E000D42E390180E0E114F10411F0F701808178
:1018F000BC2CB29490EFB922B80E40E062E0C40173
:101900000E94F10B4FE768E0C4010E94F10B40E830
:1019100064E1C4010E94F10BA2016D2DC4010E947B
:10192000EA044B2D6AE1C4010E94F10B4CE062E035
:10193000C4010E94F10B6AE1C4010E94D30B482F3D
:1019400040686AE1C4010E94F10B20ED422E27E0BD
:10195000522E68E0C4010E94D30B982F907309F0B7
:10196000B6C080FD04C0F1E04F1A510891F783E042
:1019700094C06114710409F46DC00115110509F4D6
:1019800069C064E1C4010E94D30BB82EF8018081C4
:101990008B1508F496C0B082BB20E1F183E590E09E
:1019A0000E94E70460E0F40186850E941902BA945F
:1019B00082E90E94C204CC20B1F08FEF90E09C013C
:1019C00002C0220F331FCA94E2F7690182E90E9424
:1019D000C2049C2D9095F301208192238C21982B99
:1019E0009083CC24C39423014C0C511CCB1440F4A1
:1019F00082E90E94C204F20181932F01C394F6CFC1
:101A000080E00E94C204F201808361E0F4018685D7
:101A10000E94190268E1C4010E94D30B8770E1148F
:101A2000F10411F0F701808333FC4DC0611471049F
:101A300009F44BC00115110509F447C0AA2009F4A7
:101A400044C0F8014081413039F4843009F049C084
:101A50008FEF23C080E0E8CF423008F442C081110C
:101A600040C042509E012F5F3F4FB301C4010E940E
:101A70000E0C811112C0F8019081690E711CF301E6
:101A800032972081998129132CC0F1E06F1A7108D7
:101A9000F30120819A81291324C00F900F90DF91C8
:101AA000CF911F910F91FF90EF90DF90CF90BF905B
:101AB000AF909F908F907F906F905F904F903F90EE
:101AC000089584E0EACF82E0E8CF80E0E6CF6CE0E2
:101AD000C4010E94D30B382E837109F44ACF81E0F0
:101AE000DCCF87E0DACF8F929F92AF92CF92EF92C6
:101AF000FF920F931F93CF93DF9300D000D01F92DC
:101B0000CDB7DEB74C0182E08D8340E064E2C401D2
:101B10000E94F10B40E066E2C4010E94F10B46E234
:101B200068E4C4010E94F10B86E28B838D818230D0
:101B3000D8F16CE1C4010E94D30B482F4F776CE1C0
:101B4000C4010E94F10B87E08C83A12CC12CCE0133
:101B500004967C018E010B5F1F4F9E012F5F3F4F4C
:101B600041E0BE016D5F7F4FC4010E945A0C982F67
:101B7000811117C08D818230B9F48C81811114C01C
:101B800081E00F900F900F900F900F90DF91CF9109
:101B90001F910F91FF90EF90CF90AF909F908F90FB
:101BA000089581E0923069F380E0EBCF2F923F926D
:101BB0004F925F926F927F928F929F92AF92BF925D
:101BC000CF92DF92EF92FF920F931F93CF93DF9309
:101BD000CDB7DEB72D970FB6F894DEBF0FBECDBFE1
:101BE00016E0413508F04AC1342E3B014C016CE14E
:101BF0000E94D30B482F4F776CE1C4010E94F10B78
:101C000083E98983332029F081E0F30190819530C5
:101C100008F480E022242394B12C9B2D990F990F76
:101C2000990FD32CD91AD7FCD12C32E0882319F084
:101C300098E89B8333E021E09D2D977009F420E024
:101C40009D2D959595959595290FC9F094E0811155
:101C500093E0291708F4922FEB2DF0E03196E60D72
:101C6000F71D232F4191A1E0B0E0AC0FBD1FA20FE3
:101C7000B11D4C932F5F422F431B491798F38823C4
:101C800011F0F8E0DF0E8FE18D150CF082C090E7C7
:101C90009A838B819C8189279D8189279E818927B1
:101CA0008F839E01285F3F4F47E0BE016F5F7F4FEC
:101CB000C4010E940E0C182F8111E0C01A86E3E0C7
:101CC000EB87DC86CE0107962C0199E09D87CA84BC
:101CD0004C2D4295407F4C0D6AE1C4010E94F10BEE
:101CE000A12CCE010A967C018E01055F1F4F920147
:101CF0004D85BE016F5F7F4FC4010E945A0C182FA3
:101D0000823009F065C06CE1C4010E94D30B85FDEF
:101D1000B5C08F7109F480E2282F30E04D2DDD0C25
:101D2000550B421753070CF09DC0D82EE82FE595B0
:101D3000E595E595EF5F982F977081E009F480E0D5
:101D4000E80F81E090E08C0F9D1F8E0F911DFC012C
:101D5000215031092770332781E090E002C0880FBD
:101D6000991F2A95E2F79C018081822B80838BCF7B
:101D700085E98983332031F081E0F3019081983047
:101D800008F04BCF80E049CF87E9898326E0B22E67
:101D9000F9CF9D2D97709A878D2D85958595859581
:101DA0008E5F282F2295207F290F2A8321E0911111
:101DB00001C020E0280F2D8744244394512C4C0E61
:101DC0005D1E480E511CE9E0E81BEB87DC867FCFE7
:101DD000811154C080E2D82E9C8590320CF457CFEC
:101DE0008B81883809F040C083E093E0EB2DF0E070
:101DF0003196E60DF71D980FA1E0B0E0AC0FBD1FC6
:101E0000A80FB11D2C9121938F5F8913F5CFBB844F
:101E1000E3E0BE124DC08A8581114AC09E012D5F4C
:101E20003F4F41E0B201C4010E940E0C182F8111F6
:101E300025C09B81F201818198133CC09C818281E5
:101E4000981338C0808182FF12C02394F2E02F16CD
:101E500009F48ECF83E0281609F496CF91E0291675
:101E600009F4CECE15E00AC082E094E0BFCFF301C2
:101E70008387822D880F820D8F5F8083812F2D961F
:101E80000FB6F894DEBF0FBECDBFDF91CF911F918B
:101E90000F91FF90EF90DF90CF90BF90AF909F9009
:101EA0008F907F906F905F904F903F902F9008950C
:101EB00011E0E4CF17E0E2CFEF92FF920F931F9370
:101EC000CF93DF937C0110E000E0E7010990002050
:101ED000E9F72197CE19DF098091FD059091FE0564
:101EE0000C171D0758F508171907F4F064EF71E097
:101EF00080E090E00E94F103D0E0C0E09E0180917C
:101F0000FD059091FE05219628173907A4F4F801E4
:101F1000EC0FFD1FE81BF90BEE0DFF1D60818C2FF0
:101F200081500E942C03EACFF701E00FF11F60817E
:101F3000802F0E942C030F5F1F4FC7CF8091FD059C
:101F40009091FE05C817D90734F46FE78C2F0E94D3
:101F50002C032196F3CFDF91CF911F910F91FF902A
:101F6000EF900895FC0101900020E9F73197AF014F
:101F7000481B590BBC018FE095E00C94B5000C9404
:101F8000B20FCF93DF93EC018FE095E00E94130135
:101F9000892B29F08FE095E00E94F100F5CFCE016A
:101FA0000E94BF0F0E94A2010E94A201DF91CF9167
:101FB0000C94A201CF93DF930E94B20FEC018EEB41
:101FC00091E00E94B20F8C0F9D1FDF91CF91089579
:101FD000FC0180819181009711F00C94BC1F089541
:101FE0000F931F93CF93DF93EC0188819981009722
:101FF00059F02A813B812617370730F081E0DF91C5
:10200000CF911F910F9108958B016F5F7F4F0E94B9
:102010004520009759F0998388831B830A832C817C
:102020003D81232B59F7FC011082E8CF80E0E7CFF8
:10203000EF92FF920F931F93CF93DF93FB01E0800A
:10204000F180E114F10441F480E0DF91CF911F9120
:102050000F91FF90EF9008950481158101151105EE
:10206000B1F0EC018C819D81080F191FB801CE01E0
:102070000E94F00F882341F3288139818C819D8152
:10208000B701820F931F0E9413211D830C8381E0EF
:10209000DCCFEF92FF920F931F93CF93DF93EC016E
:1020A0007B018A01BA010E94F00F288139818111D8
:1020B00014C02115310519F0C9010E94BC1F1982F5
:1020C00018821D821C821B821A82CE01DF91CF9161
:1020D0001F910F91FF90EF9008951D830C83B7011E
:1020E000C9010E941321F1CF1F920F920FB60F92D8
:1020F00011242F933F934F935F936F937F938F930D
:102100009F93AF93BF93EF93FF93809101059091BD
:102110000205A0910305B0910405892B8A2B8B2B16
:10212000D1F19091FC04E091FD04F091FE048081D6
:10213000892780838091010590910205A091030574
:10214000B0910405181619061A061B069CF4809116
:10215000010590910205A0910305B0910405019736
:10216000A109B1098093010590930205A09303058D
:10217000B0930405FF91EF91BF91AF919F918F9123
:102180007F916F915F914F913F912F910F900FBE73
:102190000F901F901895809104010E947302EACF5E
:1021A0001F920F920FB60F9211242F933F934F93CC
:1021B0005F936F937F938F939F93AF93BF93EF93AF
:1021C000FF938FE095E00E943301FF91EF91BF9163
:1021D000AF919F918F917F916F915F914F913F91BF
:1021E0002F910F900FBE0F901F9018951F920F9276
:1021F0000FB60F9211242F938F939F93EF93FF931A
:10220000E0911F05F09120058081E0912505F09176
:10221000260582FD1BC09081809128058F5F8F73FA
:1022200020912905821741F0E0912805F0E0E15F57
:10223000FA4F958F80932805FF91EF919F918F9191
:102240002F910F900FBE0F901F9018958081F4CFA3
:102250001F920F920FB60F9211242F933F938F93DB
:102260009F93AF93BF938091F3049091F404A09156
:10227000F504B091F6043091F20423E0230F2D37DA
:1022800058F50196A11DB11D2093F2048093F3042B
:102290009093F404A093F504B093F6048091F704AE
:1022A0009091F804A091F904B091FA040196A11D4F
:1022B000B11D8093F7049093F804A093F904B093B0
:1022C000FA04BF91AF919F918F913F912F910F9001
:1022D0000FBE0F901F90189526E8230F0296A11DA0
:1022E000B11DD2CF1F920F920FB60F9211240F90F3
:1022F0000FBE0F901F901895CF93DF931092120589
:102300001092110588EE93E0A0E0B0E080931305F1
:1023100090931405A0931505B09316058AE991E0F2
:102320009093100580930F0585EC90E090931C0529
:1023300080931B0584EC90E090931E0580931D050F
:1023400080EC90E09093200580931F0581EC90E055
:10235000909322058093210582EC90E090932405D0
:102360008093230586EC90E09093260580932505C5
:10237000109228051092290510922A0510922B051B
:1023800080E58093AC051092AD051092B3051092D4
:10239000B4051092B7051092B90582E090E0A0E074
:1023A000B0E08093BA059093BB05A093BC05B093B1
:1023B000BD051092D1051092DB051092DA058CEA6A
:1023C00091E09093D9058093D8051092DD05109285
:1023D00091071092920781EC91E09093940780937B
:1023E0009307109296071092950710929A071092F1
:1023F000990710929C0710929B07109298071092D1
:10240000970781E0809385071092860727EC31E0DB
:10241000309388072093870710928A0710928907C4
:1024200010928E0710928D071092900710928F07CE
:1024300010928C0710928B0792E09093790710927C
:102440007A072DEC31E030937C0720937B071092C4
:102450007E0710927D0710928207109281071092DA
:102460008407109283071092800710927F0723E061
:1024700020936D0710926E0743ED51E05093700763
:1024800040936F07109272071092710710927607AF
:1024900010927507109278071092770710927407C0
:1024A0001092730754E0509361071092620769ED30
:1024B00071E070936407609363071092660710924F
:1024C000650710926A071092690710926C071092C4
:1024D0006B071092680710926707A5E0A093550755
:1024E000109256076FED71E070935807609357078D
:1024F00010925A071092590710925E0710925D07CA
:102500001092600710925F0710925C0710925B07B1
:1025100036E03093490710924A0765EE71E07093F8
:102520004C0760934B0710924E0710924D07109284
:1025300052071092510710925407109253071092AD
:10254000500710924F0747E040933D0710923E0717
:102550006BEE71E07093400760933F071092420763
:1025600010924107109246071092450710924807B3
:10257000109247071092440710924307F8E0F09337
:1025800031071092320761EF71E070933407609366
:102590003307109236071092350710923A071092BF
:1025A000390710923C0710923B071092380710929F
:1025B000370769E06093250710922607C7EFD1E03F
:1025C000D0932807C093270710922A071092290753
:1025D00010922E0710922D071092300710922F079D
:1025E00010922C0710922B073AE0309319071092A3
:1025F0001A07CDEFD1E0D0931C07C0931B071092B0
:102600001E0710921D0710922207109221071092A8
:102610002407109223071092200710921F07EBE067
:10262000E0930D0710920E07C4E0D2E0D09310079C
:10263000C0930F07109212071092110710921607FD
:10264000109215071092180710921707109214078E
:10265000109213077CE07093010710920207CBE001
:10266000D2E0D0930407C09303071092060710929C
:10267000050710920A071092090710920C07109292
:102680000B0710920807109207071092F506809327
:10269000F606C2E1D2E0D093F806C093F706109296
:1026A000FA061092F9061092FE061092FD0610929C
:1026B00000071092FF061092FC061092FB06809312
:1026C000E9068093EA06C5E1D2E0D093EC06C09318
:1026D000EB061092EE061092ED061092F2061092A2
:1026E000F1061092F4061092F3061092F006109282
:1026F000EF068093DD069093DE06C8E1D2E0D0932A
:10270000E006C093DF061092E2061092E1061092F6
:10271000E6061092E5061092E8061092E70610927F
:10272000E4061092E3069093D1062093D206CBE103
:10273000D2E0D093D406C093D3061092D60610925E
:10274000D5061092DA061092D9061092DC06109285
:10275000DB061092D8061092D7069093C506909388
:10276000C606CEE1D2E0D093C806C093C706109249
:10277000CA061092C9061092CE061092CD0610928B
:10278000D0061092CF061092CC061092CB069093F2
:10279000B9068093BA06C1E2D2E0D093BC06C093DA
:1027A000BB061092BE061092BD061092C206109291
:1027B000C1061092C4061092C3061092C006109271
:1027C000BF062093AD068093AE06C4E2D2E0D0935C
:1027D000B006C093AF061092B2061092B1061092E6
:1027E000B6061092B5061092B8061092B70610926F
:1027F000B4061092B3062093A1069093A206C7E2F6
:10280000D2E0D093A406C093A3061092A60610921D
:10281000A5061092AA061092A9061092AC06109274
:10282000AB061092A8061092A706509395068093C7
:102830009606CAE2D2E0D0939806C093970610920B
:102840009A061092990610929E0610929D0610927A
:10285000A00610929F0610929C0610929B06A093D1
:10286000890680938A06ADE2B2E0B0938C06A0930D
:102870008B0610928E0610928D0610929206109280
:102880009106109294061092930610929006109260
:102890008F0640937D0680937E06A0E3B2E0B0935E
:1028A0008006A0937F0610928206109281061092F5
:1028B000860610928506109288061092870610925E
:1028C0008406109283064093710690937206A4E3E7
:1028D000B2E0B0937406A09373061092760610923D
:1028E000750610927A061092790610927C06109264
:1028F0007B06109278061092770640936506209327
:102900006606A8E3B2E0B0936806A093670610924B
:102910006A061092690610926E0610926D06109269
:10292000700610926F0610926C0610926B06F09370
:10293000590680935A06ACE3B2E0B0935C06A093CC
:102940005B0610925E0610925D061092620610926F
:10295000610610926406109263061092600610924F
:102960005F0630934D0680934E06A0E4B2E0B0932C
:102970005006A0934F0610925206109251061092E4
:10298000560610925506109258061092570610924D
:102990005406109253063093410690934206A4E4E5
:1029A000B2E0B0934406A0934306109246061092FC
:1029B000450610924A061092490610924C06109253
:1029C0004B06109248061092470630933506209326
:1029D0003606A8E4B2E0B0933806A093370610920A
:1029E0003A061092390610923E0610923D06109259
:1029F000400610923F0610923C0610923B06E09370
:102A0000290680932A06ECE4F2E0F0932C06E0938A
:102A10002B0610922E0610922D061092320610925E
:102A2000310610923406109233061092300610923E
:102A30002F0670931D0680931E06E0E5F2E0F093EA
:102A40002006E0931F061092220610922106109293
:102A5000260610922506109228061092270610923C
:102A6000240610922306509311069093120684E5D3
:102A700092E090931406809313061092160610921B
:102A8000150610921A061092190610921C06109242
:102A90001B06109218061092170688EB91E090938F
:102AA00002068093010630930F066093100684E0BF
:102AB00090E09093FE058093FD0581E18093FF05F2
:102AC00080E18093000661E081E10E949F0261E065
:102AD000809100060E949F0281E480937C00809197
:102AE0007A00806480937A0080917A0086FDFCCF22
:102AF0009091780080917900892798278927909371
:102B0000F8058093F705DF91CF910895CF93DF9378
:102B1000CDB7DEB7E7970FB6F894DEBF0FBECDBFD7
:102B2000789484B5826084BD84B5816084BD85B5A8
:102B3000826085BD85B5816085BD80916E008160B4
:102B400080936E001092810080918100826080935A
:102B5000810080918100816080938100809180005C
:102B60008160809380008091B10084608093B10087
:102B70008091B00081608093B00080917A00846081
:102B800080937A0080917A00826080937A008091AD
:102B90007A00816080937A0080917A0080688093C7
:102BA0007A001092C1000E948D0060E087E00E94D0
:102BB0009F021FB7F8948091FB04811127C0E8EBB6
:102BC000F0E08491EAE9F0E09491E82FF0E0EE0F74
:102BD000FF1FEA57FF4FA591B491EC91E92321F42F
:102BE00061E08AE00E94190261E08AE00E949F028F
:102BF0008CB580618CBD8CB580648CBD61E08DE04E
:102C00000E949F0261E08BE00E949F028091FB0482
:102C10008F5F8093FB041FBF61E080910F060E94CD
:102C20009F0261E080910F060E94190280911006B8
:102C30008F3F09F4B2C060E00E949F0280911006AD
:102C40000E94F001892B09F0A8C061E08091100674
:102C50000E949F0260E0809110060E94190283E0AA
:102C600090E00197F1F761E0809110060E9419024F
:102C700062E370E080E090E00E94F10340E064E2F3
:102C800081E096E00E94F10B40E066E281E096E090
:102C90000E94F10B46E268E481E096E00E94F10BAD
:102CA00040E864E581E096E00E94F10B49EA66E5C0
:102CB00081E096E00E94F10B43E068E581E096E058
:102CC0000E94F10B48EE6AE581E096E00E94F10B6C
:102CD00040E46AE281E096E00E94F10B4DE362E29B
:102CE00081E096E00E94F10B68E281E096E00E94AC
:102CF000D30B982F9370933039F0482F436068E2DC
:102D000081E096E00E94F10B87E592E00E94DA0FE5
:102D10008EEB91E00E94B20F6FE780E00E942C03DF
:102D20006FE781E00E942C036FE782E00E942C0392
:102D30006FE783E00E942C0380E48093F90580EC28
:102D40008093FA058FE88093FB0510E000E022ED08
:102D5000E22E24E0F22E3AE0C32ED12C2091FD0584
:102D60003091FE05021713077CF5201B310B215013
:102D700031096FE7E114F10429F0C701B6010E949F
:102D8000AA1E682F822F0E942C03C701B6010E9441
:102D9000AA1E7B010F5F1F4FE1CF4FE062E081E091
:102DA00096E00E94F10B13E062E370E080E090E0B7
:102DB0000E94F10362E081E096E00E94D30B84FF61
:102DC0005DCF115089F75ACF1092FC056CEB72E081
:102DD00080E090E00E94F1038FE692E00E945C0F99
:102DE00061E088E00E949F022BE131E03BAB2AAB1F
:102DF0008BE091E09DAB8CABAAA9BBA96D917D91B5
:102E0000BBABAAAB88EE93E00E94AA1E7FAB6EAB71
:102E1000CB01092E000CAA0BBB0B8EA79FA7A8AB5A
:102E2000B9ABACA9BDA92D903D90BDABACAB809129
:102E30000401883009F0E4C0E2ECF0E0149117FFDF
:102E400012C16EA57FA588A999A90E94321C26E609
:102E500036E646EA5FE30E94911C0E94741E072E2C
:102E6000000C880B990B0E94F10388E00E9473020A
:102E7000ABE2B1E0EAA9FBA9AE17BF0709F0BCCFEE
:102E80000E948D0080EC91E00E94C10F84E792E0E7
:102E90000E94C10F0E9430048CE792E00E94C10F93
:102EA0000E94300483E892E00E94BF0F8BE892E01A
:102EB0000E94BF0F8DE892E00E94BF0F8BE892E066
:102EC0000E94BF0F0E94A2010E94A2010E94A201C3
:102ED0008E010F5F1F4F87E00E94F001892B21F4C4
:102EE0008FE692E00E945C0F87E00E94F00101975C
:102EF00041F48AE992E00E94DA0F8AEA92E00E94A5
:102F00005C0F80900D0590900E05FFEF8F169104D9
:102F100009F00CF47DC2B4016F5F7109072E000C3B
:102F2000880B990B0E94321C20E030E04FE753E4FD
:102F30000E94021E20E030E044EB53E40E94911C0A
:102F40006B017C0120E030E044EB53E40E942B1C39
:102F5000811103C0C12CD12C760120E030E040E784
:102F600052E4C701B6010E94021E6B017C010E945F
:102F7000741E5B01072E000C880B990B0E94321CFB
:102F80009B01AC01C701B6010E94951D9B01AC01DC
:102F900060E070E080E89FE30E94951D6B017C017A
:102FA0002DEC3CEC4CE45DE30E94911C2B013C01B8
:102FB000A701960160E070E080E89FE30E94951D04
:102FC0002DEC3CEC4CE45DE30E94911C6B017C0118
:102FD00022E0A216B10409F441C20CF01FC2A114F0
:102FE000B10409F42EC2AA94AB2809F453C3312CBE
:102FF000A12CB12C212CC12CD12CE12CF12C3AC2CA
:103000008F3F09F01ECF88E080930401E2ECF0E0EE
:1030100014911F3F09F415CF113009F4E8C050F0A6
:10302000123009F403C117FD0CCF61E088E00E9463
:103030009F021FC014BC15BC84B5826084BD85B5D9
:10304000816085BDE6EBF0E08491E82FF0E0EE0FC3
:10305000FF1FEC55FF4F85919491E8E9F0E08491D2
:103060008093000510E061E088E00E949F02112338
:10307000A1F0B12CA12C60E072E18AE790E0A501FB
:1030800091010E94E01E69017A01F1E0CF1AD10896
:10309000E108F108123009F061C14101B12CA12C05
:1030A00060E072E18AE790E0A50191010E94E01ED4
:1030B00029013A017A01690121E0C21AD108E10827
:1030C000F1083FEFC316D104E104F10409F00CF458
:1030D00019C160E472E48FE090E0A50191010E94C3
:1030E000E01E69017A0181E0C81AD108E108F108FF
:1030F000123009F0BEC082E09FEFC916D104E1048E
:10310000F10409F00CF46CC060E970ED83E090E02C
:10311000A50191010E94E01E69017A01A1E0CA1A8D
:10312000D108E108F10883E0BFEFCB16D104E10438
:10313000F10409F00CF454C068E478EE81E090E00A
:10314000A50191010E94E01E69017A0181E0C81A7F
:10315000D108E108F10884E09FEFC916D104E10429
:10316000F104F1F1ECF164E274EF80E090E0A5018C
:1031700094010E94E01E69017A0181E0C81AD10819
:10318000E108F10885E0FFEFCF16D104E104F10476
:1031900039F130F162E17AE780E090E0A501940135
:1031A0000E94E01E69017A01B1E0CB1AD108E10862
:1031B000F10886E0EFEFCE16D104E104F10481F0CE
:1031C00078F0730162019AE0F594E794D794C7947C
:1031D0009A95D1F7F1E0CF1AD108E108F10887E01C
:1031E0009091B100987F892B8093B10092C010928A
:1031F000800010928100809181008860809381001E
:1032000080918100816080938100E6EBF0E0849101
:10321000E82FF0E0EE0FFF1FEC55FF4F85919491E2
:10322000E8E9F0E084918093FF041DCF1092B00094
:103230001092B1008091B00082608093B0008091C4
:10324000B10081608093B100E6EBF0E08491E82F5B
:10325000F0E0EE0FFF1FEC55FF4F85919491909396
:10326000FE048093FD04E8E9F0E084918093FC047F
:10327000FACEEFEFCE16D104E104F10409F00CF41C
:103280006BC068E478EE81E090E0A50191010E94B6
:10329000E01E69017A01F1E0CF1AD108E108F108D6
:1032A00084E0111170CF83E0AFEFCA16D104E104BE
:1032B000F10459F154F162E17AE780E090E0A50170
:1032C00094010E94E01E69017A0191E0C91AD108B7
:1032D000E108F10884E0AFEFCA16D104E104F1047B
:1032E000A1F098F0730162018AE0F594E794D79415
:1032F000C7948A95D1F721E0C21AD108E108F108F4
:1033000085E003C081E011116BCF95B5987F892BC3
:1033100085BD8EA59FA5A8A9B9A92FEF3FEFA9014B
:10332000892B8A2B8B2B09F043C0113009F44EC036
:10333000123009F45DC0111184CDC7BC209309057A
:1033400030930A0540930B0550930C0580916E0055
:10335000826080936E0075CD82E0D5CF91E0C1147C
:10336000D104B1E0EB06F10484F068E478EE81E08A
:1033700090E0A50191010E94E01E69017A01E1E05F
:10338000CE1AD108E108F10893E0113011F68091CE
:103390008100887F892B809381008EA59FA5A8A995
:1033A000B9A92FEF3FEFA901892B8A2B8B2B71F045
:1033B0009101220F331FAEA9BFA90E94FF1E28EE64
:1033C00033E040E050E00E94BE1EAFCFD0928900B3
:1033D000C0928800209305053093060540930705A9
:1033E0005093080580916F00826080936F0029CD13
:1033F000C092B3002093010530930205409303056A
:10340000509304058091700082608093700019CD04
:10341000B401092C000C880B990B84CD94E0A916FB
:10342000B104C1F164F1B5E0AB16B10409F0DFCD30
:10343000342CA52CB62C272CC12CD12CE12CF12C12
:1034400004C0312CA12CB12C212C7DEC472EECECAE
:103450005E2EFCE46F2EADE37A2E2AC0362EAD2C04
:10346000B82E2F2C7DECC72EECECDE2EFCE4EF2EDC
:10347000ADE3FA2E412C512C612C712C19C0620144
:1034800073013DEC332E4CECA42E5CE4B52E6DE3C1
:10349000262EF0CF26013701BDEC3B2E8CECA82E5A
:1034A0009CE4B92E2DE3222EC12CD12CE12CF12C41
:1034B00020E030E04FE753E4B201C3010E94911CC9
:1034C0000E94741E3B015524442420E030E04FE765
:1034D00053E4B601C7010E94911C0E94741E982FEC
:1034E000872F762F6627462A572A682A20E030E061
:1034F0004FE753E4632D7A2D8B2D922D0E94911C62
:103500000E94741E462A572A682A662D70E086E0BB
:103510000E946F03652D70E085E00E946F03642DAB
:1035200070E083E00E946F03C40101966EEF71E0CA
:103530000E94AA1E90930E0580930D056091F705D9
:103540007091F805072E000C880B990B0E94F1036F
:1035500081E096E00E94730D882309F438C181E070
:1035600096E00E94A604882309F431C18FEA92E014
:103570000E94BF0F19A618A61BA61AA61DA61CA658
:1035800050E040E060EC71E0CE0188960E94491066
:10359000D12C80910306D81608F08EC08D2D90E0B6
:1035A000FC01EF5FF94F7F018381803108F07FC01C
:1035B00080E892E00E94BF0FD70113964C9150E033
:1035C00070E060E019A2FE01B196DB01CA018F70C4
:1035D0009927AA27BB27A4E0769567955795479525
:1035E000AA95D1F78A300CF065C0805D82934115B1
:1035F00051056105710549F7309719F0CF010E9417
:10360000B20FF701838160E872E0803110F062EC64
:1036100072E01A8219821C821B821E821D82FB01AB
:1036200001900020E9F73197AF01461B570BC80105
:103630000E944910B801CE0188960E941810C80156
:103640000E94E80FD70113968C911BA21AA21DA20B
:103650001CA21FA21EA240E1B80190E00E94011C22
:10366000F80101900020E9F73197AF01401B510BA1
:10367000B801CE0182960E944910BE016E5D7F4F57
:10368000CE0188960E941810CE0182960E94E80F03
:10369000D3947FCF312CA12CB12C212C3DECC32E07
:1036A0004CECD42E5CE4E52E6DE3F62E01CF82ECDB
:1036B00092E080CF895C9ACF8EEB91E00E94B20FAE
:1036C00089EB92E00E94BF0FE8A4F9A4E114F10491
:1036D00071F0F70181917F01882349F0082E000CD9
:1036E000990B0E940221F70131978083F2CFCCA47D
:1036F000DDA4AA24A394B12CC114D10421F0560155
:10370000CC24C394D12C1A8219821C821B821E8263
:103710001D8250E040E060EC71E0C8010E94491059
:10372000ECA4FDA4CE14DF0418F5AE14BF0408F415
:103730007501E8A5F9A5EE0DFF1DB080108268A502
:1037400079A56C0D7D1D6115710509F44DC0FB0156
:1037500001900020E9F73197AF01461B570BC801D4
:103760000E94491088A599A5E80EF91ED701BC92C0
:10377000C8010E94E80F84EC92E00E94DA0F8EEB01
:1037800091E00E94B20F83E892E00E94BF0F8BE8A5
:1037900092E00E94BF0F86ED92E00E94BF0F8BE87F
:1037A00092E00E94BF0F0E94A2010E94A2010E940B
:1037B000A20184EE92E00E945C0F68EE73E080E06C
:1037C00090E00E94F103CE0188960E94E80FE0E0AD
:1037D000F0E0EF2B09F47FCB0E941F01882309F44E
:1037E00077CB0E94000074CB89819A81009711F0F9
:1037F0000E94BC1F1A8219821E821D821C821B829B
:10380000B1CFBB27FB015527AA27880F991FAA1FF5
:10381000A41710F0A41B83955051B9F7A05DAA33EB
:1038200008F0A95DA193009779F7B111B1931192B6
:10383000CB010C941B1CDC01FC01672F71917723D9
:10384000E1F7329704C07C916D9370836291AE175B
:10385000BF07C8F308950E946D1C08F481E0089525
:10386000E89409C097FB3EF490958095709561951A
:103870007F4F8F4F9F4F9923A9F0F92F96E9BB27D0
:103880009395F695879577956795B795F111F8CF4C
:10389000FAF4BB0F11F460FF1BC06F5F7F4F8F4FB7
:1038A0009F4F16C0882311F096E911C0772321F0AD
:1038B0009EE8872F762F05C0662371F096E8862F45
:1038C00070E060E02AF09A95660F771F881FDAF79C
:1038D000880F9695879597F90895990F0008550FC9
:1038E000AA0BE0E8FEEF16161706E807F907C0F086
:1038F00012161306E407F50798F0621B730B840B8E
:10390000950B39F40A2661F0232B242B252B21F467
:1039100008950A2609F4A140A6958FEF811D811D07
:1039200008950E94A41C0C94151D0E94071D38F0D8
:103930000E940E1D20F0952311F00C94FE1C0C9497
:10394000041D11240C94491D0E94261D70F3959F9F
:10395000C1F3950F50E0551F629FF001729FBB2786
:10396000F00DB11D639FAA27F00DB11DAA1F649F22
:103970006627B00DA11D661F829F2227B00DA11DD5
:10398000621F739FB00DA11D621F839FA00D611D5B
:10399000221F749F3327A00D611D231F849F600D7C
:1039A000211D822F762F6A2F11249F5750409AF0A5
:1039B000F1F088234AF0EE0FFF1FBB1F661F771F31
:1039C000881F91505040A9F79E3F510580F00C94FC
:1039D000FE1C0C94491D5F3FE4F3983ED4F386959A
:1039E00077956795B795F795E7959F5FC1F7FE2B9C
:1039F000880F911D9695879597F9089597F99F6778
:103A000080E870E060E008959FEF80EC0895002466
:103A10000A941616170618060906089500240A9433
:103A200012161306140605060895092E0394000CB9
:103A300011F4882352F0BB0F40F4BF2B11F460FF48
:103A400004C06F5F7F4F8F4F9F4F089557FD905871
:103A5000440F551F59F05F3F71F04795880F97FB52
:103A6000991F61F09F3F79F087950895121613060C
:103A70001406551FF2CF4695F1DF08C0161617063B
:103A80001806991FF1CF8695710561050894089570
:103A9000E894BB2766277727CB0197F908952F92E3
:103AA0003F924F925F926F927F928F929F92AF92CE
:103AB000BF92CF92DF92EF92FF920F931F93CF931B
:103AC000DF93CDB7DEB7CA1BDB0B0FB6F894DEBFB2
:103AD0000FBECDBF09942A88398848885F846E84D8
:103AE0007D848C849B84AA84B984C884DF80EE8022
:103AF000FD800C811B81AA81B981CE0FD11D0FB62B
:103B0000F894DEBF0FBECDBFED010895A29FB001B6
:103B1000B39FC001A39F700D811D1124911DB29F01
:103B2000700D811D1124911D08955058BB27AA279F
:103B30000E94AD1D0C94151D0E94071D38F00E94B7
:103B40000E1D20F039F49F3F19F426F40C94041D47
:103B50000EF4E095E7FB0C94FE1CE92F0E94261D55
:103B600058F3BA17620773078407950720F079F4B2
:103B7000A6F50C94481D0EF4E0950B2EBA2FA02D3F
:103B80000B01B90190010C01CA01A0011124FF270A
:103B9000591B99F0593F50F4503E68F11A16F04005
:103BA000A22F232F342F4427585FF3CF4695379504
:103BB0002795A795F0405395C9F77EF41F16BA0BC9
:103BC000620B730B840BBAF09150A1F0FF0FBB1F77
:103BD000661F771F881FC2F70EC0BA0F621F731FC0
:103BE000841F48F4879577956795B795F7959E3F1D
:103BF00008F0B0CF9395880F08F09927EE0F9795AE
:103C0000879508950E94161E0C94151D0E940E1D86
:103C100058F00E94071D40F029F45F3F29F00C94F2
:103C2000FE1C51110C94491D0C94041D0E94261D6C
:103C300068F39923B1F3552391F3951B550BBB27DB
:103C4000AA2762177307840738F09F5F5F4F220F20
:103C5000331F441FAA1FA9F335D00E2E3AF0E0E817
:103C600032D091505040E695001CCAF72BD0FE2F61
:103C700029D0660F771F881FBB1F261737074807F5
:103C8000AB07B0E809F0BB0B802DBF01FF279358AD
:103C90005F4F3AF09E3F510578F00C94FE1C0C9457
:103CA000491D5F3FE4F3983ED4F386957795679579
:103CB000B795F7959F5FC9F7880F911D96958795E2
:103CC00097F90895E1E0660F771F881FBB1F621701
:103CD00073078407BA0720F0621B730B840BBA0BBF
:103CE000EE1F88F7E09508950E947B1E6894B1113D
:103CF0000C94491D08950E942E1D88F09F5798F03E
:103D0000B92F9927B751B0F0E1F0660F771F881FE0
:103D1000991F1AF0BA95C9F714C0B13091F00E94FA
:103D2000481DB1E008950C94481D672F782F88270F
:103D3000B85F39F0B93FCCF3869577956795B39521
:103D4000D9F73EF490958095709561957F4F8F4F90
:103D50009F4F089597FB072E16F4009407D077FD28
:103D600009D00E94061F07FC05D03EF4909581956E
:103D70009F4F0895709561957F4F0895A1E21A2E87
:103D8000AA1BBB1BFD010DC0AA1FBB1FEE1FFF1FFF
:103D9000A217B307E407F50720F0A21BB30BE40B4F
:103DA000F50B661F771F881F991F1A9469F7609596
:103DB0007095809590959B01AC01BD01CF01089550
:103DC000052E97FB1EF400940E94F71E57FD07D0A6
:103DD0000E94BE1E07FC03D04EF40C94F71E5095B3
:103DE0004095309521953F4F4F4F5F4F08959095E7
:103DF0008095709561957F4F8F4F9F4F08950E94DA
:103E0000861DB7FF0895821B930B0895AA1BBB1B49
:103E100051E107C0AA1FBB1FA617B70710F0A61BCA
:103E2000B70B881F991F5A95A9F780959095BC01EB
:103E3000CD010895EE0FFF1F0590F491E02D099438
:103E40000F931F93CF93DF938230910510F482E09C
:103E500090E0E0919F07F091A00730E020E0B0E013
:103E6000A0E0309799F42115310509F44AC0281BC8
:103E7000390B24303105D8F58A819B816115710594
:103E800089F1FB0193838283FE0111C0408151813E
:103E90000281138148175907E0F04817590799F430
:103EA000109761F012960C93129713961C9332960A
:103EB000CF01DF91CF911F910F91089500939F073C
:103EC0001093A007F4CF2115310551F04217530785
:103ED00038F0A901DB019A01BD01DF01F801C1CF72
:103EE000EF01F9CF9093A00780939F07CDCFFE01FC
:103EF000E20FF31F81939193225031093983288374
:103F0000D7CF20919D0730919E07232B41F420911C
:103F100007013091080130939E0720939D0720915F
:103F20000501309106012115310541F42DB73EB749
:103F30004091090150910A01241B350BE0919D0726
:103F4000F0919E07E217F307A0F42E1B3F0B2817F2
:103F5000390778F0AC014E5F5F4F2417350748F002
:103F60004E0F5F1F50939E0740939D07819391933F
:103F70009FCFF0E0E0E09CCFCF93DF930097E9F094
:103F8000FC01329713821282A0919F07B091A00783
:103F9000ED0130E020E01097A1F420813181820F03
:103FA000931F20919D0730919E072817390709F02C
:103FB00061C0F0939E07E0939D07DF91CF91089534
:103FC000EA01CE17DF07E8F54A815B819E014115C2
:103FD0005105B1F7E901FB83EA8349915991C40F77
:103FE000D51FEC17FD0761F4808191810296840F43
:103FF000951FE90199838883828193819B838A83BA
:10400000F0E0E0E012968D919C9113970097B9F53E
:104010002D913C911197CD010296820F931F209113
:104020009D0730919E072817390739F6309751F5CB
:104030001092A00710929F07B0939E07A0939D0730
:10404000BCCFD383C28340815181840F951FC81791
:10405000D90761F44E5F5F4F88819981480F591FDE
:10406000518340838A819B8193838283211531050B
:1040700009F0B0CFF093A007E0939F079ECFFD011A
:10408000DC01C0CF13821282D7CFB0E0A0E0EBE416
:10409000F0E20C94511D8C01009751F4CB010E9469
:1040A000201F8C01C801CDB7DEB7E0E10C946D1D77
:1040B000FC01E60FF71F9C0122503109E217F307BC
:1040C00008F49DC0D901CD91DC911197C617D7078F
:1040D00098F0C530D10530F3CE01049786179707C5
:1040E00008F3C61BD70B2297C193D1936D937C9392
:1040F000CF010E94BC1FD6CF5B01AC1ABD0A4C0198
:104100008C0E9D1EA0919F07B091A007512C412CB1
:10411000F12CE12C109731F580919D0790919E072D
:104120008815990509F05CC04616570608F058C076
:104130008091050190910601009741F48DB79EB7DB
:104140004091090150910A01841B950BE817F9076A
:1041500008F055C0F0939E07E0939D07F901718325
:104160006083A0CF8D919C91119712966C901297BD
:1041700013967C901397A815B90559F56C0142E088
:10418000C40ED11CCA14DB0420F1AC014A195B092E
:10419000DA011296159780F0628273825183408310
:1041A000D9016D937C93E114F10471F0D70113965A
:1041B000FC93EE93129776CF22968C0F9D1FF901F8
:1041C00091838083F301EFCFF093A007E0939F07E3
:1041D00069CF4816590608F42C017D01D3019ACF06
:1041E000CB010E94201F7C01009749F0AE01B8016D
:1041F0000E940A21C8010E94BC1F870153CF10E012
:1042000000E050CF9111089581568A5108F48052F0
:1042100085580895FB01DC0102C001900D924150C8
:104220005040D8F70895FB01DC0101900D92002069
:08423000E1F70895F894FFCFB7
:10423800FFFFFFFFFF0000A10780000601C400C4C4
:1042480000DC00C4000000F70006010400080008B4
:104258000004000400040004000400000000000042
:1042680000000000006300004000000000000000A3
:10427800000000000000000000000000777C395EAC
:1042880079713576061E753837545C737B506D78B6
:104298001C3E7E766E1B0000000108005F7C585EA5
:1042A800797135740416753837545C7367506D78B6
:1042B8001C3E2A766E1B3F065B4F666D7D077F6F3F
:1042C800777C395E7971000000005501B500E20085
:1042D800A7011301F1000501000000005E0AB50006
:1042E800040AA50400000000D60D730DA6040D0AEB
:1042F80000706167653000706167653100706167E3
:1043080065320070616765330070616765340070FD
:10431800616765350070616765360070616765378C
:1043280000706167653800706167653900706167A2
:1043380065313000706167653131007061676531E2
:10434800320062300062310062320062330062344F
:104358000062350062360062370062380062390058
:104368006231300062313100623132006231330033
:104378006231340062313500623136006231370013
:104388006231380074300057616974696E6720665D
:104398006F722074686520636172642E2E2E004C43
:1043A800494E4B00626B636D643D31007061676517
:1043B80020300074302E7478743D0022005441502F
:1043C80020544845204341524400425554544F4ECE
:1043D800204F4E20535441544500505553480055E2
:1043E800494420746167203A004D657373616765BD
:1043F800203A2000417574686F72697A656420619B
:1044080063636573730041434345535320475241E7
:0A4418004E5453005041535300006E
:00000001FF
