:100000000C9463000C948B000C948B000C940E11D8
:100010000C940E110C940E110C948B000C94101077
:100020000C948B000C948B000C948B000C948B0024
:100030000C948B000C948B000C948B000C948B0014
:100040000C94C4100C948B000C9492100C946C10B3
:100050000C948B000C948B000C948B000C948B00F4
:100060000C948B000C948B000000000023002600F1
:10007000290000000008000201000003040700003E
:1000800000000000000000000000240027002A00FB
:10009000010204081020408001020408102001021F
:1000A0000408102000000000250028002B00040494
:1000B0000404040404040202020202020303030310
:1000C00003030200181111241FBECFEFD8E0DEBFDA
:1000D000CDBF26E0A2E8B2E001C01D92A937B20769
:1000E000E1F712E0A0E0B1E0EAE7FEE302C005902C
:1000F0000D92A238B107D9F710E0C3E6D0E004C0F2
:100100002197FE010E943B1DC236D107C9F70E940C
:100110007A130C943B1F0C940000E7EAF4E0A089EA
:10012000B18982E08C93A485B5851C92A685B7859C
:100130008FEC8C93108EA489B58986E08C93A2896C
:10014000B3898C9180618C93A289B3898C918860EA
:100150008C93A289B3898C9180688C930288F389EF
:10016000E02D80818F7D80830895AF92BF92CF92E2
:10017000DF92EF92FF920F931F93CF93DF936C0167
:100180007B018B01040F151FEB015E01AE18BF0848
:10019000C017D10759F06991D601ED91FC910190FA
:1001A000F081E02DC6010995892B79F7C501DF9112
:1001B000CF911F910F91FF90EF90DF90CF90BF9064
:1001C000AF900895FC01538D448D252F30E0842F8E
:1001D00090E0821B930B541710F0CF96089501976F
:1001E0000895FC01918D828D981761F0A28DAE0F5C
:1001F000BF2FB11D5D968C91928D9F5F9F73928FE3
:1002000090E008958FEF9FEF0895FC01918D828D0E
:10021000981731F0828DE80FF11D858D90E00895DB
:100220008FEF9FEF0895FC01918D228D892F90E033
:10023000805C9F4F821B91098F739927089587EAED
:1002400094E00E94130121E0892B09F420E0822F21
:10025000089580E090E0892B29F00E941F01811110
:100260000C9400000895FC01A48DA80FB92FB11DB6
:10027000A35ABF4F2C91848D90E001968F739927DC
:10028000848FA689B7892C93A089B1898C918370BA
:1002900080648C93938D848D981306C00288F389B3
:1002A000E02D80818F7D80830895EF92FF920F93E0
:1002B0001F93CF93DF93EC0181E0888F9B8D8C8D12
:1002C00098131AC0E889F989808185FF15C09FB706
:1002D000F894EE89FF896083E889F98980818370C9
:1002E000806480839FBF81E090E0DF91CF911F9178
:1002F0000F91FF90EF900895F62E0B8D10E00F5F99
:100300001F4F0F731127E02E8C8D8E110CC00FB66E
:1003100007FCFACFE889F989808185FFF5CFCE0106
:100320000E943301F1CFEB8DEC0FFD2FF11DE35A4D
:10033000FF4FF0829FB7F8940B8FEA89FB89808189
:100340008062CFCF6FEF87EA94E00C945501CF9392
:10035000DF93EC01888D8823B9F0AA89BB89E889ED
:10036000F9898C9185FD03C0808186FD0DC00FB693
:1003700007FCF7CF8C9185FFF2CF808185FFEDCF11
:10038000CE010E943301E9CFDF91CF9108958330F0
:1003900081F028F4813099F08230A9F008958730F7
:1003A000A9F08830C9F08430B1F4809180008F7D4D
:1003B00003C0809180008F7780938000089584B57A
:1003C0008F7784BD089584B58F7DFBCF8091B00079
:1003D0008F778093B00008958091B0008F7DF9CF22
:1003E000CF93DF93282F30E0F901EE58FF4F84912F
:1003F000F901E057FF4FD491F901E255FF4FC49145
:10040000CC23A1F081110E94C701EC2FF0E0EE0F88
:10041000FF1FE859FF4FA591B491EC91ED2381E0C6
:1004200090E009F480E0DF91CF91089580E090E0C2
:10043000FACF1F93CF93DF93282F30E0F901EE58C6
:10044000FF4F8491F901E057FF4FD491F901E25534
:10045000FF4FC491CC23A9F0162F81110E94C70130
:10046000EC2FF0E0EE0FFF1FEC55FF4FA591B4917C
:100470008FB7F894EC91111108C0D095DE23DC936E
:100480008FBFDF91CF911F910895DE2BF8CFCF93CF
:10049000DF93C1E9D5E061E08E810E94190261E03D
:1004A0008F810E94190260E08F810E94190260E032
:1004B0008E81DF91CF910C941902CF93DF93C1E924
:1004C000D5E060E08E810E94190260E08F810E9479
:1004D000190261E08E810E94190261E08F81DF9133
:1004E000CF910C9419029091040189130BC0E2EC96
:1004F000F0E0E4919FEF90930401E13049F028F09F
:10050000E23061F060E00C94190210926E00FACFB4
:1005100090916F009D7F90936F00F4CF9091700049
:100520009D7F9093700091E09093B0009091B10006
:10053000987F94609093B1001092B300E3CFCF9373
:10054000DF9390E0FC01E057FF4F249182559F4FCD
:10055000FC0184918823D1F090E0880F991FFC0161
:10056000EA57FF4FA591B491FC01EC55FF4FC5919F
:10057000D49161110EC09FB7F8948C91E22FE09551
:100580008E238C932881E223E8839FBFDF91CF9154
:1005900008958FB7F894EC91E22BEC938FBFF6CFD0
:1005A0000F931F93CF93DF93D82FC8E060E0809123
:1005B00097050E9419020D2F0D2E000C110B61E002
:1005C000D0FF60E0809198050E941902159507956B
:1005D000D02F61E0809197050E941902C15031F738
:1005E00060E0809197050E94190261E08091980572
:1005F0000E94190261E0809197050E94190260E053
:10060000809198050E949F0283EC90E00197F1F79A
:10061000809198050E94F0018C0181110AC061E06F
:10062000809198050E949F0260E0809198050E9449
:100630001902C3ECD0E0CE010197F1F761E080919F
:1006400098050E949F022197F1F7C8019927DF9131
:10065000CF911F910F910895CF93DF93D82FE62F5D
:100660006F37D9F1603140F50E2E000CFF0BEA57C1
:10067000FE4F808190919405C0E09111C0E8C80FB1
:100680000E94470284E40E94D0020E945D020E9400
:1006900047028D2F806C0E94D0028C2F0E94D002C6
:1006A0000E945D020E944702809193050E94D00241
:1006B000DF91CF910C945D0280ED860F8A3030F48B
:1006C0000E2E000CFF0BEA5AFE4FD3CFE052EB3553
:1006D00020F4F0E0E55DFE4FCCCF80E0CBCF1F9360
:1006E000CF93DF93182FEB0161E00E949F022097C8
:1006F00039F460E0812FDF91CF911F910C941902A2
:10070000CF3FD10511F461E0F5CFE12FF0E0EE58D5
:10071000FF4FE491E33031F140F4E130B1F0E230E9
:10072000E1F0C038D1057CF7E4CFE73029F1E830BB
:1007300059F1E430B1F780918000806280938000AD
:10074000D0938B00C0938A0004C084B5806884BDB8
:10075000C7BDDF91CF911F91089584B5806284BD9C
:10076000C8BDF7CF80918000806880938000D093CF
:100770008900C0938800EDCF8091B000806880939D
:10078000B000C093B300E5CF8091B0008062809349
:10079000B000C093B400DDCF3FB7F89480918F04D0
:1007A00090919004A0919104B091920426B5A89BD9
:1007B00005C02F3F19F00196A11DB11D3FBFBA2FF3
:1007C000A92F982F8827BC01CD01620F711D811DB3
:1007D000911D42E0660F771F881F991F4A95D1F738
:1007E00008958F929F92AF92BF92CF92DF92EF9235
:1007F000FF926B017C010E94CC034B015C01C11490
:10080000D104E104F104B9F00E94CC03681979091C
:100810008A099B09683E73408105910580F321E0B8
:10082000C21AD108E108F10888EE880E83E0981E0C
:10083000A11CB11CE4CFFF90EF90DF90CF90BF9050
:10084000AF909F908F9008952FB7F89460918B048C
:1008500070918C0480918D0490918E042FBF089527
:100860008F929F92AF92BF92EF92FF920F931F933E
:10087000CF93DF9300D000D0CDB7DEB719821A82B4
:100880001B821C8284E690E0A0E0B0E08093AB0481
:100890009093AC04A093AD04B093AE048E010F5FAF
:1008A0001F4F7E0185E0E80EF11C0E942404609336
:1008B000AF047093B0048093B1049093B20487EABC
:1008C00094E00E94F10097FF38C00E9424048090B9
:1008D000AF049090B004A090B104B090B204681935
:1008E00079098A099B098090AB049090AC04A09090
:1008F000AD04B090AE04681579058A059B05F8F241
:100900008981813051F48A818F3F39F48B818F3F07
:1009100021F481E09C819F3F09F080E00F900F90CF
:100920000F900F90DF91CF911F910F91FF90EF905B
:10093000BF90AF909F908F900895F80181938F01A1
:10094000EE16FF0609F0B1CFDBCF0895BC016E5F54
:100950007F4FDC01ED91FC910190F081E02D40E0B2
:10096000099591E0811190E0892F0895089561E043
:10097000FC0184810E9419028091840281111092ED
:10098000840208958EBD00000DB407FEFDCF8EB524
:1009900008958FEF0C94C2040F931F93CF93DF93AE
:1009A000EC010E9424048B010E94C9048F3F69F06E
:1009B0000E942404601B710B6C177D07A8F380E074
:1009C000DF91CF911F910F91089581E0F9CF8CBDF8
:1009D0009DBD0895DF92EF92FF920F931F93CF93E7
:1009E000DF937C01062FD42E152F83E590E00E9423
:1009F000E70460E0F70186850E94190282E10E9407
:100A0000C204CD2DD12F0C0F1D2F111DC017D107E2
:100A100021F089910E94C204F9CF61E0F701868537
:100A2000DF91CF911F910F91FF90EF90DF900C9489
:100A30001902CF93DF93EC0180918402811109C0E8
:100A400081E08093840280914405909145050E9445
:100A5000E70460E08C81DF91CF910C941902CF9272
:100A6000DF92EF92FF920F931F93CF93DF93EC01EE
:100A7000162F69017A018E81882389F08F819885EC
:100A80009C012F5F3F4F38872F838230924018F4AC
:100A90000E94C904F3CFCE010E94B7041E82CE018A
:100AA0000E9419058CE291E00E94CC04812F8064A1
:100AB0000E94C20408E110E0D701C601002E04C064
:100AC000B695A795979587950A94D2F70E94C20488
:100AD00008501109083F8FEF180771F78FEF0E9438
:100AE000C20410E00E94C9048A8787FF04C01F3F28
:100AF00011F01F5FF7CFDF91CF911F910F91FF9002
:100B0000EF90DF90CF900895CF92DF92EF92FF9217
:100B10000F93CF93DF93EC01690182E141155105F9
:100B20006105710599F08B85833039F089E0440FB8
:100B3000551F661F771F8A95D1F79A01AB0168E1AF
:100B4000CE010E942F05882319F084E08D832DC0EB
:100B50008EEF0E94C20476018EEFD81AF7018191C0
:100B60007F010E94C204EC14FD04C1F78FEF0E94C4
:100B7000C2048FEF0E94C2040E94C9048A878F7149
:100B8000853071F4011116C0CE010E94B70481E0D6
:100B9000DF91CF910F91FF90EF90DF90CF9008956C
:100BA00081E18D83CE010E94B704CE010E94B7047B
:100BB00080E0EECF88E592E00E94CC04811102C073
:100BC00085E1C4CF20E030E0A9016DE0CE010E94B4
:100BD0002F05882311F084E1B9CF0E94C904811147
:100BE000FACFD2CF0F934091860250918702609145
:100BF000880270918902411551056105710589F0DE
:100C0000082F2AE832E090E080E00E9484058823E3
:100C100049F0109286021092870210928802109278
:100C2000890281E00F9108950F93CF93C82F80918F
:100C30008502811105C0C1E08C2FCF910F910895DD
:100C400040910001509101016091020170910301F6
:100C50000C2F2AE832E090E080E00E9484058111A8
:100C600002C0C0E0E9CFCC2331F381E00E94F2055D
:100C70008823B9F310928502DFCFAF92BF92CF9253
:100C8000DF92EF92FF921F93CF93DF936B017C0172
:100C9000142F8091000190910101A0910201B09167
:100CA00003018C159D05AE05BF0509F4ADC081E0BB
:100CB0000E9414068823E1F1809106008823A1F0A8
:100CC0008091000090910100A0910200B09103007A
:100CD000C816D906EA06FB0639F480910700909100
:100CE0000800892B09F44FC0C0920000D092010087
:100CF000E0920200F092030080910B00A7019601A0
:100D0000833039F099E0220F331F441F551F9A9505
:100D1000D1F761E190E080E00E942F05882391F0F7
:100D200083E08093050090E080E00E94B70480E0BB
:100D3000DF91CF911F91FF90EF90DF90CF90BF9008
:100D4000AF9008950E942404EB010E94C90480938F
:100D50000A008F3F79F40E9424046C1B7D0B6D32D6
:100D6000714098F38FE08093050090E080E00E944E
:100D7000B704D9CF8E3FC1F510920800109207003A
:100D800081E080930600CAE8D2E08AE8A82E84E0D9
:100D9000B82E0E94C9048993AC16BD06D1F7809184
:100DA0000700909108009E5F9093080080930700D1
:100DB00020910900222319F081159240E8F08091DA
:100DC00006008823C9F080910700909108009C01DB
:100DD0002F5F3F4F309308002093070082309240EE
:100DE00028F40E94C904EFCF8DE0BDCF90E080E0F1
:100DF0000E94B70410920600C0920001D092010137
:100E0000E0920201F092030140918502412B409350
:100E1000850281E08DCF4F925F926F927F928F9289
:100E20009F92AF92BF92CF92DF92EF92FF920F9379
:100E30001F93CF93DF93EC0142305105610571059B
:100E400090F480E0DF91CF911F910F91FF90EF9090
:100E5000DF90CF90BF90AF909F908F907F906F90DA
:100E60005F904F90089589859A85AB85BC850196E2
:100E7000A11DB11D84179507A607B70710F3CB88EE
:100E8000DC88ED88FE888F89803109F042C0BB275D
:100E9000A72F962F852F480159012A013B01C80E23
:100EA000D91EEA1EFB1E8091000190910101A091C4
:100EB0000201B0910301C816D906EA06FB0699F5AE
:100EC0008F898031C1F5B301A201552766277727A5
:100ED000440F551F46575D4FFA01918280828091E1
:100EE00085028160809385028A89823080F08D81BD
:100EF0009E81AF81B8858C0D9D1DAE1DBF1D809359
:100F0000860290938702A0938802B093890281E0C1
:100F100099CFDB01CA01E7E0B695A795979587952C
:100F2000EA95D1F7B8CF40E0C701B6010E943D066F
:100F30008111C6CF86CFB301A2014F77552766270F
:100F40007727440F551F440F551F46575D4FFA0131
:100F500080829182A282B382C2CF8F929F92AF92FF
:100F6000BF92CF92DF92EF92FF920F931F93CF9396
:100F7000DF93FC0181859285A385B4850196A11D2F
:100F8000B11D84179507A607B70770F480E0DF91BD
:100F9000CF911F910F91FF90EF90DF90CF90BF9076
:100FA000AF909F908F90089583889488A588B68885
:100FB0008789803189F5BB27A72F962F852FE901D7
:100FC0006A017B018F01BC01CD01680D791D8A1D6D
:100FD0009B1D8090000190900101A0900201B090B3
:100FE000030186169706A806B90601F5F801878958
:100FF000803111F5DD24EE24FF24F601EE0FFF1FF2
:10100000E657FD4F80819181B0E0A0E0888399830D
:10101000AA83BB8381E0BBCFDB01CA01C7E0B695E1
:10102000A79597958795CA95D1F7C9CF40E00E94BB
:101030003D068111DBCFAACFE894C7F8DD24EE246A
:10104000FF24F601EE0FFF1FEE0FFF1FE657FD4FC7
:1010500080819181A281B381BF70D8CF8F929F92FE
:10106000AF92BF92CF92DF92EF92FF920F931F93B6
:10107000CF93DF93EC018D8181110EC080E0DF9171
:10108000CF911F910F91FF90EF90DF90CF90BF9085
:10109000AF909F908F9008950B891C892D893E8970
:1010A000041715072607370748F34A015B0182300A
:1010B00031F48A869B86AC86BD8681E0E0CF8114C0
:1010C0009104A104B10449F41E821F821886198676
:1010D0001A861B861C861D86F0CF0A851B852C85EB
:1010E0003D85EB8DFC8D858590E00996B901A801C1
:1010F0004150510961097109082E04C07695679520
:10110000579547950A94D2F775016401E1E0CE1A2C
:10111000D108E108F10804C0F694E794D794C79485
:101120008A95D2F7C416D506E606F70620F0012BFD
:10113000022B032B11F58F89988DA98DBA8D8E8383
:101140009F83A887B9878E010A5F1F4FC114D104FE
:10115000E104F10409F4ADCF4E815F8168857985A2
:1011600098018B8D9C8D0E94AD0791E0C91AD10822
:10117000E108F1088111EACF81CFC41AD50AE60A45
:10118000F70AE1CF3F924F925F926F927F928F92D8
:101190009F92AF92BF92CF92DF92EF92FF920F9306
:1011A0001F93CF93DF93CDB7DEB72C970FB6F8948C
:1011B000DEBF0FBECDBF5C01DC015B968D909C90C5
:1011C0005C9716964D905D906D907C9019974114A8
:1011D00051046104710409F468C0BFEF4B1A5B0A43
:1011E0006B0A7B0A312CF40181859285A385B48535
:1011F0009C01AD012F5F3F4F4F4F5F4F29873A87CB
:101200004B875C87730162011D821E821F821886D4
:10121000F40181859285A385B4852D813E814F811E
:101220005885281739074A075B0708F056C0898593
:101230009A85AB85BC858C159D05AE05BF0550F420
:1012400082E0C82ED12CE12CF12C92E0492E512CB9
:10125000612C712C9E012F5F3F4FB701A601C40185
:101260000E94AD078823C9F189819A81AB81BC8135
:10127000892B8A2B8B2B09F1260137019FEF491A05
:10128000590A690A790A2D813E814F8158852F5F5D
:101290003F4F4F4F5F4F2D833E834F8358873FEF24
:1012A000C31AD30AE30AF30AB3CFF4014080518092
:1012B000628073803324339496CFC414D504E6043B
:1012C000F70409F70FEF1FEF2FEF3FE0B701A6017B
:1012D000C4010E940B07811119C080E02C960FB643
:1012E000F894DEBF0FBECDBFDF91CF911F910F915C
:1012F000FF90EF90DF90CF90BF90AF909F908F9036
:101300007F906F905F904F903F900895D501169613
:101310004D915D916D917C91199741155105610534
:10132000710539F097018601C4010E940B078823DB
:10133000A1F2D5011696CD92DD92ED92FC9219970D
:10134000332051F0D701C6010196A11DB11DF40152
:1013500080839183A283B383F5018789908DA18DCA
:10136000B28D892B8A2B8B2B39F48481C78AD08E3E
:10137000E18EF28E80688483F501848180628483AB
:1013800081E0ACCF1F93CF93DF93EC01162F8C81BC
:1013900087FF2AC06E857F858889998941E00E94F0
:1013A0003D06882361F1EA8980E2E89FF00111247B
:1013B000E657FD4F309719F18D81823040F48B89CB
:1013C0009C89AD89BE89848F958FA68FB78F8F89B1
:1013D000988D938F828F8F89988DA98DBA8DB58BBB
:1013E000A48B8C818F778C83111103C08C818F7EAD
:1013F0008C83812FDF91CF911F910C94140680E094
:10140000DF91CF911F9108951F93CF93DF93EC014C
:101410008D81813031F090E080E0DF91CF911F919C
:1014200008958C8181FFF7CF82FD1BC090E080E0A2
:101430000E9419050E94C904182F90E080E00E94C4
:10144000B7041F3F41F78C8185FF1EC08D81882323
:1014500021F060E0CE010E94C2098C818F7D8C83D7
:10146000DACF4B895C896D897E898A859B85AC85BD
:10147000BD8584179507A607B707C1F2CE010E9464
:101480002E088111D3CFC7CF409186025091870299
:101490006091880270918902452B462B472B21F0E1
:1014A00080E00E94F205B7CF80618C832A853B855E
:1014B000317080E092E0821B930BAFCF9F92AF928E
:1014C000BF92CF92DF92EF92FF920F931F93CF9331
:1014D000DF9300D000D01F92CDB7DEB78C016D83B3
:1014E000DC0115968C911597813009F0B9C01496DE
:1014F0008C9181FFB5C082FD9FC0D8015B96ED91B4
:10150000FC915C971A96AD90BD90CD90DC901D97A4
:1015100094809A94B601A50189E0769567955795D0
:1015200047958A95D1F79422B1E0BB22992009F41E
:101530009FC0D8015B96ED91FC915C971696CD907B
:10154000DD90ED90FC901997B2E0CB1AD108E1083C
:10155000F108858504C0CC0CDD1CEE1CFF1C8A95AF
:10156000D2F74685578560897189C40ED51EE61E5F
:10157000F71EC90CD11CE11CF11CA114B10409F027
:101580000AC1F801428553856485758583899489EC
:10159000A589B689481759076A077B0708F4FBC075
:1015A00081E00E941406882309F45AC0C092000109
:1015B000D0920101E0920201F09203018091850234
:1015C000816080938502F501E657FD4F8D81808310
:1015D000F80182859385A485B5850196A11DB11D6D
:1015E00082879387A487B5874389548965897689DB
:1015F000481759076A077B0738F42481838B948B3B
:10160000A58BB68B20682483D80114968C9183FD1A
:101610009FC081E090E00F900F900F900F900F907F
:10162000DF91CF911F910F91FF90EF90DF90CF90BE
:10163000BF90AF909F900895F801438954896589C0
:10164000768982859385A485B585481759076A07E9
:101650007B0709F452CFC8010E942E0881114DCF9B
:1016600081E090E0D80113969C938E93129749C025
:10167000D80116964D915D916D917C911997A114A9
:10168000B10409F071C0411551056105710589F575
:1016900057968D919D910D90BC91A02D0097A1051D
:1016A000B10509F04FC0C8010E94C2088823C1F2E9
:1016B000D8015B96ED91FC915C971696CD90DD90EC
:1016C000ED90FC901997B2E0CB1AD108E108F1082F
:1016D000858504C0CC0CDD1CEE1CFF1C8A95D2F75E
:1016E0004685578560897189C40ED51EE61EF71E92
:1016F00048CF9E012F5F3F4FCF010E94AD07811160
:1017000003C090E080E087CF89819A81AB81BC8162
:10171000F801238D348DF901278948EF5FEF60E0F0
:1017200070E0203121F048EF5FEF6FEF7FE084172A
:101730009507A607B70730F0C8010E94C2088111BB
:10174000F8CE8ECFF80186839783A087B187F1CE3C
:10175000F8018581882309F483CF61E0C8010E94E4
:10176000C209811156CF7CCF6A017B01B2E0CB1A4E
:10177000D108E108F108858504C0CC0CDD1CEE1C05
:10178000FF1C8A95D2F74685578560897189C40EFA
:10179000D51EE61EF71E41E0C701B6010E943D06B8
:1017A000811111CF5DCF1F93CF93DF93EC01162FE3
:1017B00083E590E00E94E70460E08E850E941902B4
:1017C000812F80680E94C20480E00E94C204182F0A
:1017D00061E08E850E941902812FDF91CF911F91C8
:1017E00008950F931F93CF93DF93EC01062F142FCF
:1017F00083E590E00E94E70460E08E850E94190274
:10180000802F0E94C204812F0E94C20461E08E8555
:10181000DF91CF911F910F910C941902CF92DF921B
:10182000EF92FF920F931F93CF93DF93EC016B0125
:10183000142F790140E062E00E94F10B44E06AE07D
:10184000CE010E94F10B40E864E1CE010E94F10B51
:10185000A601612FCE010E94EA0443E062E0CE01BE
:101860000E94F10B08E813E16AE0CE010E94D30B5D
:1018700082FF1BC040E062E0CE010E94F10B64E4F5
:10188000CE010E94D30BF701808362E4CE010E9457
:10189000D30BF701818380E0DF91CF911F910F91EE
:1018A000FF90EF90DF90CF90089501501109E1F67D
:1018B00083E0F2CF3F924F925F926F927F928F922E
:1018C0009F92AF92BF92CF92DF92EF92FF920F93CF
:1018D0001F93CF93DF9300D0CDB7DEB74C012B0120
:1018E000D42E390180E0E114F10411F0F701808178
:1018F000BC2CB29490EFB922B80E40E062E0C40173
:101900000E94F10B4FE768E0C4010E94F10B40E830
:1019100064E1C4010E94F10BA2016D2DC4010E947B
:10192000EA044B2D6AE1C4010E94F10B4CE062E035
:10193000C4010E94F10B6AE1C4010E94D30B482F3D
:1019400040686AE1C4010E94F10B20ED422E27E0BD
:10195000522E68E0C4010E94D30B982F907309F0B7
:10196000B6C080FD04C0F1E04F1A510891F783E042
:1019700094C06114710409F46DC00115110509F4D6
:1019800069C064E1C4010E94D30BB82EF8018081C4
:101990008B1508F496C0B082BB20E1F183E590E09E
:1019A0000E94E70460E0F40186850E941902BA945F
:1019B00082E90E94C204CC20B1F08FEF90E09C013C
:1019C00002C0220F331FCA94E2F7690182E90E9424
:1019D000C2049C2D9095F301208192238C21982B99
:1019E0009083CC24C39423014C0C511CCB1440F4A1
:1019F00082E90E94C204F20181932F01C394F6CFC1
:101A000080E00E94C204F201808361E0F4018685D7
:101A10000E94190268E1C4010E94D30B8770E1148F
:101A2000F10411F0F701808333FC4DC0611471049F
:101A300009F44BC00115110509F447C0AA2009F4A7
:101A400044C0F8014081413039F4843009F049C084
:101A50008FEF23C080E0E8CF423008F442C081110C
:101A600040C042509E012F5F3F4FB301C4010E940E
:101A70000E0C811112C0F8019081690E711CF301E6
:101A800032972081998129132CC0F1E06F1A7108D7
:101A9000F30120819A81291324C00F900F90DF91C8
:101AA000CF911F910F91FF90EF90DF90CF90BF905B
:101AB000AF909F908F907F906F905F904F903F90EE
:101AC000089584E0EACF82E0E8CF80E0E6CF6CE0E2
:101AD000C4010E94D30B382E837109F44ACF81E0F0
:101AE000DCCF87E0DACF8F929F92AF92CF92EF92C6
:101AF000FF920F931F93CF93DF9300D000D01F92DC
:101B0000CDB7DEB74C0182E08D8340E064E2C401D2
:101B10000E94F10B40E066E2C4010E94F10B46E234
:101B200068E4C4010E94F10B86E28B838D818230D0
:101B3000D8F16CE1C4010E94D30B482F4F776CE1C0
:101B4000C4010E94F10B87E08C83A12CC12CCE0133
:101B500004967C018E010B5F1F4F9E012F5F3F4F4C
:101B600041E0BE016D5F7F4FC4010E945A0C982F67
:101B7000811117C08D818230B9F48C81811114C01C
:101B800081E00F900F900F900F900F90DF91CF9109
:101B90001F910F91FF90EF90CF90AF909F908F90FB
:101BA000089581E0923069F380E0EBCF2F923F926D
:101BB0004F925F926F927F928F929F92AF92BF925D
:101BC000CF92DF92EF92FF920F931F93CF93DF9309
:101BD000CDB7DEB72D970FB6F894DEBF0FBECDBFE1
:101BE00016E0413508F04AC1342E3B014C016CE14E
:101BF0000E94D30B482F4F776CE1C4010E94F10B78
:101C000083E98983332029F081E0F30190819530C5
:101C100008F480E022242394B12C9B2D990F990F76
:101C2000990FD32CD91AD7FCD12C32E0882319F084
:101C300098E89B8333E021E09D2D977009F420E024
:101C40009D2D959595959595290FC9F094E0811155
:101C500093E0291708F4922FEB2DF0E03196E60D72
:101C6000F71D232F4191A1E0B0E0AC0FBD1FA20FE3
:101C7000B11D4C932F5F422F431B491798F38823C4
:101C800011F0F8E0DF0E8FE18D150CF082C090E7C7
:101C90009A838B819C8189279D8189279E818927B1
:101CA0008F839E01285F3F4F47E0BE016F5F7F4FEC
:101CB000C4010E940E0C182F8111E0C01A86E3E0C7
:101CC000EB87DC86CE0107962C0199E09D87CA84BC
:101CD0004C2D4295407F4C0D6AE1C4010E94F10BEE
:101CE000A12CCE010A967C018E01055F1F4F920147
:101CF0004D85BE016F5F7F4FC4010E945A0C182FA3
:101D0000823009F065C06CE1C4010E94D30B85FDEF
:101D1000B5C08F7109F480E2282F30E04D2DDD0C25
:101D2000550B421753070CF09DC0D82EE82FE595B0
:101D3000E595E595EF5F982F977081E009F480E0D5
:101D4000E80F81E090E08C0F9D1F8E0F911DFC012C
:101D5000215031092770332781E090E002C0880FBD
:101D6000991F2A95E2F79C018081822B80838BCF7B
:101D700085E98983332031F081E0F3019081983047
:101D800008F04BCF80E049CF87E9898326E0B22E67
:101D9000F9CF9D2D97709A878D2D85958595859581
:101DA0008E5F282F2295207F290F2A8321E0911111
:101DB00001C020E0280F2D8744244394512C4C0E61
:101DC0005D1E480E511CE9E0E81BEB87DC867FCFE7
:101DD000811154C080E2D82E9C8590320CF457CFEC
:101DE0008B81883809F040C083E093E0EB2DF0E070
:101DF0003196E60DF71D980FA1E0B0E0AC0FBD1FC6
:101E0000A80FB11D2C9121938F5F8913F5CFBB844F
:101E1000E3E0BE124DC08A8581114AC09E012D5F4C
:101E20003F4F41E0B201C4010E940E0C182F8111F6
:101E300025C09B81F201818198133CC09C818281E5
:101E4000981338C0808182FF12C02394F2E02F16CD
:101E500009F48ECF83E0281609F496CF91E0291675
:101E600009F4CECE15E00AC082E094E0BFCFF301C2
:101E70008387822D880F820D8F5F8083812F2D961F
:101E80000FB6F894DEBF0FBECDBFDF91CF911F918B
:101E90000F91FF90EF90DF90CF90BF90AF909F9009
:101EA0008F907F906F905F904F903F902F9008950C
:101EB00011E0E4CF17E0E2CFFC0101900020E9F748
:101EC0003197AF01481B590BBC0187EA94E00C9491
:101ED000B5000C945C0FCF93DF93EC0187EA94E09C
:101EE0000E941301892B29F087EA94E00E94F100F7
:101EF000F5CFCE010E94690F0E94A2010E94A201AB
:101F0000DF91CF910C94A201FC0180819181009717
:101F100011F00C94DD1D08950F931F93CF93DF9361
:101F2000EC0188819981009759F02A813B8126171D
:101F3000370730F081E0DF91CF911F910F91089525
:101F40008B016F5F7F4F0E94661E009759F0998347
:101F500088831B830A832C813D81232B59F7FC0145
:101F60001082E8CF80E0E7CFEF92FF920F931F93AC
:101F7000CF93DF93FB01E080F180E114F10441F4A1
:101F800080E0DF91CF911F910F91FF90EF90089526
:101F90000481158101151105B1F0EC018C819D8141
:101FA000080F191FB801CE010E948C0F882341F33E
:101FB000288139818C819D81B701820F931F0E94F6
:101FC000341F1D830C8381E0DCCFEF92FF920F93CF
:101FD0001F93CF93DF93EC017B018A01BA010E942A
:101FE0008C0F28813981811114C02115310519F018
:101FF000C9010E94DD1D198218821D821C821B826C
:102000001A82CE01DF91CF911F910F91FF90EF9037
:1020100008951D830C83B701C9010E94341FF1CFBD
:102020001F920F920FB60F9211242F933F934F934D
:102030005F936F937F938F939F93AF93BF93EF9330
:10204000FF938091990490919A04A0919B04B09180
:102050009C04892B8A2B8B2BD1F190919404E091D5
:102060009504F0919604808189278083809199045A
:1020700090919A04A0919B04B0919C0418161906A3
:102080001A061B069CF48091990490919A04A091E1
:102090009B04B0919C040197A109B1098093990414
:1020A00090939A04A0939B04B0939C04FF91EF91AA
:1020B000BF91AF919F918F917F916F915F914F9160
:1020C0003F912F910F900FBE0F901F901895809108
:1020D00004010E947302EACF1F920F920FB60F9273
:1020E00011242F933F934F935F936F937F938F931D
:1020F0009F93AF93BF93EF93FF9387EA94E00E947F
:102100003301FF91EF91BF91AF919F918F917F919B
:102110006F915F914F913F912F910F900FBE0F9054
:102120001F9018951F920F920FB60F9211242F93A4
:102130008F939F93EF93FF93E091B704F091B804CE
:102140008081E091BD04F091BE0482FD1BC09081AE
:102150008091C0048F5F8F732091C104821741F07A
:10216000E091C004F0E0E955FB4F958F8093C004E7
:10217000FF91EF919F918F912F910F900FBE0F9034
:102180001F9018958081F4CF1F920F920FB60F9277
:1021900011242F933F938F939F93AF93BF9380917D
:1021A0008B0490918C04A0918D04B0918E04309199
:1021B0008A0423E0230F2D3758F50196A11DB11D88
:1021C00020938A0480938B0490938C04A0938D04B5
:1021D000B0938E0480918F0490919004A09191040B
:1021E000B09192040196A11DB11D80938F0490932C
:1021F0009004A0939104B0939204BF91AF919F91EA
:102200008F913F912F910F900FBE0F901F901895B7
:1022100026E8230F0296A11DB11DD2CF1F920F9267
:102220000FB60F9211240F900FBE0F901F901895AC
:102230001092AA041092A90488EE93E0A0E0B0E006
:102240008093AB049093AC04A093AD04B093AE0420
:102250008AE991E09093A8048093A70485EC90E02C
:102260009093B4048093B30484EC90E09093B6040C
:102270008093B50480EC90E09093B8048093B70409
:1022800081EC90E09093BA048093B90482EC90E0E2
:102290009093BC048093BB0486EC90E09093BE04C2
:1022A0008093BD041092C0041092C1041092C20425
:1022B0001092C30480E58093440510924505109266
:1022C0004B0510924C0510924F051092510582E07B
:1022D00090E0A0E0B0E08093520590935305A09366
:1022E0005405B0935505109269051092730510922C
:1022F00072058CEA91E090937105809370051092BD
:1023000075051092690610926A068EEB91E0909323
:102310006C0680936B0610926E0610926D061092FA
:102320007206109271061092740610927306109243
:10233000700610926F0691E090935D0610925E0613
:1023400024EC31E03093600620935F061092620621
:102350001092610610926606109265061092680649
:1023600010926706109264061092630682E08093D2
:102370005106109252062AEC31E030935406209315
:102380005306109256061092550610925A06109255
:10239000590610925C0610925B0610925806109235
:1023A000570623E0209345061092460640ED51E083
:1023B000509348064093470610924A0610924906E9
:1023C00010924E0610924D061092500610924F0633
:1023D00010924C0610924B0634E03093390610925E
:1023E0003A0646ED51E050933C0640933B0610926E
:1023F0003E0610923D06109242061092410610923F
:102400004406109243061092400610923F0645E0A3
:1024100040932D0610922E064CED51E0509330065D
:1024200040932F0610923206109231061092360613
:102430001092350610923806109237061092340624
:102440001092330646E0409321061092220642EE97
:1024500051E05093240640932306109226061092D2
:10246000250610922A061092290610922C06109228
:102470002B061092280610922706109215069093AC
:10248000160648EE51E05093180640931706109236
:102490001A061092190610921E0610921D0610922E
:1024A000200610921F0610921C0610921B06909395
:1024B000090690930A064BEE51E050930C064093A8
:1024C0000B0610920E0610920D0610921206109234
:1024D0001106109214061092130610921006109214
:1024E0000F069093FD058093FE054EEE51E050934C
:1024F00000064093FF05109202061092010610920A
:102500000606109205061092080610920706109211
:102510000406109203068093F1052093F20541EF23
:1025200051E05093F4054093F3051092F605109294
:10253000F5051092FA051092F9051092FC0510921B
:10254000FB051092F8051092F7058093E50580933E
:10255000E60544EF51E05093E8054093E7051092FB
:10256000EA051092E9051092EE051092ED05109221
:10257000F0051092EF051092EC051092EB05809398
:10258000D9059093DA0547EF51E05093DC0540936D
:10259000DB051092DE051092DD051092E205109227
:1025A000E1051092E4051092E3051092E005109207
:1025B000DF052093CD059093CE054AEF51E050936F
:1025C000D0054093CF051092D2051092D1051092FC
:1025D000D6051092D5051092D8051092D705109205
:1025E000D4051092D3052093C1058093C2054DEF09
:1025F00051E05093C4054093C3051092C605109254
:10260000C5051092CA051092C9051092CC0510920A
:10261000CB051092C8051092C7053093B50590936D
:10262000B60540E052E05093B8054093B7051092CC
:10263000BA051092B9051092BE051092BD05109210
:10264000C0051092BF051092BC051092BB053093D7
:10265000A9058093AA0583E092E09093AC0580934E
:10266000AB051092AE051092AD051092B205109216
:10267000B1051092B4051092B3051092B0051092F6
:10268000AF0588EB91E090939A05809399058AE0D5
:102690008093A70589E08093A80584E090E090935B
:1026A00096058093950581E18093970580E180935D
:1026B000980561E081E10E949F0261E080919805A8
:1026C0000E949F0281E480937C0080917A00806464
:1026D00080937A0080917A0086FDFCCF90917800FB
:1026E0008091790089279827892790939005809376
:1026F0008F050895CF93DF93CDB7DEB7E7970FB679
:10270000F894DEBF0FBECDBF789484B5826084BDDF
:1027100084B5816084BD85B5826085BD85B58160E5
:1027200085BD80916E00816080936E001092810063
:10273000809181008260809381008091810081601E
:1027400080938100809180008160809380008091DF
:10275000B10084608093B1008091B000816080936B
:10276000B00080917A00846080937A0080917A0032
:10277000826080937A0080917A00816080937A00F1
:1027800080917A00806880937A001092C1000E9444
:102790008D0060E087E00E949F021FB7F89480914F
:1027A0009304811127C0E8EBF0E08491EAE9F0E0BE
:1027B0009491E82FF0E0EE0FFF1FEA57FF4FA5912D
:1027C000B491EC91E92321F461E08AE00E941902BE
:1027D00061E08AE00E949F028CB580618CBD8CB55F
:1027E00080648CBD61E08DE00E949F0261E08BE01F
:1027F0000E949F02809193048F5F809393041FBF78
:1028000061E08091A7050E949F0261E08091A70589
:102810000E9419028091A8058F3F09F4B6C060E0BC
:102820000E949F028091A8050E94F001892B09F067
:10283000ACC061E08091A8050E949F0260E0809199
:10284000A8050E94190283E090E00197F1F761E08A
:102850008091A8050E94190262E370E080E090E098
:102860000E94F10340E064E289E995E00E94F10BE7
:1028700040E066E289E995E00E94F10B46E268E4F7
:1028800089E995E00E94F10B40E864E589E995E06B
:102890000E94F10B49EA66E589E995E00E94F10B97
:1028A00043E068E589E995E00E94F10B48EE6AE5AE
:1028B00089E995E00E94F10B40E46AE289E995E03C
:1028C0000E94F10B4DE362E289E995E00E94F10B71
:1028D00068E289E995E00E94D30B982F93709330BA
:1028E00039F0482F436068E289E995E00E94F10BD6
:1028F0008BE092E00E945C0F83E292E00E945C0F0A
:1029000083E292E00E945C0F6FE780E00E942C035C
:102910006FE781E00E942C036FE782E00E942C03A6
:102920006FE783E00E942C0380E48093910580ECA4
:10293000809392058FE88093930510E000E032EDDC
:10294000E32E34E0F32E4AE0C42ED12C20919505DD
:1029500030919605021713077CF5201B310B21508F
:1029600031096FE7E114F10429F0C701B6010E94B3
:10297000CB1C682F822F0E942C03C701B6010E9436
:10298000CB1C7B010F5F1F4FE1CF4FE062E089E975
:1029900095E00E94F10B13E062E370E080E090E0CC
:1029A0000E94F10362E089E995E00E94D30B84FF65
:1029B00059CF115089F756CF109294056CEB72E005
:1029C00080E090E00E94F10326E0C22E22E0D22EA9
:1029D00010E000E080919505909196050817190781
:1029E00004F164EF71E080E090E00E94F10358018F
:1029F000F12CE12C80919505909196052FEFA21A6C
:102A0000B20AE816F90694F4F501E81BF90BEA5F3F
:102A1000FD4F60818E2D0E942C033FEFE31AF30AD5
:102A2000E9CFD6016C91802F0E942C030F5F1F4FBE
:102A3000BFEFCB1ADB0A0430110561F680919505D2
:102A400090919605081719073CF46FE7802F0E94B4
:102A50002C030F5F1F4FF2CF61E088E00E949F02BE
:102A6000EBE1F1E0FBABEAAB2BE031E03DAB2CABB3
:102A7000AAA9BBA96D917D91BBABAAAB88EE93E0EF
:102A80000E94CB1C7FAB6EABCB01092E000CAA0BB6
:102A9000BB0B8EA79FA7A8ABB9ABACA9BDA92D90C6
:102AA0003D90BDABACAB80910401883009F0CEC045
:102AB000E2ECF0E0149117FFFCC06EA57FA588A999
:102AC00099A90E94531A26E636E646EA5FE30E9479
:102AD000B21A0E94951C072E000C880B990B0E94BD
:102AE000F10388E00E947302ABE2B1E0EAA9FBA91E
:102AF000AE17BF0709F0BCCF0E948D0085E292E0BF
:102B00000E946B0F86E292E00E946B0F0E943004DD
:102B10008EE292E00E946B0F0E94300485E392E007
:102B20000E94690F8DE392E00E94690F8FE392E0AB
:102B30000E94690F8DE392E00E94690F0E94A2013A
:102B40000E94A2010E94A2018E010F5F1F4F809080
:102B5000A5049090A604FFEF8F16910409F00CF4E1
:102B60007EC2B4016F5F7109072E000C880B990BB0
:102B70000E94531A20E030E04FE753E40E94231CE8
:102B800020E030E044EB53E40E94B21A6B017C0178
:102B900020E030E044EB53E40E944C1A811103C062
:102BA000C12CD12C760120E030E040E752E4C7018F
:102BB000B6010E94231C6B017C010E94951C5B01E5
:102BC000072E000C880B990B0E94531A9B01AC0135
:102BD000C701B6010E94B61B9B01AC0160E070E02A
:102BE00080E89FE30E94B61B6B017C012DEC3CEC5E
:102BF0004CE45DE30E94B21A2B013C01A70196014F
:102C000060E070E080E89FE30E94B61B2DEC3CEC96
:102C10004CE45DE30E94B21A6B017C0122E0A21633
:102C2000B10409F442C20CF020C2A114B10409F4A9
:102C30002FC2AA94AB2809F454C3312CA12CB12C77
:102C4000212CC12CD12CE12CF12C3BC28F3F09F05F
:102C500034CF88E080930401E2ECF0E014911F3F50
:102C600009F42BCF113009F4E8C050F0123009F408
:102C700003C117FD22CF61E088E00E949F021FC0C0
:102C800014BC15BC84B5826084BD85B5816085BDEA
:102C9000E6EBF0E08491E82FF0E0EE0FFF1FEC553B
:102CA000FF4F85919491E8E9F0E084918093980436
:102CB00010E061E088E00E949F021123A1F0B12C96
:102CC000A12C60E072E18AE790E0A50191010E94E9
:102CD000011D69017A01F1E0CF1AD108E108F1087C
:102CE000123009F061C14101B12CA12C60E072E108
:102CF0008AE790E0A50191010E94011D29013A0196
:102D00007A01690121E0C21AD108E108F1083FEF18
:102D1000C316D104E104F10409F00CF419C160E414
:102D200072E48FE090E0A50191010E94011D69010C
:102D30007A0181E0C81AD108E108F108123009F0DF
:102D4000BEC082E09FEFC916D104E104F10409F08E
:102D50000CF46CC060E970ED83E090E0A501910196
:102D60000E94011D69017A01A1E0CA1AD108E10897
:102D7000F10883E0BFEFCB16D104E104F10409F0C0
:102D80000CF454C068E478EE81E090E0A501910174
:102D90000E94011D69017A0181E0C81AD108E10889
:102DA000F10884E09FEFC916D104E104F104F1F1C8
:102DB000ECF164E274EF80E090E0A50194010E94E0
:102DC000011D69017A0181E0C81AD108E108F10802
:102DD00085E03FEFC316D104E104F10439F130F18D
:102DE00062E17AE780E090E0A50194010E94011D74
:102DF00069017A01F1E0CF1AD108E108F10886E013
:102E00002FEFC216D104E104F10481F078F07301D0
:102E100062019AE0F594E794D794C7949A95D1F714
:102E2000F1E0CF1AD108E108F10887E09091B100F4
:102E3000987F892B8093B10092C0109280001092ED
:102E40008100809181008860809381008091810061
:102E5000816080938100E6EBF0E08491E82FF0E060
:102E6000EE0FFF1FEC55FF4F85919491E8E9F0E0DC
:102E70008491809397041DCF1092B0001092B100FE
:102E80008091B00082608093B0008091B100816039
:102E90008093B100E6EBF0E08491E82FF0E0EE0FD4
:102EA000FF1FEC55FF4F859194919093960480936A
:102EB0009504E8E9F0E0849180939404FACEEFEF72
:102EC000CE16D104E104F10409F00CF46BC068E4FF
:102ED00078EE81E090E0A50191010E94011D690159
:102EE0007A01F1E0CF1AD108E108F10884E011116C
:102EF00070CF83E0EFEFCE16D104E104F10459F175
:102F000054F162E17AE780E090E0A50194010E942B
:102F1000011D69017A01A1E0CA1AD108E108F1088E
:102F200084E0BFEFCB16D104E104F104A1F098F0E6
:102F3000730162018AE0F594E794D794C7948A9567
:102F4000D1F721E0C21AD108E108F10885E003C0F9
:102F500081E011116BCF95B5987F892B85BD8EA52A
:102F60009FA5A8A9B9A92FEF3FEFA901892B8A2B0B
:102F70008B2B09F042C0113009F44FC0123009F414
:102F80005EC011119ACDC7BC2093A1043093A20456
:102F90004093A3045093A40480916E0082608093B8
:102FA0006E008BCD82E0D5CFC114D10491E0E9064B
:102FB000F1048CF168E478EE81E090E0A5019101E4
:102FC0000E94011D69017A01A1E0CA1AD108E10835
:102FD000F10893E0113019F680918100887F892BE8
:102FE000809381008EA59FA5A8A9B9A92FEF3FEFD7
:102FF000A901892B8A2B8B2B81F09101220F331F82
:10300000AEA9BFA90E94201D28EE33E040E050E0A9
:103010000E94DF1CB0CF91E0DDCFD0928900C0923A
:10302000880020939D0430939E0440939F04509306
:10303000A00480916F00826080936F003ECDC092AB
:10304000B3002093990430939A0440939B045093C7
:103050009C04809170008260809370002ECDB4013A
:10306000092C000C880B990B83CD94E0A916B104B0
:10307000C1F164F1B5E0AB16B10409F0DECD342C3A
:10308000A52CB62C272CC12CD12CE12CF12C04C062
:10309000312CA12CB12C212C7DEC472EECEC5E2E9A
:1030A000FCE46F2EADE37A2E2AC0362EAD2CB82E5E
:1030B0002F2C7DECC72EECECDE2EFCE4EF2EADE3E6
:1030C000FA2E412C512C612C712C19C06201730114
:1030D0003DEC332E4CECA42E5CE4B52E6DE3262E95
:1030E000F0CF26013701BDEC3B2E8CECA82E9CE4E2
:1030F000B92E2DE3222EC12CD12CE12CF12C20E075
:1031000030E04FE753E4B201C3010E94B21A0E94BB
:10311000951C3B015524442420E030E04FE753E464
:10312000B601C7010E94B21A0E94951C982F872FE2
:10313000762F6627462A572A682A20E030E04FE794
:1031400053E4632D7A2D8B2D922D0E94B21A0E948A
:10315000951C462A572A682A662D70E086E00E9450
:103160006F03652D70E085E00E946F03642D70E0B1
:1031700083E00E946F03C40101966EEF71E00E942C
:10318000CB1C9093A6048093A50460918F05709149
:103190009005072E000C880B990B0E94F10389E91A
:1031A00095E00E94730D882309F432C189E995E006
:1031B0000E94A604882309F42BC18CE492E00E94AB
:1031C000690F19A618A61BA61AA61DA61CA650E0D4
:1031D00040E065E272E0CE0188960E94E50FD12CB6
:1031E00080919B05D81608F08EC08D2D90E0FC01D3
:1031F000E756FA4F7F018381803108F07FC082E378
:1032000092E00E94690FD70113964C9150E070E054
:1032100060E019A2FE01B196DB01CA018F70992707
:10322000AA27BB27A4E07695679557954795AA9559
:10323000D1F78A300CF065C0805D8293411551054D
:103240006105710549F7309719F0CF010E945C0FB5
:10325000F701838162E372E0803110F06FE572E084
:103260001A8219821C821B821E821D82FB01019020
:103270000020E9F73197AF01461B570BC8010E94A8
:10328000E50FB801CE0188960E94B40FC8010E94D4
:10329000840FD70113968C911BA21AA21DA21CA207
:1032A0001FA21EA240E1B80190E00E94221AF8017C
:1032B00001900020E9F73197AF01401B510BB80195
:1032C000CE0182960E94E50FBE016E5D7F4FCE015A
:1032D00088960E94B40FCE0182960E94840FD394E8
:1032E0007FCF312CA12CB12C212C3DECC32E4CECEA
:1032F000D42E5CE4E52E6DE3F62E01CF8FE592E04F
:1033000080CF895C9ACF83E292E00E945C0F86E5D1
:1033100092E00E94690FE8A4F9A4E114F10471F0AD
:10332000F70181917F01882349F0082E000C990B49
:103330000E94231FF70131978083F2CFCCA4DDA434
:10334000AA24A394B12CC114D10421F05601CC2499
:10335000C394D12C1A8219821C821B821E821D8268
:1033600050E040E065E272E0C8010E94E50FECA485
:10337000FDA4CE14DF0418F5AE14BF0408F47501E3
:10338000E8A5F9A5EE0DFF1DB080108268A579A50E
:103390006C0D7D1D6115710509F447C0FB0101909D
:1033A0000020E9F73197AF01461B570BC8010E9477
:1033B000E50F88A599A5E80EF91ED701BC92C801B2
:1033C0000E94840F81E692E00E945C0F83E292E00B
:1033D0000E945C0F83E292E00E945C0F85E392E022
:1033E0000E94690F8DE392E00E94690F83E792E0EB
:1033F0000E94690F8DE392E00E94690F0E94A20172
:103400000E94A2010E94A201CE0188960E94840F10
:10341000E0E0F0E0EF2B09F49ACB0E941F01882333
:1034200009F492CB0E9400008FCB89819A8100978A
:1034300011F00E94DD1D1A8219821E821D821C82DB
:103440001B82B7CFBB27FB015527AA27880F991FDF
:10345000AA1FA41710F0A41B83955051B9F7A05DC3
:10346000AA3308F0A95DA193009779F7B111B19340
:103470001192CB010C943C1ADC01FC01672F719175
:103480007723E1F7329704C07C916D93708362914A
:10349000AE17BF07C8F308950E948E1A08F481E0A2
:1034A0000895E89409C097FB3EF490958095709537
:1034B00061957F4F8F4F9F4F9923A9F0F92F96E980
:1034C000BB279395F695879577956795B795F111F5
:1034D000F8CFFAF4BB0F11F460FF1BC06F5F7F4F92
:1034E0008F4F9F4F16C0882311F096E911C07723A4
:1034F00021F09EE8872F762F05C0662371F096E8AD
:10350000862F70E060E02AF09A95660F771F881F7B
:10351000DAF7880F9695879597F90895990F00081F
:10352000550FAA0BE0E8FEEF16161706E807F90795
:10353000C0F012161306E407F50798F0621B730B30
:10354000840B950B39F40A2661F0232B242B252BB1
:1035500021F408950A2609F4A140A6958FEF811D54
:10356000811D08950E94C51A0C94361B0E94281BC9
:1035700038F00E942F1B20F0952311F00C941F1B94
:103580000C94251B11240C946A1B0E94471B70F39A
:10359000959FC1F3950F50E0551F629FF001729FF8
:1035A000BB27F00DB11D639FAA27F00DB11DAA1F07
:1035B000649F6627B00DA11D661F829F2227B00D54
:1035C000A11D621F739FB00DA11D621F839FA00DDF
:1035D000611D221F749F3327A00D611D231F849F2F
:1035E000600D211D822F762F6A2F11249F57504086
:1035F0009AF0F1F088234AF0EE0FFF1FBB1F661F01
:10360000771F881F91505040A9F79E3F510580F0C9
:103610000C941F1B0C946A1B5F3FE4F3983ED4F399
:10362000869577956795B795F795E7959F5FC1F76D
:10363000FE2B880F911D9695879597F9089597F918
:103640009F6780E870E060E008959FEF80EC089548
:1036500000240A9416161706180609060895002471
:103660000A9412161306140605060895092E0394EB
:10367000000C11F4882352F0BB0F40F4BF2B11F45F
:1036800060FF04C06F5F7F4F8F4F9F4F089557FDBE
:103690009058440F551F59F05F3F71F04795880FC0
:1036A00097FB991F61F09F3F79F087950895121657
:1036B00013061406551FF2CF4695F1DF08C0161603
:1036C00017061806991FF1CF8695710561050894B4
:1036D0000895E894BB2766277727CB0197F90895CB
:1036E0002F923F924F925F926F927F928F929F9212
:1036F000AF92BF92CF92DF92EF92FF920F931F9300
:10370000CF93DF93CDB7DEB7CA1BDB0B0FB6F894B0
:10371000DEBF0FBECDBF09942A88398848885F84F0
:103720006E847D848C849B84AA84B984C884DF8061
:10373000EE80FD800C811B81AA81B981CE0FD11D45
:103740000FB6F894DEBF0FBECDBFED010895A29F66
:10375000B001B39FC001A39F700D811D1124911D65
:10376000B29F700D811D1124911D08955058BB27E3
:10377000AA270E94CE1B0C94361B0E94281B38F0EF
:103780000E942F1B20F039F49F3F19F426F40C946B
:10379000251B0EF4E095E7FB0C941F1BE92F0E94FC
:1037A000471B58F3BA17620773078407950720F081
:1037B00079F4A6F50C94691B0EF4E0950B2EBA2F44
:1037C000A02D0B01B90190010C01CA01A001112427
:1037D000FF27591B99F0593F50F4503E68F11A16D3
:1037E000F040A22F232F342F4427585FF3CF469564
:1037F00037952795A795F0405395C9F77EF41F1686
:10380000BA0B620B730B840BBAF09150A1F0FF0F4F
:10381000BB1F661F771F881FC2F70EC0BA0F621F3B
:10382000731F841F48F4879577956795B795F7952B
:103830009E3F08F0B0CF9395880F08F09927EE0FC0
:103840009795879508950E94371C0C94361B0E940B
:103850002F1B58F00E94281B40F029F45F3F29F0ED
:103860000C941F1B51110C946A1B0C94251B0E9475
:10387000471B68F39923B1F3552391F3951B550B1F
:10388000BB27AA2762177307840738F09F5F5F4F33
:10389000220F331F441FAA1FA9F335D00E2E3AF072
:1038A000E0E832D091505040E695001CCAF72BD08A
:1038B000FE2F29D0660F771F881FBB1F26173707DB
:1038C0004807AB07B0E809F0BB0B802DBF01FF270D
:1038D00093585F4F3AF09E3F510578F00C941F1BB0
:1038E0000C946A1B5F3FE4F3983ED4F3869577957A
:1038F0006795B795F7959F5FC9F7880F911D9695C6
:10390000879597F90895E1E0660F771F881FBB1F21
:10391000621773078407BA0720F0621B730B840BCE
:10392000BA0BEE1F88F7E09508950E949C1C6894DE
:10393000B1110C946A1B08950E944F1B88F09F5789
:1039400098F0B92F9927B751B0F0E1F0660F771FC3
:10395000881F991F1AF0BA95C9F714C0B13091F0B9
:103960000E94691BB1E008950C94691B672F782FA2
:103970008827B85F39F0B93FCCF38695779567957E
:10398000B395D9F73EF490958095709561957F4FEA
:103990008F4F9F4F089597FB072E16F4009407D082
:1039A00077FD09D00E94271D07FC05D03EF49095B5
:1039B00081959F4F0895709561957F4F0895A1E27D
:1039C0001A2EAA1BBB1BFD010DC0AA1FBB1FEE1F99
:1039D000FF1FA217B307E407F50720F0A21BB30BE4
:1039E000E40BF50B661F771F881F991F1A9469F760
:1039F00060957095809590959B01AC01BD01CF01BC
:103A00000895052E97FB1EF400940E94181D57FD83
:103A100007D00E94DF1C07FC03D04EF40C94181D45
:103A200050954095309521953F4F4F4F5F4F0895EA
:103A300090958095709561957F4F8F4F9F4F08951A
:103A40000E94A71BB7FF0895821B930B0895AA1B22
:103A5000BB1B51E107C0AA1FBB1FA617B70710F079
:103A6000A61BB70B881F991F5A95A9F780959095AB
:103A7000BC01CD010895EE0FFF1F0590F491E02DDC
:103A800009940F931F93CF93DF938230910510F425
:103A900082E090E0E0917706F091780630E020E057
:103AA000B0E0A0E0309799F42115310509F44AC03F
:103AB000281B390B24303105D8F58A819B8161158B
:103AC000710589F1FB0193838283FE0111C040815E
:103AD00051810281138148175907E0F048175907AF
:103AE00099F4109761F012960C93129713961C9309
:103AF0003296CF01DF91CF911F910F9108950093DE
:103B0000770610937806F4CF2115310551F042174E
:103B1000530738F0A901DB019A01BD01DF01F8016B
:103B2000C1CFEF01F9CF9093780680937706CDCF80
:103B3000FE01E20FF31F81939193225031093983E3
:103B40002883D7CF2091750630917606232B41F438
:103B50002091070130910801309376062093750675
:103B600020910501309106012115310541F42DB751
:103B70003EB74091090150910A01241B350BE09199
:103B80007506F0917606E217F307A0F42E1B3F0BA3
:103B90002817390778F0AC014E5F5F4F24173507BF
:103BA00048F04E0F5F1F5093760640937506819341
:103BB00091939FCFF0E0E0E09CCFCF93DF9300970D
:103BC000E9F0FC01329713821282A0917706B0913E
:103BD0007806ED0130E020E01097A1F420813181DA
:103BE000820F931F209175063091760628173907AA
:103BF00009F061C0F0937606E0937506DF91CF91EE
:103C00000895EA01CE17DF07E8F54A815B819E013E
:103C100041155105B1F7E901FB83EA8349915991B7
:103C2000C40FD51FEC17FD0761F4808191810296C6
:103C3000840F951FE90199838883828193819B83F7
:103C40008A83F0E0E0E012968D919C9113970097A3
:103C5000B9F52D913C911197CD010296820F931FDA
:103C600020917506309176062817390739F6309776
:103C700051F51092780610927706B0937606A093CD
:103C80007506BCCFD383C28340815181840F951FB9
:103C9000C817D90761F44E5F5F4F88819981480F3B
:103CA000591F518340838A819B819383828321158D
:103CB000310509F0B0CFF0937806E09377069ECFF8
:103CC000FD01DC01C0CF13821282D7CFB0E0A0E0AB
:103CD000ECE6FEE10C94721B8C01009751F4CB01D1
:103CE0000E94411D8C01C801CDB7DEB7E0E10C9404
:103CF0008E1BFC01E60FF71F9C0122503109E217D1
:103D0000F30708F49DC0D901CD91DC911197C61736
:103D1000D70798F0C530D10530F3CE010497861748
:103D2000970708F3C61BD70B2297C193D1936D93C6
:103D30007C93CF010E94DD1DD6CF5B01AC1ABD0A7A
:103D40004C018C0E9D1EA0917706B0917806512CE7
:103D5000412CF12CE12C109731F580917506909152
:103D600076068815990509F05CC04616570608F0D6
:103D700058C08091050190910601009741F48DB7DC
:103D80009EB74091090150910A01841B950BE817D9
:103D9000F90708F055C0F0937606E0937506F9012F
:103DA00071836083A0CF8D919C91119712966C9036
:103DB000129713967C901397A815B90559F56C01C5
:103DC00042E0C40ED11CCA14DB0420F1AC014A1934
:103DD0005B09DA011296159780F062827382518333
:103DE0004083D9016D937C93E114F10471F0D70104
:103DF0001396FC93EE93129776CF22968C0F9D1F0D
:103E0000F90191838083F301EFCFF0937806E0937B
:103E1000770669CF4816590608F42C017D01D301B5
:103E20009ACFCB010E94411D7C01009749F0AE0161
:103E3000B8010E942B1FC8010E94DD1D870153CFCE
:103E400010E000E050CF9111089581568A5108F496
:103E5000805285580895FB01DC0102C001900D924B
:103E600041505040D8F70895FB01DC0101900D92BC
:0A3E70000020E1F70895F894FFCF59
:103E7A00FFFFFFFFFF0000790680000601C400C4AF
:103E8A0000DC00C4000000F7000601040008000876
:103E9A000004000400040004000400000000000004
:103EAA000000000000630000400000000000000065
:103EBA00000000000000000000000000777C395E6E
:103ECA0079713576061E753837545C737B506D7878
:103EDA001C3E7E766E1B0000000108005F7C585E67
:103EEA00797135740416753837545C7367506D7878
:103EFA001C3E2A766E1B3F065B4F666D7D077F6F01
:103F0A00777C395E7971000000005501B500E20046
:103F1A00A7011301F1000501000000005E0AB500C7
:103F2A00040AA50400000000D60D730DA6047061F2
:103F3A0067653000706167653100706167653200DE
:103F4A007061676533007061676534007061676529
:103F5A003500706167653600623000623100623296
:103F6A000062330062340062350062360062370054
:103F7A006238007430004C494E4B005761697469CD
:103F8A006E6720666F722074686520636172642EA2
:103F9A002E2E000D0A00626B636D643D3100706164
:103FAA00676520300074302E7478743D0022005406
:103FBA004150205448452043415244005549442029
:103FCA00746167203A004D657373616765203A2012
:103FDA0000417574686F72697A656420616363650C
:103FEA00737300414343455353204752414E545340
:023FFA000000C5
:00000001FF
