:100000000C9462000C948A000C948A000C948A0070
:100010000C948A000C948A000C948A000C948A0038
:100020000C948A000C948A000C948A000C948A0028
:100030000C948A000C948A000C948A000C948A0018
:100040000C9475080C948A000C9443080C941D08B9
:100050000C948A000C948A000C948A000C948A00F8
:100060000C948A000C948A000000000025002800EF
:100070002B000000000023002600290000000008DB
:10008000000201000003040700000000000000005F
:1000900000000000240027002A00010204081020AC
:1000A000408001020408102001020408102004040A
:1000B0000404040404040202020202020303030310
:1000C0000303BF0811241FBECFEFD8E0DEBFCDBFB2
:1000D00011E0A0E0B1E0EEE3FEE102C005900D9278
:1000E000AC38B107D9F722E0ACE8B1E001C01D920D
:1000F000A335B207E1F710E0C2E6D0E004C02197D3
:10010000FE010E94170FC136D107C9F70E940B09E3
:100110000C941D0F0C9400008CBD9DBD0895AF92F2
:10012000BF92CF92DF92EF92FF920F931F93CF93E4
:10013000DF936C017B018B01040F151FEB015E0146
:10014000AE18BF08C017D10759F06991D601ED91DB
:10015000FC910190F081E02DC6010995892B79F77A
:10016000C501DF91CF911F910F91FF90EF90DF902C
:10017000CF90BF90AF900895FC01538D448D252FF3
:1001800030E0842F90E0821B930B541710F0CF9631
:10019000089501970895FC01918D828D981761F063
:1001A000A28DAE0FBF2FB11D5D968C91928D9F5F7A
:1001B0009F73928F90E008958FEF9FEF0895FC0159
:1001C000918D828D981731F0828DE80FF11D858D0C
:1001D00090E008958FEF9FEF0895FC01918D228D9F
:1001E000892F90E0805C9F4F821B91098F73992724
:1001F00008958EE991E00E94ED0021E0892B09F439
:1002000020E0822F089580E090E0892B29F00E9461
:10021000F90081110C9400000895FC01A48DA80F31
:10022000B92FB11DA35ABF4F2C91848D90E0019638
:100230008F739927848FA689B7892C93A089B18958
:100240008C91837080648C93938D848D981306C0F9
:100250000288F389E02D80818F7D80830895EF925D
:10026000FF920F931F93CF93DF93EC0181E0888F70
:100270009B8D8C8D98131AC0E889F989808185FF40
:1002800015C09FB7F894EE89FF896083E889F989E2
:1002900080818370806480839FBF81E090E0DF91E4
:1002A000CF911F910F91FF90EF900895F62E0B8D37
:1002B00010E00F5F1F4F0F731127E02E8C8D8E11F2
:1002C0000CC00FB607FCFACFE889F989808185FF59
:1002D000F5CFCE010E940D01F1CFEB8DEC0FFD2F7C
:1002E000F11DE35AFF4FF0829FB7F8940B8FEA8914
:1002F000FB8980818062CFCFCF93DF93EC01888D23
:100300008823B9F0AA89BB89E889F9898C9185FD90
:1003100003C0808186FD0DC00FB607FCF7CF8C911E
:1003200085FFF2CF808185FFEDCFCE010E940D01C8
:10033000E9CFDF91CF910895833081F028F48130A7
:1003400099F08230A9F008958730A9F08830C9F07B
:100350008430B1F4809180008F7D03C08091800053
:100360008F7780938000089584B58F7784BD08953A
:1003700084B58F7DFBCF8091B0008F778093B000E4
:1003800008958091B0008F7DF9CFCF93DF93282F10
:1003900030E0F901E458FF4F8491F901E656FF4F30
:1003A000D491F901E255FF4FC491CC23A1F0811102
:1003B0000E949C01EC2FF0E0EE0FFF1FEE58FF4F64
:1003C000A591B491EC91ED2381E090E009F480E0F7
:1003D000DF91CF91089580E090E0FACF1F93CF9303
:1003E000DF93282F30E0F901E458FF4F8491F901A1
:1003F000E656FF4FD491F901E255FF4FC491CC234B
:10040000A9F0162F81110E949C01EC2FF0E0EE0F55
:10041000FF1FE859FF4FA591B4918FB7F894EC9165
:10042000111108C0D095DE23DC938FBFDF91CF91EF
:100430001F910895DE2BF8CFCF93DF93CBE3D2E06B
:1004400061E08E810E94EE0161E08F810E94EE01E9
:1004500060E08F810E94EE0160E08E81DF91CF919C
:100460000C94EE01CF93DF93CBE3D2E060E08E817A
:100470000E94EE0160E08F810E94EE0161E08E81BA
:100480000E94EE0161E08F81DF91CF910C94EE012B
:10049000CF93DF9390E0FC01E656FF4F2491825505
:1004A0009F4FFC0184918823D1F090E0880F991F21
:1004B000FC01E057FF4FA591B491FC01E859FF4FB3
:1004C000C591D49161110EC09FB7F8948C91E22F21
:1004D000E0958E238C932881E223E8839FBFDF91F0
:1004E000CF9108958FB7F894EC91E22BEC938FBFE6
:1004F000F6CF0F931F93CF93DF93D82FC8E060E020
:10050000809141020E94EE010D2F0D2E000C110B67
:1005100061E0D0FF60E0809142020E94EE011595FB
:100520000795D02F61E0809141020E94EE01C150F9
:1005300031F760E0809141020E94EE0161E080911C
:1005400042020E94EE0161E0809141020E94EE01B0
:1005500060E0809142020E94480283EC90E00197A3
:10056000F1F7809142020E94C5018C0181110AC0FD
:1005700061E0809142020E94480260E08091420264
:100580000E94EE01C3ECD0E0CE010197F1F761E0EB
:10059000809142020E9448022197F1F7C8019927F1
:1005A000DF91CF911F910F910895CF93DF93D82FB3
:1005B000E62F6F37D9F1603140F50E2E000CFF0B9E
:1005C000E55AFE4F808190913E02C0E09111C0E853
:1005D000C80F0E941C0284E40E9479020E94320229
:1005E0000E941C028D2F806C0E9479028C2F0E9429
:1005F00079020E9432020E941C0280913D020E94F8
:100600007902DF91CF910C94320280ED860F8A300F
:1006100030F40E2E000CFF0BE55DFE4FD3CFE05201
:10062000EB3520F4F0E0E050FF4FCCCF80E0CBCFB3
:100630001F93CF93DF93182FEB0161E00E944802D4
:10064000209739F460E0812FDF91CF911F910C94B6
:10065000EE01CF3FD10511F461E0F5CFE12FF0E0DD
:10066000E458FF4FE491E33031F140F4E130B1F070
:10067000E230E1F0C038D1057CF7E4CFE73029F172
:10068000E83059F1E430B1F78091800080628093C6
:100690008000D0938B00C0938A0004C084B580682A
:1006A00084BDC7BDDF91CF911F91089584B580624D
:1006B00084BDC8BDF7CF80918000806880938000A2
:1006C000D0938900C0938800EDCF8091B0008068FE
:1006D0008093B000C093B300E5CF8091B0008062FA
:1006E0008093B000C093B400DDCF3FB7F894809101
:1006F0008D0190918E01A0918F01B091900126B54E
:10070000A89B05C02F3F19F00196A11DB11D3FBF49
:10071000BA2FA92F982F8827BC01CD01620F711D18
:10072000811D911D42E0660F771F881F991F4A9512
:10073000D1F708958F929F92AF92BF92CF92DF929E
:10074000EF92FF926B017C010E9475034B015C01EB
:10075000C114D104E104F104B9F00E9475036819D1
:1007600079098A099B09683E73408105910580F3E8
:1007700021E0C21AD108E108F10888EE880E83E072
:10078000981EA11CB11CE4CFFF90EF90DF90CF909A
:10079000BF90AF909F908F900895BC016E5F7F4F88
:1007A000DC01ED91FC910190F081E02D40E0099594
:1007B00091E0811190E0892F089508958EBD000089
:1007C0000DB407FEFDCF8EB50895DF92EF92FF9234
:1007D0000F931F93CF93DF937C01062FD42E152FF9
:1007E00083E590E00E948C0060E0F70186850E941E
:1007F000EE0182E10E94DE03CD2DD12F0C0F1D2FC3
:10080000111DC017D10721F089910E94DE03F9CF95
:1008100061E0F7018685DF91CF911F910F91FF90E5
:10082000EF90DF900C94EE011F93CF93DF93EC01D8
:10083000162F83E590E00E948C0060E08E850E9478
:10084000EE01812F80680E94DE0380E00E94DE03BB
:10085000182F61E08E850E94EE01812FDF91CF91EC
:100860001F9108950F931F93CF93DF93EC01062FF1
:10087000142F83E590E00E948C0060E08E850E943A
:10088000EE01802F0E94DE03812F0E94DE0361E0D3
:100890008E85DF91CF911F910F910C94EE01CF9235
:1008A000DF92EF92FF920F931F93CF93DF93EC01B0
:1008B0006B01142F790140E062E00E94320444E0B1
:1008C0006AE0CE010E94320440E864E1CE010E9459
:1008D0003204A601612FCE010E94E50343E062E0ED
:1008E000CE010E94320408E813E16AE0CE010E94C2
:1008F000140482FF1BC040E062E0CE010E9432047B
:1009000064E4CE010E941404F701808362E4CE0106
:100910000E941404F701818380E0DF91CF911F9141
:100920000F91FF90EF90DF90CF9008950150110943
:10093000E1F683E0F2CF3F924F925F926F927F9207
:100940008F929F92AF92BF92CF92DF92EF92FF92DF
:100950000F931F93CF93DF9300D0CDB7DEB74C0139
:100960002B01D42E390180E0E114F10411F0F701DC
:100970008081BC2CB29490EFB922B80E40E062E0C6
:10098000C4010E9432044FE768E0C4010E943204AF
:1009900040E864E1C4010E943204A2016D2DC4014B
:1009A0000E94E5034B2D6AE1C4010E9432044CE031
:1009B00062E0C4010E9432046AE1C4010E9414048E
:1009C000482F40686AE1C4010E94320420ED422EA3
:1009D00027E0522E68E0C4010E941404982F9073FF
:1009E00009F0B6C080FD04C0F1E04F1A510891F73C
:1009F00083E094C06114710409F46DC00115110500
:100A000009F469C064E1C4010E941404B82EF8011D
:100A100080818B1508F496C0B082BB20E1F183E59C
:100A200090E00E948C0060E0F40186850E94EE0157
:100A3000BA9482E90E94DE03CC20B1F08FEF90E0FF
:100A40009C0102C0220F331FCA94E2F7690182E9B8
:100A50000E94DE039C2D9095F301208192238C212E
:100A6000982B9083CC24C39423014C0C511CCB14A1
:100A700040F482E90E94DE03F20181932F01C394C6
:100A8000F6CF80E00E94DE03F201808361E0F40192
:100A900086850E94EE0168E1C4010E9414048770FB
:100AA000E114F10411F0F701808333FC4DC06114AF
:100AB000710409F44BC00115110509F447C0AA20BF
:100AC00009F444C0F8014081413039F4843009F020
:100AD00049C08FEF23C080E0E8CF423008F442C025
:100AE000811140C042509E012F5F3F4FB301C401AE
:100AF0000E944F04811112C0F8019081690E711C8F
:100B0000F30132972081998129132CC0F1E06F1AEB
:100B10007108F30120819A81291324C00F900F904E
:100B2000DF91CF911F910F91FF90EF90DF90CF90C9
:100B3000BF90AF909F908F907F906F905F904F90FD
:100B40003F90089584E0EACF82E0E8CF80E0E6CFEE
:100B50006CE0C4010E941404382E837109F44ACF5A
:100B600081E0DCCF87E0DACF8F929F92AF92CF9275
:100B7000EF92FF920F931F93CF93DF9300D000D09B
:100B80001F92CDB7DEB74C0182E08D8340E064E276
:100B9000C4010E94320440E066E2C4010E943204B3
:100BA00046E268E4C4010E94320486E28B838D81B0
:100BB0008230D8F16CE1C4010E941404482F4F77B1
:100BC0006CE1C4010E94320487E08C83A12CC12C0B
:100BD000CE0104967C018E010B5F1F4F9E012F5F9B
:100BE0003F4F41E0BE016D5F7F4FC4010E949B04F7
:100BF000982F811117C08D818230B9F48C818111B9
:100C000014C081E00F900F900F900F900F90DF9124
:100C1000CF911F910F91FF90EF90CF90AF909F9049
:100C20008F90089581E0923069F380E0EBCF2F92AE
:100C30003F924F925F926F927F928F929F92AF926C
:100C4000BF92CF92DF92EF92FF920F931F93CF93B9
:100C5000DF93CDB7DEB72D970FB6F894DEBF0FBE8A
:100C6000CDBF16E0413508F04AC1342E3B014C019E
:100C70006CE10E941404482F4F776CE1C4010E947C
:100C8000320483E98983332029F081E0F3019081E4
:100C9000953008F480E022242394B12C9B2D990FE9
:100CA000990F990FD32CD91AD7FCD12C32E0882375
:100CB00019F098E89B8333E021E09D2D977009F4AB
:100CC00020E09D2D959595959595290FC9F094E077
:100CD000811193E0291708F4922FEB2DF0E0319663
:100CE000E60DF71D232F4191A1E0B0E0AC0FBD1F31
:100CF000A20FB11D4C932F5F422F431B491798F34E
:100D0000882311F0F8E0DF0E8FE18D150CF082C022
:100D100090E79A838B819C8189279D8189279E8179
:100D200089278F839E01285F3F4F47E0BE016F5F99
:100D30007F4FC4010E944F04182F8111E0C01A8612
:100D4000E3E0EB87DC86CE0107962C0199E09D87D6
:100D5000CA844C2D4295407F4C0D6AE1C4010E942B
:100D60003204A12CCE010A967C018E01055F1F4F33
:100D700092014D85BE016F5F7F4FC4010E949B04AD
:100D8000182F823009F065C06CE1C4010E94140480
:100D900085FDB5C08F7109F480E2282F30E04D2D1C
:100DA000DD0C550B421753070CF09DC0D82EE82FD1
:100DB000E595E595E595EF5F982F977081E009F44B
:100DC00080E0E80F81E090E08C0F9D1F8E0F911D59
:100DD000FC01215031092770332781E090E002C0E7
:100DE000880F991F2A95E2F79C018081822B8083CE
:100DF0008BCF85E98983332031F081E0F301908145
:100E0000983008F04BCF80E049CF87E9898326E00E
:100E1000B22EF9CF9D2D97709A878D2D859585954A
:100E200085958E5F282F2295207F290F2A8321E028
:100E3000911101C020E0280F2D8744244394512CA8
:100E40004C0E5D1E480E511CE9E0E81BEB87DC866A
:100E50007FCF811154C080E2D82E9C8590320CF453
:100E600057CF8B81883809F040C083E093E0EB2DA9
:100E7000F0E03196E60DF71D980FA1E0B0E0AC0F61
:100E8000BD1FA80FB11D2C9121938F5F8913F5CF42
:100E9000BB84E3E0BE124DC08A8581114AC09E0129
:100EA0002D5F3F4F41E0B201C4010E944F04182F53
:100EB000811125C09B81F201818198133CC09C81E6
:100EC0008281981338C0808182FF12C02394F2E09F
:100ED0002F1609F48ECF83E0281609F496CF91E0FF
:100EE000291609F4CECE15E00AC082E094E0BFCF07
:100EF000F3018387822D880F820D8F5F8083812F7E
:100F00002D960FB6F894DEBF0FBECDBFDF91CF9107
:100F10001F910F91FF90EF90DF90CF90BF90AF9017
:100F20009F908F907F906F905F904F903F902F9009
:100F3000089511E0E4CF17E0E2CF4F925F926F92F5
:100F40007F92AF92BF92CF92DF92EF92FF920F9378
:100F50001F93CF93DF932B013C017C016B01E8943D
:100F6000F7F820E030E0A901C701B6010E947D0E2C
:100F700020E030E040E05FE387FD3CC0C701B60100
:100F80000E94B20C0E94950DEB01F12CE12C9AE02D
:100F9000C92ED12C00913F0210914002AA24A394A3
:100FA000B12C20E030E0A901C301B2010E941E0D66
:100FB00087FD02C0B12CA12CC8018A199B09E81633
:100FC000F906ECF40E191F09015011096FE720977B
:100FD00029F0CE01B6010E94EF0E682F802F0E94EB
:100FE000D502CE01B6010E94EF0EEB018FEFE81A99
:100FF000F80AD0CFC701B6010E94B10CC3CF20E0E0
:1010000030E0A901C301B2010E941E0D87FF04C098
:101010006DE280E00E94D50210923E02DF91CF91F6
:101020001F910F91FF90EF90DF90CF90BF90AF9006
:101030007F906F905F904F9008951F920F920FB620
:101040000F9211242F933F934F935F936F937F934E
:101050008F939F93AF93BF93EF93FF938EE991E0AC
:101060000E940D01FF91EF91BF91AF919F918F91E0
:101070007F916F915F914F913F912F910F900FBE94
:101080000F901F9018951F920F920FB60F92112478
:101090002F938F939F93EF93FF93E091AE01F09185
:1010A000AF018081E091B401F091B50182FD1BC0D8
:1010B00090818091B7018F5F8F732091B801821763
:1010C00041F0E091B701F0E0E256FE4F958F80933A
:1010D000B701FF91EF919F918F912F910F900FBECC
:1010E0000F901F9018958081F4CF1F920F920FB62A
:1010F0000F9211242F933F938F939F93AF93BF939E
:101100008091920190919301A0919401B0919501E9
:1011100030918C0123E0230F2D3758F50196A11D46
:10112000B11D20938C018093920190939301A09321
:101130009401B093950180918D0190918E01A091C1
:101140008F01B09190010196A11DB11D80938D0179
:1011500090938E01A0938F01B0939001BF91AF91B6
:101160009F918F913F912F910F900FBE0F901F90E5
:10117000189526E8230F0296A11DB11DD2CFCF935B
:10118000DF93EEE9F1E01382128288EE93E0A0E0B3
:10119000B0E084839583A683B7838FE691E0918343
:1011A000808385EC90E09587848784EC90E0978736
:1011B000868780EC90E0918B808B81EC90E0938B24
:1011C000828B82EC90E0958B848B86EC90E0978B01
:1011D000868B118E128E138E148EE3E4F2E081E87A
:1011E00091E0918380838AE0868789E08787CBE3DB
:1011F000D2E084E090E09D838C8381E18E8380E166
:101200008F8361E081E10E94480261E08F81DF917C
:10121000CF910C944802CF93DF9300D000D01F925F
:10122000CDB7DEB7789484B5826084BD84B5816023
:1012300084BD85B5826085BD85B5816085BD8091A1
:101240006E00816080936E00109281008091810019
:101250008260809381008091810081608093810011
:10126000809180008160809380008091B1008460D3
:101270008093B1008091B00081608093B000809134
:101280007A00846080937A0080917A0082608093F3
:101290007A0080917A00816080937A0080917A0050
:1012A000806880937A001092C100E091AE01F091C5
:1012B000AF0182E08083E091AA01F091AB0110823E
:1012C000E091AC01F091AD018FEC80831092B601FA
:1012D000E091B201F091B30186E08083E091B0012A
:1012E000F091B101808180618083E091B001F09143
:1012F000B101808188608083E091B001F091B101FB
:10130000808180688083E091B001F091B10180819B
:101310008F7D808360E082E00E94480261E082E08D
:101320000E94EE0161E088E00E9448022FB7298305
:10133000F89480919101811127C0E8EBF0E084914D
:10134000E4EAF0E09491E82FF0E0EE0FFF1FE057A1
:10135000FF4FA591B491EC91E92321F461E08AE07B
:101360000E94EE0161E08AE00E9448028CB5806133
:101370008CBD8CB580648CBD61E08DE00E9448021C
:1013800061E08BE00E944802809191018F5F809321
:10139000910139813FBF61E0809151020E94480272
:1013A00061E0809151020E94EE01809152028F3FD4
:1013B00009F409C160E00E944802809152020E9433
:1013C000C501892B09F0FFC061E0809152020E94A3
:1013D000480260E0809152020E94EE0183E090E0BA
:1013E0000197F1F761E0809152020E94EE0162E301
:1013F00070E080E090E00E949A0340E064E283E4C1
:1014000092E00E94320440E066E283E492E00E94AF
:10141000320446E268E483E492E00E94320440E849
:1014200064E583E492E00E94320449EA66E583E4DD
:1014300092E00E94320443E068E583E492E00E9477
:10144000320448EE6AE583E492E00E94320440E40C
:101450006AE283E492E00E9432044DE362E283E4B4
:1014600092E00E94320468E283E492E00E94140455
:10147000982F9370933039F0482F436068E283E4EB
:1014800092E00E9432046FE780E00E94D5026FE78D
:1014900081E00E94D5026FE782E00E94D5026FE7EB
:1014A00083E00E94D50280E480933B0280EC80932D
:1014B0003C028FE880933D0260E070E48AE994E4A6
:1014C0000E949D076CEB72E080E090E00E949A031E
:1014D00060E070E982E195E40E949D076CEB72E0A8
:1014E00080E090E00E949A0360E070E088E595E477
:1014F0000E949D076CEB72E080E090E00E949A03EE
:1015000060E078EB8EE895E40E949D076CEB72E05A
:1015100080E090E00E949A0360E070E781EB95E440
:101520000E949D076CEB72E080E090E00E949A03BD
:1015300060E078E284ED95E40E949D076CEB72E038
:1015400080E090E00E949A0360E070E986EF95E405
:101550000E949D076CEB72E080E090E00E949A038D
:1015600057E8E52E51E0F52E1A82198280913F024C
:1015700090914002E981FA81E430F10509F457C005
:10158000E817F907DCF164EF71E080E090E00E9479
:101590009A0310E000E0980180913F029091400290
:1015A0000F5F1F4F2817390774F5E981FA81E00FA3
:1015B000F11FE81BF90BE957FE4F60818FEF800F99
:1015C0000E94D502E8CF4FE062E083E492E00E94FF
:1015D000320483E0898362E370E080E090E00E945F
:1015E0009A0362E083E492E00E94140484FF05CF32
:1015F0009981915099839111EECFFFCEF7016081CF
:1016000089810E94D50229813A812F5F3F4F3A8319
:1016100029833FEFE31AF30AA9CF6FE789810E947C
:10162000D50229813A812F5F3F4F3A8329838091E8
:101630003F0290914002E981FA81E817F9076CF3C3
:1016400042E0A42EB12C8FB7F894C0909201D090B4
:101650009301E0909401F09095018FBF82E00E9489
:10166000C50120919C0130919D01009709F0BBC0FC
:101670002115310509F0B7C0C0929801D0929901A7
:10168000E0929A01F0929B0181E090E090939D019D
:1016900080939C018091980190919901A0919A0169
:1016A000B0919B01C81AD90AEA0AFB0A99EBC9163C
:1016B0009BE0D906E104F10450F080919C019091E7
:1016C0009D01019721F4B0929D01A0929C0180910F
:1016D0009C0190919D01029721F410929D0110921E
:1016E0009C01C0909601D0909701EFEFCE16D104E7
:1016F00009F00CF484C0B6016F5F7109072E000C6D
:10170000880B990B0E94CD0D20E030E04FE753E4A9
:101710000E94230D20E030E044EB53E40E94820E4F
:101720002B013C0120E030E044EB53E40E941E0D0D
:10173000811103C0412C512C320120E030E040E700
:1017400052E4C301B2010E94230D2B013C010E940F
:10175000950D4B01072E000C880B990B0E94CD0DA7
:101760009B01AC01C301B2010E94B10C9B01AC0111
:1017700060E070E080E89FE30E94B10C69837A83A7
:101780008B839C832DEC3CEC4CE45DE30E94820E49
:101790002B017C0129813A814B815C8160E070E002
:1017A00080E89FE30E94B10C2DEC3CEC4CE45DE33F
:1017B0000E94820E8B018D839983F2E08F16910433
:1017C00009F440C014F58114910479F18A948928B0
:1017D00009F4BCC0612C712C812C912C00E010E02C
:1017E0001D82198238C02130310509F053CF01978D
:1017F00009F050CF10929D0110929C014BCFB60181
:101800000D2C000C880B990B7DCF84E08816910479
:1018100099F134F1E5E08E169104E1F632014701C9
:1018200000E010E01D82198204C0612C712C812C13
:10183000912C4DEC442E5CEC552E6CE4E62E7DE3B1
:10184000F72E29C03B018D8099800DEC1CECFCE447
:10185000FD832DE32983412C512CE12CF12C1BC05D
:101860008201ED82F9828DEC682E9CEC792E2CE4BD
:10187000822E3DE3932EEFCF2801ED80F980EDEC31
:101880006E2EFCEC7F2EACE48A2EBDE39B2E00E096
:1018900010E01D82198220E030E04FE753E4B201EE
:1018A000C7010E94820E0E94950D2B013324222431
:1018B00020E030E04FE753E4B8018D8199810E9428
:1018C000820E0E94950D982F872F762F6627262A45
:1018D000372A482A592A20E030E04FE753E4B30181
:1018E000C4010E94820E0E94950D32012101462AF8
:1018F000572A682A662D70E086E00E941803652D3D
:1019000070E085E00E941803642D70E083E00E947F
:101910001803C60101966EEF71E00E94EF0E9093DE
:101920009701809396016AE070E080E090E00E9469
:101930009A03E0E0F0E0EF2B09F485CE0E94F90075
:10194000882309F480CE0E9400007DCE612C712C8A
:10195000812C912C0DEC1CEC3CE43D838DE38983C0
:101960009ACF5058BB27AA270E94C90C0C94430E4B
:101970000E94350E38F00E943C0E20F039F49F3F53
:1019800019F426F40C94320E0EF4E095E7FB0C9457
:101990002C0EE92F0E94540E58F3BA1762077307F2
:1019A0008407950720F079F4A6F50C94760E0EF4D2
:1019B000E0950B2EBA2FA02D0B01B90190010C015F
:1019C000CA01A0011124FF27591B99F0593F50F477
:1019D000503E68F11A16F040A22F232F342F4427CF
:1019E000585FF3CF469537952795A795F0405395C7
:1019F000C9F77EF41F16BA0B620B730B840BBAF097
:101A00009150A1F0FF0FBB1F661F771F881FC2F701
:101A10000EC0BA0F621F731F841F48F48795779515
:101A20006795B795F7959E3F08F0B0CF9395880FCF
:101A300008F09927EE0F9795879508950E94080E54
:101A400008F481E008950E94370D0C94430E0E9423
:101A50003C0E58F00E94350E40F029F45F3F29F00B
:101A60000C942C0E51110C94770E0C94320E0E9493
:101A7000540E68F39923B1F3552391F3951B550B3D
:101A8000BB27AA2762177307840738F09F5F5F4F51
:101A9000220F331F441FAA1FA9F335D00E2E3AF090
:101AA000E0E832D091505040E695001CCAF72BD0A8
:101AB000FE2F29D0660F771F881FBB1F26173707F9
:101AC0004807AB07B0E809F0BB0B802DBF01FF272B
:101AD00093585F4F3AF09E3F510578F00C942C0ECE
:101AE0000C94770E5F3FE4F3983ED4F38695779598
:101AF0006795B795F7959F5FC9F7880F911D9695E4
:101B0000879597F90895E1E0660F771F881FBB1F3F
:101B1000621773078407BA0720F0621B730B840BEC
:101B2000BA0BEE1F88F7E09508950E949C0D68940B
:101B3000B1110C94770E08950E945C0E88F09F57A7
:101B400098F0B92F9927B751B0F0E1F0660F771FE1
:101B5000881F991F1AF0BA95C9F714C0B13091F0D7
:101B60000E94760EB1E008950C94760E672F782FC0
:101B70008827B85F39F0B93FCCF38695779567959C
:101B8000B395D9F73EF490958095709561957F4F08
:101B90008F4F9F4F0895E89409C097FB3EF49095AE
:101BA0008095709561957F4F8F4F9F4F9923A9F036
:101BB000F92F96E9BB279395F695879577956795C5
:101BC000B795F111F8CFFAF4BB0F11F460FF1BC009
:101BD0006F5F7F4F8F4F9F4F16C0882311F096E99C
:101BE00011C0772321F09EE8872F762F05C066234A
:101BF00071F096E8862F70E060E02AF09A95660F03
:101C0000771F881FDAF7880F9695879597F90895BB
:101C1000990F0008550FAA0BE0E8FEEF16161706FD
:101C2000E807F907C0F012161306E407F50798F065
:101C3000621B730B840B950B39F40A2661F0232B7E
:101C4000242B252B21F408950A2609F4A140A695FA
:101C50008FEF811D811D089597F99F6780E870E0DF
:101C600060E008959FEF80EC089500240A94161612
:101C7000170618060906089500240A94121613067A
:101C8000140605060895092E0394000C11F4882308
:101C900052F0BB0F40F4BF2B11F460FF04C06F5F24
:101CA0007F4F8F4F9F4F089557FD9058440F551FFA
:101CB00059F05F3F71F04795880F97FB991F61F0CE
:101CC0009F3F79F087950895121613061406551F45
:101CD000F2CF4695F1DF08C0161617061806991FB1
:101CE000F1CF86957105610508940895E894BB27A6
:101CF00066277727CB0197F908950E94080E08F40C
:101D00008FEF08950E94950E0C94430E0E94350E9D
:101D100038F00E943C0E20F0952311F00C942C0E0C
:101D20000C94320E11240C94770E0E94540E70F312
:101D3000959FC1F3950F50E0551F629FF001729F70
:101D4000BB27F00DB11D639FAA27F00DB11DAA1F7F
:101D5000649F6627B00DA11D661F829F2227B00DCC
:101D6000A11D621F739FB00DA11D621F839FA00D57
:101D7000611D221F749F3327A00D611D231F849FA7
:101D8000600D211D822F762F6A2F11249F575040FE
:101D90009AF0F1F088234AF0EE0FFF1FBB1F661F79
:101DA000771F881F91505040A9F79E3F510580F042
:101DB0000C942C0E0C94770E5F3FE4F3983ED4F312
:101DC000869577956795B795F795E7959F5FC1F7E6
:101DD000FE2B880F911D9695879597F9089597FB8F
:101DE000072E16F4009407D077FD09D00E94030F48
:101DF00007FC05D03EF4909581959F4F089570950E
:101E000061957F4F0895AA1BBB1B51E107C0AA1F14
:101E1000BB1FA617B70710F0A61BB70B881F991F8B
:101E20005A95A9F780959095BC01CD010895EE0FC4
:0E1E3000FF1F0590F491E02D0994F894FFCF68
:101E3E0000000000000000000000630000400000F1
:101E4E000000000000000000000000000000000084
:101E5E0000777C395E79713576061E753837545C9D
:101E6E00737B506D781C3E7E766E1B000000010861
:101E7E00005F7C585E797135740416753837545C82
:101E8E007367506D781C3E2A766E1B3F065B4F665D
:101E9E006D7D077F6F777C395E7971000000002FB2
:101EAE00018F00BC007C01ED00CB00DF00000000C4
:0C1EBE00001706B405CD034C494E4B0044
:00000001FF
