:100000000C9462000C948A000C948A000C948A0070
:100010000C948A000C948A000C948A000C948A0038
:100020000C948A000C948A000C948A000C948A0028
:100030000C948A000C948A000C948A000C948A0018
:100040000C9478040C948A000C9446040C942004BC
:100050000C948A000C948A000C948A000C948A00F8
:100060000C948A000C948A000000000024002700F1
:100070002A0000000000250028002B0000000000DE
:1000800023002600290004040404040404040202DA
:100090000202020203030303030301020408102007
:1000A0004080010204081020010204081020000012
:1000B0000008000201000003040700000000000027
:1000C0000000C20411241FBECFEFD8E0DEBFCDBFB9
:1000D00011E0A0E0B1E0E8EAF3E102C005900D9282
:1000E000A638B107D9F722E0A6E8B1E001C01D9219
:1000F000A633B207E1F710E0C2E6D0E004C02197D2
:10010000FE010E94CC09C136D107C9F70E9404053F
:100110000C94D2090C940000AF92BF92CF92DF9260
:10012000EF92FF920F931F93CF93DF936C017B01AC
:100130008B01040F151FEB015E01AE18BF08C0173D
:10014000D10759F06991D601ED91FC910190F081B0
:10015000E02DC6010995892B79F7C501DF91CF9173
:100160001F910F91FF90EF90DF90CF90BF90AF90D5
:100170000895FC01538D448D252F30E0842F90E0AD
:10018000821B930B541710F0CF9608950197089592
:10019000FC01918D828D981761F0A28DAE0FBF2F5B
:1001A000B11D5D968C91928D9F5F9F73928F90E0B1
:1001B00008958FEF9FEF0895FC01918D828D981720
:1001C00031F0828DE80FF11D858D90E008958FEF5D
:1001D0009FEF0895FC01918D228D892F90E0805C26
:1001E0009F4F821B91098F739927089581E991E0B0
:1001F0000E94EA0021E0892B09F420E0822F089573
:1002000080E090E0892B29F00E94F60081110C9487
:1002100000000895FC01A48DA80FB92FB11DA35AA9
:10022000BF4F2C91848D90E001968F739927848F16
:10023000A689B7892C93A089B1898C918370806439
:100240008C93938D848D981306C00288F389E02DDA
:1002500080818F7D80830895EF92FF920F931F938B
:10026000CF93DF93EC0181E0888F9B8D8C8D981369
:100270001AC0E889F989808185FF15C09FB7F89475
:10028000EE89FF896083E889F989808183708064C1
:1002900080839FBF81E090E0DF91CF911F910F910C
:1002A000FF90EF900895F62E0B8D10E00F5F1F4F1B
:1002B0000F731127E02E8C8D8E110CC00FB607FC2A
:1002C000FACFE889F989808185FFF5CFCE010E94B8
:1002D0000A01F1CFEB8DEC0FFD2FF11DE35AFF4F1B
:1002E000F0829FB7F8940B8FEA89FB898081806246
:1002F000CFCFCF93DF93EC01888D8823B9F0AA8903
:10030000BB89E889F9898C9185FD03C0808186FDD0
:100310000DC00FB607FCF7CF8C9185FFF2CF80811F
:1003200085FFEDCFCE010E940A01E9CFDF91CF9189
:100330000895833081F028F4813099F08230A9F05B
:1003400008958730A9F08830C9F08430B1F48091E5
:1003500080008F7D03C0809180008F778093800024
:10036000089584B58F7784BD089584B58F7DFBCFC4
:100370008091B0008F778093B00008958091B00095
:100380008F7DF9CFCF93DF93282F30E0F901E2552D
:10039000FF4F8491F901E656FF4FD491F901EA57D6
:1003A000FF4FC491CC23A1F081110E949901EC2F41
:1003B000F0E0EE0FFF1FE458FF4FA591B491EC91D0
:1003C000ED2381E090E009F480E0DF91CF91089582
:1003D00080E090E0FACF1F93CF93DF93282F30E097
:1003E000F901E255FF4F8491F901E656FF4FD49190
:1003F000F901EA57FF4FC491CC23A9F0162F8111C0
:100400000E949901EC2FF0E0EE0FFF1FEE58FF4F16
:10041000A591B4918FB7F894EC91111108C0D095C3
:10042000DE23DC938FBFDF91CF911F910895DE2BE8
:10043000F8CFCF93DF93CEE2D2E061E08E810E94CD
:10044000EB0161E08F810E94EB0160E08F810E94EF
:10045000EB0160E08E81DF91CF910C94EB01CF93A3
:10046000DF93CEE2D2E060E08E810E94EB0160E09B
:100470008F810E94EB0161E08E810E94EB0161E0BF
:100480008F81DF91CF910C94EB01CF93DF9390E0BC
:10049000FC01E656FF4F24918A579F4FFC0184913F
:1004A0008823D1F090E0880F991FFC01E859FF4F95
:1004B000A591B491FC01EE58FF4FC591D491611103
:1004C0000EC09FB7F8948C91E22FE0958E238C9309
:1004D0002881E223E8839FBFDF91CF9108958FB7F2
:1004E000F894EC91E22BEC938FBFF6CF0F931F9310
:1004F000CF93DF93D82FC8E060E0809134020E9450
:10050000EB010D2F0D2E000C110B61E0D0FF60E010
:10051000809135020E94EB0115950795D02F61E07F
:10052000809134020E94EB01C15031F760E080916C
:1005300034020E94EB0161E0809135020E94EB01E0
:1005400061E0809134020E94EB0160E0809135020D
:100550000E94450283EC90E00197F1F7809135020B
:100560000E94C2018C0181110AC061E080913502B4
:100570000E94450260E0809135020E94EB01C3ECCD
:10058000D0E0CE010197F1F761E0809135020E9441
:1005900045022197F1F7C8019927DF91CF911F916B
:1005A0000F910895CF93DF93D82FE62F6F37D9F1AE
:1005B000603140F50E2E000CFF0BE55AFE4F808196
:1005C00090913102C0E09111C0E8C80F0E94190259
:1005D00084E40E9476020E942F020E9419028D2F4D
:1005E000806C0E9476028C2F0E9476020E942F025D
:1005F0000E941902809130020E947602DF91CF9111
:100600000C942F0280ED860F8A3030F40E2E000CF1
:10061000FF0BE55DFE4FD3CFE052EB3520F4F0E069
:10062000E050FF4FCCCF80E0CBCF1F93CF93DF9331
:10063000182FEB0161E00E944502209739F460E039
:10064000812FDF91CF911F910C94EB01CF3FD1050A
:1006500011F461E0F5CFE12FF0E0E255FF4FE491B6
:10066000E33031F140F4E130B1F0E230E1F0C03894
:10067000D1057CF7E4CFE73029F1E83059F1E430D7
:10068000B1F780918000806280938000D0938B00CE
:10069000C0938A0004C084B5806884BDC7BDDF9163
:1006A000CF911F91089584B5806284BDC8BDF7CFF6
:1006B00080918000806880938000D0938900C093EF
:1006C0008800EDCF8091B00080688093B000C09327
:1006D000B300E5CF8091B00080628093B000C093FA
:1006E000B400DDCF3FB7F89480918B0190918C01DD
:1006F000A0918D01B0918E0126B5A89B05C02F3F1A
:1007000019F00196A11DB11D3FBFBA2FA92F982F37
:100710008827BC01CD01620F711D811D911D42E032
:10072000660F771F881F991F4A95D1F708958F92FA
:100730009F92AF92BF92CF92DF92EF92FF926B01A6
:100740007C010E9472034B015C01C114D104E104DD
:10075000F104B9F00E947203681979098A099B09AA
:10076000683E73408105910580F321E0C21AD108EB
:10077000E108F10888EE880E83E0981EA11CB11CE8
:10078000E4CFFF90EF90DF90CF90BF90AF909F901D
:100790008F900895EF92FF920F931F93CF93DF9363
:1007A0007C0110E000E0E70109900020E9F72197C3
:1007B000CE19DF0980913202909133020C171D0788
:1007C00058F508171907F4F064EF71E080E090E045
:1007D0000E949703D0E0C0E09E0180913202909188
:1007E0003302219628173907A4F4F801EC0FFD1FF6
:1007F000E81BF90BEE0DFF1D60818C2F81500E94CC
:10080000D202EACFF701E00FF11F6081802F0E9432
:10081000D2020F5F1F4FC7CF8091320290913302F7
:10082000C817D90734F46FE78C2F0E94D2022196A3
:10083000F3CFDF91CF911F910F91FF90EF9008952B
:100840001F920F920FB60F9211242F933F934F9345
:100850005F936F937F938F939F93AF93BF93EF9328
:10086000FF9381E991E00E940A01FF91EF91BF910E
:10087000AF919F918F917F916F915F914F913F9138
:100880002F910F900FBE0F901F9018951F920F92EF
:100890000FB60F9211242F938F939F93EF93FF9393
:1008A000E091A101F091A2018081E091A701F09176
:1008B000A80182FD1BC090818091AA018F5F8F7378
:1008C0002091AB01821741F0E091AA01F0E0EF56D0
:1008D000FE4F958F8093AA01FF91EF919F918F9189
:1008E0002F910F900FBE0F901F9018958081F4CF1D
:1008F0001F920F920FB60F9211242F933F938F9355
:100900009F93AF93BF938091870190918801A091AD
:100910008901B0918A013091860123E0230F2D37A0
:1009200058F50196A11DB11D209386018093870182
:1009300090938801A0938901B0938A0180918B01E3
:1009400090918C01A0918D01B0918E010196A11D15
:10095000B11D80938B0190938C01A0938D01B09376
:100960008E01BF91AF919F918F913F912F910F90E9
:100970000FBE0F901F90189526E8230F0296A11D19
:10098000B11DD2CFCF93DF93E1E9F1E01382128260
:1009900088EE93E0A0E0B0E084839583A683B783DC
:1009A0008FE691E09183808385EC90E09587848742
:1009B00084EC90E09787868780EC90E0918B808B29
:1009C00081EC90E0938B828B82EC90E0958B848B12
:1009D00086EC90E0978B868B118E128E138E148E80
:1009E000CEE2D2E084E090E09D838C8381E18E832F
:1009F00080E18F8361E081E10E94450261E08F81A7
:100A0000DF91CF910C944502CF93DF9300D000D0BB
:100A10001F92CDB7DEB7789484B5826084BD84B56B
:100A2000816084BD85B5826085BD85B5816085BDE9
:100A300080916E00816080936E00109281008091A1
:100A40008100826080938100809181008160809329
:100A50008100809180008160809380008091B1004E
:100A600084608093B1008091B00081608093B00079
:100A700080917A00846080937A0080917A0082600D
:100A800080937A0080917A00816080937A008091CF
:100A90007A00806880937A001092C100E091A101F1
:100AA000F091A20182E08083E0919D01F0919E018E
:100AB0001082E0919F01F091A0018FEC8083109251
:100AC000A901E091A501F091A60186E08083E09163
:100AD000A301F091A401808180618083E091A30152
:100AE000F091A401808188608083E091A301F0915E
:100AF000A401808180688083E091A301F091A4012A
:100B000080818F7D808360E082E00E94450261E009
:100B100088E00E9445026FE780E00E94D2026FE702
:100B200081E00E94D2026FE782E00E94D2026FE76A
:100B300083E00E94D20280E480932E0280EC8093B6
:100B40002F028FE8809330021A82198202ED14E09E
:100B50006AE0E62EF12C2091320230913302898135
:100B60009A8182179307DCF4281B390B2150310935
:100B70006FE70115110529F0C801B7010E94A4090A
:100B8000682F822F0E94D202C801B7010E94A409D7
:100B90008B0189819A8101969A838983DCCF109297
:100BA000310264EF71E080E090E00E9497031A82C6
:100BB00019820EE216E15AE0E52EF12C2091320264
:100BC0003091330289819A8182179307DCF4281BC4
:100BD000390B215031096FE70115110529F0C801C2
:100BE000B7010E94A409682F822F0E94D202C80177
:100BF000B7010E94A4098B0189819A8101969A8389
:100C00008983DCCF1092310264EF71E080E090E0E4
:100C10000E9497038DE791E00E94CA0364EF71E0A0
:100C200080E090E00E94970381E891E00E94CA036F
:100C300064EF71E080E090E00E9497038DE791E01F
:100C40000E94CA0364EF71E080E090E00E94970385
:100C500081E891E00E94CA0364EF71E080E090E0D7
:100C60000E94970340E0A42E40E0B42E82E00E9450
:100C7000C201C0908F01D09090019FEFC916D1049E
:100C800009F00CF477C0B6016F5F7109072E000CF4
:100C9000880B990B0E94870820E030E04FE753E46F
:100CA0000E94DD0720E030E044EB53E40E94370966
:100CB0002B013C0120E030E044EB53E40E94D807D4
:100CC000811103C0412C512C320120E030E040E77B
:100CD00052E4C301B2010E94DD072B013C010E94D6
:100CE0004F084B01072E000C880B990B0E948708B8
:100CF0009B01AC01C301B2010E946B079B01AC01D7
:100D000060E070E080E89FE30E946B0769837A836C
:100D10008B839C832DEC3CEC4CE45DE30E94370913
:100D20002B017C0129813A814B815C8160E070E07C
:100D300080E89FE30E946B072DEC3CEC4CE45DE304
:100D40000E9437098B018D83998382E08816910474
:100D5000A1F1B4F48114910419F18A94892809F459
:100D6000AFC0612C712C812C912C00E010E01D8211
:100D700019822CC0B6010D2C000C880B990B8ACF60
:100D800094E08916910499F134F195E08916910463
:100D900041F73201470100E010E01D82198204C0D2
:100DA000612C712C812C912C4DEC442E5CEC552E39
:100DB0006CE4E62E7DE3F72E29C038018D80998002
:100DC0000DEC1CEC8CE48D839DE39983412C512C1C
:100DD000E12CF12C1BC08201ED82F9828DEC682E92
:100DE0009CEC792E2CE4822E3DE3932EEFCF28014C
:100DF000ED80F980EDEC6E2EFCEC7F2EACE48A2EBB
:100E0000BDE39B2E00E010E01D82198220E030E05F
:100E10004FE753E4B201C7010E9437090E944F080F
:100E20002B013324222420E030E04FE753E4B801C3
:100E30008D8199810E9437090E944F08982F872F32
:100E4000762F6627262A372A482A592A20E030E0BA
:100E50004FE753E4B301C4010E9437090E944F08D1
:100E600032012101462A572A682A662D70E08AE05D
:100E70000E941503652D70E08BE00E941503642D20
:100E800070E089E00E941503C60101966EEF71E0E3
:100E90000E94A4099093900180938F016AE070E012
:100EA00080E090E00E949703A114B10409F4DECE23
:100EB0000E94F600882309F4D9CE0E940000D6CE05
:100EC000612C712C812C912C0DEC1CEC8CE48D830D
:100ED0009DE399839BCF5058BB27AA270E94830785
:100EE0000C94FD080E94EF0838F00E94F60820F0EC
:100EF00039F49F3F19F426F40C94EC080EF4E095B5
:100F0000E7FB0C94E608E92F0E940E0958F3BA1784
:100F1000620773078407950720F079F4A6F50C940F
:100F200030090EF4E0950B2EBA2FA02D0B01B9015C
:100F300090010C01CA01A0011124FF27591B99F04F
:100F4000593F50F4503E68F11A16F040A22F232F5B
:100F5000342F4427585FF3CF469537952795A795AB
:100F6000F0405395C9F77EF41F16BA0B620B730B52
:100F7000840BBAF09150A1F0FF0FBB1F661F771FC3
:100F8000881FC2F70EC0BA0F621F731F841F48F478
:100F9000879577956795B795F7959E3F08F0B0CF01
:100FA0009395880F08F09927EE0F979587950895E8
:100FB0000E94C20808F481E008950E94F1070C9491
:100FC000FD080E94F60858F00E94EF0840F029F44E
:100FD0005F3F29F00C94E60851110C9431090C94F0
:100FE000EC080E940E0968F39923B1F3552391F39D
:100FF000951B550BBB27AA2762177307840738F088
:101000009F5F5F4F220F331F441FAA1FA9F335D0E4
:101010000E2E3AF0E0E832D091505040E695001C98
:10102000CAF72BD0FE2F29D0660F771F881FBB1F52
:10103000261737074807AB07B0E809F0BB0B802D30
:10104000BF01FF2793585F4F3AF09E3F510578F05C
:101050000C94E6080C9431095F3FE4F3983ED4F316
:10106000869577956795B795F7959F5FC9F7880F30
:10107000911D9695879597F90895E1E0660F771F82
:10108000881FBB1F621773078407BA0720F0621B13
:10109000730B840BBA0BEE1F88F7E09508950E943E
:1010A00056086894B1110C94310908950E941609EC
:1010B00088F09F5798F0B92F9927B751B0F0E1F019
:1010C000660F771F881F991F1AF0BA95C9F714C0C9
:1010D000B13091F00E943009B1E008950C943009CC
:1010E000672F782F8827B85F39F0B93FCCF3869502
:1010F00077956795B395D9F73EF49095809570955F
:1011000061957F4F8F4F9F4F0895E89409C097FBDB
:101110003EF490958095709561957F4F8F4F9F4FCE
:101120009923A9F0F92F96E9BB279395F695879512
:1011300077956795B795F111F8CFFAF4BB0F11F4D5
:1011400060FF1BC06F5F7F4F8F4F9F4F16C088237C
:1011500011F096E911C0772321F09EE8872F762FB2
:1011600005C0662371F096E8862F70E060E02AF0F3
:101170009A95660F771F881FDAF7880F96958795DF
:1011800097F90895990F0008550FAA0BE0E8FEEFB4
:1011900016161706E807F907C0F012161306E4073B
:1011A000F50798F0621B730B840B950B39F40A2634
:1011B00061F0232B242B252B21F408950A2609F412
:1011C000A140A6958FEF811D811D089597F99F6716
:1011D00080E870E060E008959FEF80EC08950024BF
:1011E0000A941616170618060906089500240A948C
:1011F00012161306140605060895092E0394000C12
:1012000011F4882352F0BB0F40F4BF2B11F460FFA0
:1012100004C06F5F7F4F8F4F9F4F089557FD9058C9
:10122000440F551F59F05F3F71F04795880F97FBAA
:10123000991F61F09F3F79F0879508951216130664
:101240001406551FF2CF4695F1DF08C01616170693
:101250001806991FF1CF86957105610508940895C8
:10126000E894BB2766277727CB0197F908950E945A
:101270004A090C94FD080E94EF0838F00E94F60815
:1012800020F0952311F00C94E6080C94EC0811243E
:101290000C9431090E940E0970F3959FC1F3950FCC
:1012A00050E0551F629FF001729FBB27F00DB11DEA
:1012B000639FAA27F00DB11DAA1F649F6627B00D7A
:1012C000A11D661F829F2227B00DA11D621F739F63
:1012D000B00DA11D621F839FA00D611D221F749F71
:1012E0003327A00D611D231F849F600D211D822FB8
:1012F000762F6A2F11249F5750409AF0F1F08823DF
:101300004AF0EE0FFF1FBB1F661F771F881F91500B
:101310005040A9F79E3F510580F00C94E6080C94CC
:1013200031095F3FE4F3983ED4F38695779567954E
:10133000B795F795E7959F5FC1F7FE2B880F911D35
:101340009695879597F9089597FB072E16F40094C4
:1013500007D077FD09D00E94B80907FC05D03EF4FC
:10136000909581959F4F0895709561957F4F089551
:10137000AA1BBB1B51E107C0AA1FBB1FA617B707BB
:1013800010F0A61BB70B881F991F5A95A9F78095D7
:101390009095BC01CD010895EE0FFF1F0590F491CB
:0813A000E02D0994F894FFCF41
:1013A8000000000000000000000063000040000092
:1013B8000000000000000000000000000000000025
:1013C80000777C395E79713576061E753837545C3E
:1013D800737B506D781C3E7E766E1B000000010802
:1013E800005F7C585E797135740416753837545C23
:1013F8007367506D781C3E2A766E1B3F065B4F66FE
:101408006D7D077F6F777C395E7971000000002C55
:10141800018C00B9007901EA00C800DC00504F5087
:06142800002055500000F9
:107E0000112484B714BE81FFF0D085E080938100F7
:107E100082E08093C00088E18093C10086E0809377
:107E2000C20080E18093C4008EE0C9D0259A86E02C
:107E300020E33CEF91E0309385002093840096BBD3
:107E4000B09BFECF1D9AA8958150A9F7CC24DD24C4
:107E500088248394B5E0AB2EA1E19A2EF3E0BF2EE7
:107E6000A2D0813461F49FD0082FAFD0023811F036
:107E7000013811F484E001C083E08DD089C08234E0
:107E800011F484E103C0853419F485E0A6D080C0E4
:107E9000853579F488D0E82EFF2485D0082F10E0AE
:107EA000102F00270E291F29000F111F8ED06801E7
:107EB0006FC0863521F484E090D080E0DECF843638
:107EC00009F040C070D06FD0082F6DD080E0C81688
:107ED00080E7D80618F4F601B7BEE895C0E0D1E017
:107EE00062D089930C17E1F7F0E0CF16F0E7DF06D8
:107EF00018F0F601B7BEE89568D007B600FCFDCFD4
:107F0000A601A0E0B1E02C9130E011968C91119780
:107F100090E0982F8827822B932B1296FA010C0160
:107F200087BEE89511244E5F5F4FF1E0A038BF0790
:107F300051F7F601A7BEE89507B600FCFDCF97BE46
:107F4000E89526C08437B1F42ED02DD0F82E2BD052
:107F50003CD0F601EF2C8F010F5F1F4F84911BD097
:107F6000EA94F801C1F70894C11CD11CFA94CF0C13
:107F7000D11C0EC0853739F428D08EE10CD085E9AC
:107F80000AD08FE07ACF813511F488E018D01DD067
:107F900080E101D065CF982F8091C00085FFFCCF94
:107FA0009093C60008958091C00087FFFCCF809118
:107FB000C00084FD01C0A8958091C6000895E0E648
:107FC000F0E098E1908380830895EDDF803219F02E
:107FD00088E0F5DFFFCF84E1DECF1F93182FE3DFCA
:107FE0001150E9F7F2DF1F91089580E0E8DFEE27F6
:047FF000FF270994CA
:027FFE00040479
:0400000300007E007B
:00000001FF
