:100000000C9464000C948C000C948C000C948C0068
:100010000C948C000C948C000C948C000C94310883
:100020000C948C000C948C000C948C000C948C0020
:100030000C948C000C948C000C948C000C948C0010
:100040000C94E5080C948C000C94B3080C948D0867
:100050000C948C000C948C000C948C000C948C00F0
:100060000C948C000C948C000000000023002600EF
:10007000290000000008000201000003040700003E
:1000800000000000000000000000240027002A00FB
:10009000010204081020408001020408102001021F
:1000A0000408102000000000250028002B00040494
:1000B0000404040404040202020202020303030310
:1000C000030302002F09960F11241FBECFEFD8E0C3
:1000D000DEBFCDBF22E0AAEBB1E001C01D92AA397C
:1000E000B207E1F711E0A0E0B1E0E8E3F9E202C015
:1000F00005900D92AA3BB107D9F710E0C3E6D0E016
:1001000004C02197FE010E948E12C236D107C9F7A2
:100110000E94C6090C948F140C9400008CBD9DBDE8
:100120000895AF92BF92CF92DF92EF92FF920F931A
:100130001F93CF93DF936C017B018B01040F151F7D
:10014000EB015E01AE18BF08C017D10759F06991E5
:10015000D601ED91FC910190F081E02DC601099549
:10016000892B79F7C501DF91CF911F910F91FF90F6
:10017000EF90DF90CF90BF90AF900895FC01538D2A
:10018000448D252F30E0842F90E0821B930B541771
:1001900010F0CF96089501970895FC01918D828DFE
:1001A000981761F0A28DAE0FBF2FB11D5D968C9197
:1001B000928D9F5F9F73928F90E008958FEF9FEFD6
:1001C0000895FC01918D828D981731F0828DE80F92
:1001D000F11D858D90E008958FEF9FEF0895FC014C
:1001E000918D228D892F90E0805C9F4F821B910919
:1001F0008F73992708958BED91E00E94EF0021E025
:10020000892B09F420E0822F089580E090E0892B6B
:1002100029F00E94FB0081110C9400000895FC015C
:10022000A48DA80FB92FB11DA35ABF4F2C91848D57
:1002300090E001968F739927848FA689B7892C93B4
:10024000A089B1898C91837080648C93938D848D07
:10025000981306C00288F389E02D80818F7D80830A
:100260000895EF92FF920F931F93CF93DF93EC01CA
:1002700081E0888F9B8D8C8D98131AC0E889F9894D
:10028000808185FF15C09FB7F894EE89FF89608350
:10029000E889F98980818370806480839FBF81E0D1
:1002A00090E0DF91CF911F910F91FF90EF90089513
:1002B000F62E0B8D10E00F5F1F4F0F731127E02EEE
:1002C0008C8D8E110CC00FB607FCFACFE889F98926
:1002D000808185FFF5CFCE010E940F01F1CFEB8D1C
:1002E000EC0FFD2FF11DE35AFF4FF0829FB7F894FA
:1002F0000B8FEA89FB8980818062CFCFCF93DF9318
:10030000EC01888D8823B9F0AA89BB89E889F9892D
:100310008C9185FD03C0808186FD0DC00FB607FC62
:10032000F7CF8C9185FFF2CF808185FFEDCFCE0195
:100330000E940F01E9CFDF91CF910895833081F0C2
:1003400028F4813099F08230A9F008958730A9F01F
:100350008830C9F08430B1F4809180008F7D03C073
:10036000809180008F7780938000089584B58F7787
:1003700084BD089584B58F7DFBCF8091B0008F77C9
:100380008093B00008958091B0008F7DF9CFCF9316
:10039000DF93282F30E0F901EE58FF4F8491F901E7
:1003A000E057FF4FD491F901E255FF4FC491CC23A0
:1003B000A1F081110E949E01EC2FF0E0EE0FFF1FD3
:1003C000E859FF4FA591B491EC91ED2381E090E0C5
:1003D00009F480E0DF91CF91089580E090E0FACFBA
:1003E0001F93CF93DF93282F30E0F901EE58FF4F92
:1003F0008491F901E057FF4FD491F901E255FF4F85
:10040000C491CC23A9F0162F81110E949E01EC2FDC
:10041000F0E0EE0FFF1FEC55FF4FA591B4918FB7A1
:10042000F894EC91111108C0D095DE23DC938FBFB6
:10043000DF91CF911F910895DE2BF8CFCF93DF93FB
:10044000CEE7D2E061E08E810E94F00161E08F8111
:100450000E94F00160E08F810E94F00160E08E81D7
:10046000DF91CF910C94F001CF93DF93CEE7D2E0F0
:1004700060E08E810E94F00160E08F810E94F001B7
:1004800061E08E810E94F00161E08F81DF91CF9168
:100490000C94F0019091000189130BC0E2ECF0E0A4
:1004A000E4919FEF90930001E13049F028F0E230B1
:1004B00061F060E00C94F00110926E00FACF909120
:1004C0006F009D7F90936F00F4CF909170009D7F9F
:1004D0009093700091E09093B0009091B100987F5C
:1004E00094609093B1001092B300E3CFCF93DF9369
:1004F00090E0FC01E057FF4F249182559F4FFC0193
:1005000084918823D1F090E0880F991FFC01EA576D
:10051000FF4FA591B491FC01EC55FF4FC591D491CB
:1005200061110EC09FB7F8948C91E22FE0958E2355
:100530008C932881E223E8839FBFDF91CF910895B8
:100540008FB7F894EC91E22BEC938FBFF6CF0F931B
:100550001F93CF93DF93D82FC8E060E0809184028F
:100560000E94F0010D2F0D2E000C110B61E0D0FF49
:1005700060E0809185020E94F00115950795D02FCB
:1005800061E0809184020E94F001C15031F760E087
:10059000809184020E94F00161E0809185020E94B6
:1005A000F00161E0809184020E94F00160E080919E
:1005B00085020E94760283EC90E00197F1F780912A
:1005C00085020E94C7018C0181110AC061E08091FF
:1005D00085020E94760260E0809185020E94F0010F
:1005E000C3ECD0E0CE010197F1F761E08091850284
:1005F0000E9476022197F1F7C8019927DF91CF91E8
:100600001F910F910895CF93DF93D82FE62F6F3767
:10061000D9F1603140F50E2E000CFF0BEE57FE4F66
:10062000808190918102C0E09111C0E8C80F0E94C2
:100630001E0284E40E94A7020E9434020E941E024D
:100640008D2F806C0E94A7028C2F0E94A7020E940F
:1006500034020E941E02809180020E94A702DF9154
:10066000CF910C94340280ED860F8A3030F40E2E38
:10067000000CFF0BEE5AFE4FD3CFE052EB3520F4C7
:10068000F0E0E95DFE4FCCCF80E0CBCF1F93CF935E
:10069000DF93182FEB0161E00E947602209739F476
:1006A00060E0812FDF91CF911F910C94F001CF3F3B
:1006B000D10511F461E0F5CFE12FF0E0EE58FF4FE6
:1006C000E491E33031F140F4E130B1F0E230E1F0B7
:1006D000C038D1057CF7E4CFE73029F1E83059F193
:1006E000E430B1F780918000806280938000D093E5
:1006F0008B00C0938A0004C084B5806884BDC7BDE8
:10070000DF91CF911F91089584B5806284BDC8BDEB
:10071000F7CF80918000806880938000D09389001B
:10072000C0938800EDCF8091B00080688093B000C6
:10073000C093B300E5CF8091B00080628093B00099
:10074000C093B400DDCF3FB7F8948091BB01909186
:10075000BC01A091BD01B091BE0126B5A89B05C00A
:100760002F3F19F00196A11DB11D3FBFBA2FA92F30
:10077000982F8827BC01CD01620F711D811D911D2D
:1007800042E0660F771F881F991F4A95D1F7089599
:100790008F929F92AF92BF92CF92DF92EF92FF9291
:1007A0006B017C010E94A3034B015C01C114D104C5
:1007B000E104F104B9F00E94A303681979098A09D8
:1007C0009B09683E73408105910580F321E0C21AC0
:1007D000D108E108F10888EE880E83E0981EA11C7C
:1007E000B11CE4CFFF90EF90DF90CF90BF90AF901F
:1007F0009F908F900895BC016E5F7F4FDC01ED915B
:10080000FC910190F081E02D40E0099591E081118B
:1008100090E0892F089508958EBD00000DB407FE65
:10082000FDCF8EB50895DF92EF92FF920F931F9345
:10083000CF93DF937C01062FD42E152F83E590E014
:100840000E948E0060E0F70186850E94F00182E13F
:100850000E940C04CD2DD12F0C0F1D2F111DC01780
:10086000D10721F089910E940C04F9CF61E0F701D2
:100870008685DF91CF911F910F91FF90EF90DF90D0
:100880000C94F0011F93CF93DF93EC01162F83E5B7
:1008900090E00E948E0060E08E850E94F001812F22
:1008A00080680E940C0480E00E940C04182F61E014
:1008B0008E850E94F001812FDF91CF911F910895C5
:1008C0000F931F93CF93DF93EC01062F142F83E533
:1008D00090E00E948E0060E08E850E94F001802FE3
:1008E0000E940C04812F0E940C0461E08E85DF9130
:1008F000CF911F910F910C94F001CF92DF92EF9264
:10090000FF920F931F93CF93DF93EC016B01142F92
:10091000790140E062E00E94600444E06AE0CE01B8
:100920000E94600440E864E1CE010E946004A601D8
:10093000612FCE010E94130443E062E0CE010E94C9
:10094000600408E813E16AE0CE010E94420482FFDD
:100950001BC040E062E0CE010E94600464E4CE016E
:100960000E944204F701808362E4CE010E944204A7
:10097000F701818380E0DF91CF911F910F91FF906C
:10098000EF90DF90CF90089501501109E1F683E0D8
:10099000F2CF3F924F925F926F927F928F929F928F
:1009A000AF92BF92CF92DF92EF92FF920F931F937D
:1009B000CF93DF9300D0CDB7DEB74C012B01D42EFF
:1009C000390180E0E114F10411F0F7018081BC2CC1
:1009D000B29490EFB922B80E40E062E0C4010E94E8
:1009E00060044FE768E0C4010E94600440E864E1ED
:1009F000C4010E946004A2016D2DC4010E94130471
:100A00004B2D6AE1C4010E9460044CE062E0C40125
:100A10000E9460046AE1C4010E944204482F4068B9
:100A20006AE1C4010E94600420ED422E27E0522EAC
:100A300068E0C4010E944204982F907309F0B6C088
:100A400080FD04C0F1E04F1A510891F783E094C093
:100A50006114710409F46DC00115110509F469C030
:100A600064E1C4010E944204B82EF80180818B1514
:100A700008F496C0B082BB20E1F183E590E00E94CB
:100A80008E0060E0F40186850E94F001BA9482E94C
:100A90000E940C04CC20B1F08FEF90E09C0102C0CA
:100AA000220F331FCA94E2F7690182E90E940C0405
:100AB0009C2D9095F301208192238C21982B90837B
:100AC000CC24C39423014C0C511CCB1440F482E978
:100AD0000E940C04F20181932F01C394F6CF80E0B1
:100AE0000E940C04F201808361E0F40186850E947B
:100AF000F00168E1C4010E9442048770E114F1042E
:100B000011F0F701808333FC4DC06114710409F4C6
:100B10004BC00115110509F447C0AA2009F444C0CF
:100B2000F8014081413039F4843009F049C08FEF39
:100B300023C080E0E8CF423008F442C0811140C0B9
:100B400042509E012F5F3F4FB301C4010E947D04BC
:100B5000811112C0F8019081690E711CF301329766
:100B60002081998129132CC0F1E06F1A7108F301DB
:100B700020819A81291324C00F900F90DF91CF918B
:100B80001F910F91FF90EF90DF90CF90BF90AF90AB
:100B90009F908F907F906F905F904F903F900895BF
:100BA00084E0EACF82E0E8CF80E0E6CF6CE0C401E9
:100BB0000E944204382E837109F44ACF81E0DCCFD1
:100BC00087E0DACF8F929F92AF92CF92EF92FF920F
:100BD0000F931F93CF93DF9300D000D01F92CDB718
:100BE000DEB74C0182E08D8340E064E2C4010E94E4
:100BF000600440E066E2C4010E94600446E268E4EA
:100C0000C4010E94600486E28B838D818230D8F11A
:100C10006CE1C4010E944204482F4F776CE1C4018B
:100C20000E94600487E08C83A12CC12CCE01049625
:100C30007C018E010B5F1F4F9E012F5F3F4F41E0F4
:100C4000BE016D5F7F4FC4010E94C904982F8111BE
:100C500017C08D818230B9F48C81811114C081E07C
:100C60000F900F900F900F900F90DF91CF911F91E9
:100C70000F91FF90EF90CF90AF909F908F9008953D
:100C800081E0923069F380E0EBCF2F923F924F9258
:100C90005F926F927F928F929F92AF92BF92CF920C
:100CA000DF92EF92FF920F931F93CF93DF93CDB715
:100CB000DEB72D970FB6F894DEBF0FBECDBF16E09E
:100CC000413508F04AC1342E3B014C016CE10E94D1
:100CD0004204482F4F776CE1C4010E94600483E90D
:100CE0008983332029F081E0F3019081953008F465
:100CF00080E022242394B12C9B2D990F990F990FFA
:100D0000D32CD91AD7FCD12C32E0882319F098E8DB
:100D10009B8333E021E09D2D977009F420E09D2D09
:100D2000959595959595290FC9F094E0811193E0DB
:100D3000291708F4922FEB2DF0E03196E60DF71D00
:100D4000232F4191A1E0B0E0AC0FBD1FA20FB11D58
:100D50004C932F5F422F431B491798F3882311F0C0
:100D6000F8E0DF0E8FE18D150CF082C090E79A83DA
:100D70008B819C8189279D8189279E8189278F83EB
:100D80009E01285F3F4F47E0BE016F5F7F4FC40168
:100D90000E947D04182F8111E0C01A86E3E0EB87E2
:100DA000DC86CE0107962C0199E09D87CA844C2DE4
:100DB0004295407F4C0D6AE1C4010E946004A12C61
:100DC000CE010A967C018E01055F1F4F92014D8571
:100DD000BE016F5F7F4FC4010E94C904182F82308B
:100DE00009F065C06CE1C4010E94420485FDB5C0F4
:100DF0008F7109F480E2282F30E04D2DDD0C550B6A
:100E0000421753070CF09DC0D82EE82FE595E595C5
:100E1000E595EF5F982F977081E009F480E0E80F87
:100E200081E090E08C0F9D1F8E0F911DFC012150E1
:100E300031092770332781E090E002C0880F991FA5
:100E40002A95E2F79C018081822B80838BCF85E9F4
:100E50008983332031F081E0F3019081983008F0EC
:100E60004BCF80E049CF87E9898326E0B22EF9CFC6
:100E70009D2D97709A878D2D8595859585958E5F8B
:100E8000282F2295207F290F2A8321E0911101C06C
:100E900020E0280F2D8744244394512C4C0E5D1ED6
:100EA000480E511CE9E0E81BEB87DC867FCF8111FF
:100EB00054C080E2D82E9C8590320CF457CF8B81A1
:100EC000883809F040C083E093E0EB2DF0E03196E4
:100ED000E60DF71D980FA1E0B0E0AC0FBD1FA80F05
:100EE000B11D2C9121938F5F8913F5CFBB84E3E073
:100EF000BE124DC08A8581114AC09E012D5F3F4FB1
:100F000041E0B201C4010E947D04182F811125C067
:100F10009B81F201818198133CC09C81828198134E
:100F200038C0808182FF12C02394F2E02F1609F4AA
:100F30008ECF83E0281609F496CF91E0291609F4A4
:100F4000CECE15E00AC082E094E0BFCFF3018387E4
:100F5000822D880F820D8F5F8083812F2D960FB693
:100F6000F894DEBF0FBECDBFDF91CF911F910F91DF
:100F7000FF90EF90DF90CF90BF90AF909F908F90B9
:100F80007F906F905F904F903F902F90089511E069
:100F9000E4CF17E0E2CFCF93DF93EC0180917802AA
:100FA00090917902009759F020917A0230917B025A
:100FB0002C173D0720F081E0DF91CF910895BE010D
:100FC0006F5F7F4F0E94B913009789F09093790269
:100FD00080937802D0937B02C0937A0220917C02A6
:100FE00030917D02232B39F7FC011082E4CF80E0A1
:100FF000E3CF0F931F93CF93DF938C01EC01099004
:101000000020E9F72197C81BD90BCE010E94CB071E
:101010002091780230917902811117C02115310594
:1010200019F0C9010E9430131092790210927802CF
:1010300010927D0210927C0210927B0210927A0232
:10104000DF91CF911F910F910895D0937D02C093AE
:101050007C02B801C901DF91CF911F910F910C94CF
:1010600088141F920F920FB60F9211242F933F9363
:101070004F935F936F937F938F939F93AF93BF93A0
:10108000EF93FF938091C5019091C601A091C70194
:10109000B091C801892B8A2B8B2BD1F19091C00183
:1010A000E091C101F091C201808189278083809104
:1010B000C5019091C601A091C701B091C801181651
:1010C00019061A061B069CF48091C5019091C60171
:1010D000A091C701B091C8010197A109B1098093FE
:1010E000C5019093C601A093C701B093C801FF91B9
:1010F000EF91BF91AF919F918F917F916F915F9190
:101100004F913F912F910F900FBE0F901F90189508
:10111000809100010E944A02EACF1F920F920FB6FF
:101120000F9211242F933F934F935F936F937F936D
:101130008F939F93AF93BF93EF93FF938BED91E0CA
:101140000E940F01FF91EF91BF91AF919F918F91FD
:101150007F916F915F914F913F912F910F900FBEB3
:101160000F901F9018951F920F920FB60F92112497
:101170002F938F939F93EF93FF93E091EB01F09167
:10118000EC018081E091F101F091F20182FD1BC040
:1011900090818091F4018F5F8F732091F501821708
:1011A00041F0E091F401F0E0E552FE4F958F80931D
:1011B000F401FF91EF919F918F912F910F900FBEAE
:1011C0000F901F9018958081F4CF1F920F920FB649
:1011D0000F9211242F933F938F939F93AF93BF93BD
:1011E0008091D1019091D201A091D301B091D4010D
:1011F0003091BA0123E0230F2D3758F50196A11D38
:10120000B11D2093BA018093D1019093D201A09394
:10121000D301B093D4018091BB019091BC01A09106
:10122000BD01B091BE010196A11DB11D8093BB010E
:101230009093BC01A093BD01B093BE01BF91AF914B
:101240009F918F913F912F910F900FBE0F901F9004
:10125000189526E8230F0296A11DB11DD2CF10923A
:10126000DE011092DD0188EE93E0A0E0B0E0809313
:10127000DF019093E001A093E101B093E20186E9E0
:1012800091E09093DC018093DB0185EC90E09093FA
:10129000E8018093E70184EC90E09093EA01809369
:1012A000E90180EC90E09093EC018093EB0181ECFC
:1012B00090E09093EE018093ED0182EC90E09093AA
:1012C000F0018093EF0186EC90E09093F20180931F
:1012D000F1011092F4011092F5011092F6011092B2
:1012E000F70188EA91E090938702809386028AE072
:1012F0008093940289E08093950284E090E090933B
:1013000083028093820281E18093840280E1809352
:10131000850261E081E10E94760261E080918502B0
:101320000E947602109279021092780210927B024B
:1013300010927A0210927D0210927C0282E090E07C
:101340000E94CB072091780230917902811113C05D
:101350002115310519F0C9010E943013109279024C
:101360001092780210927D0210927C0210927B0201
:1013700010927A02089582E090E090937D0280932B
:101380007C026EEA71E0C9010C948814CF93DF935C
:10139000CDB7DEB729970FB6F894DEBF0FBECDBF2D
:1013A000789484B5826084BD84B5816084BD85B540
:1013B000826085BD85B5816085BD80916E0081604C
:1013C00080936E00109281008091810082608093F2
:1013D00081008091810081608093810080918000F4
:1013E0008160809380008091B10084608093B1001F
:1013F0008091B00081608093B00080917A00846019
:1014000080937A0080917A00826080937A00809144
:101410007A00816080937A0080917A00806880935E
:101420007A001092C100E091EB01F091EC0182E0B2
:101430008083E091E701F091E8011082E091E901F9
:10144000F091EA018FEC80831092F301E091EF01BB
:10145000F091F00186E08083E091ED01F091EE01E2
:10146000808180618083E091ED01F091EE018081C7
:1014700088608083E091ED01F091EE0180818068C9
:101480008083E091ED01F091EE0180818F7D80837A
:1014900060E082E00E9476022FB72983F894809161
:1014A000BF01811127C0E8EBF0E08491EAE9F0E0A8
:1014B0009491E82FF0E0EE0FFF1FEA57FF4FA59140
:1014C000B491EC91E92321F461E08AE00E94F001FB
:1014D00061E08AE00E9476028CB580618CBD8CB59B
:1014E00080648CBD61E08DE00E94760261E08BE05B
:1014F0000E9476028091BF018F5F8093BF01398186
:101500003FBF61E0809194020E94760261E0809189
:1015100094020E94F001809195028F3F09F4ADC0C2
:1015200060E00E947602809195020E94C701892B9B
:1015300009F0A3C061E0809195020E94760260E00C
:10154000809195020E94F00183E090E00197F1F70D
:1015500061E0809195020E94F00162E370E080E01A
:1015600090E00E94C80340E064E286E892E00E94B6
:10157000600440E066E286E892E00E94600446E291
:1015800068E486E892E00E94600440E864E586E84A
:1015900092E00E94600449EA66E586E892E00E94D3
:1015A000600443E068E586E892E00E94600448EE4B
:1015B0006AE586E892E00E94600440E46AE286E818
:1015C00092E00E9460044DE362E286E892E00E94AD
:1015D000600468E286E892E00E944204982F9370CB
:1015E000933039F0482F436068E286E892E00E9429
:1015F00060046FE780E00E9403036FE781E00E94D0
:1016000003036FE782E00E9403036FE783E00E9419
:10161000030380E480937E0280EC80937F028FE856
:10162000809380021A82198202ED14E0FAE0EF2E14
:10163000F12C209182023091830289819A81821754
:101640009307B4F5281B390B215031096FE70115B9
:10165000110529F0C801B7010E941E12682F822FC0
:101660000E940303C801B7010E941E128B01E98189
:10167000FA813196FA83E983DCCF4FE062E086E8B5
:1016800092E00E94600443E0498362E370E080E0FE
:1016900090E00E94C80362E086E892E00E94420463
:1016A00084FF61CF5981515059835111EECF5BCFE7
:1016B000109281026CEB72E080E090E00E94C8031F
:1016C000E1EBEE2EE1E0FE2E1A8219828091820279
:1016D0009091830229813A812430310591F12817B4
:1016E000390704F164EF71E080E090E00E94C803E4
:1016F00010E000E0980180918202909183020F5FD8
:101700001F4F281739079CF4E981FA81E00FF11F78
:10171000E81BF90BEF54FE4F60818FEF800F0E94A2
:101720000303E8CFF701608189810E9403032981C7
:101730003A812F5F3F4F3A8329833FEFE31AF30A41
:10174000C5CF809182029091830249815A814817C6
:10175000590754F46FE789810E94030389819A81B4
:1017600001969A838983EDCF61E088E00E9476023A
:10177000E7E1F1E0FA83E98327E031E038872F835E
:10178000E981FA8161917191FA83E98388EE93E0AE
:101790000E941E128B012B01770F66087708EF81DC
:1017A000F88521903190F887EF838091000188308F
:1017B00009F0C1C0E2ECF0E0F491F987F7FDA6C1B1
:1017C00061E088E00E947602F985FF2321F02985F7
:1017D000223009F037C24101B12CA12C60E072E146
:1017E0008AE790E0A50191010E9454122B833C836B
:1017F0004D835E8369017A0131E0C31AD108E108A3
:10180000F1084FEFC416D104E104F10409F00CF41F
:1018100055C160E472E48FE090E0A50191010E945F
:10182000541269017A0181E0C81AD108E108F1086F
:101830009985923009F0F6C082E0EFEFCE16D10420
:10184000E104F10409F00CF46FC060E970ED83E08D
:1018500090E0A50191010E94541269017A01F1E022
:10186000CF1AD108E108F10883E02FEFC216D104A6
:10187000E104F10409F00CF457C068E478EE81E06B
:1018800090E0A50191010E94541269017A01E1E002
:10189000CE1AD108E108F10884E0FFEFCF16D10499
:1018A000E104F10409F00CF43FC064E274EF80E05D
:1018B00090E0A50194010E94541269017A01E1E0CF
:1018C000CE1AD108E108F10885E03FEFC316D10434
:1018D000E104F10449F140F162E17AE780E090E04F
:1018E000A50194010E94541269017A01F1E0CF1A16
:1018F000D108E108F10886E02FEFC216D104E10417
:10190000F10491F088F0CB80DC80ED80FE804AE02D
:10191000F594E794D794C7944A95D1F791E0C91A02
:10192000D108E108F10887E09091B100987F892BF8
:101930008093B100CBC08F3F09F0E8C088E080936E
:101940000001E2ECF0E0F491F987FF3F09F4DEC01A
:10195000F13031F158F0F23009F441C0598557FDAA
:10196000D5C061E088E00E94760231CF14BC15BC7E
:1019700084B5826084BD85B5816085BDE6EBF0E00D
:101980008491E82FF0E0EE0FFF1FEC55FF4F85919B
:101990009491E8E9F0E084918093C401198610CF16
:1019A0001092800010928100809181008860809365
:1019B000810080918100816080938100E6EBF0E0FE
:1019C0008491E82FF0E0EE0FFF1FEC55FF4F85915B
:1019D0009491E8E9F0E084918093C301F1CE1092F4
:1019E000B0001092B1008091B00082608093B0008E
:1019F0008091B10081608093B100E6EBF0E08491CA
:101A0000E82FF0E0EE0FFF1FEC55FF4F859194910A
:101A10009093C2018093C101E8E9F0E08491809342
:101A2000C001CECE3FEFC316D104E104F10409F0AA
:101A30000CF406C168E478EE81E090E0A501910124
:101A40000E94541269017A0181E0C81AD108E108A4
:101A5000F108998584E0911138CF83E0EFEFCE163D
:101A6000D104E104F10471F16CF162E17AE780E004
:101A700090E0A50194010E94541269017A0181E06D
:101A8000C81AD108E108F10884E09FEFC916D10413
:101A9000E104F104B9F0B0F0CB80DC80ED80FE8091
:101AA0005AE0F594E794D794C7945A95D1F781E01A
:101AB000C81AD108E108F10885E004C081E0F98581
:101AC000F11132CF95B5987F892B85BD2FEF3FEF70
:101AD000A901411451046104710409F0DDC0898534
:101AE000813009F4F7C0823009F406C181110EC0BB
:101AF000C7BC2093CD013093CE014093CF015093CA
:101B0000D00180916E00826080936E00C301B201AB
:101B10000E94A60F26E636E646EA5FE30E9405101D
:101B20000E94E811072E000C880B990B0E94C80335
:101B300088E00E944A02E7E2F1E029813A81E21757
:101B4000F30709F01DCE6091D9017091DA016F3F62
:101B5000710519F014F06F5F7109072E000C880BE6
:101B6000990B0E94A60F20E030E04FE753E40E945B
:101B7000761120E030E044EB53E40E9405106B0145
:101B80007C0120E030E044EB53E40E949F0F811180
:101B900003C0C12CD12C760120E030E040E752E4B4
:101BA000C701B6010E9476116B017C010E94E81109
:101BB0005B01072E000C880B990B0E94A60F9B015E
:101BC000AC01C701B6010E9409119B01AC0160E0A4
:101BD00070E080E89FE30E9409112B013C012DEC8D
:101BE0003CEC4CE45DE30E9405106B017C01A30119
:101BF000920160E070E080E89FE30E9409112DEC03
:101C00003CEC4CE45DE30E9405108B018B839983CF
:101C100032E0A316B10409F49DC00CF07DC0A114FC
:101C2000B10409F48AC0AA94AB2809F406C1212C96
:101C3000312C812C912C00E010E01B82198293C082
:101C400082E03DCFB12CA12C60E072E18AE790E008
:101C5000A50191010E94541269017A0181E0C81A1C
:101C6000D108E108F108C114D10491E0E906F104BA
:101C700004F591E0F985F13009F028CF80918100D9
:101C8000887F892B809381002FEF3FEFA9014114BA
:101C9000510461047104F1F09101220F331FD80146
:101CA0000E94731228EE33E040E050E00E943212AE
:101CB00016CF68E478EE81E090E0A50191010E94E2
:101CC000541269017A01E1E0CE1AD108E108F10865
:101CD00093E0D0CFD0928900C09288002093C901B0
:101CE0003093CA014093CB015093CC0180916F0097
:101CF000826080936F000ACFC092B3002093C50129
:101D00003093C6014093C7015093C8018091700081
:101D1000826080937000FACE84E0A816B104A1F12D
:101D20003CF1E5E0AE16B10409F081CF16014701A0
:101D300000E010E01B82198204C0212C312C812C80
:101D4000912C6DECC62E7CECD72EECE4EE2EFDE350
:101D5000FF2E29C01B018B8099800DEC1CECFCE44C
:101D6000FB832DE32983C12CD12CE12CF12C1BC04A
:101D70008601EB82F9828DEC282E9CEC392E2CE426
:101D8000822E3DE3932EEFCF6801EB80F980ADEC1E
:101D90002A2EBCEC3B2E1CE4812E0DE3902E00E09D
:101DA00010E01B8219828FB7F8944090D1015090B7
:101DB000D2016090D3017090D4018FBF80917C02DA
:101DC00090917D02892B61F1A0907802B090790208
:101DD0006EEA71E0C5010E947F14892BC9F58091DC
:101DE000D5019091D601A091D701B091D801A3015E
:101DF0009201281B390B4A0B5B0BDA01C9018838A9
:101E00009341A105B10524F186EB91E00E94F90709
:101E10004092D5015092D6016092D7017092D801BC
:101E200040E050E0452B09F48ECE0E94FB00882351
:101E300009F489CE0E94000086CE212C312C812C01
:101E4000912C0DEC1CEC3CE43B834DE34983ABCF80
:101E500066EB71E0C5010E947F14892B09F7809120
:101E6000D5019091D601A091D701B091D801A301DD
:101E70009201281B390B4A0B5B0BDA01C901883828
:101E80009341A105B1051CF08EEA91E0BFCF20E09F
:101E900030E04FE753E4B601C7010E9405100E94ED
:101EA000E8117B01DD24CC2420E030E04FE753E44F
:101EB000B8018B8199810E9405100E94E811982F2A
:101EC000872F762F6627C62AD72AE82A20E030E017
:101ED0004FE753E4B101C4010E9405100E94E811CC
:101EE000C62AD72AE82A6E2D70E086E00E944603B3
:101EF0006D2D70E085E00E9446036C2D70E083E05C
:101F00000E9446038091D9019091DA0101966EEF0B
:101F100071E00E941E129093DA018093D9016AE069
:101F200070E080E090E00E94C8037ACF8091780250
:101F300090917902009711F00C94301308950E944B
:101F4000E10F08F481E00895E89409C097FB3EF49E
:101F500090958095709561957F4F8F4F9F4F9923F6
:101F6000A9F0F92F96E9BB279395F6958795779574
:101F70006795B795F111F8CFFAF4BB0F11F460FF34
:101F80001BC06F5F7F4F8F4F9F4F16C0882311F08C
:101F900096E911C0772321F09EE8872F762F05C0A0
:101FA000662371F096E8862F70E060E02AF09A953B
:101FB000660F771F881FDAF7880F9695879597F930
:101FC0000895990F0008550FAA0BE0E8FEEF1616CA
:101FD0001706E807F907C0F012161306E407F5071D
:101FE00098F0621B730B840B950B39F40A2661F091
:101FF000232B242B252B21F408950A2609F4A14034
:10200000A6958FEF811D811D08950E9418100C94D4
:1020100089100E947B1038F00E94821020F09523D6
:1020200011F00C9472100C94781011240C94BD10C3
:102030000E949A1070F3959FC1F3950F50E0551FC1
:10204000629FF001729FBB27F00DB11D639FAA270D
:10205000F00DB11DAA1F649F6627B00DA11D661F5C
:10206000829F2227B00DA11D621F739FB00DA11D7D
:10207000621F839FA00D611D221F749F3327A00D37
:10208000611D231F849F600D211D822F762F6A2FD3
:1020900011249F5750409AF0F1F088234AF0EE0F38
:1020A000FF1FBB1F661F771F881F91505040A9F765
:1020B0009E3F510580F00C9472100C94BD105F3F50
:1020C000E4F3983ED4F3869577956795B795F795A1
:1020D000E7959F5FC1F7FE2B880F911D9695879519
:1020E00097F9089597F99F6780E870E060E0089598
:1020F0009FEF80EC089500240A9416161706180620
:102100000906089500240A941216130614060506FB
:102110000895092E0394000C11F4882352F0BB0F8C
:1021200040F4BF2B11F460FF04C06F5F7F4F8F4FEF
:102130009F4F089557FD9058440F551F59F05F3F2A
:1021400071F04795880F97FB991F61F09F3F79F0D9
:1021500087950895121613061406551FF2CF46955B
:10216000F1DF08C0161617061806991FF1CF8695DD
:102170007105610508940895E894BB2766277727C1
:10218000CB0197F908952F923F924F925F926F92F1
:102190007F928F929F92AF92BF92CF92DF92EF92F7
:1021A000FF920F931F93CF93DF93CDB7DEB7CA1B78
:1021B000DB0B0FB6F894DEBF0FBECDBF09942A88A3
:1021C000398848885F846E847D848C849B84AA844B
:1021D000B984C884DF80EE80FD800C811B81AA81D8
:1021E000B981CE0FD11D0FB6F894DEBF0FBECDBFA3
:1021F000ED010895A29FB001B39FC001A39F700D90
:10220000811D1124911DB29F700D811D1124911DFE
:1022100008955058BB27AA270E9421110C948910B9
:102220000E947B1038F00E94821020F039F49F3F0A
:1022300019F426F40C9478100EF4E095E7FB0C9456
:102240007210E92F0E949A1058F3BA1762077307A9
:102250008407950720F079F4A6F50C94BC100EF4D1
:10226000E0950B2EBA2FA02D0B01B90190010C01A6
:10227000CA01A0011124FF27591B99F0593F50F4BE
:10228000503E68F11A16F040A22F232F342F442716
:10229000585FF3CF469537952795A795F04053950E
:1022A000C9F77EF41F16BA0B620B730B840BBAF0DE
:1022B0009150A1F0FF0FBB1F661F771F881FC2F749
:1022C0000EC0BA0F621F731F841F48F4879577955D
:1022D0006795B795F7959E3F08F0B0CF9395880F17
:1022E00008F09927EE0F9795879508950E948A1117
:1022F0000C9489100E94821058F00E947B1040F0CC
:1023000029F45F3F29F00C94721051110C94BD1008
:102310000C9478100E949A1068F39923B1F3552316
:1023200091F3951B550BBB27AA27621773078407E8
:1023300038F09F5F5F4F220F331F441FAA1FA9F37E
:1023400035D00E2E3AF0E0E832D091505040E6956C
:10235000001CCAF72BD0FE2F29D0660F771F881FCD
:10236000BB1F261737074807AB07B0E809F0BB0BC0
:10237000802DBF01FF2793585F4F3AF09E3F5105D4
:1023800078F00C9472100C94BD105F3FE4F3983E0B
:10239000D4F3869577956795B795F7959F5FC9F7BD
:1023A000880F911D9695879597F90895E1E0660F3E
:1023B000771F881FBB1F621773078407BA0720F0B7
:1023C000621B730B840BBA0BEE1F88F7E095089520
:1023D0000E94EF116894B1110C94BD1008950E94F1
:1023E000A21088F09F5798F0B92F9927B751B0F0F5
:1023F000E1F0660F771F881F991F1AF0BA95C9F789
:1024000014C0B13091F00E94BC10B1E008950C945A
:10241000BC10672F782F8827B85F39F0B93FCCF30D
:10242000869577956795B395D9F73EF49095809505
:10243000709561957F4F8F4F9F4F089597FB072EA3
:1024400016F4009407D077FD09D00E947A1207FC99
:1024500005D03EF4909581959F4F089570956195B4
:102460007F4F0895A1E21A2EAA1BBB1BFD010DC0D0
:10247000AA1FBB1FEE1FFF1FA217B307E407F50734
:1024800020F0A21BB30BE40BF50B661F771F881F10
:10249000991F1A9469F760957095809590959B01A6
:1024A000AC01BD01CF010895052E97FB1EF40094E9
:1024B0000E946B1257FD07D00E94321207FC03D016
:1024C0004EF40C946B1250954095309521953F4FEA
:1024D0004F4F5F4F089590958095709561957F4F10
:1024E0008F4F9F4F08950E94FA10B7FF0895821BE7
:1024F000930B0895AA1BBB1B51E107C0AA1FBB1F6A
:10250000A617B70710F0A61BB70B881F991F5A957F
:10251000A9F780959095BC01CD010895EE0FFF1F9E
:102520000590F491E02D09940F931F93CF93DF93BF
:102530008230910510F482E090E0E0919802F091F1
:10254000990230E020E0B0E0A0E0309799F4211546
:10255000310509F44AC0281B390B24303105D8F560
:102560008A819B816115710589F1FB0193838283C7
:10257000FE0111C040815181028113814817590722
:10258000E0F04817590799F4109761F012960C93F0
:10259000129713961C933296CF01DF91CF911F9122
:1025A0000F9108950093980210939902F4CF21158A
:1025B000310551F04217530738F0A901DB019A01A8
:1025C000BD01DF01F801C1CFEF01F9CF909399026E
:1025D00080939802CDCFFE01E20FF31F8193919378
:1025E0002250310939832883D7CF20919602309128
:1025F0009702232B41F42091030130910401309381
:102600009702209396022091010130910201211539
:10261000310541F42DB73EB74091050150910601B7
:10262000241B350BE0919602F0919702E217F30715
:10263000A0F42E1B3F0B2817390778F0AC014E5F32
:102640005F4F2417350748F04E0F5F1F50939702D6
:1026500040939602819391939FCFF0E0E0E09CCF6E
:10266000CF93DF930097E9F0FC0132971382128237
:10267000A0919802B0919902ED0130E020E010970E
:10268000A1F420813181820F931F20919602309115
:1026900097022817390709F061C0F0939702E09379
:1026A0009602DF91CF910895EA01CE17DF07E8F592
:1026B0004A815B819E0141155105B1F7E901FB8318
:1026C000EA8349915991C40FD51FEC17FD0761F4B6
:1026D000808191810296840F951FE90199838883F7
:1026E000828193819B838A83F0E0E0E012968D9152
:1026F0009C9113970097B9F52D913C911197CD01BD
:102700000296820F931F209196023091970228170C
:10271000390739F6309751F51092990210929802C4
:10272000B0939702A0939602BCCFD383C28340811B
:102730005181840F951FC817D90761F44E5F5F4F11
:1027400088819981480F591F518340838A819B81D9
:10275000938382832115310509F0B0CFF09399025C
:10276000E09398029ECFFD01DC01C0CF138212825C
:10277000D7CFB0E0A0E0EFEBF3E10C94C5108C01F3
:10278000009751F4CB010E9494128C01C801CDB77F
:10279000DEB7E0E10C94E110FC01E60FF71F9C01AD
:1027A00022503109E217F30708F49DC0D901CD91F9
:1027B000DC911197C617D70798F0C530D10530F3D3
:1027C000CE0104978617970708F3C61BD70B2297ED
:1027D000C193D1936D937C93CF010E943013D6CFD8
:1027E0005B01AC1ABD0A4C018C0E9D1EA091980293
:1027F000B0919902512C412CF12CE12C109731F51C
:1028000080919602909197028815990509F05CC015
:102810004616570608F058C08091010190910201B8
:10282000009741F48DB79EB7409105015091060184
:10283000841B950BE817F90708F055C0F093970231
:10284000E0939602F90171836083A0CF8D919C91F2
:10285000119712966C90129713967C901397A81567
:10286000B90559F56C0142E0C40ED11CCA14DB0451
:1028700020F1AC014A195B09DA011296159780F034
:102880006282738251834083D9016D937C93E114FA
:10289000F10471F0D7011396FC93EE93129776CF63
:1028A00022968C0F9D1FF90191838083F301EFCF56
:1028B000F0939902E093980269CF4816590608F4FC
:1028C0002C017D01D3019ACFCB010E9494127C018F
:1028D000009749F0AE01B8010E947614C8010E9429
:1028E0003013870153CF10E000E050CFFB01DC0133
:1028F00002C001900D9241505040D8F70895FB015D
:10290000DC018D91019080190110D9F3990B089584
:10291000FB01DC0101900D920020E1F7089510E029
:10292000C3E6D0E004C0FE010E948E122196C43698
:08293000D107C9F7F894FFCFAD
:10293800FF00009A0280000601C400C400DC00C445
:10294800000000F700060104000800080004000465
:102958000004000400040000000000000000000063
:1029680000630000400000000000000000000000BC
:102978000000000000000000777C395E7971357630
:10298800061E753837545C737B506D781C3E7E7616
:102998006E1B0000000108005F7C585E7971357479
:1029A8000416753837545C7367506D781C3E2A7668
:1029B8006E1B3F065B4F666D7D077F6F777C395EC8
:1029C80079710000000031019100BE007E01EF0026
:1029D800CD00E100000000004506E205FB034F4E74
:0A29E800004C494E4B004F464600DC
:107E0000112484B714BE81FFF0D085E080938100F7
:107E100082E08093C00088E18093C10086E0809377
:107E2000C20080E18093C4008EE0C9D0259A86E02C
:107E300020E33CEF91E0309385002093840096BBD3
:107E4000B09BFECF1D9AA8958150A9F7CC24DD24C4
:107E500088248394B5E0AB2EA1E19A2EF3E0BF2EE7
:107E6000A2D0813461F49FD0082FAFD0023811F036
:107E7000013811F484E001C083E08DD089C08234E0
:107E800011F484E103C0853419F485E0A6D080C0E4
:107E9000853579F488D0E82EFF2485D0082F10E0AE
:107EA000102F00270E291F29000F111F8ED06801E7
:107EB0006FC0863521F484E090D080E0DECF843638
:107EC00009F040C070D06FD0082F6DD080E0C81688
:107ED00080E7D80618F4F601B7BEE895C0E0D1E017
:107EE00062D089930C17E1F7F0E0CF16F0E7DF06D8
:107EF00018F0F601B7BEE89568D007B600FCFDCFD4
:107F0000A601A0E0B1E02C9130E011968C91119780
:107F100090E0982F8827822B932B1296FA010C0160
:107F200087BEE89511244E5F5F4FF1E0A038BF0790
:107F300051F7F601A7BEE89507B600FCFDCF97BE46
:107F4000E89526C08437B1F42ED02DD0F82E2BD052
:107F50003CD0F601EF2C8F010F5F1F4F84911BD097
:107F6000EA94F801C1F70894C11CD11CFA94CF0C13
:107F7000D11C0EC0853739F428D08EE10CD085E9AC
:107F80000AD08FE07ACF813511F488E018D01DD067
:107F900080E101D065CF982F8091C00085FFFCCF94
:107FA0009093C60008958091C00087FFFCCF809118
:107FB000C00084FD01C0A8958091C6000895E0E648
:107FC000F0E098E1908380830895EDDF803219F02E
:107FD00088E0F5DFFFCF84E1DECF1F93182FE3DFCA
:107FE0001150E9F7F2DF1F91089580E0E8DFEE27F6
:047FF000FF270994CA
:027FFE00040479
:0400000300007E007B
:00000001FF
