:100000000C9462000C948A000C948A000C948A0070
:100010000C948A000C948A000C948A000C948A0038
:100020000C948A000C948A000C948A000C948A0028
:100030000C948A000C948A000C948A000C948A0018
:100040000C9478040C948A000C9446040C942004BC
:100050000C948A000C948A000C948A000C948A00F8
:100060000C948A000C948A000000000024002700F1
:100070002A0000000000250028002B0000000000DE
:1000800023002600290004040404040404040202DA
:100090000202020203030303030301020408102007
:1000A0004080010204081020010204081020000012
:1000B0000008000201000003040700000000000027
:1000C0000000C20411241FBECFEFD8E0DEBFCDBFB9
:1000D00011E0A0E0B1E0E8E3F4E102C005900D9288
:1000E000A638B107D9F722E0A6E8B1E001C01D9219
:1000F000AC33B207E1F710E0C2E6D0E004C02197CC
:10010000FE010E94140AC136D107C9F70E940405F6
:100110000C941A0A0C940000AF92BF92CF92DF9217
:10012000EF92FF920F931F93CF93DF936C017B01AC
:100130008B01040F151FEB015E01AE18BF08C0173D
:10014000D10759F06991D601ED91FC910190F081B0
:10015000E02DC6010995892B79F7C501DF91CF9173
:100160001F910F91FF90EF90DF90CF90BF90AF90D5
:100170000895FC01538D448D252F30E0842F90E0AD
:10018000821B930B541710F0CF9608950197089592
:10019000FC01918D828D981761F0A28DAE0FBF2F5B
:1001A000B11D5D968C91928D9F5F9F73928F90E0B1
:1001B00008958FEF9FEF0895FC01918D828D981720
:1001C00031F0828DE80FF11D858D90E008958FEF5D
:1001D0009FEF0895FC01918D228D892F90E0805C26
:1001E0009F4F821B91098F739927089587E991E0AA
:1001F0000E94EA0021E0892B09F420E0822F089573
:1002000080E090E0892B29F00E94F60081110C9487
:1002100000000895FC01A48DA80FB92FB11DA35AA9
:10022000BF4F2C91848D90E001968F739927848F16
:10023000A689B7892C93A089B1898C918370806439
:100240008C93938D848D981306C00288F389E02DDA
:1002500080818F7D80830895EF92FF920F931F938B
:10026000CF93DF93EC0181E0888F9B8D8C8D981369
:100270001AC0E889F989808185FF15C09FB7F89475
:10028000EE89FF896083E889F989808183708064C1
:1002900080839FBF81E090E0DF91CF911F910F910C
:1002A000FF90EF900895F62E0B8D10E00F5F1F4F1B
:1002B0000F731127E02E8C8D8E110CC00FB607FC2A
:1002C000FACFE889F989808185FFF5CFCE010E94B8
:1002D0000A01F1CFEB8DEC0FFD2FF11DE35AFF4F1B
:1002E000F0829FB7F8940B8FEA89FB898081806246
:1002F000CFCFCF93DF93EC01888D8823B9F0AA8903
:10030000BB89E889F9898C9185FD03C0808186FDD0
:100310000DC00FB607FCF7CF8C9185FFF2CF80811F
:1003200085FFEDCFCE010E940A01E9CFDF91CF9189
:100330000895833081F028F4813099F08230A9F05B
:1003400008958730A9F08830C9F08430B1F48091E5
:1003500080008F7D03C0809180008F778093800024
:10036000089584B58F7784BD089584B58F7DFBCFC4
:100370008091B0008F778093B00008958091B00095
:100380008F7DF9CFCF93DF93282F30E0F901E2552D
:10039000FF4F8491F901E656FF4FD491F901EA57D6
:1003A000FF4FC491CC23A1F081110E949901EC2F41
:1003B000F0E0EE0FFF1FE458FF4FA591B491EC91D0
:1003C000ED2381E090E009F480E0DF91CF91089582
:1003D00080E090E0FACF1F93CF93DF93282F30E097
:1003E000F901E255FF4F8491F901E656FF4FD49190
:1003F000F901EA57FF4FC491CC23A9F0162F8111C0
:100400000E949901EC2FF0E0EE0FFF1FEE58FF4F16
:10041000A591B4918FB7F894EC91111108C0D095C3
:10042000DE23DC938FBFDF91CF911F910895DE2BE8
:10043000F8CFCF93DF93C4E3D2E061E08E810E94D6
:10044000EB0161E08F810E94EB0160E08F810E94EF
:10045000EB0160E08E81DF91CF910C94EB01CF93A3
:10046000DF93C4E3D2E060E08E810E94EB0160E0A4
:100470008F810E94EB0161E08E810E94EB0161E0BF
:100480008F81DF91CF910C94EB01CF93DF9390E0BC
:10049000FC01E656FF4F24918A579F4FFC0184913F
:1004A0008823D1F090E0880F991FFC01E859FF4F95
:1004B000A591B491FC01EE58FF4FC591D491611103
:1004C0000EC09FB7F8948C91E22FE0958E238C9309
:1004D0002881E223E8839FBFDF91CF9108958FB7F2
:1004E000F894EC91E22BEC938FBFF6CF0F931F9310
:1004F000CF93DF93D82FC8E060E080913A020E944A
:10050000EB010D2F0D2E000C110B61E0D0FF60E010
:1005100080913B020E94EB0115950795D02F61E079
:1005200080913A020E94EB01C15031F760E0809166
:100530003A020E94EB0161E080913B020E94EB01D4
:1005400061E080913A020E94EB0160E080913B0201
:100550000E94450283EC90E00197F1F780913B0205
:100560000E94C2018C0181110AC061E080913B02AE
:100570000E94450260E080913B020E94EB01C3ECC7
:10058000D0E0CE010197F1F761E080913B020E943B
:1005900045022197F1F7C8019927DF91CF911F916B
:1005A0000F910895CF93DF93D82FE62F6F37D9F1AE
:1005B000603140F50E2E000CFF0BE55AFE4F808196
:1005C00090913702C0E09111C0E8C80F0E94190253
:1005D00084E40E9476020E942F020E9419028D2F4D
:1005E000806C0E9476028C2F0E9476020E942F025D
:1005F0000E941902809136020E947602DF91CF910B
:100600000C942F0280ED860F8A3030F40E2E000CF1
:10061000FF0BE55DFE4FD3CFE052EB3520F4F0E069
:10062000E050FF4FCCCF80E0CBCF1F93CF93DF9331
:10063000182FEB0161E00E944502209739F460E039
:10064000812FDF91CF911F910C94EB01CF3FD1050A
:1006500011F461E0F5CFE12FF0E0E255FF4FE491B6
:10066000E33031F140F4E130B1F0E230E1F0C03894
:10067000D1057CF7E4CFE73029F1E83059F1E430D7
:10068000B1F780918000806280938000D0938B00CE
:10069000C0938A0004C084B5806884BDC7BDDF9163
:1006A000CF911F91089584B5806284BDC8BDF7CFF6
:1006B00080918000806880938000D0938900C093EF
:1006C0008800EDCF8091B00080688093B000C09327
:1006D000B300E5CF8091B00080628093B000C093FA
:1006E000B400DDCF3FB7F8948091870190918801E5
:1006F000A0918901B0918A0126B5A89B05C02F3F22
:1007000019F00196A11DB11D3FBFBA2FA92F982F37
:100710008827BC01CD01620F711D811D911D42E032
:10072000660F771F881F991F4A95D1F708958F92FA
:100730009F92AF92BF92CF92DF92EF92FF926B01A6
:100740007C010E9472034B015C01C114D104E104DD
:10075000F104B9F00E947203681979098A099B09AA
:10076000683E73408105910580F321E0C21AD108EB
:10077000E108F10888EE880E83E0981EA11CB11CE8
:10078000E4CFFF90EF90DF90CF90BF90AF909F901D
:100790008F900895EF92FF920F931F93CF93DF9363
:1007A0007C0110E000E0E70109900020E9F72197C3
:1007B000CE19DF0980913802909139020C171D077C
:1007C00058F508171907F4F064EF71E080E090E045
:1007D0000E949703D0E0C0E09E0180913802909182
:1007E0003902219628173907A4F4F801EC0FFD1FF0
:1007F000E81BF90BEE0DFF1D60818C2F81500E94CC
:10080000D202EACFF701E00FF11F6081802F0E9432
:10081000D2020F5F1F4FC7CF8091380290913902EB
:10082000C817D90734F46FE78C2F0E94D2022196A3
:10083000F3CFDF91CF911F910F91FF90EF9008952B
:100840001F920F920FB60F9211242F933F934F9345
:100850005F936F937F938F939F93AF93BF93EF9328
:10086000FF9387E991E00E940A01FF91EF91BF9108
:10087000AF919F918F917F916F915F914F913F9138
:100880002F910F900FBE0F901F9018951F920F92EF
:100890000FB60F9211242F938F939F93EF93FF9393
:1008A000E091A701F091A8018081E091AD01F09164
:1008B000AE0182FD1BC090818091B0018F5F8F736C
:1008C0002091B101821741F0E091B001F0E0E956CA
:1008D000FE4F958F8093B001FF91EF919F918F9183
:1008E0002F910F900FBE0F901F9018958081F4CF1D
:1008F0001F920F920FB60F9211242F933F938F9355
:100900009F93AF93BF9380918B0190918C01A091A5
:100910008D01B0918E013091860123E0230F2D3798
:1009200058F50196A11DB11D2093860180938B017E
:1009300090938C01A0938D01B0938E0180918701DB
:1009400090918801A0918901B0918A010196A11D21
:10095000B11D8093870190938801A0938901B09382
:100960008A01BF91AF919F918F913F912F910F90ED
:100970000FBE0F901F90189526E8230F0296A11D19
:10098000B11DD2CFCF93DF93E7E9F1E0138212825A
:1009900088EE93E0A0E0B0E084839583A683B783DC
:1009A0008FE691E09183808385EC90E09587848742
:1009B00084EC90E09787868780EC90E0918B808B29
:1009C00081EC90E0938B828B82EC90E0958B848B12
:1009D00086EC90E0978B868B118E128E138E148E80
:1009E000C4E3D2E084E090E09D838C8381E18E8338
:1009F00080E18F8361E081E10E94450261E08F81A7
:100A0000DF91CF910C944502CF93DF9300D000D0BB
:100A10001F92CDB7DEB7789484B5826084BD84B56B
:100A2000816084BD85B5826085BD85B5816085BDE9
:100A300080916E00816080936E00109281008091A1
:100A40008100826080938100809181008160809329
:100A50008100809180008160809380008091B1004E
:100A600084608093B1008091B00081608093B00079
:100A700080917A00846080937A0080917A0082600D
:100A800080937A0080917A00816080937A008091CF
:100A90007A00806880937A001092C100E091A701EB
:100AA000F091A80182E08083E091A301F091A4017C
:100AB0001082E091A501F091A6018FEC8083109245
:100AC000AF01E091AB01F091AC0186E08083E09151
:100AD000A901F091AA01808180618083E091A90140
:100AE000F091AA01808188608083E091A901F09152
:100AF000AA01808180688083E091A901F091AA0118
:100B000080818F7D808360E082E00E94450261E009
:100B100082E00E94EB0161E088E00E9445026FE7FD
:100B200080E00E94D2026FE781E00E94D2026FE76C
:100B300082E00E94D2026FE783E00E94D20280E44A
:100B40008093340280EC809335028FE880933602E4
:100B50001A82198202ED14E06AE0E62EF12C20914F
:100B600038023091390289819A8182179307DCF427
:100B7000281B390B215031096FE70115110529F0A8
:100B8000C801B7010E94EC09682F822F0E94D2028F
:100B9000C801B7010E94EC098B0189819A810196F5
:100BA0009A838983DCCF1092370264EF71E080E092
:100BB00090E00E9497031A8219820EE216E15AE031
:100BC000E52EF12C209138023091390289819A81E9
:100BD00082179307DCF4281B390B215031096FE78A
:100BE0000115110529F0C801B7010E94EC09682F11
:100BF000822F0E94D202C801B7010E94EC098B012A
:100C000089819A8101969A838983DCCF1092370279
:100C100064EF71E080E090E00E9497038DE791E03F
:100C20000E94CA0364EF71E080E090E00E949703A5
:100C300081E891E00E94CA0364EF71E080E090E0F7
:100C40000E94970342E0A42EB12C8FB7F894C09075
:100C50008B01D0908C01E0908D01F0908E018FBFC0
:100C600082E00E94C2012091950130919601009787
:100C700009F0BBC02115310509F0B7C0C092910140
:100C8000D0929201E0929301F092940181E090E081
:100C9000909396018093950180919101909192019A
:100CA000A0919301B0919401C81AD90AEA0AFB0AEB
:100CB00099EBC9169BE0D906E104F10450F080914C
:100CC000950190919601019721F4B0929601A0921E
:100CD00095018091950190919601029721F41092CF
:100CE000960110929501C0908F01D09090018FEFE6
:100CF000C816D10409F00CF484C0B6016F5F710905
:100D0000072E000C880B990B0E94CF0820E030E0E2
:100D10004FE753E40E94250820E030E044EB53E421
:100D20000E947F092B013C0120E030E044EB53E4BA
:100D30000E942008811103C0412C512C320120E077
:100D400030E040E752E4C301B2010E9425082B01C4
:100D50003C010E9497084B01072E000C880B990B51
:100D60000E94CF089B01AC01C301B2010E94B307EE
:100D70009B01AC0160E070E080E89FE30E94B30754
:100D800069837A838B839C832DEC3CEC4CE45DE39C
:100D90000E947F092B017C0129813A814B815C8172
:100DA00060E070E080E89FE30E94B3072DEC3CEC2C
:100DB0004CE45DE30E947F098B018D83998392E06F
:100DC0008916910409F440C014F58114910479F155
:100DD0008A94892809F4BCC0612C712C812C912C37
:100DE00000E010E01D82198238C02130310509F081
:100DF00053CF019709F050CF1092960110929501B0
:100E00004BCFB6010D2C000C880B990B7DCF84E0E5
:100E10008816910499F134F185E088169104E1F681
:100E20003201470100E010E01D82198204C0612CEC
:100E3000712C812C912C4DEC442E5CEC552E6CE4E5
:100E4000E62E7DE3F72E29C038018D8099800DECC8
:100E50001CEC9CE49D838DE38983412C512CE12C77
:100E6000F12C1BC08201ED82F9828DEC682E9CEC86
:100E7000792E2CE4822E3DE3932EEFCF2801ED80D6
:100E8000F980EDEC6E2EFCEC7F2EACE48A2EBDE3F7
:100E90009B2E00E010E01D82198220E030E04FE739
:100EA00053E4B201C7010E947F090E9497082B01F9
:100EB0003324222420E030E04FE753E4B8018D8151
:100EC00099810E947F090E949708982F872F762F7B
:100ED0006627262A372A482A592A20E030E04FE799
:100EE00053E4B301C4010E947F090E9497083201B4
:100EF0002101462A572A682A662D70E08AE00E945E
:100F00001503652D70E08BE00E941503642D70E0E1
:100F100089E00E941503C60101966EEF71E00E9400
:100F2000EC099093900180938F016AE070E080E07B
:100F300090E00E94970380E090E0892B09F485CE31
:100F40000E94F600882309F480CE0E9400007DCE26
:100F5000612C712C812C912C0DEC1CEC9CE49D835C
:100F60008DE389839ACF5058BB27AA270E94CB07CD
:100F70000C9445090E94370938F00E943E0920F080
:100F800039F49F3F19F426F40C9434090EF4E095DB
:100F9000E7FB0C942E09E92F0E94560958F3BA1763
:100FA000620773078407950720F079F4A6F50C947F
:100FB00078090EF4E0950B2EBA2FA02D0B01B90184
:100FC00090010C01CA01A0011124FF27591B99F0BF
:100FD000593F50F4503E68F11A16F040A22F232FCB
:100FE000342F4427585FF3CF469537952795A7951B
:100FF000F0405395C9F77EF41F16BA0B620B730BC2
:10100000840BBAF09150A1F0FF0FBB1F661F771F32
:10101000881FC2F70EC0BA0F621F731F841F48F4E7
:10102000879577956795B795F7959E3F08F0B0CF70
:101030009395880F08F09927EE0F97958795089557
:101040000E940A0908F481E008950E9439080C946E
:1010500045090E943E0958F00E94370940F029F4E2
:101060005F3F29F00C942E0951110C9479090C94CE
:1010700034090E94560968F39923B1F3552391F37B
:10108000951B550BBB27AA2762177307840738F0F7
:101090009F5F5F4F220F331F441FAA1FA9F335D054
:1010A0000E2E3AF0E0E832D091505040E695001C08
:1010B000CAF72BD0FE2F29D0660F771F881FBB1FC2
:1010C000261737074807AB07B0E809F0BB0B802DA0
:1010D000BF01FF2793585F4F3AF09E3F510578F0CC
:1010E0000C942E090C9479095F3FE4F3983ED4F3F5
:1010F000869577956795B795F7959F5FC9F7880FA0
:10110000911D9695879597F90895E1E0660F771FF1
:10111000881FBB1F621773078407BA0720F0621B82
:10112000730B840BBA0BEE1F88F7E09508950E94AD
:101130009E086894B1110C94790908950E945E0983
:1011400088F09F5798F0B92F9927B751B0F0E1F088
:10115000660F771F881F991F1AF0BA95C9F714C038
:10116000B13091F00E947809B1E008950C947809AB
:10117000672F782F8827B85F39F0B93FCCF3869571
:1011800077956795B395D9F73EF4909580957095CE
:1011900061957F4F8F4F9F4F0895E89409C097FB4B
:1011A0003EF490958095709561957F4F8F4F9F4F3E
:1011B0009923A9F0F92F96E9BB279395F695879582
:1011C00077956795B795F111F8CFFAF4BB0F11F445
:1011D00060FF1BC06F5F7F4F8F4F9F4F16C08823EC
:1011E00011F096E911C0772321F09EE8872F762F22
:1011F00005C0662371F096E8862F70E060E02AF063
:101200009A95660F771F881FDAF7880F969587954E
:1012100097F90895990F0008550FAA0BE0E8FEEF23
:1012200016161706E807F907C0F012161306E407AA
:10123000F50798F0621B730B840B950B39F40A26A3
:1012400061F0232B242B252B21F408950A2609F481
:10125000A140A6958FEF811D811D089597F99F6785
:1012600080E870E060E008959FEF80EC089500242E
:101270000A941616170618060906089500240A94FB
:1012800012161306140605060895092E0394000C81
:1012900011F4882352F0BB0F40F4BF2B11F460FF10
:1012A00004C06F5F7F4F8F4F9F4F089557FD905839
:1012B000440F551F59F05F3F71F04795880F97FB1A
:1012C000991F61F09F3F79F08795089512161306D4
:1012D0001406551FF2CF4695F1DF08C01616170603
:1012E0001806991FF1CF8695710561050894089538
:1012F000E894BB2766277727CB0197F908950E94CA
:1013000092090C9445090E94370938F00E943E0961
:1013100020F0952311F00C942E090C94340911241B
:101320000C9479090E94560970F3959FC1F3950FAB
:1013300050E0551F629FF001729FBB27F00DB11D59
:10134000639FAA27F00DB11DAA1F649F6627B00DE9
:10135000A11D661F829F2227B00DA11D621F739FD2
:10136000B00DA11D621F839FA00D611D221F749FE0
:101370003327A00D611D231F849F600D211D822F27
:10138000762F6A2F11249F5750409AF0F1F088234E
:101390004AF0EE0FFF1FBB1F661F771F881F91507B
:1013A0005040A9F79E3F510580F00C942E090C94F3
:1013B00079095F3FE4F3983ED4F386957795679576
:1013C000B795F795E7959F5FC1F7FE2B880F911DA5
:1013D0009695879597F9089597FB072E16F4009434
:1013E00007D077FD09D00E94000A07FC05D03EF423
:1013F000909581959F4F0895709561957F4F0895C1
:10140000AA1BBB1B51E107C0AA1FBB1FA617B7072A
:1014100010F0A61BB70B881F991F5A95A9F7809546
:101420009095BC01CD010895EE0FFF1F0590F4913A
:08143000E02D0994F894FFCFB0
:101438000000000000000000000063000040000001
:101448000000000000000000000000000000000094
:1014580000777C395E79713576061E753837545CAD
:10146800737B506D781C3E7E766E1B000000010871
:10147800005F7C585E797135740416753837545C92
:101488007367506D781C3E2A766E1B3F065B4F666D
:101498006D7D077F6F777C395E7971000000002CC5
:1014A800018C00B9007901EA00C800DC00504F50F7
:0614B80000205550000069
:00000001FF
