:100000000C9464000C948C000C948C000C948C0068
:100010000C948C000C948C000C948C000C9475083F
:100020000C948C000C948C000C948C000C948C0020
:100030000C948C000C948C000C948C000C948C0010
:100040000C9429090C948C000C94F7080C94D1089A
:100050000C948C000C948C000C948C000C948C00F0
:100060000C948C000C948C000000000023002600EF
:10007000290000000008000201000003040700003E
:1000800000000000000000000000240027002A00FB
:10009000010204081020408001020408102001021F
:1000A0000408102000000000250028002B00040494
:1000B0000404040404040202020202020303030310
:1000C0000303020073094D1011241FBECFEFD8E0C7
:1000D000DEBFCDBF22E0ACEFB1E001C01D92A83D74
:1000E000B207E1F711E0A0E0B1E0EEEEFAE202C003
:1000F00005900D92AC3FB107D9F710E0C3E6D0E010
:1001000004C02197FE010E946A13C236D107C9F7C5
:100110000E94C5090C946A150C9400008CBD9DBD0D
:100120000895AF92BF92CF92DF92EF92FF920F931A
:100130001F93CF93DF936C017B018B01040F151F7D
:10014000EB015E01AE18BF08C017D10759F06991E5
:10015000D601ED91FC910190F081E02DC601099549
:10016000892B79F7C501DF91CF911F910F91FF90F6
:10017000EF90DF90CF90BF90AF900895FC01538D2A
:10018000448D252F30E0842F90E0821B930B541771
:1001900010F0CF96089501970895FC01918D828DFE
:1001A000981761F0A28DAE0FBF2FB11D5D968C9197
:1001B000928D9F5F9F73928F90E008958FEF9FEFD6
:1001C0000895FC01918D828D981731F0828DE80F92
:1001D000F11D858D90E008958FEF9FEF0895FC014C
:1001E000918D228D892F90E0805C9F4F821B910919
:1001F0008F739927089589E192E00E94EF0021E032
:10020000892B09F420E0822F089580E090E0892B6B
:1002100029F00E94FB0081110C9400000895FC015C
:10022000A48DA80FB92FB11DA35ABF4F2C91848D57
:1002300090E001968F739927848FA689B7892C93B4
:10024000A089B1898C91837080648C93938D848D07
:10025000981306C00288F389E02D80818F7D80830A
:100260000895EF92FF920F931F93CF93DF93EC01CA
:1002700081E0888F9B8D8C8D98131AC0E889F9894D
:10028000808185FF15C09FB7F894EE89FF89608350
:10029000E889F98980818370806480839FBF81E0D1
:1002A00090E0DF91CF911F910F91FF90EF90089513
:1002B000F62E0B8D10E00F5F1F4F0F731127E02EEE
:1002C0008C8D8E110CC00FB607FCFACFE889F98926
:1002D000808185FFF5CFCE010E940F01F1CFEB8D1C
:1002E000EC0FFD2FF11DE35AFF4FF0829FB7F894FA
:1002F0000B8FEA89FB8980818062CFCFCF93DF9318
:10030000EC01888D8823B9F0AA89BB89E889F9892D
:100310008C9185FD03C0808186FD0DC00FB607FC62
:10032000F7CF8C9185FFF2CF808185FFEDCFCE0195
:100330000E940F01E9CFDF91CF910895833081F0C2
:1003400028F4813099F08230A9F008958730A9F01F
:100350008830C9F08430B1F4809180008F7D03C073
:10036000809180008F7780938000089584B58F7787
:1003700084BD089584B58F7DFBCF8091B0008F77C9
:100380008093B00008958091B0008F7DF9CFCF9316
:10039000DF93282F30E0F901EE58FF4F8491F901E7
:1003A000E057FF4FD491F901E255FF4FC491CC23A0
:1003B000A1F081110E949E01EC2FF0E0EE0FFF1FD3
:1003C000E859FF4FA591B491EC91ED2381E090E0C5
:1003D00009F480E0DF91CF91089580E090E0FACFBA
:1003E0001F93CF93DF93282F30E0F901EE58FF4F92
:1003F0008491F901E057FF4FD491F901E255FF4F85
:10040000C491CC23A9F0162F81110E949E01EC2FDC
:10041000F0E0EE0FFF1FEC55FF4FA591B4918FB7A1
:10042000F894EC91111108C0D095DE23DC938FBFB6
:10043000DF91CF911F910895DE2BF8CFCF93DF93FB
:10044000CCEBD2E061E08E810E94F00161E08F810F
:100450000E94F00160E08F810E94F00160E08E81D7
:10046000DF91CF910C94F001CF93DF93CCEBD2E0EE
:1004700060E08E810E94F00160E08F810E94F001B7
:1004800061E08E810E94F00161E08F81DF91CF9168
:100490000C94F0019091000189130BC0E2ECF0E0A4
:1004A000E4919FEF90930001E13049F028F0E230B1
:1004B00061F060E00C94F00110926E00FACF909120
:1004C0006F009D7F90936F00F4CF909170009D7F9F
:1004D0009093700091E09093B0009091B100987F5C
:1004E00094609093B1001092B300E3CFCF93DF9369
:1004F00090E0FC01E057FF4F249182559F4FFC0193
:1005000084918823D1F090E0880F991FFC01EA576D
:10051000FF4FA591B491FC01EC55FF4FC591D491CB
:1005200061110EC09FB7F8948C91E22FE0958E2355
:100530008C932881E223E8839FBFDF91CF910895B8
:100540008FB7F894EC91E22BEC938FBFF6CF0F931B
:100550001F93CF93DF93D82FC8E060E08091C20251
:100560000E94F0010D2F0D2E000C110B61E0D0FF49
:1005700060E08091C3020E94F00115950795D02F8D
:1005800061E08091C2020E94F001C15031F760E049
:100590008091C2020E94F00161E08091C3020E943A
:1005A000F00161E08091C2020E94F00160E0809160
:1005B000C3020E94760283EC90E00197F1F78091EC
:1005C000C3020E94C7018C0181110AC061E08091C1
:1005D000C3020E94760260E08091C3020E94F00193
:1005E000C3ECD0E0CE010197F1F761E08091C30246
:1005F0000E9476022197F1F7C8019927DF91CF91E8
:100600001F910F910895CF93DF93D82FE62F6F3767
:10061000D9F1603140F50E2E000CFF0BEE57FE4F66
:1006200080819091BF02C0E09111C0E8C80F0E9484
:100630001E0284E40E94A7020E9434020E941E024D
:100640008D2F806C0E94A7028C2F0E94A7020E940F
:1006500034020E941E028091BE020E94A702DF9116
:10066000CF910C94340280ED860F8A3030F40E2E38
:10067000000CFF0BEE5AFE4FD3CFE052EB3520F4C7
:10068000F0E0E95DFE4FCCCF80E0CBCF1F93CF935E
:10069000DF93182FEB0161E00E947602209739F476
:1006A00060E0812FDF91CF911F910C94F001CF3F3B
:1006B000D10511F461E0F5CFE12FF0E0EE58FF4FE6
:1006C000E491E33031F140F4E130B1F0E230E1F0B7
:1006D000C038D1057CF7E4CFE73029F1E83059F193
:1006E000E430B1F780918000806280938000D093E5
:1006F0008B00C0938A0004C084B5806884BDC7BDE8
:10070000DF91CF911F91089584B5806284BDC8BDEB
:10071000F7CF80918000806880938000D09389001B
:10072000C0938800EDCF8091B00080688093B000C6
:10073000C093B300E5CF8091B00080628093B00099
:10074000C093B400DDCF3FB7F8948091010290913F
:100750000202A0910302B091040226B5A89B05C035
:100760002F3F19F00196A11DB11D3FBFBA2FA92F30
:10077000982F8827BC01CD01620F711D811D911D2D
:1007800042E0660F771F881F991F4A95D1F7089599
:100790008F929F92AF92BF92CF92DF92EF92FF9291
:1007A0006B017C010E94A3034B015C01C114D104C5
:1007B000E104F104B9F00E94A303681979098A09D8
:1007C0009B09683E73408105910580F321E0C21AC0
:1007D000D108E108F10888EE880E83E0981EA11C7C
:1007E000B11CE4CFFF90EF90DF90CF90BF90AF901F
:1007F0009F908F900895BC016E5F7F4FDC01ED915B
:10080000FC910190F081E02D40E0099591E081118B
:1008100090E0892F089508958EBD00000DB407FE65
:10082000FDCF8EB50895DF92EF92FF920F931F9345
:10083000CF93DF937C01062FD42E152F83E590E014
:100840000E948E0060E0F70186850E94F00182E13F
:100850000E940C04CD2DD12F0C0F1D2F111DC01780
:10086000D10721F089910E940C04F9CF61E0F701D2
:100870008685DF91CF911F910F91FF90EF90DF90D0
:100880000C94F0011F93CF93DF93EC01162F83E5B7
:1008900090E00E948E0060E08E850E94F001812F22
:1008A00080680E940C0480E00E940C04182F61E014
:1008B0008E850E94F001812FDF91CF911F910895C5
:1008C0000F931F93CF93DF93EC01062F142F83E533
:1008D00090E00E948E0060E08E850E94F001802FE3
:1008E0000E940C04812F0E940C0461E08E85DF9130
:1008F000CF911F910F910C94F001CF92DF92EF9264
:10090000FF920F931F93CF93DF93EC016B01142F92
:10091000790140E062E00E94600444E06AE0CE01B8
:100920000E94600440E864E1CE010E946004A601D8
:10093000612FCE010E94130443E062E0CE010E94C9
:10094000600408E813E16AE0CE010E94420482FFDD
:100950001BC040E062E0CE010E94600464E4CE016E
:100960000E944204F701808362E4CE010E944204A7
:10097000F701818380E0DF91CF911F910F91FF906C
:10098000EF90DF90CF90089501501109E1F683E0D8
:10099000F2CF3F924F925F926F927F928F929F928F
:1009A000AF92BF92CF92DF92EF92FF920F931F937D
:1009B000CF93DF9300D0CDB7DEB74C012B01D42EFF
:1009C000390180E0E114F10411F0F7018081BC2CC1
:1009D000B29490EFB922B80E40E062E0C4010E94E8
:1009E00060044FE768E0C4010E94600440E864E1ED
:1009F000C4010E946004A2016D2DC4010E94130471
:100A00004B2D6AE1C4010E9460044CE062E0C40125
:100A10000E9460046AE1C4010E944204482F4068B9
:100A20006AE1C4010E94600420ED422E27E0522EAC
:100A300068E0C4010E944204982F907309F0B6C088
:100A400080FD04C0F1E04F1A510891F783E094C093
:100A50006114710409F46DC00115110509F469C030
:100A600064E1C4010E944204B82EF80180818B1514
:100A700008F496C0B082BB20E1F183E590E00E94CB
:100A80008E0060E0F40186850E94F001BA9482E94C
:100A90000E940C04CC20B1F08FEF90E09C0102C0CA
:100AA000220F331FCA94E2F7690182E90E940C0405
:100AB0009C2D9095F301208192238C21982B90837B
:100AC000CC24C39423014C0C511CCB1440F482E978
:100AD0000E940C04F20181932F01C394F6CF80E0B1
:100AE0000E940C04F201808361E0F40186850E947B
:100AF000F00168E1C4010E9442048770E114F1042E
:100B000011F0F701808333FC4DC06114710409F4C6
:100B10004BC00115110509F447C0AA2009F444C0CF
:100B2000F8014081413039F4843009F049C08FEF39
:100B300023C080E0E8CF423008F442C0811140C0B9
:100B400042509E012F5F3F4FB301C4010E947D04BC
:100B5000811112C0F8019081690E711CF301329766
:100B60002081998129132CC0F1E06F1A7108F301DB
:100B700020819A81291324C00F900F90DF91CF918B
:100B80001F910F91FF90EF90DF90CF90BF90AF90AB
:100B90009F908F907F906F905F904F903F900895BF
:100BA00084E0EACF82E0E8CF80E0E6CF6CE0C401E9
:100BB0000E944204382E837109F44ACF81E0DCCFD1
:100BC00087E0DACF8F929F92AF92CF92EF92FF920F
:100BD0000F931F93CF93DF9300D000D01F92CDB718
:100BE000DEB74C0182E08D8340E064E2C4010E94E4
:100BF000600440E066E2C4010E94600446E268E4EA
:100C0000C4010E94600486E28B838D818230D8F11A
:100C10006CE1C4010E944204482F4F776CE1C4018B
:100C20000E94600487E08C83A12CC12CCE01049625
:100C30007C018E010B5F1F4F9E012F5F3F4F41E0F4
:100C4000BE016D5F7F4FC4010E94C904982F8111BE
:100C500017C08D818230B9F48C81811114C081E07C
:100C60000F900F900F900F900F90DF91CF911F91E9
:100C70000F91FF90EF90CF90AF909F908F9008953D
:100C800081E0923069F380E0EBCF2F923F924F9258
:100C90005F926F927F928F929F92AF92BF92CF920C
:100CA000DF92EF92FF920F931F93CF93DF93CDB715
:100CB000DEB72D970FB6F894DEBF0FBECDBF16E09E
:100CC000413508F04AC1342E3B014C016CE10E94D1
:100CD0004204482F4F776CE1C4010E94600483E90D
:100CE0008983332029F081E0F3019081953008F465
:100CF00080E022242394B12C9B2D990F990F990FFA
:100D0000D32CD91AD7FCD12C32E0882319F098E8DB
:100D10009B8333E021E09D2D977009F420E09D2D09
:100D2000959595959595290FC9F094E0811193E0DB
:100D3000291708F4922FEB2DF0E03196E60DF71D00
:100D4000232F4191A1E0B0E0AC0FBD1FA20FB11D58
:100D50004C932F5F422F431B491798F3882311F0C0
:100D6000F8E0DF0E8FE18D150CF082C090E79A83DA
:100D70008B819C8189279D8189279E8189278F83EB
:100D80009E01285F3F4F47E0BE016F5F7F4FC40168
:100D90000E947D04182F8111E0C01A86E3E0EB87E2
:100DA000DC86CE0107962C0199E09D87CA844C2DE4
:100DB0004295407F4C0D6AE1C4010E946004A12C61
:100DC000CE010A967C018E01055F1F4F92014D8571
:100DD000BE016F5F7F4FC4010E94C904182F82308B
:100DE00009F065C06CE1C4010E94420485FDB5C0F4
:100DF0008F7109F480E2282F30E04D2DDD0C550B6A
:100E0000421753070CF09DC0D82EE82FE595E595C5
:100E1000E595EF5F982F977081E009F480E0E80F87
:100E200081E090E08C0F9D1F8E0F911DFC012150E1
:100E300031092770332781E090E002C0880F991FA5
:100E40002A95E2F79C018081822B80838BCF85E9F4
:100E50008983332031F081E0F3019081983008F0EC
:100E60004BCF80E049CF87E9898326E0B22EF9CFC6
:100E70009D2D97709A878D2D8595859585958E5F8B
:100E8000282F2295207F290F2A8321E0911101C06C
:100E900020E0280F2D8744244394512C4C0E5D1ED6
:100EA000480E511CE9E0E81BEB87DC867FCF8111FF
:100EB00054C080E2D82E9C8590320CF457CF8B81A1
:100EC000883809F040C083E093E0EB2DF0E03196E4
:100ED000E60DF71D980FA1E0B0E0AC0FBD1FA80F05
:100EE000B11D2C9121938F5F8913F5CFBB84E3E073
:100EF000BE124DC08A8581114AC09E012D5F3F4FB1
:100F000041E0B201C4010E947D04182F811125C067
:100F10009B81F201818198133CC09C81828198134E
:100F200038C0808182FF12C02394F2E02F1609F4AA
:100F30008ECF83E0281609F496CF91E0291609F4A4
:100F4000CECE15E00AC082E094E0BFCFF3018387E4
:100F5000822D880F820D8F5F8083812F2D960FB693
:100F6000F894DEBF0FBECDBFDF91CF911F910F91DF
:100F7000FF90EF90DF90CF90BF90AF909F908F90B9
:100F80007F906F905F904F903F902F90089511E069
:100F9000E4CF17E0E2CFFC0101900020E9F73197A0
:100FA000AF01481B590BBC0189E192E00C94910000
:100FB000FC0180819181009711F00C940C1408952C
:100FC0000F931F93CF93DF93EC0188819981009752
:100FD00059F02A813B812617370730F081E0DF91F5
:100FE000CF911F910F9108958B016F5F7F4F0E94EA
:100FF0009514009759F0998388831B830A832C8169
:101000003D81232B59F7FC011082E8CF80E0E7CF28
:10101000EF92FF920F931F93CF93DF93FB01E0803A
:10102000F180E114F10441F480E0DF91CF911F9150
:101030000F91FF90EF90089504811581011511051E
:10104000B1F0EC018C819D81080F191FB801CE0110
:101050000E94E007882341F3288139818C819D819A
:10106000B701820F931F0E9463151D830C8381E0DB
:10107000DCCFEF92FF920F931F93CF93DF93EC019E
:101080007B018A01BA010E94E00728813981811120
:1010900014C02115310519F0C9010E940C141982E0
:1010A00018821D821C821B821A82CE01DF91CF9191
:1010B0001F910F91FF90EF9008951D830C83B7014E
:1010C000C9010E946315F1CFFC01118210821382C5
:1010D000128215821482FB0101900020E9F73197FA
:1010E000AF01461B570B0C9439081F920F920FB695
:1010F0000F9211242F933F934F935F936F937F939E
:101100008F939F93AF93BF93EF93FF9380910B02C5
:1011100090910C02A0910D02B0910E02892B8A2BA6
:101120008B2BD1F190910602E0910702F091080219
:1011300080818927808380910B0290910C02A0917D
:101140000D02B0910E02181619061A061B069CF421
:1011500080910B0290910C02A0910D02B0910E02B1
:101160000197A109B10980930B0290930C02A093FF
:101170000D02B0930E02FF91EF91BF91AF919F913D
:101180008F917F916F915F914F913F912F910F9030
:101190000FBE0F901F901895809100010E944A0287
:1011A000EACF1F920F920FB60F9211242F933F9305
:1011B0004F935F936F937F938F939F93AF93BF935F
:1011C000EF93FF9389E192E00E940F01FF91EF916D
:1011D000BF91AF919F918F917F916F915F914F914F
:1011E0003F912F910F900FBE0F901F9018951F9257
:1011F0000F920FB60F9211242F938F939F93EF931B
:10120000FF93E0912902F0912A028081E0912F0260
:10121000F091300282FD1BC09081809132028F5F7D
:101220008F7320913302821741F0E0913202F0E097
:10123000E75EFD4F958F80933202FF91EF919F9172
:101240008F912F910F900FBE0F901F901895808156
:10125000F4CF1F920F920FB60F9211242F933F934A
:101260008F939F93AF93BF938091FD019091FE0167
:10127000A091FF01B09100023091FC0123E0230F07
:101280002D3758F50196A11DB11D2093FC018093C7
:10129000FD019093FE01A093FF01B09300028091A5
:1012A000010290910202A0910302B0910402019602
:1012B000A11DB11D8093010290930202A09303022D
:1012C000B0930402BF91AF919F918F913F912F9165
:1012D0000F900FBE0F901F90189526E8230F0296CF
:1012E000A11DB11DD2CFCF93DF93E9E1F2E01382CC
:1012F000128288EE93E0A0E0B0E084839583A68319
:10130000B78386E991E09183808385EC90E09587AF
:10131000848784EC90E09787868780EC90E0918BBF
:10132000808B81EC90E0938B828B82EC90E0958BAC
:10133000848B86EC90E0978B868B118E128E138EA9
:10134000148EE4ECF2E088EA91E0918380838AE0F5
:10135000868789E08787CCEBD2E084E090E09D83AC
:101360008C8381E18E8380E18F8361E081E10E9443
:10137000760261E08F810E9476026EEA71E086EB70
:1013800092E0DF91CF910C946408CF93DF93CDB7B7
:10139000DEB7E7970FB6F894DEBF0FBECDBF7894E7
:1013A00084B5826084BD84B5816084BD85B582606A
:1013B00085BD85B5816085BD80916E00816080931B
:1013C0006E00109281008091810082608093810084
:1013D0008091810081608093810080918000816094
:1013E000809380008091B10084608093B1008091EF
:1013F000B00081608093B00080917A008460809317
:101400007A0080917A00826080937A0080917A00DD
:10141000816080937A0080917A00806880937A005E
:101420001092C100E0912902F0912A0282E08083AB
:10143000E0912502F09126021082E0912702F091BE
:1014400028028FEC808310923102E0912D02F091FE
:101450002E0286E08083E0912B02F0912C028081A5
:1014600080618083E0912B02F0912C028081886062
:101470008083E0912B02F0912C0280818068808330
:10148000E0912B02F0912C0280818F7D808360E0BF
:1014900082E00E9476021FB7F894809105028111C4
:1014A00027C0E8EBF0E08491EAE9F0E09491E82FBE
:1014B000F0E0EE0FFF1FEA57FF4FA591B491EC91BA
:1014C000E92321F461E08AE00E94F00161E08AE012
:1014D0000E9476028CB580618CBD8CB580648CBD19
:1014E00061E08DE00E94760261E08BE00E9476026E
:1014F000809105028F5F809305021FBF61E080919C
:10150000D2020E94760261E08091D2020E94F00134
:101510008091D3028F3F09F4B6C060E00E9476024A
:101520008091D3020E94C701892B09F0ACC061E011
:101530008091D3020E94760260E08091D3020E94E3
:10154000F00183E090E00197F1F761E08091D30230
:101550000E94F00162E370E080E090E00E94C80326
:1015600040E064E284EC92E00E94600440E066E2C5
:1015700084EC92E00E94600446E268E484EC92E02D
:101580000E94600440E864E584EC92E00E946004FC
:1015900049EA66E584EC92E00E94600443E068E575
:1015A00084EC92E00E94600448EE6AE584EC92E0EC
:1015B0000E94600440E46AE284EC92E00E946004CD
:1015C0004DE362E284EC92E00E94600468E284EC05
:1015D00092E00E944204982F9370933039F0482F84
:1015E000436068E284EC92E00E94600489EB91E041
:1015F0000E94CB0781ED91E00E94CB0781ED91E045
:101600000E94CB076FE780E00E9403036FE781E051
:101610000E9403036FE782E00E9403036FE783E009
:101620000E94030380E48093BC0280EC8093BD029F
:101630008FE88093BE0210E000E032EDE32E34E04C
:10164000F32E4AE0C42ED12C2091C0023091C10269
:10165000021713077CF5201B310B215031096FE76E
:10166000E114F10429F0C701B6010E94FA12682FB3
:10167000822F0E940303C701B6010E94FA127B0168
:101680000F5F1F4FE1CF4FE062E084EC92E00E94D9
:10169000600413E062E370E080E090E00E94C80321
:1016A00062E084EC92E00E94420484FF59CF115022
:1016B00089F756CF1092BF026CEB72E080E090E0A9
:1016C0000E94C80321EBC22E21E0D22E10E000E0E0
:1016D0008091C0029091C1020817190704F164EFCC
:1016E00071E080E090E00E94C8035801F12CE12CE9
:1016F0008091C0029091C1022FEFA21AB20AE8169F
:10170000F90694F4F501E81BF90BEF54FE4F6081E4
:101710008E2D0E9403033FEFE31AF30AE9CFD601AF
:101720006C91802F0E9403030F5F1F4FBFEFCB1AF6
:10173000DB0A0430110561F68091C0029091C1026C
:10174000081719073CF46FE7802F0E9403030F5F0F
:101750001F4FF2CF61E088E00E947602E7E1F1E0FE
:10176000FBABEAAB27E031E03DAB2CABAAA9BBA9B0
:101770006D917D91BBABAAAB88EE93E00E94FA120B
:101780007FAB6EABCB01092E000CAA0BBB0B8EA757
:101790009FA7A8ABB9ABACA9BDA92D903D90BDAB9F
:1017A000ACAB80910001883009F0A6C0E2ECF0E01B
:1017B000149117FFD4C06EA57FA588A999A90E948E
:1017C000821026E636E646EA5FE30E94E1100E94B8
:1017D000C412072E000C880B990B0E94C80388E0E6
:1017E0000E944A02A7E2B1E0EAA9FBA9AE17BF072F
:1017F00009F0BCCF8E010F5F1F4F809017029090B1
:101800001802FFEF8F16910409F00CF47EC2B401A8
:101810006F5F7109072E000C880B990B0E948210D4
:1018200020E030E04FE753E40E94521220E030E025
:1018300044EB53E40E94E1106B017C0120E030E0B6
:1018400044EB53E40E947B10811103C0C12CD12CC6
:10185000760120E030E040E752E4C701B6010E9483
:1018600052126B017C010E94C4125B01072E000C16
:10187000880B990B0E9482109B01AC01C701B60135
:101880000E94E5119B01AC0160E070E080E89FE3FD
:101890000E94E5116B017C012DEC3CEC4CE45DE316
:1018A0000E94E1102B013C01A701960160E070E06D
:1018B00080E89FE30E94E5112DEC3CEC4CE45DE3F5
:1018C0000E94E1106B017C0122E0A216B10409F430
:1018D00042C20CF020C2A114B10409F42FC2AA9490
:1018E000AB2809F43AC3312CA12CB12C212CC12CEA
:1018F000D12CE12CF12C3BC28F3F09F05CCF88E06A
:1019000080930001E2ECF0E014911F3F09F453CF03
:10191000113009F4E8C050F0123009F403C117FD8A
:101920004ACF61E088E00E9476021FC014BC15BC5B
:1019300084B5826084BD85B5816085BDE6EBF0E04D
:101940008491E82FF0E0EE0FFF1FEC55FF4F8591DB
:101950009491E8E9F0E0849180930A0210E061E05C
:1019600088E00E9476021123A1F0B12CA12C60E046
:1019700072E18AE790E0A50191010E9430136901AC
:101980007A01F1E0CF1AD108E108F108123009F02C
:1019900061C14101B12CA12C60E072E18AE790E0C5
:1019A000A50191010E94301329013A017A016901D0
:1019B00021E0C21AD108E108F1083FEFC316D104B3
:1019C000E104F10409F00CF419C160E472E48FE061
:1019D00090E0A50191010E94301369017A0181E034
:1019E000C81AD108E108F108123009F0BEC082E03F
:1019F0009FEFC916D104E104F10409F00CF46CC0A6
:101A000060E970ED83E090E0A50191010E94301340
:101A100069017A01A1E0CA1AD108E108F10883E05E
:101A2000BFEFCB16D104E104F10409F00CF454C06B
:101A300068E478EE81E090E0A50191010E94301306
:101A400069017A01B1E0CB1AD108E108F10884E01C
:101A5000EFEFCE16D104E104F104F1F1ECF164E210
:101A600074EF80E090E0A50194010E9430136901B9
:101A70007A0181E0C81AD108E108F10885E0AFEFEA
:101A8000CA16D104E104F10439F130F162E17AE7D8
:101A900080E090E0A50194010E94301369017A0171
:101AA00081E0C81AD108E108F10886E09FEFC91665
:101AB000D104E104F10481F078F0730162018AE05D
:101AC000F594E794D794C7948A95D1F781E0C81A22
:101AD000D108E108F10887E09091B100987F892B47
:101AE0008093B10092C0109280001092810080918A
:101AF0008100886080938100809181008160809363
:101B00008100E6EBF0E08491E82FF0E0EE0FFF1F9C
:101B1000EC55FF4F85919491E8E9F0E08491809332
:101B200009021DCF1092B0001092B1008091B00058
:101B300082608093B0008091B10081608093B10099
:101B4000E6EBF0E08491E82FF0E0EE0FFF1FEC559C
:101B5000FF4F859194919093080280930702E8E9E2
:101B6000F0E0849180930602FACEEFEFCE16D10416
:101B7000E104F10409F00CF46BC068E478EE81E054
:101B800090E0A50191010E94301369017A01F1E012
:101B9000CF1AD108E108F10884E0111170CF83E079
:101BA0003FEFC316D104E104F10459F154F162E1AD
:101BB0007AE780E090E0A50194010E94301369016A
:101BC0007A01F1E0CF1AD108E108F10884E02FEFA3
:101BD000C216D104E104F104A1F098F0730162018E
:101BE0009AE0F594E794D794C7949A95D1F731E0A9
:101BF000C31AD108E108F10885E003C081E01111A2
:101C00006BCF95B5987F892B85BD8EA59FA5A8A97B
:101C1000B9A92FEF3FEFA901892B8A2B8B2B09F054
:101C200042C0113009F44FC0123009F45EC01111E6
:101C3000C2CDC7BC20931302309314024093150207
:101C40005093160280916E00826080936E00B3CD37
:101C500082E0D5CFC114D10491E0E906F1048CF102
:101C600068E478EE81E090E0A50191010E943013D4
:101C700069017A01A1E0CA1AD108E108F10893E0EC
:101C8000113019F680918100887F892B8093810023
:101C90008EA59FA5A8A9B9A92FEF3FEFA901892B70
:101CA0008A2B8B2B81F09101220F331FAEA9BFA984
:101CB0000E944F1328EE33E040E050E00E940E13E4
:101CC000B0CF91E0DDCFD0928900C0928800209300
:101CD0000F02309310024093110250931202809130
:101CE0006F00826080936F0066CDC092B300209336
:101CF0000B0230930C0240930D0250930E02809120
:101D0000700082608093700056CDB401092C000CE5
:101D1000880B990B83CD94E0A916B104C1F164F14D
:101D2000B5E0AB16B10409F0DECD342CA52CB62CF1
:101D3000272CC12CD12CE12CF12C04C0312CA12C4E
:101D4000B12C212C7DEC472EECEC5E2EFCE46F2EAA
:101D5000ADE37A2E2AC0362EAD2CB82E2F2C7DEC7A
:101D6000C72EECECDE2EFCE4EF2EADE3FA2E412C78
:101D7000512C612C712C19C0620173013DEC332E82
:101D80004CECA42E5CE4B52E6DE3262EF0CF26019C
:101D90003701BDEC3B2E8CECA82E9CE4B92E2DE334
:101DA000222EC12CD12CE12CF12C20E030E04FE789
:101DB00053E4B201C3010E94E1100E94C4123B012E
:101DC0005524442420E030E04FE753E4B601C70136
:101DD0000E94E1100E94C412982F872F762F662749
:101DE000462A572A682A20E030E04FE753E4632D63
:101DF0007A2D8B2D922D0E94E1100E94C412462A4A
:101E0000572A682A662D70E086E00E944603652DF9
:101E100070E085E00E944603642D70E083E00E943C
:101E20004603C40101966EEF71E00E94FA1290938E
:101E30001802809317026AE070E080E090E00E9450
:101E4000C80384EC92E00E94E205882309F408C1EB
:101E500084EC92E00E94FB03882309F401C184ED25
:101E600091E00E94CB0763ED71E0CE0188960E945D
:101E70006408D12C8091C602D81608F07DC08D2D43
:101E800090E0FC01EC53FD4F7F018381803108F429
:101E900001C187EE91E00E94CB07D70113964C91C8
:101EA00050E070E060E019A2FE01B196DB01CA01CA
:101EB0008F709927AA27BB27A4E076956795579539
:101EC0004795AA95D1F78A300CF054C0805D829373
:101ED000411551056105710549F7309719F0CF019A
:101EE0000E94CB07D70113968C9166EB71E080318D
:101EF00010F067EE71E0C8010E946408B801CE01DD
:101F000088960E940808C8010E94D807F7018381BB
:101F10001BA21AA21DA21CA21FA21EA240E1B80170
:101F200090E00E945110F80101900020E9F73197EC
:101F3000AF01401B510BB801CE0182960E943908B7
:101F4000BE016E5D7F4FCE0188960E940808CE01CB
:101F500082960E94D807D3948DCF312CA12CB12C1E
:101F6000212C3DECC32E4CECD42E5CE4E52E6DE32D
:101F7000F62E1BCF895CABCF81ED91E00E94CB07A1
:101F80008EED91E00E94CB07E8A4F9A4E114F104DE
:101F900071F0D7018D917D01882349F0082E000C46
:101FA000990B0E945215F70131978083F2CFCCA490
:101FB000DDA4AA24A394B12CC114D10421F05601AC
:101FC000CC24C394D12C1A8219821C821B821E82BB
:101FD0001D8250E040E063ED71E0C8010E943908C5
:101FE000ECA4FDA4CE14DF0410F5AE14BF0408F475
:101FF0007501E8A5F9A5EE0DFF1DB080108268A55A
:1020000079A56C0D7D1D61157105B9F1FB0101907C
:102010000020E9F73197AF01461B570BC8010E941A
:10202000390888A599A5E80EF91EF701B082C80104
:102030000E94D80789EE91E00E94CB0781ED91E0E4
:102040000E94CB0781ED91E00E94CB0760ED77E025
:1020500080E090E00E94C803CE0188960E94D807D5
:1020600020E030E0232B09F4C8CB0E94FB0088233A
:1020700009F4C0CB0E940000BDCB89819A810097F2
:1020800011F00E940C141A8219821E821D821C8279
:102090001B82C7CF86EB91E0FECE86EB92E00C94DC
:1020A000D807BB27FB015527AA27880F991FAA1F0E
:1020B000A41710F0A41B83955051B9F7A05DAA3363
:1020C00008F0A95DA193009779F7B111B19311922E
:1020D000CB010C946B10DC01FC01672F719177230D
:1020E000E1F7329704C07C916D9370836291AE17D3
:1020F000BF07C8F308950E94BD1008F481E0089559
:10210000E89409C097FB3EF4909580957095619591
:102110007F4F8F4F9F4F9923A9F0F92F96E9BB2747
:102120009395F695879577956795B795F111F8CFC3
:10213000FAF4BB0F11F460FF1BC06F5F7F4F8F4F2E
:102140009F4F16C0882311F096E911C0772321F024
:102150009EE8872F762F05C0662371F096E8862FBC
:1021600070E060E02AF09A95660F771F881FDAF713
:10217000880F9695879597F90895990F0008550F40
:10218000AA0BE0E8FEEF16161706E807F907C0F0FD
:1021900012161306E407F50798F0621B730B840B05
:1021A000950B39F40A2661F0232B242B252B21F4DF
:1021B00008950A2609F4A140A6958FEF811D811D7F
:1021C00008950E94F4100C9465110E94571138F084
:1021D0000E945E1120F0952311F00C944E110C9486
:1021E000541111240C9499110E94761170F3959F4B
:1021F000C1F3950F50E0551F629FF001729FBB27FE
:10220000F00DB11D639FAA27F00DB11DAA1F649F99
:102210006627B00DA11D661F829F2227B00DA11D4C
:10222000621F739FB00DA11D621F839FA00D611DD2
:10223000221F749F3327A00D611D231F849F600DF3
:10224000211D822F762F6A2F11249F5750409AF01C
:10225000F1F088234AF0EE0FFF1FBB1F661F771FA8
:10226000881F91505040A9F79E3F510580F00C9473
:102270004E110C9499115F3FE4F3983ED4F3869588
:1022800077956795B795F795E7959F5FC1F7FE2B13
:10229000880F911D9695879597F9089597F99F67EF
:1022A00080E870E060E008959FEF80EC08950024DE
:1022B0000A941616170618060906089500240A94AB
:1022C00012161306140605060895092E0394000C31
:1022D00011F4882352F0BB0F40F4BF2B11F460FFC0
:1022E00004C06F5F7F4F8F4F9F4F089557FD9058E9
:1022F000440F551F59F05F3F71F04795880F97FBCA
:10230000991F61F09F3F79F0879508951216130683
:102310001406551FF2CF4695F1DF08C016161706B2
:102320001806991FF1CF86957105610508940895E7
:10233000E894BB2766277727CB0197F908952F925A
:102340003F924F925F926F927F928F929F92AF9245
:10235000BF92CF92DF92EF92FF920F931F93CF9392
:10236000DF93CDB7DEB7CA1BDB0B0FB6F894DEBF29
:102370000FBECDBF09942A88398848885F846E844F
:102380007D848C849B84AA84B984C884DF80EE8099
:10239000FD800C811B81AA81B981CE0FD11D0FB6A2
:1023A000F894DEBF0FBECDBFED010895A29FB0012E
:1023B000B39FC001A39F700D811D1124911DB29F79
:1023C000700D811D1124911D08955058BB27AA2717
:1023D0000E94FD110C9465110E94571138F00E9463
:1023E0005E1120F039F49F3F19F426F40C94541137
:1023F0000EF4E095E7FB0C944E11E92F0E94761144
:1024000058F3BA17620773078407950720F079F429
:10241000A6F50C9498110EF4E0950B2EBA2FA02D72
:102420000B01B90190010C01CA01A0011124FF2781
:10243000591B99F0593F50F4503E68F11A16F0407C
:10244000A22F232F342F4427585FF3CF469537957B
:102450002795A795F0405395C9F77EF41F16BA0B40
:10246000620B730B840BBAF09150A1F0FF0FBB1FEE
:10247000661F771F881FC2F70EC0BA0F621F731F37
:10248000841F48F4879577956795B795F7959E3F94
:1024900008F0B0CF9395880F08F09927EE0F979525
:1024A000879508950E9466120C9465110E945E1132
:1024B00058F00E94571140F029F45F3F29F00C9426
:1024C0004E1151110C9499110C9454110E947611D3
:1024D00068F39923B1F3552391F3951B550BBB2753
:1024E000AA2762177307840738F09F5F5F4F220F98
:1024F000331F441FAA1FA9F335D00E2E3AF0E0E88F
:1025000032D091505040E695001CCAF72BD0FE2FD8
:1025100029D0660F771F881FBB1F2617370748076C
:10252000AB07B0E809F0BB0B802DBF01FF27935824
:102530005F4F3AF09E3F510578F00C944E110C9489
:1025400099115F3FE4F3983ED4F3869577956795AC
:10255000B795F7959F5FC9F7880F911D9695879559
:1025600097F90895E1E0660F771F881FBB1F621778
:1025700073078407BA0720F0621B730B840BBA0B36
:10258000EE1F88F7E09508950E94CB126894B11170
:102590000C94991108950E947E1188F09F5798F02D
:1025A000B92F9927B751B0F0E1F0660F771F881F58
:1025B000991F1AF0BA95C9F714C0B13091F00E9472
:1025C0009811B1E008950C949811672F782F8827FF
:1025D000B85F39F0B93FCCF3869577956795B39599
:1025E000D9F73EF490958095709561957F4F8F4F08
:1025F0009F4F089597FB072E16F4009407D077FDA0
:1026000009D00E94561307FC05D03EF490958195A1
:102610009F4F0895709561957F4F0895A1E21A2EFE
:10262000AA1BBB1BFD010DC0AA1FBB1FEE1FFF1F76
:10263000A217B307E407F50720F0A21BB30BE40BC6
:10264000F50B661F771F881F991F1A9469F760950D
:102650007095809590959B01AC01BD01CF010895C7
:10266000052E97FB1EF400940E94471357FD07D0D8
:102670000E940E1307FC03D04EF40C9447135095A0
:102680004095309521953F4F4F4F5F4F089590955E
:102690008095709561957F4F8F4F9F4F08950E9451
:1026A000D611B7FF0895821B930B0895AA1BBB1B7D
:1026B00051E107C0AA1FBB1FA617B70710F0A61B42
:1026C000B70B881F991F5A95A9F780959095BC0163
:1026D000CD010895EE0FFF1F0590F491E02D0994B0
:1026E0000F931F93CF93DF938230910510F482E014
:1026F00090E0E091D602F091D70230E020E0B0E027
:10270000A0E0309799F42115310509F44AC0281B3F
:10271000390B24303105D8F58A819B81611571050B
:1027200089F1FB0193838283FE0111C040815181B5
:102730000281138148175907E0F04817590799F4A7
:10274000109761F012960C93129713961C93329681
:10275000CF01DF91CF911F910F9108950093D60281
:102760001093D702F4CF2115310551F042175307CA
:1027700038F0A901DB019A01BD01DF01F801C1CFE9
:10278000EF01F9CF9093D7028093D602CDCFFE010F
:10279000E20FF31F819391932250310939832883EB
:1027A000D7CF2091D4023091D502232B41F4209130
:1027B0000301309104013093D5022093D40220917B
:1027C0000101309102012115310541F42DB73EB7C9
:1027D0004091050150910601241B350BE091D40274
:1027E000F091D502E217F307A0F42E1B3F0B281738
:1027F000390778F0AC014E5F5F4F2417350748F07A
:102800004E0F5F1F5093D5024093D4028193919352
:102810009FCFF0E0E0E09CCFCF93DF930097E9F00B
:10282000FC01329713821282A091D602B091D70296
:10283000ED0130E020E01097A1F420813181820F7A
:10284000931F2091D4023091D5022817390709F03F
:1028500061C0F093D502E093D402DF91CF91089547
:10286000EA01CE17DF07E8F54A815B819E01411539
:102870005105B1F7E901FB83EA8349915991C40FEE
:10288000D51FEC17FD0761F4808191810296840FBA
:10289000951FE90199838883828193819B838A8331
:1028A000F0E0E0E012968D919C9113970097B9F5B6
:1028B0002D913C911197CD010296820F931F20918B
:1028C000D4023091D5022817390739F6309751F5DF
:1028D0001092D7021092D602B093D502A093D402E0
:1028E000BCCFD383C28340815181840F951FC81709
:1028F000D90761F44E5F5F4F88819981480F591F56
:10290000518340838A819B81938382832115310582
:1029100009F0B0CFF093D702E093D6029ECFFD012D
:10292000DC01C0CF13821282D7CFB0E0A0E0EBE988
:10293000F4E10C94A1118C01009751F4CB010E9499
:1029400070138C01C801CDB7DEB7E0E10C94BD1166
:10295000FC01E60FF71F9C0122503109E217F30733
:1029600008F49DC0D901CD91DC911197C617D70706
:1029700098F0C530D10530F3CE010497861797073C
:1029800008F3C61BD70B2297C193D1936D937C9309
:10299000CF010E940C14D6CF5B01AC1ABD0A4C01CA
:1029A0008C0E9D1EA091D602B091D702512C412CC5
:1029B000F12CE12C109731F58091D4029091D50241
:1029C0008815990509F05CC04616570608F058C0EE
:1029D0008091010190910201009741F48DB79EB75B
:1029E0004091050150910601841B950BE817F907EA
:1029F00008F055C0F093D502E093D402F901718339
:102A00006083A0CF8D919C91119712966C90129734
:102A100013967C901397A815B90559F56C0142E0FF
:102A2000C40ED11CCA14DB0420F1AC014A195B09A5
:102A3000DA011296159780F0628273825183408387
:102A4000D9016D937C93E114F10471F0D7011396D1
:102A5000FC93EE93129776CF22968C0F9D1FF9016F
:102A600091838083F301EFCFF093D702E093D602F6
:102A700069CF4816590608F42C017D01D3019ACF7D
:102A8000CB010E9470137C01009749F0AE01B801A0
:102A90000E945A15C8010E940C14870153CF10E000
:102AA00000E050CF9111089581568A5108F4805268
:102AB00085580895FB01DC0102C001900D92415040
:102AC0005040D8F70895FB01DC0101900D920020E1
:102AD000E1F7089510E0C3E6D0E004C0FE010E94D3
:0E2AE0006A132196C436D107C9F7F894FFCFC8
:102AEE00FF0000D80280000601C400C400DC00C450
:102AFE00000000F7000601040008000800040004AE
:102B0E0000040004000400000000000000000000AB
:102B1E000063000040000000000000000000000004
:102B2E000000000000000000777C395E7971357678
:102B3E00061E753837545C737B506D781C3E7E765E
:102B4E006E1B0000000108005F7C585E79713574C1
:102B5E000416753837545C7367506D781C3E2A76B0
:102B6E006E1B3F065B4F666D7D077F6F777C395E10
:102B7E0079710000000031019100BE007E01EF006E
:102B8E00CD00E100000000004506E205FB034F4EBC
:102B9E00004C494E4B0020300057616974696E67D6
:102BAE0020666F722074686520636172642E2E2E0B
:102BBE00000D0A0055494420746167203A004D65A6
:102BCE007373616765203A2000417574686F72698E
:0C2BDE007A656420616363657373000016
:00000001FF
